{
  "_format": "hh-sol-artifact-1",
  "contractName": "Marketplace",
  "sourceName": "contracts/marketplace.sol",
  "abi": [
    {
      "inputs": [
        {
          "internalType": "address",
          "name": "_platformWallet",
          "type": "address"
        }
      ],
      "stateMutability": "nonpayable",
      "type": "constructor"
    },
    {
      "inputs": [
        {
          "internalType": "address",
          "name": "owner",
          "type": "address"
        }
      ],
      "name": "OwnableInvalidOwner",
      "type": "error"
    },
    {
      "inputs": [
        {
          "internalType": "address",
          "name": "account",
          "type": "address"
        }
      ],
      "name": "OwnableUnauthorizedAccount",
      "type": "error"
    },
    {
      "inputs": [],
      "name": "ReentrancyGuardReentrantCall",
      "type": "error"
    },
    {
      "anonymous": false,
      "inputs": [
        {
          "indexed": true,
          "internalType": "address",
          "name": "previousOwner",
          "type": "address"
        },
        {
          "indexed": true,
          "internalType": "address",
          "name": "newOwner",
          "type": "address"
        }
      ],
      "name": "OwnershipTransferred",
      "type": "event"
    },
    {
      "anonymous": false,
      "inputs": [
        {
          "indexed": true,
          "internalType": "uint256",
          "name": "listingId",
          "type": "uint256"
        }
      ],
      "name": "TicketCancelled",
      "type": "event"
    },
    {
      "anonymous": false,
      "inputs": [
        {
          "indexed": true,
          "internalType": "string",
          "name": "eventId",
          "type": "string"
        },
        {
          "indexed": false,
          "internalType": "string",
          "name": "zone",
          "type": "string"
        },
        {
          "indexed": true,
          "internalType": "uint256",
          "name": "listingId",
          "type": "uint256"
        },
        {
          "indexed": true,
          "internalType": "address",
          "name": "seller",
          "type": "address"
        },
        {
          "indexed": false,
          "internalType": "address",
          "name": "eventAddress",
          "type": "address"
        },
        {
          "indexed": false,
          "internalType": "uint256",
          "name": "tokenId",
          "type": "uint256"
        },
        {
          "indexed": false,
          "internalType": "uint256",
          "name": "price",
          "type": "uint256"
        }
      ],
      "name": "TicketListed",
      "type": "event"
    },
    {
      "anonymous": false,
      "inputs": [
        {
          "indexed": true,
          "internalType": "string",
          "name": "eventId",
          "type": "string"
        },
        {
          "indexed": false,
          "internalType": "string",
          "name": "zone",
          "type": "string"
        },
        {
          "indexed": true,
          "internalType": "uint256",
          "name": "listingId",
          "type": "uint256"
        },
        {
          "indexed": true,
          "internalType": "address",
          "name": "buyer",
          "type": "address"
        },
        {
          "indexed": false,
          "internalType": "address",
          "name": "eventAddress",
          "type": "address"
        },
        {
          "indexed": false,
          "internalType": "uint256",
          "name": "tokenId",
          "type": "uint256"
        },
        {
          "indexed": false,
          "internalType": "uint256",
          "name": "price",
          "type": "uint256"
        }
      ],
      "name": "TicketSold",
      "type": "event"
    },
    {
      "inputs": [
        {
          "internalType": "uint256",
          "name": "listingId",
          "type": "uint256"
        }
      ],
      "name": "buyTicket",
      "outputs": [],
      "stateMutability": "payable",
      "type": "function"
    },
    {
      "inputs": [
        {
          "internalType": "uint256",
          "name": "listingId",
          "type": "uint256"
        }
      ],
      "name": "cancelListing",
      "outputs": [],
      "stateMutability": "nonpayable",
      "type": "function"
    },
    {
      "inputs": [],
      "name": "getAllListings",
      "outputs": [
        {
          "components": [
            {
              "internalType": "string",
              "name": "eventId",
              "type": "string"
            },
            {
              "internalType": "string",
              "name": "zone",
              "type": "string"
            },
            {
              "internalType": "address",
              "name": "seller",
              "type": "address"
            },
            {
              "internalType": "address",
              "name": "eventAddress",
              "type": "address"
            },
            {
              "internalType": "uint256",
              "name": "tokenId",
              "type": "uint256"
            },
            {
              "internalType": "uint256",
              "name": "price",
              "type": "uint256"
            },
            {
              "internalType": "bool",
              "name": "isActive",
              "type": "bool"
            }
          ],
          "internalType": "struct Marketplace.Listing[]",
          "name": "",
          "type": "tuple[]"
        }
      ],
      "stateMutability": "view",
      "type": "function"
    },
    {
      "inputs": [
        {
          "internalType": "uint256",
          "name": "listingId",
          "type": "uint256"
        }
      ],
      "name": "getListing",
      "outputs": [
        {
          "internalType": "string",
          "name": "eventId",
          "type": "string"
        },
        {
          "internalType": "string",
          "name": "zone",
          "type": "string"
        },
        {
          "internalType": "address",
          "name": "seller",
          "type": "address"
        },
        {
          "internalType": "address",
          "name": "nftAddress",
          "type": "address"
        },
        {
          "internalType": "uint256",
          "name": "tokenId",
          "type": "uint256"
        },
        {
          "internalType": "uint256",
          "name": "price",
          "type": "uint256"
        },
        {
          "internalType": "bool",
          "name": "isActive",
          "type": "bool"
        }
      ],
      "stateMutability": "view",
      "type": "function"
    },
    {
      "inputs": [
        {
          "internalType": "address",
          "name": "",
          "type": "address"
        },
        {
          "internalType": "uint256",
          "name": "",
          "type": "uint256"
        }
      ],
      "name": "isListed",
      "outputs": [
        {
          "internalType": "bool",
          "name": "",
          "type": "bool"
        }
      ],
      "stateMutability": "view",
      "type": "function"
    },
    {
      "inputs": [
        {
          "internalType": "string",
          "name": "_eventId",
          "type": "string"
        },
        {
          "internalType": "string",
          "name": "_zone",
          "type": "string"
        },
        {
          "internalType": "address",
          "name": "_eventAddress",
          "type": "address"
        },
        {
          "internalType": "uint256",
          "name": "_tokenId",
          "type": "uint256"
        },
        {
          "internalType": "uint256",
          "name": "_price",
          "type": "uint256"
        }
      ],
      "name": "listTicket",
      "outputs": [],
      "stateMutability": "nonpayable",
      "type": "function"
    },
    {
      "inputs": [],
      "name": "listingCount",
      "outputs": [
        {
          "internalType": "uint256",
          "name": "",
          "type": "uint256"
        }
      ],
      "stateMutability": "view",
      "type": "function"
    },
    {
      "inputs": [
        {
          "internalType": "uint256",
          "name": "",
          "type": "uint256"
        }
      ],
      "name": "listings",
      "outputs": [
        {
          "internalType": "string",
          "name": "eventId",
          "type": "string"
        },
        {
          "internalType": "string",
          "name": "zone",
          "type": "string"
        },
        {
          "internalType": "address",
          "name": "seller",
          "type": "address"
        },
        {
          "internalType": "address",
          "name": "eventAddress",
          "type": "address"
        },
        {
          "internalType": "uint256",
          "name": "tokenId",
          "type": "uint256"
        },
        {
          "internalType": "uint256",
          "name": "price",
          "type": "uint256"
        },
        {
          "internalType": "bool",
          "name": "isActive",
          "type": "bool"
        }
      ],
      "stateMutability": "view",
      "type": "function"
    },
    {
      "inputs": [],
      "name": "owner",
      "outputs": [
        {
          "internalType": "address",
          "name": "",
          "type": "address"
        }
      ],
      "stateMutability": "view",
      "type": "function"
    },
    {
      "inputs": [],
      "name": "platformFeePercent",
      "outputs": [
        {
          "internalType": "uint256",
          "name": "",
          "type": "uint256"
        }
      ],
      "stateMutability": "view",
      "type": "function"
    },
    {
      "inputs": [],
      "name": "platformWallet",
      "outputs": [
        {
          "internalType": "address",
          "name": "",
          "type": "address"
        }
      ],
      "stateMutability": "view",
      "type": "function"
    },
    {
      "inputs": [],
      "name": "renounceOwnership",
      "outputs": [],
      "stateMutability": "nonpayable",
      "type": "function"
    },
    {
      "inputs": [
        {
          "internalType": "uint256",
          "name": "newFeePercent",
          "type": "uint256"
        }
      ],
      "name": "setPlatformFee",
      "outputs": [],
      "stateMutability": "nonpayable",
      "type": "function"
    },
    {
      "inputs": [
        {
          "internalType": "address",
          "name": "newWallet",
          "type": "address"
        }
      ],
      "name": "setPlatformWallet",
      "outputs": [],
      "stateMutability": "nonpayable",
      "type": "function"
    },
    {
      "inputs": [
        {
          "internalType": "address",
          "name": "newOwner",
          "type": "address"
        }
      ],
      "name": "transferOwnership",
      "outputs": [],
      "stateMutability": "nonpayable",
      "type": "function"
    },
    {
      "inputs": [],
      "name": "vault",
      "outputs": [
        {
          "internalType": "contract Vault",
          "name": "",
          "type": "address"
        }
      ],
      "stateMutability": "view",
      "type": "function"
    }
  ],
  "bytecode": "0x60803460d957601f61179838819003918201601f19168301916001600160401b0383118484101760de5780849260209460405283398101031260d957516001600160a01b0381169081900360d957331560c35760008054336001600160a01b0319821681178355604051939290916001600160a01b0316907f8be0079c531659141344cd1fd0a4f28419497f9722a3daafe3b4186f6b6457e09080a36001805560058055600480546001600160a01b0319169190911790556116a390816100f58239f35b631e4fbdf760e01b600052600060045260246000fd5b600080fd5b634e487b7160e01b600052604160045260246000fdfe6080604052600436101561001257600080fd5b6000803560e01c8063107a274a146111e957806312e8e2c31461118a578063305a67a8146110b057806367dd74ca14610c0b578063715018a614610bb15780638831e9cf14610b6c5780638c639a8514610b4e5780638da5cb5b14610b27578063a9b07c2614610b09578063ae1394171461043b578063ae73ccec14610286578063cdb3cd251461023d578063de74e57b146101a7578063f2fde38b14610121578063fa2af9da146100f85763fbfa77cf146100cd57600080fd5b346100f557806003193601126100f5576002546040516001600160a01b039091168152602090f35b80fd5b50346100f557806003193601126100f5576004546040516001600160a01b039091168152602090f35b50346100f55760203660031901126100f55761013b6112f3565b610143611644565b6001600160a01b031680156101935781546001600160a01b03198116821783556001600160a01b03167f8be0079c531659141344cd1fd0a4f28419497f9722a3daafe3b4186f6b6457e08380a380f35b631e4fbdf760e01b82526004829052602482fd5b50346100f55760203660031901126100f55760409060043581526006602052206040516101df816101d881856113ec565b038261133f565b610239604051926101fe846101f781600185016113ec565b038561133f565b60018060a01b036002820154169060018060a01b0360038201541660048201549060ff6006600585015494015416936040519788978861129e565b0390f35b50346100f55760403660031901126100f55760209060ff906040906001600160a01b036102686112f3565b16815260078452818120602435825284522054166040519015158152f35b50346100f557806003193601126100f5576003546102a381611603565b906102b1604051928361133f565b808252601f196102c082611603565b01835b8181106103f857505060015b8181111561039e5782846040519182916020830160208452825180915260408401602060408360051b870101940192905b82821061030f57505050500390f35b919360019193955060208091603f1989820301855287519060c080610350610340855160e0865260e0860190611279565b8686015185820388870152611279565b93878060a01b036040820151166040850152878060a01b0360608201511660608501526080810151608085015260a081015160a0850152015115159101529601920192018594939192610300565b8084526006602052604084206000198201908282116103e4576103df92916103c86103d99261146f565b6103d2828861161a565b528561161a565b506115f4565b6102cf565b634e487b7160e01b86526011600452602486fd5b6020906040516104078161130e565b606081526060838201528660408201528660608201528660808201528660a08201528660c0820152828287010152016102c3565b50346100f55760a03660031901126100f5576004356001600160401b038111610b055736602382011215610b055761047d90369060248160040135910161137b565b602435906001600160401b038211610b015736602383011215610b01578160040135916001600160401b038311610afd5760248101906024843692010111610afd576044356001600160a01b0381169190829003610af9576084356064358115610ac4576040516331a9108f60e11b815260048101829052602081602481885afa908115610a10578891610a8a575b50336001600160a01b0390911603610a555760405163020604bf60e21b815260048101829052602081602481885afa908115610a10578891610a1b575b506001600160a01b03163014801561099a575b1561095a5761056c6003546115f4565b8060035584885260076020526040882082895260205260ff6040892054166109245760405161059a8161130e565b868152886105a9368a8861137b565b602083019081526040830133815260608401908982526080850192878452604060a08701958a875260c088019860018a528152600660205220955180516001600160401b03811161087c578f6105ff89546113b2565b601f81116108f4575b50602090601f8311600114610891579061063793836107a6575b50508160011b916000199060031b1c19161790565b86555b51805160018701916001600160401b03821161087c578f9061065c84546113b2565b601f8111610841575b50602091601f84116001146107b15792806006999795937fc8a576d18b8f5389725b1b96d894dfd2ae76bb58444105ddf3252449a80867059f9e9d9c9b999795936106c494926107a65750508160011b916000199060031b1c19161790565b90555b516002850180546001600160a01b03199081166001600160a01b03938416179091559151600380870180549094169190921617909155905160048401559051600583015592519101805460ff9215159290921660ff19928316179055868a52600760209081526040808c20858d528252808c20805490931660011790925591549051885191989092839291610760918391859101611256565b81010390209487604051946080865281608087015260a08601378860a0898601015260208401526040830152606082015260a0813396601f80199101168101030190a480f35b015190503880610622565b9190601f198416858452828420935b8181106108295750926001927fc8a576d18b8f5389725b1b96d894dfd2ae76bb58444105ddf3252449a80867059f9e9d9c9b999795928360069c9a989610610810575b505050811b0190556106c7565b015160001960f88460031b161c19169055388080610803565b929360206001819287860151815501950193016107c0565b61086c9085845260208420601f860160051c81019160208710610872575b601f0160051c0190611527565b38610665565b909150819061085f565b50634e487b7160e01b8f52604160045260248ffd5b9192601f1984168a8452828420935b8181106108dc57509084600195949392106108c3575b505050811b01865561063a565b015160001960f88460031b161c191690553880806108b6565b929360206001819287860151815501950193016108a0565b61091e908a835260208320601f850160051c8101916020861061087257601f0160051c0190611527565b38610608565b60405162461bcd60e51b815260206004820152600e60248201526d105b1c9958591e481b1a5cdd195960921b6044820152606490fd5b60405162461bcd60e51b815260206004820152601860248201527713585c9ad95d1c1b1858d9481b9bdd08185c1c1c9bdd995960421b6044820152606490fd5b5060405163e985e9c560e01b8152336004820152306024820152602081604481885afa908115610a105788916109d1575b5061055c565b90506020813d602011610a08575b816109ec6020938361133f565b81010312610a0457518015158103610a0457386109cb565b8780fd5b3d91506109df565b6040513d8a823e3d90fd5b90506020813d602011610a4d575b81610a366020938361133f565b81010312610a0457610a479061158d565b38610549565b3d9150610a29565b60405162461bcd60e51b815260206004820152600d60248201526c2737ba1027232a1027bbb732b960991b6044820152606490fd5b90506020813d602011610abc575b81610aa56020938361133f565b81010312610a0457610ab69061158d565b3861050c565b3d9150610a98565b60405162461bcd60e51b815260206004820152600d60248201526c496e76616c696420507269636560981b6044820152606490fd5b8480fd5b8380fd5b8280fd5b5080fd5b50346100f557806003193601126100f5576020600354604051908152f35b50346100f557806003193601126100f557546040516001600160a01b039091168152602090f35b50346100f557806003193601126100f5576020600554604051908152f35b50346100f55760203660031901126100f557610b866112f3565b610b8e611644565b600480546001600160a01b0319166001600160a01b039290921691909117905580f35b50346100f557806003193601126100f557610bca611644565b80546001600160a01b03198116825581906001600160a01b03167f8be0079c531659141344cd1fd0a4f28419497f9722a3daafe3b4186f6b6457e08280a380f35b5060203660031901126100f5576004356002600154146110a157600260015580825260066020526040822090600282019160018060a01b03835416331461105c5760068101805490610c5f60ff83166114ee565b6005830191825434036110295760ff19169055600382019060018060a01b038254168652600760205260408620946004840195865488526020526040872060ff198154169055848752600660205286600660408220610cbd8161153e565b610cc96001820161153e565b826002820155826003820155826004820155826005820155015560018060a01b03835416908654916040519263152a902d60e11b8452806004850152346024850152604084604481855afa92831561101e578a948b94610fd8575b50600554803402903482041434151715610fc45760649004958b610d5186610d4c8a346115a1565b6115a1565b9360018060a01b0360025416925490833b15610b0157608490836040519586948593632b4f618b60e11b85528b6004860152602485015233604485015260648401525af18015610fb957610f9f575b5080548a548c95949392916001600160a01b031690843b15610f9b5760648792836040519788948593632142170760e11b8552600485015233602485015260448401525af1928315610f90578593610f75575b50928280808080808080809b99819a60018060a01b039054165af19a610e176115c4565b506004546001600160a01b03165af195610e2f6115c4565b506001600160a01b03165af190610e446115c4565b5082610f6d575b5081610f65575b5015610f2f5760018060a01b03905416925490604051858254610e74816113b2565b9060018116908115610f1a5750600114610ee9575b5090807f55d7aa553060340dff311ee24bd2143f49377055bb5fe6e94892b739214e71f2939203902092610ecb604051926080845260016080850191016113ec565b95602083015260408201523460608201528033950390a46001805580f35b90508287526020872087905b828210610f06575050810181610e89565b600181602092548487015201910190610ef5565b60ff1916845250801515028201905081610e89565b60405162461bcd60e51b815260206004820152600e60248201526d14185e5b595b9d0819985a5b195960921b6044820152606490fd5b905038610e52565b915038610e4b565b83610f83919492939461133f565b610afd5790839138610df3565b6040513d87823e3d90fd5b8680fd5b8b610faf919c929594939c61133f565b9990919238610da0565b6040513d8e823e3d90fd5b634e487b7160e01b8c52601160045260248cfd5b945092506040843d604011611016575b81610ff56040938361133f565b810103126110125760206110088561158d565b9401519238610d24565b8980fd5b3d9150610fe8565b6040513d8c823e3d90fd5b60405162461bcd60e51b815260206004820152600b60248201526a57726f6e6720507269636560a81b6044820152606490fd5b60405162461bcd60e51b815260206004820152601b60248201527f43616e6e6f742062757920796f7572206f776e206c697374696e6700000000006044820152606490fd5b633ee5aeb560e01b8252600482fd5b50346100f55760203660031901126100f5576004358082526006602052604082206006810180546110e360ff82166114ee565b60028301546001600160a01b031633036111525760ff1916905560018060a01b036003820154168352600760205260046040842091015483526020526040822060ff1981541690557f90a5808be5f77b4a2e0aa0389f433983252aabf738204c5c421fc59e5ecdaeea8280a280f35b60405162461bcd60e51b815260206004820152601060248201526f4e6f7420796f7572206c697374696e6760801b6044820152606490fd5b50346100f55760203660031901126100f5576004356111a7611644565b600a81116111b55760055580f35b60405162461bcd60e51b815260206004820152600c60248201526b08ccaca40e8dede40d0d2ced60a31b6044820152606490fd5b50346100f55760203660031901126100f557604061121191600435815260066020522061146f565b805161023960208301519260018060a01b036040820151169060018060a01b0360608201511660808201519060c060a08401519301511515936040519788978861129e565b60005b8381106112695750506000910152565b8181015183820152602001611259565b9060209161129281518092818552858086019101611256565b601f01601f1916010190565b95929796939060c095926112bd6112cb9260e08a5260e08a0190611279565b9088820360208a0152611279565b6001600160a01b03988916604088015297166060860152608085015260a08401521515910152565b600435906001600160a01b038216820361130957565b600080fd5b60e081019081106001600160401b0382111761132957604052565b634e487b7160e01b600052604160045260246000fd5b90601f801991011681019081106001600160401b0382111761132957604052565b6001600160401b03811161132957601f01601f191660200190565b92919261138782611360565b91611395604051938461133f565b829481845281830111611309578281602093846000960137010152565b90600182811c921680156113e2575b60208310146113cc57565b634e487b7160e01b600052602260045260246000fd5b91607f16916113c1565b600092918154916113fc836113b2565b8083529260018116908115611452575060011461141857505050565b60009081526020812093945091925b838310611438575060209250010190565b600181602092949394548385870101520191019190611427565b915050602093945060ff929192191683830152151560051b010190565b9060405161147c8161130e565b60c060ff60068395604051611495816101d881856113ec565b85526040516114ab816101d881600186016113ec565b602086015260028101546001600160a01b039081166040870152600382015416606086015260048101546080860152600581015460a08601520154161515910152565b156114f557565b60405162461bcd60e51b815260206004820152600a6024820152694e6f742041637469766560b01b6044820152606490fd5b818110611532575050565b60008155600101611527565b61154881546113b2565b9081611552575050565b81601f60009311600114611564575055565b8183526020832061158091601f0160051c810190600101611527565b8082528160208120915555565b51906001600160a01b038216820361130957565b919082039182116115ae57565b634e487b7160e01b600052601160045260246000fd5b3d156115ef573d906115d582611360565b916115e3604051938461133f565b82523d6000602084013e565b606090565b60001981146115ae5760010190565b6001600160401b0381116113295760051b60200190565b805182101561162e5760209160051b010190565b634e487b7160e01b600052603260045260246000fd5b6000546001600160a01b0316330361165857565b63118cdaa760e01b6000523360045260246000fdfea26469706673582212208178bdff4036020cc5f7f2072c858cc039371dcc31784fdcf18a0ff539ff712a64736f6c634300081c0033",
  "linkReferences": {},
  "deployedLinkReferences": {}
}