{
  "_format": "hh-sol-artifact-1",
  "contractName": "Marketplace",
  "sourceName": "contracts/marketplace.sol",
  "abi": [
    {
      "inputs": [
        {
          "internalType": "address",
          "name": "_platformWallet",
          "type": "address"
        }
      ],
      "stateMutability": "nonpayable",
      "type": "constructor"
    },
    {
      "inputs": [
        {
          "internalType": "address",
          "name": "owner",
          "type": "address"
        }
      ],
      "name": "OwnableInvalidOwner",
      "type": "error"
    },
    {
      "inputs": [
        {
          "internalType": "address",
          "name": "account",
          "type": "address"
        }
      ],
      "name": "OwnableUnauthorizedAccount",
      "type": "error"
    },
    {
      "anonymous": false,
      "inputs": [
        {
          "indexed": true,
          "internalType": "address",
          "name": "previousOwner",
          "type": "address"
        },
        {
          "indexed": true,
          "internalType": "address",
          "name": "newOwner",
          "type": "address"
        }
      ],
      "name": "OwnershipTransferred",
      "type": "event"
    },
    {
      "anonymous": false,
      "inputs": [
        {
          "indexed": true,
          "internalType": "uint256",
          "name": "listingId",
          "type": "uint256"
        }
      ],
      "name": "TicketCancelled",
      "type": "event"
    },
    {
      "anonymous": false,
      "inputs": [
        {
          "indexed": true,
          "internalType": "uint256",
          "name": "eventId",
          "type": "uint256"
        },
        {
          "indexed": false,
          "internalType": "string",
          "name": "zone",
          "type": "string"
        },
        {
          "indexed": true,
          "internalType": "uint256",
          "name": "listingId",
          "type": "uint256"
        },
        {
          "indexed": true,
          "internalType": "address",
          "name": "seller",
          "type": "address"
        },
        {
          "indexed": false,
          "internalType": "address",
          "name": "nftAddress",
          "type": "address"
        },
        {
          "indexed": false,
          "internalType": "uint256",
          "name": "tokenId",
          "type": "uint256"
        },
        {
          "indexed": false,
          "internalType": "uint256",
          "name": "price",
          "type": "uint256"
        }
      ],
      "name": "TicketListed",
      "type": "event"
    },
    {
      "anonymous": false,
      "inputs": [
        {
          "indexed": true,
          "internalType": "uint256",
          "name": "eventId",
          "type": "uint256"
        },
        {
          "indexed": false,
          "internalType": "string",
          "name": "zone",
          "type": "string"
        },
        {
          "indexed": true,
          "internalType": "uint256",
          "name": "listingId",
          "type": "uint256"
        },
        {
          "indexed": true,
          "internalType": "address",
          "name": "buyer",
          "type": "address"
        },
        {
          "indexed": false,
          "internalType": "address",
          "name": "nftAddress",
          "type": "address"
        },
        {
          "indexed": false,
          "internalType": "uint256",
          "name": "tokenId",
          "type": "uint256"
        },
        {
          "indexed": false,
          "internalType": "uint256",
          "name": "price",
          "type": "uint256"
        }
      ],
      "name": "TicketSold",
      "type": "event"
    },
    {
      "inputs": [
        {
          "internalType": "uint256",
          "name": "listingId",
          "type": "uint256"
        }
      ],
      "name": "buyTicket",
      "outputs": [],
      "stateMutability": "payable",
      "type": "function"
    },
    {
      "inputs": [
        {
          "internalType": "uint256",
          "name": "listingId",
          "type": "uint256"
        }
      ],
      "name": "cancelListing",
      "outputs": [],
      "stateMutability": "nonpayable",
      "type": "function"
    },
    {
      "inputs": [
        {
          "internalType": "uint256",
          "name": "listingId",
          "type": "uint256"
        }
      ],
      "name": "getListing",
      "outputs": [
        {
          "internalType": "uint256",
          "name": "eventId",
          "type": "uint256"
        },
        {
          "internalType": "string",
          "name": "zone",
          "type": "string"
        },
        {
          "internalType": "address",
          "name": "seller",
          "type": "address"
        },
        {
          "internalType": "address",
          "name": "nftAddress",
          "type": "address"
        },
        {
          "internalType": "uint256",
          "name": "tokenId",
          "type": "uint256"
        },
        {
          "internalType": "uint256",
          "name": "price",
          "type": "uint256"
        },
        {
          "internalType": "bool",
          "name": "isActive",
          "type": "bool"
        }
      ],
      "stateMutability": "view",
      "type": "function"
    },
    {
      "inputs": [
        {
          "internalType": "uint256",
          "name": "_eventId",
          "type": "uint256"
        },
        {
          "internalType": "string",
          "name": "_zone",
          "type": "string"
        },
        {
          "internalType": "address",
          "name": "_nftAddress",
          "type": "address"
        },
        {
          "internalType": "uint256",
          "name": "_tokenId",
          "type": "uint256"
        },
        {
          "internalType": "uint256",
          "name": "_price",
          "type": "uint256"
        }
      ],
      "name": "listTicket",
      "outputs": [],
      "stateMutability": "nonpayable",
      "type": "function"
    },
    {
      "inputs": [],
      "name": "listingCount",
      "outputs": [
        {
          "internalType": "uint256",
          "name": "",
          "type": "uint256"
        }
      ],
      "stateMutability": "view",
      "type": "function"
    },
    {
      "inputs": [
        {
          "internalType": "uint256",
          "name": "",
          "type": "uint256"
        }
      ],
      "name": "listings",
      "outputs": [
        {
          "internalType": "uint256",
          "name": "eventId",
          "type": "uint256"
        },
        {
          "internalType": "string",
          "name": "zone",
          "type": "string"
        },
        {
          "internalType": "address",
          "name": "seller",
          "type": "address"
        },
        {
          "internalType": "address",
          "name": "nftAddress",
          "type": "address"
        },
        {
          "internalType": "uint256",
          "name": "tokenId",
          "type": "uint256"
        },
        {
          "internalType": "uint256",
          "name": "price",
          "type": "uint256"
        },
        {
          "internalType": "bool",
          "name": "isActive",
          "type": "bool"
        }
      ],
      "stateMutability": "view",
      "type": "function"
    },
    {
      "inputs": [],
      "name": "owner",
      "outputs": [
        {
          "internalType": "address",
          "name": "",
          "type": "address"
        }
      ],
      "stateMutability": "view",
      "type": "function"
    },
    {
      "inputs": [],
      "name": "platformFeePercent",
      "outputs": [
        {
          "internalType": "uint256",
          "name": "",
          "type": "uint256"
        }
      ],
      "stateMutability": "view",
      "type": "function"
    },
    {
      "inputs": [],
      "name": "platformWallet",
      "outputs": [
        {
          "internalType": "address",
          "name": "",
          "type": "address"
        }
      ],
      "stateMutability": "view",
      "type": "function"
    },
    {
      "inputs": [],
      "name": "renounceOwnership",
      "outputs": [],
      "stateMutability": "nonpayable",
      "type": "function"
    },
    {
      "inputs": [
        {
          "internalType": "uint256",
          "name": "newFeePercent",
          "type": "uint256"
        }
      ],
      "name": "setPlatformFee",
      "outputs": [],
      "stateMutability": "nonpayable",
      "type": "function"
    },
    {
      "inputs": [
        {
          "internalType": "address",
          "name": "newWallet",
          "type": "address"
        }
      ],
      "name": "setPlatformWallet",
      "outputs": [],
      "stateMutability": "nonpayable",
      "type": "function"
    },
    {
      "inputs": [
        {
          "internalType": "address",
          "name": "newOwner",
          "type": "address"
        }
      ],
      "name": "transferOwnership",
      "outputs": [],
      "stateMutability": "nonpayable",
      "type": "function"
    }
  ],
  "bytecode": "0x6080604052600560035534801561001557600080fd5b50604051611261380380611261833981016040819052610034916100d9565b338061005a57604051631e4fbdf760e01b81526000600482015260240160405180910390fd5b61006381610089565b50600280546001600160a01b0319166001600160a01b0392909216919091179055610109565b600080546001600160a01b038381166001600160a01b0319831681178455604051919092169283917f8be0079c531659141344cd1fd0a4f28419497f9722a3daafe3b4186f6b6457e09190a35050565b6000602082840312156100eb57600080fd5b81516001600160a01b038116811461010257600080fd5b9392505050565b611149806101186000396000f3fe6080604052600436106100b25760003560e01c80638831e9cf1161006f5780638831e9cf1461017d5780638c639a851461019d5780638da5cb5b146101c1578063a9b07c26146101e8578063de74e57b146101fe578063f2fde38b1461021e578063fa2af9da1461023e57600080fd5b8063107a274a146100b757806312e8e2c3146100f3578063305a67a814610115578063515b102a1461013557806367dd74ca14610155578063715018a614610168575b600080fd5b3480156100c357600080fd5b506100d76100d2366004610c2a565b61025e565b6040516100ea9796959493929190610c43565b60405180910390f35b3480156100ff57600080fd5b5061011361010e366004610c2a565b6103b0565b005b34801561012157600080fd5b50610113610130366004610c2a565b610402565b34801561014157600080fd5b50610113610150366004610d03565b6104be565b610113610163366004610c2a565b610852565b34801561017457600080fd5b50610113610a5d565b34801561018957600080fd5b50610113610198366004610da4565b610a71565b3480156101a957600080fd5b506101b360035481565b6040519081526020016100ea565b3480156101cd57600080fd5b506000546001600160a01b03165b6040516100ea9190610dc8565b3480156101f457600080fd5b506101b360015481565b34801561020a57600080fd5b506100d7610219366004610c2a565b610a9b565b34801561022a57600080fd5b50610113610239366004610da4565b610b6f565b34801561024a57600080fd5b506002546101db906001600160a01b031681565b60006060600080600080600080600460008a81526020019081526020016000206040518060e0016040529081600082015481526020016001820180546102a390610ddc565b80601f01602080910402602001604051908101604052809291908181526020018280546102cf90610ddc565b801561031c5780601f106102f15761010080835404028352916020019161031c565b820191906000526020600020905b8154815290600101906020018083116102ff57829003601f168201915b505050918352505060028201546001600160a01b0390811660208084019190915260038401549091166040808401919091526004840154606080850191909152600585015460808086019190915260069095015460ff16151560a0948501528551928601519186015190860151948601519386015160c090960151929f919e509c50929a5090985091965090945092505050565b6103b8610bad565b600a8111156103fd5760405162461bcd60e51b815260206004820152600c60248201526b08ccaca40e8dede40d0d2ced60a31b60448201526064015b60405180910390fd5b600355565b6000818152600460205260409020600681015460ff166104345760405162461bcd60e51b81526004016103f490610e16565b60028101546001600160a01b031633146104835760405162461bcd60e51b815260206004820152601060248201526f4e6f7420796f7572206c697374696e6760801b60448201526064016103f4565b60068101805460ff1916905560405182907f90a5808be5f77b4a2e0aa0389f433983252aabf738204c5c421fc59e5ecdaeea90600090a25050565b600081116104fe5760405162461bcd60e51b815260206004820152600d60248201526c496e76616c696420507269636560981b60448201526064016103f4565b6040516331a9108f60e11b815260048101839052839033906001600160a01b03831690636352211e90602401602060405180830381865afa158015610547573d6000803e3d6000fd5b505050506040513d601f19601f8201168201806040525081019061056b9190610e3a565b6001600160a01b0316146105b15760405162461bcd60e51b815260206004820152600d60248201526c2737ba1027232a1027bbb732b960991b60448201526064016103f4565b60405163020604bf60e21b81526004810184905230906001600160a01b0383169063081812fc90602401602060405180830381865afa1580156105f8573d6000803e3d6000fd5b505050506040513d601f19601f8201168201806040525081019061061c9190610e3a565b6001600160a01b0316148061069a575060405163e985e9c560e01b81523360048201523060248201526001600160a01b0382169063e985e9c590604401602060405180830381865afa158015610676573d6000803e3d6000fd5b505050506040513d601f19601f8201168201806040525081019061069a9190610e57565b6106e15760405162461bcd60e51b815260206004820152601860248201527713585c9ad95d1c1b1858d9481b9bdd08185c1c1c9bdd995960421b60448201526064016103f4565b600180549060006106f183610e8f565b91905055506040518060e0016040528088815260200187878080601f01602080910402602001604051908101604052809392919081815260200183838082843760009201829052509385525050336020808501919091526001600160a01b0389166040808601919091526060850189905260808501889052600160a0909501859052845484526004825290922084518155918401519192830191610796915082610f0d565b506040828101516002830180546001600160a01b039283166001600160a01b03199182161790915560608501516003850180549190931691161790556080830151600483015560a0830151600583015560c0909201516006909101805491151560ff19909216919091179055600154905133919089907fa1c827f9edbb5dc847abbf58fee25eaa40edcb4f9541e955c10f1cfc8f123fbd90610841908b908b908b908b908b90610fcc565b60405180910390a450505050505050565b6000818152600460205260409020600681015460ff166108845760405162461bcd60e51b81526004016103f490610e16565b806005015434146108c55760405162461bcd60e51b815260206004820152600b60248201526a57726f6e6720507269636560a81b60448201526064016103f4565b60068101805460ff1916905560038082015490546001600160a01b03909116906000906064906108f5903461101a565b6108ff9190611037565b9050600061090d8234611059565b6002850154600480870154604051632142170760e11b81526001600160a01b039384169281019290925233602483015260448201529192508416906342842e0e90606401600060405180830381600087803b15801561096b57600080fd5b505af115801561097f573d6000803e3d6000fd5b50505060028501546040516001600160a01b03909116915082156108fc029083906000818181858888f193505050501580156109bf573d6000803e3d6000fd5b506002546040516001600160a01b039091169083156108fc029084906000818181858888f193505050501580156109fa573d6000803e3d6000fd5b508354600385015460048601546040513393899390927ff9c8935540f23151adbda901909a148f883ffe5f00b69f0c76be862d674cc3ca92610a4e9260018c01926001600160a01b0390911691349061106c565b60405180910390a45050505050565b610a65610bad565b610a6f6000610bda565b565b610a79610bad565b600280546001600160a01b0319166001600160a01b0392909216919091179055565b60046020526000908152604090208054600182018054919291610abd90610ddc565b80601f0160208091040260200160405190810160405280929190818152602001828054610ae990610ddc565b8015610b365780601f10610b0b57610100808354040283529160200191610b36565b820191906000526020600020905b815481529060010190602001808311610b1957829003601f168201915b505050600284015460038501546004860154600587015460069097015495966001600160a01b0393841696929093169450925060ff1687565b610b77610bad565b6001600160a01b038116610ba1576000604051631e4fbdf760e01b81526004016103f49190610dc8565b610baa81610bda565b50565b6000546001600160a01b03163314610a6f573360405163118cdaa760e01b81526004016103f49190610dc8565b600080546001600160a01b038381166001600160a01b0319831681178455604051919092169283917f8be0079c531659141344cd1fd0a4f28419497f9722a3daafe3b4186f6b6457e09190a35050565b600060208284031215610c3c57600080fd5b5035919050565b87815260e06020820152600087518060e084015260005b81811015610c78576020818b01810151610100868401015201610c5a565b5060006101008285010152610100601f19601f830116840101915050610ca960408301886001600160a01b03169052565b6001600160a01b03861660608301528460808301528360a0830152610cd260c083018415159052565b98975050505050505050565b6001600160a01b0381168114610baa57600080fd5b8035610cfe81610cde565b919050565b60008060008060008060a08789031215610d1c57600080fd5b86359550602087013567ffffffffffffffff811115610d3a57600080fd5b8701601f81018913610d4b57600080fd5b803567ffffffffffffffff811115610d6257600080fd5b896020828401011115610d7457600080fd5b60209190910195509350610d8a60408801610cf3565b959894975092956060810135946080909101359350915050565b600060208284031215610db657600080fd5b8135610dc181610cde565b9392505050565b6001600160a01b0391909116815260200190565b600181811c90821680610df057607f821691505b602082108103610e1057634e487b7160e01b600052602260045260246000fd5b50919050565b6020808252600a90820152694e6f742041637469766560b01b604082015260600190565b600060208284031215610e4c57600080fd5b8151610dc181610cde565b600060208284031215610e6957600080fd5b81518015158114610dc157600080fd5b634e487b7160e01b600052601160045260246000fd5b600060018201610ea157610ea1610e79565b5060010190565b634e487b7160e01b600052604160045260246000fd5b601f821115610f0857806000526020600020601f840160051c81016020851015610ee55750805b601f840160051c820191505b81811015610f055760008155600101610ef1565b50505b505050565b815167ffffffffffffffff811115610f2757610f27610ea8565b610f3b81610f358454610ddc565b84610ebe565b6020601f821160018114610f6f5760008315610f575750848201515b600019600385901b1c1916600184901b178455610f05565b600084815260208120601f198516915b82811015610f9f5787850151825560209485019460019092019101610f7f565b5084821015610fbd5786840151600019600387901b60f8161c191681555b50505050600190811b01905550565b60808152846080820152848660a0830137600060a08683018101919091526001600160a01b0394909416602082015260408101929092526060820152601f909201601f191690910101919050565b808202811582820484141761103157611031610e79565b92915050565b60008261105457634e487b7160e01b600052601260045260246000fd5b500490565b8181038181111561103157611031610e79565b60808152600080865461107e81610ddc565b806080860152600182166000811461109d57600181146110b9576110ed565b60ff19831660a087015260a082151560051b87010193506110ed565b89600052602060002060005b838110156110e457815488820160a001526001909101906020016110c5565b870160a0019450505b5050506001600160a01b038616602084015290506040820193909352606001529291505056fea2646970667358221220d690609f91163b4e9ac8425400d3d871f3447a314cc7a02ee5b7b2f9284f1f5964736f6c634300081c0033",
  "linkReferences": {},
  "deployedLinkReferences": {}
}