{
  "_format": "hh-sol-artifact-1",
  "contractName": "Marketplace",
  "sourceName": "contracts/marketplace.sol",
  "abi": [
    {
      "inputs": [
        {
          "internalType": "address",
          "name": "_platformWallet",
          "type": "address"
        }
      ],
      "stateMutability": "nonpayable",
      "type": "constructor"
    },
    {
      "inputs": [
        {
          "internalType": "address",
          "name": "owner",
          "type": "address"
        }
      ],
      "name": "OwnableInvalidOwner",
      "type": "error"
    },
    {
      "inputs": [
        {
          "internalType": "address",
          "name": "account",
          "type": "address"
        }
      ],
      "name": "OwnableUnauthorizedAccount",
      "type": "error"
    },
    {
      "anonymous": false,
      "inputs": [
        {
          "indexed": true,
          "internalType": "address",
          "name": "previousOwner",
          "type": "address"
        },
        {
          "indexed": true,
          "internalType": "address",
          "name": "newOwner",
          "type": "address"
        }
      ],
      "name": "OwnershipTransferred",
      "type": "event"
    },
    {
      "anonymous": false,
      "inputs": [
        {
          "indexed": true,
          "internalType": "uint256",
          "name": "listingId",
          "type": "uint256"
        }
      ],
      "name": "TicketCancelled",
      "type": "event"
    },
    {
      "anonymous": false,
      "inputs": [
        {
          "indexed": true,
          "internalType": "uint256",
          "name": "eventId",
          "type": "uint256"
        },
        {
          "indexed": false,
          "internalType": "string",
          "name": "zone",
          "type": "string"
        },
        {
          "indexed": true,
          "internalType": "uint256",
          "name": "listingId",
          "type": "uint256"
        },
        {
          "indexed": true,
          "internalType": "address",
          "name": "seller",
          "type": "address"
        },
        {
          "indexed": false,
          "internalType": "address",
          "name": "nftAddress",
          "type": "address"
        },
        {
          "indexed": false,
          "internalType": "uint256",
          "name": "tokenId",
          "type": "uint256"
        },
        {
          "indexed": false,
          "internalType": "uint256",
          "name": "price",
          "type": "uint256"
        }
      ],
      "name": "TicketListed",
      "type": "event"
    },
    {
      "anonymous": false,
      "inputs": [
        {
          "indexed": true,
          "internalType": "uint256",
          "name": "eventId",
          "type": "uint256"
        },
        {
          "indexed": false,
          "internalType": "string",
          "name": "zone",
          "type": "string"
        },
        {
          "indexed": true,
          "internalType": "uint256",
          "name": "listingId",
          "type": "uint256"
        },
        {
          "indexed": true,
          "internalType": "address",
          "name": "buyer",
          "type": "address"
        },
        {
          "indexed": false,
          "internalType": "address",
          "name": "nftAddress",
          "type": "address"
        },
        {
          "indexed": false,
          "internalType": "uint256",
          "name": "tokenId",
          "type": "uint256"
        },
        {
          "indexed": false,
          "internalType": "uint256",
          "name": "price",
          "type": "uint256"
        }
      ],
      "name": "TicketSold",
      "type": "event"
    },
    {
      "inputs": [
        {
          "internalType": "uint256",
          "name": "listingId",
          "type": "uint256"
        }
      ],
      "name": "buyTicket",
      "outputs": [],
      "stateMutability": "payable",
      "type": "function"
    },
    {
      "inputs": [
        {
          "internalType": "uint256",
          "name": "listingId",
          "type": "uint256"
        }
      ],
      "name": "cancelListing",
      "outputs": [],
      "stateMutability": "nonpayable",
      "type": "function"
    },
    {
      "inputs": [
        {
          "internalType": "uint256",
          "name": "listingId",
          "type": "uint256"
        }
      ],
      "name": "getListing",
      "outputs": [
        {
          "internalType": "uint256",
          "name": "eventId",
          "type": "uint256"
        },
        {
          "internalType": "string",
          "name": "zone",
          "type": "string"
        },
        {
          "internalType": "address",
          "name": "seller",
          "type": "address"
        },
        {
          "internalType": "address",
          "name": "nftAddress",
          "type": "address"
        },
        {
          "internalType": "uint256",
          "name": "tokenId",
          "type": "uint256"
        },
        {
          "internalType": "uint256",
          "name": "price",
          "type": "uint256"
        },
        {
          "internalType": "bool",
          "name": "isActive",
          "type": "bool"
        }
      ],
      "stateMutability": "view",
      "type": "function"
    },
    {
      "inputs": [
        {
          "internalType": "uint256",
          "name": "_eventId",
          "type": "uint256"
        },
        {
          "internalType": "string",
          "name": "_zone",
          "type": "string"
        },
        {
          "internalType": "address",
          "name": "_nftAddress",
          "type": "address"
        },
        {
          "internalType": "uint256",
          "name": "_tokenId",
          "type": "uint256"
        },
        {
          "internalType": "uint256",
          "name": "_price",
          "type": "uint256"
        }
      ],
      "name": "listTicket",
      "outputs": [],
      "stateMutability": "nonpayable",
      "type": "function"
    },
    {
      "inputs": [],
      "name": "listingCount",
      "outputs": [
        {
          "internalType": "uint256",
          "name": "",
          "type": "uint256"
        }
      ],
      "stateMutability": "view",
      "type": "function"
    },
    {
      "inputs": [
        {
          "internalType": "uint256",
          "name": "",
          "type": "uint256"
        }
      ],
      "name": "listings",
      "outputs": [
        {
          "internalType": "uint256",
          "name": "eventId",
          "type": "uint256"
        },
        {
          "internalType": "string",
          "name": "zone",
          "type": "string"
        },
        {
          "internalType": "address",
          "name": "seller",
          "type": "address"
        },
        {
          "internalType": "address",
          "name": "nftAddress",
          "type": "address"
        },
        {
          "internalType": "uint256",
          "name": "tokenId",
          "type": "uint256"
        },
        {
          "internalType": "uint256",
          "name": "price",
          "type": "uint256"
        },
        {
          "internalType": "bool",
          "name": "isActive",
          "type": "bool"
        }
      ],
      "stateMutability": "view",
      "type": "function"
    },
    {
      "inputs": [],
      "name": "owner",
      "outputs": [
        {
          "internalType": "address",
          "name": "",
          "type": "address"
        }
      ],
      "stateMutability": "view",
      "type": "function"
    },
    {
      "inputs": [],
      "name": "platformFeePercent",
      "outputs": [
        {
          "internalType": "uint256",
          "name": "",
          "type": "uint256"
        }
      ],
      "stateMutability": "view",
      "type": "function"
    },
    {
      "inputs": [],
      "name": "platformWallet",
      "outputs": [
        {
          "internalType": "address",
          "name": "",
          "type": "address"
        }
      ],
      "stateMutability": "view",
      "type": "function"
    },
    {
      "inputs": [],
      "name": "renounceOwnership",
      "outputs": [],
      "stateMutability": "nonpayable",
      "type": "function"
    },
    {
      "inputs": [
        {
          "internalType": "uint256",
          "name": "newFeePercent",
          "type": "uint256"
        }
      ],
      "name": "setPlatformFee",
      "outputs": [],
      "stateMutability": "nonpayable",
      "type": "function"
    },
    {
      "inputs": [
        {
          "internalType": "address",
          "name": "newWallet",
          "type": "address"
        }
      ],
      "name": "setPlatformWallet",
      "outputs": [],
      "stateMutability": "nonpayable",
      "type": "function"
    },
    {
      "inputs": [
        {
          "internalType": "address",
          "name": "newOwner",
          "type": "address"
        }
      ],
      "name": "transferOwnership",
      "outputs": [],
      "stateMutability": "nonpayable",
      "type": "function"
    }
  ],
  "bytecode": "0x6080604052600560035534801561001557600080fd5b506040516121c33803806121c383398181016040528101906100379190610228565b33600073ffffffffffffffffffffffffffffffffffffffff168173ffffffffffffffffffffffffffffffffffffffff16036100aa5760006040517f1e4fbdf70000000000000000000000000000000000000000000000000000000081526004016100a19190610264565b60405180910390fd5b6100b98161010160201b60201c565b5080600260006101000a81548173ffffffffffffffffffffffffffffffffffffffff021916908373ffffffffffffffffffffffffffffffffffffffff1602179055505061027f565b60008060009054906101000a900473ffffffffffffffffffffffffffffffffffffffff169050816000806101000a81548173ffffffffffffffffffffffffffffffffffffffff021916908373ffffffffffffffffffffffffffffffffffffffff1602179055508173ffffffffffffffffffffffffffffffffffffffff168173ffffffffffffffffffffffffffffffffffffffff167f8be0079c531659141344cd1fd0a4f28419497f9722a3daafe3b4186f6b6457e060405160405180910390a35050565b600080fd5b600073ffffffffffffffffffffffffffffffffffffffff82169050919050565b60006101f5826101ca565b9050919050565b610205816101ea565b811461021057600080fd5b50565b600081519050610222816101fc565b92915050565b60006020828403121561023e5761023d6101c5565b5b600061024c84828501610213565b91505092915050565b61025e816101ea565b82525050565b60006020820190506102796000830184610255565b92915050565b611f358061028e6000396000f3fe6080604052600436106100c25760003560e01c80638831e9cf1161007f578063a9b07c2611610059578063a9b07c2614610237578063de74e57b14610262578063f2fde38b146102a5578063fa2af9da146102ce576100c2565b80638831e9cf146101b85780638c639a85146101e15780638da5cb5b1461020c576100c2565b8063107a274a146100c757806312e8e2c31461010a578063305a67a814610133578063515b102a1461015c57806367dd74ca14610185578063715018a6146101a1575b600080fd5b3480156100d357600080fd5b506100ee60048036038101906100e99190611230565b6102f9565b6040516101019796959493929190611358565b60405180910390f35b34801561011657600080fd5b50610131600480360381019061012c9190611230565b6104da565b005b34801561013f57600080fd5b5061015a60048036038101906101559190611230565b610530565b005b34801561016857600080fd5b50610183600480360381019061017e919061145f565b610678565b005b61019f600480360381019061019a9190611230565b610b2c565b005b3480156101ad57600080fd5b506101b6610e45565b005b3480156101c457600080fd5b506101df60048036038101906101da91906114f9565b610e59565b005b3480156101ed57600080fd5b506101f6610ea5565b6040516102039190611526565b60405180910390f35b34801561021857600080fd5b50610221610eab565b60405161022e9190611541565b60405180910390f35b34801561024357600080fd5b5061024c610ed4565b6040516102599190611526565b60405180910390f35b34801561026e57600080fd5b5061028960048036038101906102849190611230565b610eda565b60405161029c9796959493929190611358565b60405180910390f35b3480156102b157600080fd5b506102cc60048036038101906102c791906114f9565b610ff1565b005b3480156102da57600080fd5b506102e3611077565b6040516102f09190611541565b60405180910390f35b60006060600080600080600080600460008a81526020019081526020016000206040518060e00160405290816000820154815260200160018201805461033e9061158b565b80601f016020809104026020016040519081016040528092919081815260200182805461036a9061158b565b80156103b75780601f1061038c576101008083540402835291602001916103b7565b820191906000526020600020905b81548152906001019060200180831161039a57829003601f168201915b505050505081526020016002820160009054906101000a900473ffffffffffffffffffffffffffffffffffffffff1673ffffffffffffffffffffffffffffffffffffffff1673ffffffffffffffffffffffffffffffffffffffff1681526020016003820160009054906101000a900473ffffffffffffffffffffffffffffffffffffffff1673ffffffffffffffffffffffffffffffffffffffff1673ffffffffffffffffffffffffffffffffffffffff16815260200160048201548152602001600582015481526020016006820160009054906101000a900460ff1615151515815250509050806000015181602001518260400151836060015184608001518560a001518660c00151975097509750975097509750975050919395979092949650565b6104e261109d565b600a811115610526576040517f08c379a000000000000000000000000000000000000000000000000000000000815260040161051d90611608565b60405180910390fd5b8060038190555050565b60006004600083815260200190815260200160002090508060060160009054906101000a900460ff16610598576040517f08c379a000000000000000000000000000000000000000000000000000000000815260040161058f90611674565b60405180910390fd5b3373ffffffffffffffffffffffffffffffffffffffff168160020160009054906101000a900473ffffffffffffffffffffffffffffffffffffffff1673ffffffffffffffffffffffffffffffffffffffff161461062a576040517f08c379a0000000000000000000000000000000000000000000000000000000008152600401610621906116e0565b60405180910390fd5b60008160060160006101000a81548160ff021916908315150217905550817f90a5808be5f77b4a2e0aa0389f433983252aabf738204c5c421fc59e5ecdaeea60405160405180910390a25050565b600081116106bb576040517f08c379a00000000000000000000000000000000000000000000000000000000081526004016106b29061174c565b60405180910390fd5b60008390503373ffffffffffffffffffffffffffffffffffffffff168173ffffffffffffffffffffffffffffffffffffffff16636352211e856040518263ffffffff1660e01b81526004016107109190611526565b602060405180830381865afa15801561072d573d6000803e3d6000fd5b505050506040513d601f19601f820116820180604052508101906107519190611781565b73ffffffffffffffffffffffffffffffffffffffff16146107a7576040517f08c379a000000000000000000000000000000000000000000000000000000000815260040161079e906117fa565b60405180910390fd5b3073ffffffffffffffffffffffffffffffffffffffff168173ffffffffffffffffffffffffffffffffffffffff1663081812fc856040518263ffffffff1660e01b81526004016107f79190611526565b602060405180830381865afa158015610814573d6000803e3d6000fd5b505050506040513d601f19601f820116820180604052508101906108389190611781565b73ffffffffffffffffffffffffffffffffffffffff1614806108d257508073ffffffffffffffffffffffffffffffffffffffff1663e985e9c533306040518363ffffffff1660e01b815260040161089092919061181a565b602060405180830381865afa1580156108ad573d6000803e3d6000fd5b505050506040513d601f19601f820116820180604052508101906108d1919061186f565b5b610911576040517f08c379a0000000000000000000000000000000000000000000000000000000008152600401610908906118e8565b60405180910390fd5b6001600081548092919061092490611937565b91905055506040518060e0016040528088815260200187878080601f016020809104026020016040519081016040528093929190818152602001838380828437600081840152601f19601f8201169050808301925050505050505081526020013373ffffffffffffffffffffffffffffffffffffffff1681526020018573ffffffffffffffffffffffffffffffffffffffff16815260200184815260200183815260200160011515815250600460006001548152602001908152602001600020600082015181600001556020820151816001019081610a039190611b5a565b5060408201518160020160006101000a81548173ffffffffffffffffffffffffffffffffffffffff021916908373ffffffffffffffffffffffffffffffffffffffff16021790555060608201518160030160006101000a81548173ffffffffffffffffffffffffffffffffffffffff021916908373ffffffffffffffffffffffffffffffffffffffff1602179055506080820151816004015560a0820151816005015560c08201518160060160006101000a81548160ff0219169083151502179055509050503373ffffffffffffffffffffffffffffffffffffffff16600154887fa1c827f9edbb5dc847abbf58fee25eaa40edcb4f9541e955c10f1cfc8f123fbd8989898989604051610b1b959493929190611c68565b60405180910390a450505050505050565b60006004600083815260200190815260200160002090508060060160009054906101000a900460ff16610b94576040517f08c379a0000000000000000000000000000000000000000000000000000000008152600401610b8b90611674565b60405180910390fd5b80600501543414610bda576040517f08c379a0000000000000000000000000000000000000000000000000000000008152600401610bd190611d02565b60405180910390fd5b60008160060160006101000a81548160ff02191690831515021790555060008160030160009054906101000a900473ffffffffffffffffffffffffffffffffffffffff1690506000606460035434610c329190611d22565b610c3c9190611d93565b905060008134610c4c9190611dc4565b90508273ffffffffffffffffffffffffffffffffffffffff166342842e0e8560020160009054906101000a900473ffffffffffffffffffffffffffffffffffffffff163387600401546040518463ffffffff1660e01b8152600401610cb393929190611df8565b600060405180830381600087803b158015610ccd57600080fd5b505af1158015610ce1573d6000803e3d6000fd5b505050508360020160009054906101000a900473ffffffffffffffffffffffffffffffffffffffff1673ffffffffffffffffffffffffffffffffffffffff166108fc829081150290604051600060405180830381858888f19350505050158015610d4f573d6000803e3d6000fd5b50600260009054906101000a900473ffffffffffffffffffffffffffffffffffffffff1673ffffffffffffffffffffffffffffffffffffffff166108fc839081150290604051600060405180830381858888f19350505050158015610db8573d6000803e3d6000fd5b503373ffffffffffffffffffffffffffffffffffffffff168585600001547ff9c8935540f23151adbda901909a148f883ffe5f00b69f0c76be862d674cc3ca876001018860030160009054906101000a900473ffffffffffffffffffffffffffffffffffffffff16896004015434604051610e369493929190611eb3565b60405180910390a45050505050565b610e4d61109d565b610e576000611124565b565b610e6161109d565b80600260006101000a81548173ffffffffffffffffffffffffffffffffffffffff021916908373ffffffffffffffffffffffffffffffffffffffff16021790555050565b60035481565b60008060009054906101000a900473ffffffffffffffffffffffffffffffffffffffff16905090565b60015481565b6004602052806000526040600020600091509050806000015490806001018054610f039061158b565b80601f0160208091040260200160405190810160405280929190818152602001828054610f2f9061158b565b8015610f7c5780601f10610f5157610100808354040283529160200191610f7c565b820191906000526020600020905b815481529060010190602001808311610f5f57829003601f168201915b5050505050908060020160009054906101000a900473ffffffffffffffffffffffffffffffffffffffff16908060030160009054906101000a900473ffffffffffffffffffffffffffffffffffffffff16908060040154908060050154908060060160009054906101000a900460ff16905087565b610ff961109d565b600073ffffffffffffffffffffffffffffffffffffffff168173ffffffffffffffffffffffffffffffffffffffff160361106b5760006040517f1e4fbdf70000000000000000000000000000000000000000000000000000000081526004016110629190611541565b60405180910390fd5b61107481611124565b50565b600260009054906101000a900473ffffffffffffffffffffffffffffffffffffffff1681565b6110a56111e8565b73ffffffffffffffffffffffffffffffffffffffff166110c3610eab565b73ffffffffffffffffffffffffffffffffffffffff1614611122576110e66111e8565b6040517f118cdaa70000000000000000000000000000000000000000000000000000000081526004016111199190611541565b60405180910390fd5b565b60008060009054906101000a900473ffffffffffffffffffffffffffffffffffffffff169050816000806101000a81548173ffffffffffffffffffffffffffffffffffffffff021916908373ffffffffffffffffffffffffffffffffffffffff1602179055508173ffffffffffffffffffffffffffffffffffffffff168173ffffffffffffffffffffffffffffffffffffffff167f8be0079c531659141344cd1fd0a4f28419497f9722a3daafe3b4186f6b6457e060405160405180910390a35050565b600033905090565b600080fd5b600080fd5b6000819050919050565b61120d816111fa565b811461121857600080fd5b50565b60008135905061122a81611204565b92915050565b600060208284031215611246576112456111f0565b5b60006112548482850161121b565b91505092915050565b611266816111fa565b82525050565b600081519050919050565b600082825260208201905092915050565b60005b838110156112a657808201518184015260208101905061128b565b60008484015250505050565b6000601f19601f8301169050919050565b60006112ce8261126c565b6112d88185611277565b93506112e8818560208601611288565b6112f1816112b2565b840191505092915050565b600073ffffffffffffffffffffffffffffffffffffffff82169050919050565b6000611327826112fc565b9050919050565b6113378161131c565b82525050565b60008115159050919050565b6113528161133d565b82525050565b600060e08201905061136d600083018a61125d565b818103602083015261137f81896112c3565b905061138e604083018861132e565b61139b606083018761132e565b6113a8608083018661125d565b6113b560a083018561125d565b6113c260c0830184611349565b98975050505050505050565b600080fd5b600080fd5b600080fd5b60008083601f8401126113f3576113f26113ce565b5b8235905067ffffffffffffffff8111156114105761140f6113d3565b5b60208301915083600182028301111561142c5761142b6113d8565b5b9250929050565b61143c8161131c565b811461144757600080fd5b50565b60008135905061145981611433565b92915050565b60008060008060008060a0878903121561147c5761147b6111f0565b5b600061148a89828a0161121b565b965050602087013567ffffffffffffffff8111156114ab576114aa6111f5565b5b6114b789828a016113dd565b955095505060406114ca89828a0161144a565b93505060606114db89828a0161121b565b92505060806114ec89828a0161121b565b9150509295509295509295565b60006020828403121561150f5761150e6111f0565b5b600061151d8482850161144a565b91505092915050565b600060208201905061153b600083018461125d565b92915050565b6000602082019050611556600083018461132e565b92915050565b7f4e487b7100000000000000000000000000000000000000000000000000000000600052602260045260246000fd5b600060028204905060018216806115a357607f821691505b6020821081036115b6576115b561155c565b5b50919050565b7f46656520746f6f20686967680000000000000000000000000000000000000000600082015250565b60006115f2600c83611277565b91506115fd826115bc565b602082019050919050565b60006020820190508181036000830152611621816115e5565b9050919050565b7f4e6f742041637469766500000000000000000000000000000000000000000000600082015250565b600061165e600a83611277565b915061166982611628565b602082019050919050565b6000602082019050818103600083015261168d81611651565b9050919050565b7f4e6f7420796f7572206c697374696e6700000000000000000000000000000000600082015250565b60006116ca601083611277565b91506116d582611694565b602082019050919050565b600060208201905081810360008301526116f9816116bd565b9050919050565b7f496e76616c696420507269636500000000000000000000000000000000000000600082015250565b6000611736600d83611277565b915061174182611700565b602082019050919050565b6000602082019050818103600083015261176581611729565b9050919050565b60008151905061177b81611433565b92915050565b600060208284031215611797576117966111f0565b5b60006117a58482850161176c565b91505092915050565b7f4e6f74204e4654204f776e657200000000000000000000000000000000000000600082015250565b60006117e4600d83611277565b91506117ef826117ae565b602082019050919050565b60006020820190508181036000830152611813816117d7565b9050919050565b600060408201905061182f600083018561132e565b61183c602083018461132e565b9392505050565b61184c8161133d565b811461185757600080fd5b50565b60008151905061186981611843565b92915050565b600060208284031215611885576118846111f0565b5b60006118938482850161185a565b91505092915050565b7f4d61726b6574706c616365206e6f7420617070726f7665640000000000000000600082015250565b60006118d2601883611277565b91506118dd8261189c565b602082019050919050565b60006020820190508181036000830152611901816118c5565b9050919050565b7f4e487b7100000000000000000000000000000000000000000000000000000000600052601160045260246000fd5b6000611942826111fa565b91507fffffffffffffffffffffffffffffffffffffffffffffffffffffffffffffffff820361197457611973611908565b5b600182019050919050565b7f4e487b7100000000000000000000000000000000000000000000000000000000600052604160045260246000fd5b60008190508160005260206000209050919050565b60006020601f8301049050919050565b600082821b905092915050565b600060088302611a107fffffffffffffffffffffffffffffffffffffffffffffffffffffffffffffffff826119d3565b611a1a86836119d3565b95508019841693508086168417925050509392505050565b6000819050919050565b6000611a57611a52611a4d846111fa565b611a32565b6111fa565b9050919050565b6000819050919050565b611a7183611a3c565b611a85611a7d82611a5e565b8484546119e0565b825550505050565b600090565b611a9a611a8d565b611aa5818484611a68565b505050565b5b81811015611ac957611abe600082611a92565b600181019050611aab565b5050565b601f821115611b0e57611adf816119ae565b611ae8846119c3565b81016020851015611af7578190505b611b0b611b03856119c3565b830182611aaa565b50505b505050565b600082821c905092915050565b6000611b3160001984600802611b13565b1980831691505092915050565b6000611b4a8383611b20565b9150826002028217905092915050565b611b638261126c565b67ffffffffffffffff811115611b7c57611b7b61197f565b5b611b86825461158b565b611b91828285611acd565b600060209050601f831160018114611bc45760008415611bb2578287015190505b611bbc8582611b3e565b865550611c24565b601f198416611bd2866119ae565b60005b82811015611bfa57848901518255600182019150602085019450602081019050611bd5565b86831015611c175784890151611c13601f891682611b20565b8355505b6001600288020188555050505b505050505050565b82818337600083830152505050565b6000611c478385611277565b9350611c54838584611c2c565b611c5d836112b2565b840190509392505050565b60006080820190508181036000830152611c83818789611c3b565b9050611c92602083018661132e565b611c9f604083018561125d565b611cac606083018461125d565b9695505050505050565b7f57726f6e67205072696365000000000000000000000000000000000000000000600082015250565b6000611cec600b83611277565b9150611cf782611cb6565b602082019050919050565b60006020820190508181036000830152611d1b81611cdf565b9050919050565b6000611d2d826111fa565b9150611d38836111fa565b9250828202611d46816111fa565b91508282048414831517611d5d57611d5c611908565b5b5092915050565b7f4e487b7100000000000000000000000000000000000000000000000000000000600052601260045260246000fd5b6000611d9e826111fa565b9150611da9836111fa565b925082611db957611db8611d64565b5b828204905092915050565b6000611dcf826111fa565b9150611dda836111fa565b9250828203905081811115611df257611df1611908565b5b92915050565b6000606082019050611e0d600083018661132e565b611e1a602083018561132e565b611e27604083018461125d565b949350505050565b60008154611e3c8161158b565b611e468186611277565b94506001821660008114611e615760018114611e7757611eaa565b60ff198316865281151560200286019350611eaa565b611e80856119ae565b60005b83811015611ea257815481890152600182019150602081019050611e83565b808801955050505b50505092915050565b60006080820190508181036000830152611ecd8187611e2f565b9050611edc602083018661132e565b611ee9604083018561125d565b611ef6606083018461125d565b9594505050505056fea2646970667358221220133420d4724090808a923e69710f97f5976f138127bfb077aa6ebfbecd4f2cbb64736f6c634300081c0033",
  "linkReferences": {},
  "deployedLinkReferences": {}
}