{
  "_format": "hh-sol-artifact-1",
  "contractName": "TicketFactory",
  "sourceName": "contracts/ticket-factory.sol",
  "abi": [
    {
      "inputs": [
        {
          "internalType": "address",
          "name": "_vault",
          "type": "address"
        },
        {
          "internalType": "address",
          "name": "_ticketImplementation",
          "type": "address"
        }
      ],
      "stateMutability": "nonpayable",
      "type": "constructor"
    },
    {
      "inputs": [],
      "name": "FailedDeployment",
      "type": "error"
    },
    {
      "inputs": [
        {
          "internalType": "uint256",
          "name": "balance",
          "type": "uint256"
        },
        {
          "internalType": "uint256",
          "name": "needed",
          "type": "uint256"
        }
      ],
      "name": "InsufficientBalance",
      "type": "error"
    },
    {
      "inputs": [
        {
          "internalType": "address",
          "name": "owner",
          "type": "address"
        }
      ],
      "name": "OwnableInvalidOwner",
      "type": "error"
    },
    {
      "inputs": [
        {
          "internalType": "address",
          "name": "account",
          "type": "address"
        }
      ],
      "name": "OwnableUnauthorizedAccount",
      "type": "error"
    },
    {
      "anonymous": false,
      "inputs": [
        {
          "indexed": true,
          "internalType": "address",
          "name": "organizer",
          "type": "address"
        },
        {
          "indexed": false,
          "internalType": "address",
          "name": "ticketAddress",
          "type": "address"
        },
        {
          "indexed": false,
          "internalType": "string",
          "name": "eventName",
          "type": "string"
        }
      ],
      "name": "EventCreated",
      "type": "event"
    },
    {
      "anonymous": false,
      "inputs": [
        {
          "indexed": true,
          "internalType": "address",
          "name": "previousOwner",
          "type": "address"
        },
        {
          "indexed": true,
          "internalType": "address",
          "name": "newOwner",
          "type": "address"
        }
      ],
      "name": "OwnershipTransferred",
      "type": "event"
    },
    {
      "inputs": [
        {
          "internalType": "uint256",
          "name": "",
          "type": "uint256"
        }
      ],
      "name": "allEvents",
      "outputs": [
        {
          "internalType": "address",
          "name": "eventAddress",
          "type": "address"
        },
        {
          "internalType": "address",
          "name": "organizer",
          "type": "address"
        },
        {
          "internalType": "string",
          "name": "eventName",
          "type": "string"
        },
        {
          "internalType": "string",
          "name": "eventId",
          "type": "string"
        },
        {
          "internalType": "string",
          "name": "description",
          "type": "string"
        },
        {
          "internalType": "uint256",
          "name": "eventDateTime",
          "type": "uint256"
        },
        {
          "internalType": "string",
          "name": "image",
          "type": "string"
        },
        {
          "internalType": "uint16",
          "name": "royaltyFee",
          "type": "uint16"
        }
      ],
      "stateMutability": "view",
      "type": "function"
    },
    {
      "inputs": [
        {
          "internalType": "address",
          "name": "_marketplace",
          "type": "address"
        }
      ],
      "name": "authorizeMarketplace",
      "outputs": [],
      "stateMutability": "nonpayable",
      "type": "function"
    },
    {
      "inputs": [
        {
          "internalType": "string",
          "name": "_eventName",
          "type": "string"
        },
        {
          "internalType": "string",
          "name": "_description",
          "type": "string"
        },
        {
          "internalType": "uint256",
          "name": "_eventDateTime",
          "type": "uint256"
        },
        {
          "internalType": "string",
          "name": "_image",
          "type": "string"
        },
        {
          "internalType": "string",
          "name": "_termsURI",
          "type": "string"
        },
        {
          "internalType": "uint16",
          "name": "_royaltyFee",
          "type": "uint16"
        },
        {
          "internalType": "address[]",
          "name": "_wallets",
          "type": "address[]"
        },
        {
          "internalType": "uint16[]",
          "name": "_shares",
          "type": "uint16[]"
        },
        {
          "internalType": "string[]",
          "name": "_zones",
          "type": "string[]"
        },
        {
          "internalType": "uint64[]",
          "name": "_prices",
          "type": "uint64[]"
        },
        {
          "internalType": "uint32[]",
          "name": "_maxSupplies",
          "type": "uint32[]"
        }
      ],
      "name": "createEvent",
      "outputs": [
        {
          "internalType": "address",
          "name": "",
          "type": "address"
        }
      ],
      "stateMutability": "nonpayable",
      "type": "function"
    },
    {
      "inputs": [
        {
          "internalType": "address",
          "name": "",
          "type": "address"
        }
      ],
      "name": "eventIndex",
      "outputs": [
        {
          "internalType": "uint256",
          "name": "",
          "type": "uint256"
        }
      ],
      "stateMutability": "view",
      "type": "function"
    },
    {
      "inputs": [],
      "name": "getAllEvents",
      "outputs": [
        {
          "components": [
            {
              "internalType": "address",
              "name": "eventAddress",
              "type": "address"
            },
            {
              "internalType": "address",
              "name": "organizer",
              "type": "address"
            },
            {
              "internalType": "string",
              "name": "eventName",
              "type": "string"
            },
            {
              "internalType": "string",
              "name": "eventId",
              "type": "string"
            },
            {
              "internalType": "string",
              "name": "description",
              "type": "string"
            },
            {
              "internalType": "uint256",
              "name": "eventDateTime",
              "type": "uint256"
            },
            {
              "internalType": "string",
              "name": "image",
              "type": "string"
            },
            {
              "internalType": "uint16",
              "name": "royaltyFee",
              "type": "uint16"
            }
          ],
          "internalType": "struct TicketFactory.EventInfo[]",
          "name": "",
          "type": "tuple[]"
        }
      ],
      "stateMutability": "view",
      "type": "function"
    },
    {
      "inputs": [
        {
          "internalType": "address",
          "name": "eventAddr",
          "type": "address"
        }
      ],
      "name": "getEventByAddress",
      "outputs": [
        {
          "components": [
            {
              "internalType": "address",
              "name": "eventAddress",
              "type": "address"
            },
            {
              "internalType": "address",
              "name": "organizer",
              "type": "address"
            },
            {
              "internalType": "string",
              "name": "eventName",
              "type": "string"
            },
            {
              "internalType": "string",
              "name": "eventId",
              "type": "string"
            },
            {
              "internalType": "string",
              "name": "description",
              "type": "string"
            },
            {
              "internalType": "uint256",
              "name": "eventDateTime",
              "type": "uint256"
            },
            {
              "internalType": "string",
              "name": "image",
              "type": "string"
            },
            {
              "internalType": "uint16",
              "name": "royaltyFee",
              "type": "uint16"
            }
          ],
          "internalType": "struct TicketFactory.EventInfo",
          "name": "",
          "type": "tuple"
        }
      ],
      "stateMutability": "view",
      "type": "function"
    },
    {
      "inputs": [
        {
          "internalType": "string",
          "name": "_eventId",
          "type": "string"
        }
      ],
      "name": "getEventById",
      "outputs": [
        {
          "components": [
            {
              "internalType": "address",
              "name": "eventAddress",
              "type": "address"
            },
            {
              "internalType": "address",
              "name": "organizer",
              "type": "address"
            },
            {
              "internalType": "string",
              "name": "eventName",
              "type": "string"
            },
            {
              "internalType": "string",
              "name": "eventId",
              "type": "string"
            },
            {
              "internalType": "string",
              "name": "description",
              "type": "string"
            },
            {
              "internalType": "uint256",
              "name": "eventDateTime",
              "type": "uint256"
            },
            {
              "internalType": "string",
              "name": "image",
              "type": "string"
            },
            {
              "internalType": "uint16",
              "name": "royaltyFee",
              "type": "uint16"
            }
          ],
          "internalType": "struct TicketFactory.EventInfo",
          "name": "",
          "type": "tuple"
        }
      ],
      "stateMutability": "view",
      "type": "function"
    },
    {
      "inputs": [],
      "name": "getMyEvents",
      "outputs": [
        {
          "components": [
            {
              "internalType": "address",
              "name": "eventAddress",
              "type": "address"
            },
            {
              "internalType": "address",
              "name": "organizer",
              "type": "address"
            },
            {
              "internalType": "string",
              "name": "eventName",
              "type": "string"
            },
            {
              "internalType": "string",
              "name": "eventId",
              "type": "string"
            },
            {
              "internalType": "string",
              "name": "description",
              "type": "string"
            },
            {
              "internalType": "uint256",
              "name": "eventDateTime",
              "type": "uint256"
            },
            {
              "internalType": "string",
              "name": "image",
              "type": "string"
            },
            {
              "internalType": "uint16",
              "name": "royaltyFee",
              "type": "uint16"
            }
          ],
          "internalType": "struct TicketFactory.EventInfo[]",
          "name": "",
          "type": "tuple[]"
        }
      ],
      "stateMutability": "view",
      "type": "function"
    },
    {
      "inputs": [],
      "name": "owner",
      "outputs": [
        {
          "internalType": "address",
          "name": "",
          "type": "address"
        }
      ],
      "stateMutability": "view",
      "type": "function"
    },
    {
      "inputs": [],
      "name": "renounceOwnership",
      "outputs": [],
      "stateMutability": "nonpayable",
      "type": "function"
    },
    {
      "inputs": [],
      "name": "ticketImplementation",
      "outputs": [
        {
          "internalType": "address",
          "name": "",
          "type": "address"
        }
      ],
      "stateMutability": "view",
      "type": "function"
    },
    {
      "inputs": [
        {
          "internalType": "address",
          "name": "newOwner",
          "type": "address"
        }
      ],
      "name": "transferOwnership",
      "outputs": [],
      "stateMutability": "nonpayable",
      "type": "function"
    },
    {
      "inputs": [],
      "name": "vault",
      "outputs": [
        {
          "internalType": "contract Vault",
          "name": "",
          "type": "address"
        }
      ],
      "stateMutability": "view",
      "type": "function"
    }
  ],
  "bytecode": "0x60803461014257601f611ac938819003918201601f19168301916001600160401b0383118484101761014757808492604094855283398101031261014257610052602061004b8361015d565b920161015d565b90331561012c5760008054336001600160a01b0319821681178355604051939290916001600160a01b0316907f8be0079c531659141344cd1fd0a4f28419497f9722a3daafe3b4186f6b6457e09080a36001600160a01b03169081156100ea575060018060a01b0319600154161760015560018060a01b031660018060a01b0319600254161760025560405161195790816101728239f35b62461bcd60e51b815260206004820152601560248201527f696e76616c6964207661756c74206164647265737300000000000000000000006044820152606490fd5b631e4fbdf760e01b600052600060045260246000fd5b600080fd5b634e487b7160e01b600052604160045260246000fd5b51906001600160a01b03821682036101425756fe610320604052600436101561001357600080fd5b600061020052610200513560e01c80633548124b1461127e5780633a72eeab146112535780633bec5cff14611130578063653f5d7c146110e0578063715018a61461107e5780638da5cb5b1461105157806395759cc614610ff1578063c27a500d14610f72578063ca0ad14214610eec578063d62d369b14610eae578063f2fde38b14610e18578063f589aedd146100e65763fbfa77cf146100b457600080fd5b346100df57610200513660031901126100df576001546040516001600160a01b039091168152602090f35b6102005180fd5b346100df576101603660031901126100df576004356001600160401b0381116100df57610117903690600401611693565b610300526102e0526024356001600160401b0381116100df5761013e903690600401611693565b610260526101a0526064356001600160401b0381116100df57610165903690600401611693565b610220526101e0526084356001600160401b0381116100df5761018c903690600401611693565b6102a05260a43561028081905261ffff811690036100df5760c4356001600160401b0381116100df576101c39036906004016116c0565b919060e4356001600160401b0381116100df576101e49036906004016116c0565b9060e05291610104356001600160401b0381116100df576102099036906004016116c0565b60c052608052610124356001600160401b0381116100df5761022f9036906004016116c0565b61012052610140526001600160401b0361014435116100df5761025836610144356004016116c0565b610160526101805260405160208101903360601b8252610300516102e051603483013761029a6020603483610300518101428382015203018084520182611611565b51902060606101c08190526040516102c08190526102b89190611611565b60406102c05152601f196101c051013660206102c0510137610200515b60208110610d595750506002546102008051608883901c62ffffff16763d602d80600a3d3981f3363d3d373d3d3d363d7300000017905260789190911b6001600160781b0319166e5af43d82803e903d91602b57fd5bf317602052516001600160a01b0390603790600990f016610240526102405115610d44576001546001600160a01b031661010052610240513b156100df5761043a60209160405160a05263489f85d760e11b60a051526101c0600460a05101526104086103e16103c46103a76101c460a051016102c05161139f565b60031960a051820301602460a0510152610300516102e0516118c6565b60031960a051820301604460a0510152610260516101a0516118c6565b604435606460a051015260031960a051820301608460a0510152610220516101e0516118c6565b903360a460a051015261ffff610280511660c460a051015260031960a05183030160e460a05101526102a051906118c6565b60031960a05182030161010460a0510152848152019061020051935b808510610d185760a051808403600319016101249091015283835260e05161020051602085019190865b808210610ced578360031960a05182030161014460a051015260c05181526020810190602060c05160051b8201019060805190610200515b60c0518110610c8d5760208460031960a05182030161016460a051015261012051815201610140519061020051915b610120518310610c645760208260031960a05182030161018460a05101526101605181520161018051610200515b610160518110610c3e5782610100516101a460a0510152610200519060a0519060a051900360a05161020051610240515af18015610c1157610c1f575b6001546001600160a01b0316803b156100df5760405190634615d10560e11b825261024051600483015281602481610200519361020051905af18015610c1157610bf6575b506040516105a4816115df565b610240518152602081013381526105c236610300516102e05161164d565b91604081019283526101c05181016102c05181526105e736610260516101a05161164d565b6080830190815260a0830191604435835261060936610220516101e05161164d565b9560c0850196875260e085019561ffff61028051168752600354600160401b8110156109595780600161063f92016003556114d3565b969096610bda575186546001600160a01b03199081166001600160a01b039283161788559151600188018054909316911617905551805160028601916001600160401b0382116109595781906106958454611522565b601f8111610b81575b506020906001601f841114610b18576102005192610b0d575b50508160011b916000199060031b1c19161790555b51805160038501916001600160401b0382116109595781906106ee8454611522565b601f8111610ab4575b506020906001601f841114610a4b576102005192610a40575b50508160011b916000199060031b1c19161790555b51805160048401916001600160401b0382116109595781906107478454611522565b601f81116109e7575b506020906001601f84111461097e576102005192610973575b50508160011b916000199060031b1c19161790555b5160058201556006810192519283516001600160401b038111610959576107a58254611522565b601f811161090b575b5060206001601f831114610897579080600794939261ffff9697610200519261088c575b50508160011b916000199060031b1c19161790555b0191511661ffff1982541617905560035460001981019081116108725761024051610200515260046020526040610200512055604051610240518152604060208201527fa54c7891edaa21526f9ad14c69ae2fd966ac0969fcd9a990a4e006427afd382e33918061086260408201610300516102e0516118c6565b0390a26020604051610240518152f35b634e487b7160e01b61020051526011600452602461020051fd5b0151905087806107d2565b601f1982169583610200515281610200512096610200515b8181106108f35750966001928492600797969561ffff999a106108da575b505050811b0190556107e7565b015160001960f88460031b161c191690558780806108cd565b838301518955600190980197602093840193016108af565b82610200515260206102005120601f830160051c8101916020841061094f575b601f0160051c01905b81811061094157506107ae565b610200518155600101610934565b909150819061092b565b634e487b7160e01b61020051526041600452602461020051fd5b015190508780610769565b6102008051869052518281209350601f198516905b8181106109cf57509084600195949392106109b6575b505050811b01905561077e565b015160001960f88460031b161c191690558780806109a9565b92936020600181928786015181550195019301610993565b90915083610200515260206102005120601f840160051c81019160208510610a36575b90601f859493920160051c01905b818110610a255750610750565b610200518155849350600101610a18565b9091508190610a0a565b015190508880610710565b6102008051869052518281209350601f198516905b818110610a9c5750908460019594939210610a83575b505050811b019055610725565b015160001960f88460031b161c19169055888080610a76565b92936020600181928786015181550195019301610a60565b90915083610200515260206102005120601f840160051c81019160208510610b03575b90601f859493920160051c01905b818110610af257506106f7565b610200518155849350600101610ae5565b9091508190610ad7565b0151905089806106b7565b6102008051869052518281209350601f198516905b818110610b695750908460019594939210610b50575b505050811b0190556106cc565b015160001960f88460031b161c19169055898080610b43565b92936020600181928786015181550195019301610b2d565b90915083610200515260206102005120601f840160051c81019160208510610bd0575b90601f859493920160051c01905b818110610bbf575061069e565b610200518155849350600101610bb2565b9091508190610ba4565b634e487b7160e01b610200515261020051600452602461020051fd5b61020051610c0391611611565b610200516100df5780610597565b6040513d61020051823e3d90fd5b610c2e6102005160a051611611565b6102005115610552576102005180fd5b909182359063ffffffff82168092036100df576020816001938293520193019101610515565b908135906001600160401b0382168092036100df576020816001938293520192019201916104e7565b909192601f198382030185528335601e196080513603018112156100df576080510190602082359201916001600160401b0381116100df5780360383136100df57610cde60209283926001956118c6565b950195019101939190936104b8565b909192610200515083359061ffff82168092036100df57602081600193829352019401920190610480565b909182356001600160a01b03811691908290036100df5760208160019382935201930194019390610456565b63b06ebf3d60e01b6102005152600461020051fd5b601082821a60041c600f161015610dfe57808060011b0460021481151715610872576102c0516f181899199a1a9b1b9c1cb0b131b232b360811b83831a60041c600f161a90610dad90600184901b90611910565b536010600f83831a161015610dfe57600181811b810110610872576001906f181899199a1a9b1b9c1cb0b131b232b360811b600f84831a161a610df782841b84016102c051611910565b53016102d5565b634e487b7160e01b61020051526032600452602461020051fd5b346100df5760203660031901126100df57610e31611632565b610e396118e7565b6001600160a01b03168015610e92576102005180546001600160a01b03198116831782556001600160a01b0316907f8be0079c531659141344cd1fd0a4f28419497f9722a3daafe3b4186f6b6457e09080a36102005180f35b631e4fbdf760e01b610200515261020051600452602461020051fd5b346100df5760203660031901126100df576001600160a01b03610ecf611632565b166102005152600460205260206040610200512054604051908152f35b346100df5760203660031901126100df57610f05611632565b610f0d6118e7565b6001546001600160a01b0316803b156100df57604051634615d10560e11b81526001600160a01b03909216600483015261020051908290602490829084905af18015610c1157610f5f575b6102005180f35b61020051610f6c91611611565b80610f58565b346100df57610200513660031901126100df57600354610f9181611715565b90610f9f6040519283611611565b80825260208201600361020051526020610200512061020051915b838310610fd35760405180610fcf8782611473565b0390f35b60086020600192610fe385611780565b815201920192019190610fba565b346100df5760203660031901126100df576004356001600160401b0381116100df57366023820112156100df5761103d611038610fcf92369060248160040135910161164d565b61182c565b6040519182916020835260208301906113e0565b346100df57610200513660031901126100df5761020051546040516001600160a01b039091168152602090f35b346100df57610200513660031901126100df576110996118e7565b6102005180546001600160a01b0319811682556001600160a01b03167f8be0079c531659141344cd1fd0a4f28419497f9722a3daafe3b4186f6b6457e08280a36102005180f35b346100df5760203660031901126100df576110f9611632565b61110161172c565b5060018060a01b031661020051526004602052610fcf61103d61112a60406102005120546114d3565b50611780565b346100df5760203660031901126100df576004356003548110156100df57611157906114d3565b50805460018201546040516001600160a01b039182169392909116916112499061118f83611188816002850161155c565b0384611611565b604051906111ab826111a4816003850161155c565b0383611611565b6112366040516111c9816111c2816004870161155c565b0382611611565b61122860058401549461121a61ffff6007604051976111f6896111ef816006850161155c565b038a611611565b015416986040519b8c9b8c5260208c015261010060408c01526101008b019061139f565b9089820360608b015261139f565b90878203608089015261139f565b9160a086015284820360c086015261139f565b9060e08301520390f35b346100df57610200513660031901126100df576002546040516001600160a01b039091168152602090f35b346100df57610200513660031901126100df5761020051600354815b81811061136557506112ab82611715565b916112b96040519384611611565b8083526112c8601f1991611715565b01610200515b81811061134e57505061020051805b8281106112f25760405180610fcf8682611473565b6112fb816114d3565b50600101546001600160a01b03163314611318575b6001016112dd565b9061134660019161132b61112a856114d3565b611335828861176c565b52611340818761176c565b506116f0565b919050611310565b60209061135961172c565b828287010152016112ce565b61136e816114d3565b50600101546001600160a01b0316331461138b575b60010161129a565b916113976001916116f0565b929050611383565b919082519283825260005b8481106113cb575050826000602080949584010152601f8019910116010190565b806020809284010151828286010152016113aa565b9060018060a01b03825116815260018060a01b03602083015116602082015260e061ffff8161146961144d61143b611429604089015161010060408a015261010089019061139f565b606089015188820360608a015261139f565b6080880151878203608089015261139f565b60a087015160a087015260c087015186820360c088015261139f565b9401511691015290565b602081016020825282518091526040820191602060408360051b8301019401926000915b8383106114a657505050505090565b90919293946020806114c4600193603f1986820301875289516113e0565b97019301930191939290611497565b60035481101561150c576003600081815291901b7fc2575a0e9e593c00f959f8c92f12db2869c3395a3b0502d05e2516446f71f85b0191565b634e487b7160e01b600052603260045260246000fd5b90600182811c92168015611552575b602083101461153c57565b634e487b7160e01b600052602260045260246000fd5b91607f1691611531565b6000929181549161156c83611522565b80835292600181169081156115c2575060011461158857505050565b60009081526020812093945091925b8383106115a8575060209250010190565b600181602092949394548385870101520191019190611597565b915050602093945060ff929192191683830152151560051b010190565b61010081019081106001600160401b038211176115fb57604052565b634e487b7160e01b600052604160045260246000fd5b90601f801991011681019081106001600160401b038211176115fb57604052565b600435906001600160a01b038216820361164857565b600080fd5b9291926001600160401b0382116115fb5760405191611676601f8201601f191660200184611611565b829481845281830111611648578281602093846000960137010152565b9181601f84011215611648578235916001600160401b038311611648576020838186019501011161164857565b9181601f84011215611648578235916001600160401b038311611648576020808501948460051b01011161164857565b60001981146116ff5760010190565b634e487b7160e01b600052601160045260246000fd5b6001600160401b0381116115fb5760051b60200190565b60405190611739826115df565b600060e08382815282602082015260606040820152606080820152606060808201528260a0820152606060c08201520152565b805182101561150c5760209160051b010190565b9060405161178d816115df565b82546001600160a01b03908116825260018401541660208201526040519092839160e09161ffff91600791906117ca816111c2816002860161155c565b60408601526040516117e3816111c2816003860161155c565b60608601526040516117fc816111c2816004860161155c565b6080860152600581015460a086015260405161181f816111c2816006860161155c565b60c0860152015416910152565b61183461172c565b506003549060005b82811061187a5760405162461bcd60e51b815260206004820152600f60248201526e115d995b9d081b9bdd08199bdd5b99608a1b6044820152606490fd5b6003611899611888836114d3565b506111c2604051809481930161155c565b6020815191012082516020840120146118b45760010161183c565b6118c3925061112a91506114d3565b90565b908060209392818452848401376000828201840152601f01601f1916010190565b6000546001600160a01b031633036118fb57565b63118cdaa760e01b6000523360045260246000fd5b90815181101561150c57016020019056fea2646970667358221220059dd7bf7d7a87b559fb6e58cb28456789243a11bc6e832d307a968b61cd69a864736f6c634300081c0033",
  "linkReferences": {},
  "deployedLinkReferences": {}
}