{
  "_format": "hh-sol-artifact-1",
  "contractName": "TicketImplementation",
  "sourceName": "contracts/ticket-implementation.sol",
  "abi": [
    {
      "inputs": [],
      "stateMutability": "nonpayable",
      "type": "constructor"
    },
    {
      "inputs": [
        {
          "internalType": "uint256",
          "name": "numerator",
          "type": "uint256"
        },
        {
          "internalType": "uint256",
          "name": "denominator",
          "type": "uint256"
        }
      ],
      "name": "ERC2981InvalidDefaultRoyalty",
      "type": "error"
    },
    {
      "inputs": [
        {
          "internalType": "address",
          "name": "receiver",
          "type": "address"
        }
      ],
      "name": "ERC2981InvalidDefaultRoyaltyReceiver",
      "type": "error"
    },
    {
      "inputs": [
        {
          "internalType": "uint256",
          "name": "tokenId",
          "type": "uint256"
        },
        {
          "internalType": "uint256",
          "name": "numerator",
          "type": "uint256"
        },
        {
          "internalType": "uint256",
          "name": "denominator",
          "type": "uint256"
        }
      ],
      "name": "ERC2981InvalidTokenRoyalty",
      "type": "error"
    },
    {
      "inputs": [
        {
          "internalType": "uint256",
          "name": "tokenId",
          "type": "uint256"
        },
        {
          "internalType": "address",
          "name": "receiver",
          "type": "address"
        }
      ],
      "name": "ERC2981InvalidTokenRoyaltyReceiver",
      "type": "error"
    },
    {
      "inputs": [
        {
          "internalType": "address",
          "name": "sender",
          "type": "address"
        },
        {
          "internalType": "uint256",
          "name": "tokenId",
          "type": "uint256"
        },
        {
          "internalType": "address",
          "name": "owner",
          "type": "address"
        }
      ],
      "name": "ERC721IncorrectOwner",
      "type": "error"
    },
    {
      "inputs": [
        {
          "internalType": "address",
          "name": "operator",
          "type": "address"
        },
        {
          "internalType": "uint256",
          "name": "tokenId",
          "type": "uint256"
        }
      ],
      "name": "ERC721InsufficientApproval",
      "type": "error"
    },
    {
      "inputs": [
        {
          "internalType": "address",
          "name": "approver",
          "type": "address"
        }
      ],
      "name": "ERC721InvalidApprover",
      "type": "error"
    },
    {
      "inputs": [
        {
          "internalType": "address",
          "name": "operator",
          "type": "address"
        }
      ],
      "name": "ERC721InvalidOperator",
      "type": "error"
    },
    {
      "inputs": [
        {
          "internalType": "address",
          "name": "owner",
          "type": "address"
        }
      ],
      "name": "ERC721InvalidOwner",
      "type": "error"
    },
    {
      "inputs": [
        {
          "internalType": "address",
          "name": "receiver",
          "type": "address"
        }
      ],
      "name": "ERC721InvalidReceiver",
      "type": "error"
    },
    {
      "inputs": [
        {
          "internalType": "address",
          "name": "sender",
          "type": "address"
        }
      ],
      "name": "ERC721InvalidSender",
      "type": "error"
    },
    {
      "inputs": [
        {
          "internalType": "uint256",
          "name": "tokenId",
          "type": "uint256"
        }
      ],
      "name": "ERC721NonexistentToken",
      "type": "error"
    },
    {
      "inputs": [
        {
          "internalType": "address",
          "name": "owner",
          "type": "address"
        }
      ],
      "name": "OwnableInvalidOwner",
      "type": "error"
    },
    {
      "inputs": [
        {
          "internalType": "address",
          "name": "account",
          "type": "address"
        }
      ],
      "name": "OwnableUnauthorizedAccount",
      "type": "error"
    },
    {
      "anonymous": false,
      "inputs": [
        {
          "indexed": true,
          "internalType": "address",
          "name": "owner",
          "type": "address"
        },
        {
          "indexed": true,
          "internalType": "address",
          "name": "approved",
          "type": "address"
        },
        {
          "indexed": true,
          "internalType": "uint256",
          "name": "tokenId",
          "type": "uint256"
        }
      ],
      "name": "Approval",
      "type": "event"
    },
    {
      "anonymous": false,
      "inputs": [
        {
          "indexed": true,
          "internalType": "address",
          "name": "owner",
          "type": "address"
        },
        {
          "indexed": true,
          "internalType": "address",
          "name": "operator",
          "type": "address"
        },
        {
          "indexed": false,
          "internalType": "bool",
          "name": "approved",
          "type": "bool"
        }
      ],
      "name": "ApprovalForAll",
      "type": "event"
    },
    {
      "anonymous": false,
      "inputs": [
        {
          "indexed": false,
          "internalType": "uint256",
          "name": "_fromTokenId",
          "type": "uint256"
        },
        {
          "indexed": false,
          "internalType": "uint256",
          "name": "_toTokenId",
          "type": "uint256"
        }
      ],
      "name": "BatchMetadataUpdate",
      "type": "event"
    },
    {
      "anonymous": false,
      "inputs": [
        {
          "indexed": false,
          "internalType": "string",
          "name": "eventId",
          "type": "string"
        },
        {
          "indexed": false,
          "internalType": "string",
          "name": "eventName",
          "type": "string"
        }
      ],
      "name": "Initialized",
      "type": "event"
    },
    {
      "anonymous": false,
      "inputs": [
        {
          "indexed": false,
          "internalType": "uint256",
          "name": "_tokenId",
          "type": "uint256"
        }
      ],
      "name": "MetadataUpdate",
      "type": "event"
    },
    {
      "anonymous": false,
      "inputs": [
        {
          "indexed": true,
          "internalType": "address",
          "name": "previousOwner",
          "type": "address"
        },
        {
          "indexed": true,
          "internalType": "address",
          "name": "newOwner",
          "type": "address"
        }
      ],
      "name": "OwnershipTransferred",
      "type": "event"
    },
    {
      "anonymous": false,
      "inputs": [
        {
          "indexed": true,
          "internalType": "address",
          "name": "buyer",
          "type": "address"
        },
        {
          "indexed": true,
          "internalType": "uint256",
          "name": "tokenId",
          "type": "uint256"
        },
        {
          "indexed": false,
          "internalType": "uint256",
          "name": "price",
          "type": "uint256"
        }
      ],
      "name": "TicketPurchased",
      "type": "event"
    },
    {
      "anonymous": false,
      "inputs": [
        {
          "indexed": true,
          "internalType": "address",
          "name": "from",
          "type": "address"
        },
        {
          "indexed": true,
          "internalType": "address",
          "name": "to",
          "type": "address"
        },
        {
          "indexed": true,
          "internalType": "uint256",
          "name": "tokenId",
          "type": "uint256"
        }
      ],
      "name": "Transfer",
      "type": "event"
    },
    {
      "inputs": [],
      "name": "MAX_ROYALTY_FEE",
      "outputs": [
        {
          "internalType": "uint96",
          "name": "",
          "type": "uint96"
        }
      ],
      "stateMutability": "view",
      "type": "function"
    },
    {
      "inputs": [
        {
          "internalType": "address",
          "name": "to",
          "type": "address"
        },
        {
          "internalType": "uint256",
          "name": "tokenId",
          "type": "uint256"
        }
      ],
      "name": "approve",
      "outputs": [],
      "stateMutability": "nonpayable",
      "type": "function"
    },
    {
      "inputs": [
        {
          "internalType": "address",
          "name": "owner",
          "type": "address"
        }
      ],
      "name": "balanceOf",
      "outputs": [
        {
          "internalType": "uint256",
          "name": "",
          "type": "uint256"
        }
      ],
      "stateMutability": "view",
      "type": "function"
    },
    {
      "inputs": [
        {
          "internalType": "uint256",
          "name": "zoneIndex",
          "type": "uint256"
        },
        {
          "internalType": "uint256",
          "name": "quantity",
          "type": "uint256"
        },
        {
          "internalType": "string",
          "name": "tokenURI_",
          "type": "string"
        }
      ],
      "name": "buyTicket",
      "outputs": [],
      "stateMutability": "payable",
      "type": "function"
    },
    {
      "inputs": [],
      "name": "description",
      "outputs": [
        {
          "internalType": "string",
          "name": "",
          "type": "string"
        }
      ],
      "stateMutability": "view",
      "type": "function"
    },
    {
      "inputs": [],
      "name": "eventAddress",
      "outputs": [
        {
          "internalType": "address",
          "name": "",
          "type": "address"
        }
      ],
      "stateMutability": "view",
      "type": "function"
    },
    {
      "inputs": [],
      "name": "eventDateTime",
      "outputs": [
        {
          "internalType": "uint256",
          "name": "",
          "type": "uint256"
        }
      ],
      "stateMutability": "view",
      "type": "function"
    },
    {
      "inputs": [],
      "name": "eventId",
      "outputs": [
        {
          "internalType": "string",
          "name": "",
          "type": "string"
        }
      ],
      "stateMutability": "view",
      "type": "function"
    },
    {
      "inputs": [],
      "name": "eventName",
      "outputs": [
        {
          "internalType": "string",
          "name": "",
          "type": "string"
        }
      ],
      "stateMutability": "view",
      "type": "function"
    },
    {
      "inputs": [
        {
          "internalType": "uint256",
          "name": "tokenId",
          "type": "uint256"
        }
      ],
      "name": "getApproved",
      "outputs": [
        {
          "internalType": "address",
          "name": "",
          "type": "address"
        }
      ],
      "stateMutability": "view",
      "type": "function"
    },
    {
      "inputs": [
        {
          "internalType": "address",
          "name": "_eventAddress",
          "type": "address"
        }
      ],
      "name": "getEventZones",
      "outputs": [
        {
          "components": [
            {
              "internalType": "string",
              "name": "name",
              "type": "string"
            },
            {
              "internalType": "uint256",
              "name": "price",
              "type": "uint256"
            },
            {
              "internalType": "uint256",
              "name": "maxSupply",
              "type": "uint256"
            },
            {
              "internalType": "uint256",
              "name": "totalMinted",
              "type": "uint256"
            }
          ],
          "internalType": "struct TicketImplementation.Zone[]",
          "name": "",
          "type": "tuple[]"
        }
      ],
      "stateMutability": "view",
      "type": "function"
    },
    {
      "inputs": [
        {
          "internalType": "address",
          "name": "_eventAddress",
          "type": "address"
        }
      ],
      "name": "getPayoutCount",
      "outputs": [
        {
          "internalType": "uint256",
          "name": "",
          "type": "uint256"
        }
      ],
      "stateMutability": "view",
      "type": "function"
    },
    {
      "inputs": [
        {
          "internalType": "uint256",
          "name": "index",
          "type": "uint256"
        }
      ],
      "name": "getPayoutInfo",
      "outputs": [
        {
          "internalType": "address",
          "name": "",
          "type": "address"
        },
        {
          "internalType": "uint96",
          "name": "",
          "type": "uint96"
        }
      ],
      "stateMutability": "view",
      "type": "function"
    },
    {
      "inputs": [],
      "name": "image",
      "outputs": [
        {
          "internalType": "string",
          "name": "",
          "type": "string"
        }
      ],
      "stateMutability": "view",
      "type": "function"
    },
    {
      "inputs": [
        {
          "internalType": "string",
          "name": "_eventId",
          "type": "string"
        },
        {
          "internalType": "string",
          "name": "_eventName",
          "type": "string"
        },
        {
          "internalType": "string",
          "name": "_description",
          "type": "string"
        },
        {
          "internalType": "uint256",
          "name": "_eventDateTime",
          "type": "uint256"
        },
        {
          "internalType": "string",
          "name": "_image",
          "type": "string"
        },
        {
          "internalType": "address",
          "name": "_organizer",
          "type": "address"
        },
        {
          "internalType": "uint96",
          "name": "_royaltyFee",
          "type": "uint96"
        },
        {
          "internalType": "string",
          "name": "_termsURI",
          "type": "string"
        },
        {
          "internalType": "address[]",
          "name": "_wallets",
          "type": "address[]"
        },
        {
          "internalType": "uint16[]",
          "name": "_shares",
          "type": "uint16[]"
        },
        {
          "internalType": "string[]",
          "name": "_zones",
          "type": "string[]"
        },
        {
          "internalType": "uint64[]",
          "name": "_prices",
          "type": "uint64[]"
        },
        {
          "internalType": "uint32[]",
          "name": "_maxSupplies",
          "type": "uint32[]"
        },
        {
          "internalType": "address",
          "name": "_vault",
          "type": "address"
        }
      ],
      "name": "initialize",
      "outputs": [],
      "stateMutability": "nonpayable",
      "type": "function"
    },
    {
      "inputs": [
        {
          "internalType": "address",
          "name": "owner",
          "type": "address"
        },
        {
          "internalType": "address",
          "name": "operator",
          "type": "address"
        }
      ],
      "name": "isApprovedForAll",
      "outputs": [
        {
          "internalType": "bool",
          "name": "",
          "type": "bool"
        }
      ],
      "stateMutability": "view",
      "type": "function"
    },
    {
      "inputs": [],
      "name": "name",
      "outputs": [
        {
          "internalType": "string",
          "name": "",
          "type": "string"
        }
      ],
      "stateMutability": "view",
      "type": "function"
    },
    {
      "inputs": [],
      "name": "owner",
      "outputs": [
        {
          "internalType": "address",
          "name": "",
          "type": "address"
        }
      ],
      "stateMutability": "view",
      "type": "function"
    },
    {
      "inputs": [
        {
          "internalType": "uint256",
          "name": "tokenId",
          "type": "uint256"
        }
      ],
      "name": "ownerOf",
      "outputs": [
        {
          "internalType": "address",
          "name": "",
          "type": "address"
        }
      ],
      "stateMutability": "view",
      "type": "function"
    },
    {
      "inputs": [
        {
          "internalType": "address",
          "name": "",
          "type": "address"
        },
        {
          "internalType": "uint256",
          "name": "",
          "type": "uint256"
        }
      ],
      "name": "payouts",
      "outputs": [
        {
          "internalType": "address",
          "name": "wallet",
          "type": "address"
        },
        {
          "internalType": "uint96",
          "name": "share",
          "type": "uint96"
        }
      ],
      "stateMutability": "view",
      "type": "function"
    },
    {
      "inputs": [],
      "name": "renounceOwnership",
      "outputs": [],
      "stateMutability": "nonpayable",
      "type": "function"
    },
    {
      "inputs": [
        {
          "internalType": "uint256",
          "name": "tokenId",
          "type": "uint256"
        },
        {
          "internalType": "uint256",
          "name": "salePrice",
          "type": "uint256"
        }
      ],
      "name": "royaltyInfo",
      "outputs": [
        {
          "internalType": "address",
          "name": "receiver",
          "type": "address"
        },
        {
          "internalType": "uint256",
          "name": "amount",
          "type": "uint256"
        }
      ],
      "stateMutability": "view",
      "type": "function"
    },
    {
      "inputs": [
        {
          "internalType": "address",
          "name": "from",
          "type": "address"
        },
        {
          "internalType": "address",
          "name": "to",
          "type": "address"
        },
        {
          "internalType": "uint256",
          "name": "tokenId",
          "type": "uint256"
        }
      ],
      "name": "safeTransferFrom",
      "outputs": [],
      "stateMutability": "nonpayable",
      "type": "function"
    },
    {
      "inputs": [
        {
          "internalType": "address",
          "name": "from",
          "type": "address"
        },
        {
          "internalType": "address",
          "name": "to",
          "type": "address"
        },
        {
          "internalType": "uint256",
          "name": "tokenId",
          "type": "uint256"
        },
        {
          "internalType": "bytes",
          "name": "data",
          "type": "bytes"
        }
      ],
      "name": "safeTransferFrom",
      "outputs": [],
      "stateMutability": "nonpayable",
      "type": "function"
    },
    {
      "inputs": [
        {
          "internalType": "address",
          "name": "operator",
          "type": "address"
        },
        {
          "internalType": "bool",
          "name": "approved",
          "type": "bool"
        }
      ],
      "name": "setApprovalForAll",
      "outputs": [],
      "stateMutability": "nonpayable",
      "type": "function"
    },
    {
      "inputs": [
        {
          "internalType": "address",
          "name": "_vault",
          "type": "address"
        }
      ],
      "name": "setVault",
      "outputs": [],
      "stateMutability": "nonpayable",
      "type": "function"
    },
    {
      "inputs": [
        {
          "internalType": "bytes4",
          "name": "interfaceId",
          "type": "bytes4"
        }
      ],
      "name": "supportsInterface",
      "outputs": [
        {
          "internalType": "bool",
          "name": "",
          "type": "bool"
        }
      ],
      "stateMutability": "view",
      "type": "function"
    },
    {
      "inputs": [],
      "name": "symbol",
      "outputs": [
        {
          "internalType": "string",
          "name": "",
          "type": "string"
        }
      ],
      "stateMutability": "view",
      "type": "function"
    },
    {
      "inputs": [],
      "name": "termsURI",
      "outputs": [
        {
          "internalType": "string",
          "name": "",
          "type": "string"
        }
      ],
      "stateMutability": "view",
      "type": "function"
    },
    {
      "inputs": [
        {
          "internalType": "uint256",
          "name": "tokenId",
          "type": "uint256"
        }
      ],
      "name": "tokenURI",
      "outputs": [
        {
          "internalType": "string",
          "name": "",
          "type": "string"
        }
      ],
      "stateMutability": "view",
      "type": "function"
    },
    {
      "inputs": [],
      "name": "totalMinted",
      "outputs": [
        {
          "internalType": "uint256",
          "name": "",
          "type": "uint256"
        }
      ],
      "stateMutability": "view",
      "type": "function"
    },
    {
      "inputs": [],
      "name": "totalShare",
      "outputs": [
        {
          "internalType": "uint96",
          "name": "",
          "type": "uint96"
        }
      ],
      "stateMutability": "view",
      "type": "function"
    },
    {
      "inputs": [
        {
          "internalType": "address",
          "name": "from",
          "type": "address"
        },
        {
          "internalType": "address",
          "name": "to",
          "type": "address"
        },
        {
          "internalType": "uint256",
          "name": "tokenId",
          "type": "uint256"
        }
      ],
      "name": "transferFrom",
      "outputs": [],
      "stateMutability": "nonpayable",
      "type": "function"
    },
    {
      "inputs": [
        {
          "internalType": "address",
          "name": "newOwner",
          "type": "address"
        }
      ],
      "name": "transferOwnership",
      "outputs": [],
      "stateMutability": "nonpayable",
      "type": "function"
    },
    {
      "inputs": [],
      "name": "vault",
      "outputs": [
        {
          "internalType": "address",
          "name": "",
          "type": "address"
        }
      ],
      "stateMutability": "view",
      "type": "function"
    },
    {
      "inputs": [
        {
          "internalType": "address",
          "name": "",
          "type": "address"
        }
      ],
      "name": "zoneCount",
      "outputs": [
        {
          "internalType": "uint256",
          "name": "",
          "type": "uint256"
        }
      ],
      "stateMutability": "view",
      "type": "function"
    },
    {
      "inputs": [
        {
          "internalType": "address",
          "name": "",
          "type": "address"
        },
        {
          "internalType": "uint256",
          "name": "",
          "type": "uint256"
        }
      ],
      "name": "zones",
      "outputs": [
        {
          "internalType": "string",
          "name": "name",
          "type": "string"
        },
        {
          "internalType": "uint256",
          "name": "price",
          "type": "uint256"
        },
        {
          "internalType": "uint256",
          "name": "maxSupply",
          "type": "uint256"
        },
        {
          "internalType": "uint256",
          "name": "totalMinted",
          "type": "uint256"
        }
      ],
      "stateMutability": "view",
      "type": "function"
    }
  ],
  "bytecode": "0x60806040523461038a57604080519081016001600160401b03811182821017610297576040908152600a82526910985cd9551a58dad95d60b21b602083015280519081016001600160401b0381118282101761029757604052600781526610951250d2d15560ca1b602082015281516001600160401b03811161029757600054600181811c91168015610380575b602082101461027757601f811161031c575b50602092601f82116001146102b857928192936000926102ad575b50508160011b916000199060031b1c1916176000555b80516001600160401b03811161029757600154600181811c9116801561028d575b602082101461027757601f8111610212575b50602091601f82116001146101ae579181926000926101a3575b50508160011b916000199060031b1c1916176001555b331561018d5760098054336001600160a01b03198216811790925560405191906001600160a01b03167f8be0079c531659141344cd1fd0a4f28419497f9722a3daafe3b4186f6b6457e0600080a3612cc190816103908239f35b631e4fbdf760e01b600052600060045260246000fd5b01519050388061011d565b601f198216926001600052806000209160005b8581106101fa575083600195106101e1575b505050811b01600155610133565b015160001960f88460031b161c191690553880806101d3565b919260206001819286850151815501940192016101c1565b60016000527fb10e2d527612073b26eecdfd717e6a320cf44b4afac2b0732d9fcbe2b7fa0cf6601f830160051c8101916020841061026d575b601f0160051c01905b8181106102615750610103565b60008155600101610254565b909150819061024b565b634e487b7160e01b600052602260045260246000fd5b90607f16906100f1565b634e487b7160e01b600052604160045260246000fd5b0151905038806100ba565b601f1982169360008052806000209160005b86811061030457508360019596106102eb575b505050811b016000556100d0565b015160001960f88460031b161c191690553880806102dd565b919260206001819286850151815501940192016102ca565b600080527f290decd9548b62a8d60345a988386fc84ba6bc95484008f6362f93160ef3e563601f830160051c81019160208410610376575b601f0160051c01905b81811061036a575061009f565b6000815560010161035d565b9091508190610354565b90607f169061008d565b600080fdfe608080604052600436101561001357600080fd5b60003560e01c90816301ffc9a71461254257508063026c42071461251b57806306fdde0314612476578063081812fc14612438578063089cdd0c14612390578063095ea7b3146122a157806317e1f82e146122845780631d6916ab14611ccc5780631fc7bb9514611cae57806323b872dd14611c975780632a55205a14611c12578063342914f314611a7557806335ccdc3d14611a3b57806342842e0e14611a0b5780636352211e146119db5780636817031b1461199857806370a0823114611942578063715018a6146118e55780637284e4161461183d5780637a5c15c81461177e5780638009245c146117445780638043c9c01461169c5780638c86cf58146116195780638da5cb5b146115f0578063913f0bae146106a857806395d89b41146106005780639d4846931461058f578063a22cb465146104ee578063a2309ff8146104d0578063b88d4fde14610465578063c87b56dd14610446578063e985e9c5146103eb578063f2fde38b1461039a578063f3ccaac0146102f2578063f5c925d91461020d578063fad56779146101e45763fbfa77cf146101b657600080fd5b346101df5760003660031901126101df57600a546040516001600160a01b039091168152602090f35b600080fd5b346101df5760003660031901126101df57600b546040516001600160a01b039091168152602090f35b346101df5760003660031901126101df57604051600060125461022f81612620565b80845290600181169081156102ce575060011461026f575b61026b8361025781850382612690565b6040519182916020835260208301906125e1565b0390f35b601260009081527fbb8a6a4669ba250d26cd7a459eca9d215f8307e33aebe50379bc5a3617ec3444939250905b8082106102b457509091508101602001610257610247565b91926001816020925483858801015201910190929161029c565b60ff191660208086019190915291151560051b840190910191506102579050610247565b346101df5760003660031901126101df57604051600060105461031481612620565b80845290600181169081156102ce575060011461033b5761026b8361025781850382612690565b601060009081527f1b6847dc741a1b0cd08d278845f9d819d87b734759afb55fe2de5cb82a9ae672939250905b80821061038057509091508101602001610257610247565b919260018160209254838588010152019101909291610368565b346101df5760203660031901126101df576103b3612755565b6103bb612adc565b6001600160a01b038116156103d5576103d390612b05565b005b631e4fbdf760e01b600052600060045260246000fd5b346101df5760403660031901126101df57610404612755565b61040c61276b565b9060018060a01b0316600052600560205260406000209060018060a01b0316600052602052602060ff604060002054166040519015158152f35b346101df5760203660031901126101df5761026b610257600435612a72565b346101df5760803660031901126101df5761047e612755565b61048661276b565b90604435606435926001600160401b0384116101df57366023850112156101df576104be6103d394369060248160040135910161279c565b926104ca838383612892565b33612b4e565b346101df5760003660031901126101df576020601154604051908152f35b346101df5760403660031901126101df57610507612755565b602435908115158092036101df576001600160a01b031690811561057a57336000526005602052604060002082600052602052604060002060ff1981541660ff83161790556040519081527f17307eab39ab6107e8899845ad3d59bd9653f200f220920489ca2b5937696c3160203392a3005b50630b61174360e31b60005260045260246000fd5b346101df5760403660031901126101df576105a8612755565b6001600160a01b03166000908152601560205260409020805460243591908210156101df5761026b916105da91612842565b5054604080516001600160a01b038316815260a09290921c602083015290918291820190565b346101df5760003660031901126101df57604051600060015461062281612620565b80845290600181169081156102ce57506001146106495761026b8361025781850382612690565b600160009081527fb10e2d527612073b26eecdfd717e6a320cf44b4afac2b0732d9fcbe2b7fa0cf6939250905b80821061068e57509091508101602001610257610247565b919260018160209254838588010152019101909291610676565b346101df576101c03660031901126101df576004356001600160401b0381116101df576106d99036906004016127d3565b6024356001600160401b0381116101df576106f89036906004016127d3565b6044356001600160401b0381116101df576107179036906004016127d3565b6084356001600160401b0381116101df576107369036906004016127d3565b60a4356001600160a01b038116938482036101df5760c435946001600160601b0386168096036101df5760e4356001600160401b0381116101df5761077f9036906004016127d3565b61010435946001600160401b0386116101df57366023870112156101df5785600401356107ab8161282b565b966107b96040519889612690565b8188526024602089019260051b820101903682116101df57602401915b8183106115d05750505061012435966001600160401b0388116101df57366023890112156101df57876004013561080c8161282b565b9861081a6040519a8b612690565b818a52602460208b019260051b820101903682116101df57602401915b8183106115b55750505061014435986001600160401b038a116101df573660238b0112156101df57896004013561086d8161282b565b9a61087b6040519c8d612690565b818c52602460208d019260051b820101903682116101df5760248101925b828410611586575050505061016435946001600160401b0386116101df57366023870112156101df5785600401356108d08161282b565b966108de6040519889612690565b8188526024602089019260051b820101903682116101df57602401915b8183106115665750505061018435976001600160401b0389116101df573660238a0112156101df5788600401356109318161282b565b9961093f6040519b8c612690565b818b52602460208c019260051b820101903682116101df57602401915b818310611549575050506101a4356001600160a01b03811691908290036101df5760095460ff8160a01c1661150e5760ff60a01b1916600160a01b17600955600b80546001600160a01b031916301790558a518c51036114d1578c518851811490816114c6575b501561148c576103e8841161145457816109e16109fa931515612a36565b600a80546001600160a01b031916919091179055612b05565b61271082116114395780156114235760405190610a1682612675565b808252602090910182905260a09190911b6001600160a01b0319166001600160a01b039091161760075589516001600160401b038111610cfb57610a5b600c54612620565b601f81116113be575b50806020601f82116001146113555760009161134a575b508160011b916000199060031b1c191617600c555b84516001600160401b038111610cfb57610aab600d54612620565b601f81116112e5575b50806020601f821160011461127f57600091611274575b508160011b916000199060031b1c191617600d555b8051906001600160401b038211610cfb578190610afe600e54612620565b601f8111611204575b50602090601f831160011461119c57600092611191575b50508160011b916000199060031b1c191617600e555b606435600f558051906001600160401b038211610cfb578190610b58601054612620565b601f8111611121575b50602090601f83116001146110b9576000926110ae575b50508160011b916000199060031b1c1916176010555b8051906001600160401b038211610cfb578190610bac601254612620565b601f811161103e575b50602090601f8311600114610fd657600092610fcb575b50508160011b916000199060031b1c1916176012555b600095865b8551881015610d47576001600160a01b03610c028988612a22565b511615610d1157600b546001600160a01b03908116600090815260156020526040902090610c308a89612a22565b51169061ffff610c408b8b612a22565b51169060405192610c5084612675565b8352602083019182528054600160401b811015610cfb57610c7691600182018155612842565b929092610ce55751905160a01b6001600160a01b0319166001600160a01b03919091161790556001600160601b0361ffff610cb18a8a612a22565b51169116016001600160601b038111610ccf57600190970196610be7565b634e487b7160e01b600052601160045260246000fd5b634e487b7160e01b600052600060045260246000fd5b634e487b7160e01b600052604160045260246000fd5b60405162461bcd60e51b815260206004820152600e60248201526d1a5b9d985b1a59081dd85b1b195d60921b6044820152606490fd5b6001600160601b038991166127108103610f90576001600160601b0319601654161760165560005b8251811015610f2557610d828184612a22565b516001600160401b03610d958387612a22565b511663ffffffff610da6848a612a22565b511660405192610db58461265a565b8352602083019182526040830190815260608301916000835260018060a01b03600b54166000526013602052604060002085600052602052604060002093518051906001600160401b038211610cfb57610e0f8654612620565b601f8111610edd575b50602090601f8311600114610e6e5791806001989796949260039694600092610e63575b505060001982871b1c191690881b1785555b51868501555160028401555191015501610d6f565b015190508e80610e3c565b90601f1983169187600052816000209260005b818110610ec557509260019998979593928592600398968c9510610ead575b505050811b018555610e4e565b015160001983891b60f8161c191690558e8080610ea0565b92936020600181928786015181550195019301610e81565b866000526020600020601f840160051c81019160208510610f1b575b601f0160051c01905b818110610f0f5750610e18565b60008155600101610f02565b9091508190610ef9565b7fa070f05b16f4eb7ffaa9444c7d3e435633333ff89cc255bd7e648e7dab636f33610f7d83610f8b88875160018060a01b03600b541660005260146020526040600020556040519384936040855260408501906125e1565b9083820360208501526125e1565b0390a1005b60405162461bcd60e51b8152602060048201526013602482015272746f74616c20736861726520213d203130302560681b6044820152606490fd5b015190508980610bcc565b601260009081528281209350601f198516905b818110611026575090846001959493921061100d575b505050811b01601255610be2565b015160001960f88460031b161c19169055898080610fff565b92936020600181928786015181550195019301610fe9565b60126000529091507fbb8a6a4669ba250d26cd7a459eca9d215f8307e33aebe50379bc5a3617ec3444601f840160051c810191602085106110a4575b90601f859493920160051c01905b8181106110955750610bb5565b60008155849350600101611088565b909150819061107a565b015190508a80610b78565b601060009081528281209350601f198516905b81811061110957509084600195949392106110f0575b505050811b01601055610b8e565b015160001960f88460031b161c191690558a80806110e2565b929360206001819287860151815501950193016110cc565b60106000529091507f1b6847dc741a1b0cd08d278845f9d819d87b734759afb55fe2de5cb82a9ae672601f840160051c81019160208510611187575b90601f859493920160051c01905b8181106111785750610b61565b6000815584935060010161116b565b909150819061115d565b015190508b80610b1e565b600e60009081528281209350601f198516905b8181106111ec57509084600195949392106111d3575b505050811b01600e55610b34565b015160001960f88460031b161c191690558b80806111c5565b929360206001819287860151815501950193016111af565b600e6000529091507fbb7b4a454dc3493923482f07822329ed19e8244eff582cc204f8554c3620c3fd601f840160051c8101916020851061126a575b90601f859493920160051c01905b81811061125b5750610b07565b6000815584935060010161124e565b9091508190611240565b90508601518c610acb565b600d60009081528181209250601f198416905b8181106112cd575090836001949392106112b4575b5050811b01600d55610ae0565b88015160001960f88460031b161c191690558c806112a7565b9192602060018192868d015181550194019201611292565b600d6000527fd7b6990105719101dabeb77144f2a3385c8033acd3af97e9423a695e81ad1eb5601f830160051c81019160208410611340575b601f0160051c01905b8181106113345750610ab4565b60008155600101611327565b909150819061131e565b90508b01518c610a7b565b600c60009081528181209250601f198416908e5b8282106113a5575050908360019493921061138c575b5050811b01600c55610a90565b8d015160001960f88460031b161c191690558c8061137f565b600184956020939584930151815501940192018e611369565b600c6000527fdf6966c971051c3d54ec59162606531493a51404a002842f56009d7e5cf4a8c7601f830160051c81019160208410611419575b601f0160051c01905b81811061140d5750610a64565b60008155600101611400565b90915081906113f7565b635b6cc80560e11b600052600060045260246000fd5b50636f483d0960e01b60005260045261271060245260446000fd5b60405162461bcd60e51b815260206004820152601060248201526f0e4def2c2d8e8f240e8dede40d0d2ced60831b6044820152606490fd5b60405162461bcd60e51b81526020600482015260126024820152710f4dedcca40c8c2e8c240dad2e6dac2e8c6d60731b6044820152606490fd5b90508a51148f6109c3565b60405162461bcd60e51b81526020600482015260156024820152740eec2d8d8cae85ee6d0c2e4ca40dad2e6dac2e8c6d605b1b6044820152606490fd5b60405162461bcd60e51b8152602060048201526013602482015272185b1c9958591e481a5b9a5d1a585b1a5e9959606a1b6044820152606490fd5b823563ffffffff811681036101df5781526020928301920161095c565b82356001600160401b03811681036101df578152602092830192016108fb565b83356001600160401b0381116101df576020916115aa8392602436918701016127d3565b815201930192610899565b823561ffff811681036101df57815260209283019201610837565b82356001600160a01b03811681036101df578152602092830192016107d6565b346101df5760003660031901126101df576009546040516001600160a01b039091168152602090f35b346101df5760403660031901126101df576001600160a01b0361163a612755565b16600052601360205260406000206024356000526020526116886040600020611662816126b1565b9060018101549060036002820154910154906040519485946080865260808601906125e1565b926020850152604084015260608301520390f35b346101df5760003660031901126101df576040516000600d546116be81612620565b80845290600181169081156102ce57506001146116e55761026b8361025781850382612690565b600d60009081527fd7b6990105719101dabeb77144f2a3385c8033acd3af97e9423a695e81ad1eb5939250905b80821061172a57509091508101602001610257610247565b919260018160209254838588010152019101909291611712565b346101df5760203660031901126101df576001600160a01b03611765612755565b1660005260146020526020604060002054604051908152f35b346101df5760203660031901126101df57600b546001600160a01b03166000818152601560205260409020546004359190821015611808576020916117ce91600052601583526040600020612842565b50604051906117dc82612675565b546001600160a01b03811680835260a09190911c92909101829052604080519182526020820192909252f35b60405162461bcd60e51b815260206004820152600d60248201526c092dcecc2d8d2c840d2dcc8caf609b1b6044820152606490fd5b346101df5760003660031901126101df576040516000600e5461185f81612620565b80845290600181169081156102ce57506001146118865761026b8361025781850382612690565b600e60009081527fbb7b4a454dc3493923482f07822329ed19e8244eff582cc204f8554c3620c3fd939250905b8082106118cb57509091508101602001610257610247565b9192600181602092548385880101520191019092916118b3565b346101df5760003660031901126101df576118fe612adc565b600980546001600160a01b031981169091556000906001600160a01b03167f8be0079c531659141344cd1fd0a4f28419497f9722a3daafe3b4186f6b6457e08280a3005b346101df5760203660031901126101df576001600160a01b03611963612755565b1680156119825760005260036020526020604060002054604051908152f35b6322718ad960e21b600052600060045260246000fd5b346101df5760203660031901126101df576001600160a01b036119b9612755565b166119c5811515612a36565b600a80546001600160a01b031916919091179055005b346101df5760203660031901126101df5760206119f9600435612aa5565b6040516001600160a01b039091168152f35b346101df576103d3611a1c366127f1565b9060405192611a2c602085612690565b600084526104ca838383612892565b346101df5760203660031901126101df576001600160a01b03611a5c612755565b1660005260156020526020604060002054604051908152f35b346101df5760203660031901126101df576001600160a01b03611a96612755565b16806000526014602052604060002054611aaf8161282b565b91611abd6040519384612690565b818352601f19611acc8361282b565b0160005b818110611bdf57505060005b828110611b7257836040518091602082016020835281518091526040830190602060408260051b8601019301916000905b828210611b1c57505050500390f35b919360019193955060208091603f19898203018552875190606080611b4a84516080855260808501906125e1565b9385810151868501526040810151604085015201519101529601920192018594939192611b0d565b6001908260005260136020526040600020816000526020526040600020600360405191611b9e8361265a565b611ba7816126b1565b83528481015460208401526002810154604084015201546060820152611bcd8287612a22565b52611bd88186612a22565b5001611adc565b602090604051611bee8161265a565b60608152600083820152600060408201526000606082015282828801015201611ad0565b346101df5760403660031901126101df576004356000908152600860205260409020546001600160a01b0381169060a01c8115611c7f575b611c626001600160601b036127109216602435612870565b604080516001600160a01b03949094168452919004602083015290f35b50506007546001600160a01b0381169060a01c611c4a565b346101df576103d3611ca8366127f1565b91612892565b346101df5760003660031901126101df576020600f54604051908152f35b60603660031901126101df576024356044356001600160401b0381116101df57611cfa9036906004016127d3565b9060018060a01b03600b541660005260136020526040600020600435600052602052604060002091811561224b5760038301928354838101809111610ccf5760028201541061221157600101611d51838254612870565b34106121d757600a546001600160a01b0316156121a2576020933393929084159081159060005b868110611db15788601154907f2a91574e12ad96234e84923e146b0946ecfb871cd8d5534dc1fdcbe87a7c01b3604051913483523392a3005b611dbb8254612883565b8255611dc8601154612883565b9081601155604051611dda8b82612690565b856000825261218c5760008381526002808d5260408220546001600160a01b03168015159290918691908f8a86612156575b61213f575b838352526040812080546001600160a01b0319168f179055339083907fddf252ad1be2c89b69c2b068fc378daa952ba7f163c4a11628f55a4df523b3ef9080a450612129578a333b61200f575b50508160005260068a52604060002086516001600160401b038111610cfb578b611e888354612620565b601f8111611fc7575b5050808c601f8211600114611f6257600091611f57575b508160011b916000199060031b1c19161790555b7ff8e1a15aba9398e019f0b49df1a4fde98ee17ae345cb5f6b5e2c27f5033e8ce78a604051848152a186549160018060a01b03600a541690813b156101df576040516311f9fbc960e21b815230600482015260248101919091529260009184916044918391905af1918215611f4b57600192611f3a575b5001611d78565b6000611f4591612690565b8a611f33565b6040513d6000823e3d90fd5b90508801518d611ea8565b60008481528e81209250601f198416908f5b8c838310611fb1575050509083600194939210611f98575b5050811b019055611ebc565b8a015160001960f88460031b161c191690558d80611f8c565b840151855560019094019392830192018f611f74565b836000528160002090601f840160051c8201928410612005575b601f0160051c01905b818110611ff9578d9150611e91565b60008155600101611fea565b9091508190611fe1565b6120489160405180938192630a85bd0160e11b8352336004840152600060248401528760448401526080606484015260848301906125e1565b03816000335af180916000916120e4575b50906120b1578a3d156120a9573d9061207182612781565b9161207f6040519384612690565b82523d60008284013e5b815191826120a657633250574960e11b6000523360045260246000fd5b01fd5b606090612089565b6001600160e01b03191663757a42ff60e11b016120cf578a8a611e5e565b633250574960e11b6000523360045260246000fd5b8c81813d8311612122575b6120f98183612690565b8101031261211e5751906001600160e01b03198216820361211b57508c612059565b80fd5b5080fd5b503d6120ef565b6339e3563760e11b600052600060045260246000fd5b338352600381526040832060018154019055611e11565b50600084815260046020526040902080546001600160a01b0319169055848352600381526040832080546000190190558a611e0c565b633250574960e11b600052600060045260246000fd5b60405162461bcd60e51b815260206004820152600d60248201526c1d985d5b1d081b9bdd081cd95d609a1b6044820152606490fd5b60405162461bcd60e51b8152602060048201526012602482015271696e73756666696369656e742066756e647360701b6044820152606490fd5b60405162461bcd60e51b8152602060048201526012602482015271546964616b2063756b757020737570706c7960701b6044820152606490fd5b60405162461bcd60e51b815260206004820152601160248201527007175616e74697479206d757374203e203607c1b6044820152606490fd5b346101df5760003660031901126101df5760206040516103e88152f35b346101df5760403660031901126101df576122ba612755565b6024356122c681612aa5565b3315158061237d575b8061234f575b61233a5781906001600160a01b0384811691167f8c5be1e5ebec7d5bd14f71427d1e84f3dd0314c0f7b2291e5b200ac8c7c3b925600080a4600090815260046020526040902080546001600160a01b0319166001600160a01b03909216919091179055005b63a9fbf51f60e01b6000523360045260246000fd5b506001600160a01b038116600090815260056020908152604080832033845290915290205460ff16156122d5565b506001600160a01b0381163314156122cf565b346101df5760003660031901126101df576040516000600c546123b281612620565b80845290600181169081156102ce57506001146123d95761026b8361025781850382612690565b600c60009081527fdf6966c971051c3d54ec59162606531493a51404a002842f56009d7e5cf4a8c7939250905b80821061241e57509091508101602001610257610247565b919260018160209254838588010152019101909291612406565b346101df5760203660031901126101df5760043561245581612aa5565b506000526004602052602060018060a01b0360406000205416604051908152f35b346101df5760003660031901126101df576040516000805461249781612620565b80845290600181169081156102ce57506001146124be5761026b8361025781850382612690565b60008080527f290decd9548b62a8d60345a988386fc84ba6bc95484008f6362f93160ef3e563939250905b80821061250157509091508101602001610257610247565b9192600181602092548385880101520191019092916124e9565b346101df5760003660031901126101df5760206001600160601b0360165416604051908152f35b346101df5760203660031901126101df576004359063ffffffff60e01b82168092036101df5760209163152a902d60e11b8114908115612584575b5015158152f35b632483248360e11b81149150811561259e575b508361257d565b6380ac58cd60e01b8114915081156125d0575b81156125bf575b5083612597565b6301ffc9a760e01b149050836125b8565b635b5e139f60e01b811491506125b1565b919082518082526020808301940160005b828110612610575050600081602094950152601f8019910116010190565b81810151868201526020016125f2565b90600182811c92168015612650575b602083101461263a57565b634e487b7160e01b600052602260045260246000fd5b91607f169161262f565b608081019081106001600160401b03821117610cfb57604052565b604081019081106001600160401b03821117610cfb57604052565b90601f801991011681019081106001600160401b03821117610cfb57604052565b90604051918260008254926126c584612620565b808452936001811690811561273357506001146126ec575b506126ea92500383612690565b565b90506000929192526020600020906000915b8183106127175750509060206126ea92820101386126dd565b60209193508060019154838589010152019101909184926126fe565b9050602092506126ea94915060ff191682840152151560051b820101386126dd565b600435906001600160a01b03821682036101df57565b602435906001600160a01b03821682036101df57565b6001600160401b038111610cfb57601f01601f191660200190565b9291926127a882612781565b916127b66040519384612690565b8294818452818301116101df578281602093846000960137010152565b9080601f830112156101df578160206127ee9335910161279c565b90565b60609060031901126101df576004356001600160a01b03811681036101df57906024356001600160a01b03811681036101df579060443590565b6001600160401b038111610cfb5760051b60200190565b805482101561285a5760005260206000200190600090565b634e487b7160e01b600052603260045260246000fd5b81810292918115918404141715610ccf57565b6000198114610ccf5760010190565b6001600160a01b039091169190821561218c576000828152600260205260408120546001600160a01b031693839185903315158061298a575b507fddf252ad1be2c89b69c2b068fc378daa952ba7f163c4a11628f55a4df523b3ef9082612955575b838152600360209081526040808320805460010190558683526002909152812080546001600160a01b0319168517905580a46001600160a01b031680830361293b57505050565b6364283d7b60e01b60005260045260245260445260646000fd5b600085815260046020526040902080546001600160a01b031916905582815260036020526040812080546000190190556128f4565b9150919250806129d3575b156129a45790848492386128cb565b8390856129bd57602491637e27328960e01b8252600452fd5b60449163177e802f60e01b825233600452602452fd5b503385148015612a01575b806129955750838152600460205260408120546001600160a01b03163314612995565b5084815260056020908152604080832033845290915281205460ff166129de565b805182101561285a5760209160051b010190565b15612a3d57565b60405162461bcd60e51b815260206004820152600d60248201526c1a5b9d985b1a59081d985d5b1d609a1b6044820152606490fd5b612a7b81612aa5565b506000526006602052612a9160406000206126b1565b6000604051612aa1602082612690565b5290565b6000818152600260205260409020546001600160a01b0316908115612ac8575090565b637e27328960e01b60005260045260246000fd5b6009546001600160a01b03163303612af057565b63118cdaa760e01b6000523360045260246000fd5b600980546001600160a01b039283166001600160a01b0319821681179092559091167f8be0079c531659141344cd1fd0a4f28419497f9722a3daafe3b4186f6b6457e0600080a3565b823b612b5c575b5050505050565b604051630a85bd0160e11b81526001600160a01b039182166004820152918116602483015260448201939093526080606482015291169160209082908190612ba89060848301906125e1565b03816000865af18091600091612c48575b5090612c1257503d15612c0b573d612bd081612781565b90612bde6040519283612690565b81523d6000602083013e5b80519081612c065782633250574960e11b60005260045260246000fd5b602001fd5b6060612be9565b6001600160e01b03191663757a42ff60e11b01612c3457503880808080612b55565b633250574960e11b60005260045260246000fd5b6020813d602011612c83575b81612c6160209383612690565b8101031261211e5751906001600160e01b03198216820361211b575038612bb9565b3d9150612c5456fea26469706673582212206d4aa798cc350a9e1b4ab008a4e8a80925d877749d00bfddb4dd25f89a4fe84664736f6c634300081c0033",
  "linkReferences": {},
  "deployedLinkReferences": {}
}