{
  "_format": "hh-sol-artifact-1",
  "contractName": "TicketImplementation",
  "sourceName": "contracts/ticket-implementation.sol",
  "abi": [
    {
      "inputs": [],
      "stateMutability": "nonpayable",
      "type": "constructor"
    },
    {
      "inputs": [
        {
          "internalType": "uint256",
          "name": "numerator",
          "type": "uint256"
        },
        {
          "internalType": "uint256",
          "name": "denominator",
          "type": "uint256"
        }
      ],
      "name": "ERC2981InvalidDefaultRoyalty",
      "type": "error"
    },
    {
      "inputs": [
        {
          "internalType": "address",
          "name": "receiver",
          "type": "address"
        }
      ],
      "name": "ERC2981InvalidDefaultRoyaltyReceiver",
      "type": "error"
    },
    {
      "inputs": [
        {
          "internalType": "uint256",
          "name": "tokenId",
          "type": "uint256"
        },
        {
          "internalType": "uint256",
          "name": "numerator",
          "type": "uint256"
        },
        {
          "internalType": "uint256",
          "name": "denominator",
          "type": "uint256"
        }
      ],
      "name": "ERC2981InvalidTokenRoyalty",
      "type": "error"
    },
    {
      "inputs": [
        {
          "internalType": "uint256",
          "name": "tokenId",
          "type": "uint256"
        },
        {
          "internalType": "address",
          "name": "receiver",
          "type": "address"
        }
      ],
      "name": "ERC2981InvalidTokenRoyaltyReceiver",
      "type": "error"
    },
    {
      "inputs": [
        {
          "internalType": "address",
          "name": "sender",
          "type": "address"
        },
        {
          "internalType": "uint256",
          "name": "tokenId",
          "type": "uint256"
        },
        {
          "internalType": "address",
          "name": "owner",
          "type": "address"
        }
      ],
      "name": "ERC721IncorrectOwner",
      "type": "error"
    },
    {
      "inputs": [
        {
          "internalType": "address",
          "name": "operator",
          "type": "address"
        },
        {
          "internalType": "uint256",
          "name": "tokenId",
          "type": "uint256"
        }
      ],
      "name": "ERC721InsufficientApproval",
      "type": "error"
    },
    {
      "inputs": [
        {
          "internalType": "address",
          "name": "approver",
          "type": "address"
        }
      ],
      "name": "ERC721InvalidApprover",
      "type": "error"
    },
    {
      "inputs": [
        {
          "internalType": "address",
          "name": "operator",
          "type": "address"
        }
      ],
      "name": "ERC721InvalidOperator",
      "type": "error"
    },
    {
      "inputs": [
        {
          "internalType": "address",
          "name": "owner",
          "type": "address"
        }
      ],
      "name": "ERC721InvalidOwner",
      "type": "error"
    },
    {
      "inputs": [
        {
          "internalType": "address",
          "name": "receiver",
          "type": "address"
        }
      ],
      "name": "ERC721InvalidReceiver",
      "type": "error"
    },
    {
      "inputs": [
        {
          "internalType": "address",
          "name": "sender",
          "type": "address"
        }
      ],
      "name": "ERC721InvalidSender",
      "type": "error"
    },
    {
      "inputs": [
        {
          "internalType": "uint256",
          "name": "tokenId",
          "type": "uint256"
        }
      ],
      "name": "ERC721NonexistentToken",
      "type": "error"
    },
    {
      "inputs": [
        {
          "internalType": "address",
          "name": "owner",
          "type": "address"
        }
      ],
      "name": "OwnableInvalidOwner",
      "type": "error"
    },
    {
      "inputs": [
        {
          "internalType": "address",
          "name": "account",
          "type": "address"
        }
      ],
      "name": "OwnableUnauthorizedAccount",
      "type": "error"
    },
    {
      "anonymous": false,
      "inputs": [
        {
          "indexed": true,
          "internalType": "address",
          "name": "owner",
          "type": "address"
        },
        {
          "indexed": true,
          "internalType": "address",
          "name": "approved",
          "type": "address"
        },
        {
          "indexed": true,
          "internalType": "uint256",
          "name": "tokenId",
          "type": "uint256"
        }
      ],
      "name": "Approval",
      "type": "event"
    },
    {
      "anonymous": false,
      "inputs": [
        {
          "indexed": true,
          "internalType": "address",
          "name": "owner",
          "type": "address"
        },
        {
          "indexed": true,
          "internalType": "address",
          "name": "operator",
          "type": "address"
        },
        {
          "indexed": false,
          "internalType": "bool",
          "name": "approved",
          "type": "bool"
        }
      ],
      "name": "ApprovalForAll",
      "type": "event"
    },
    {
      "anonymous": false,
      "inputs": [
        {
          "indexed": false,
          "internalType": "uint256",
          "name": "_fromTokenId",
          "type": "uint256"
        },
        {
          "indexed": false,
          "internalType": "uint256",
          "name": "_toTokenId",
          "type": "uint256"
        }
      ],
      "name": "BatchMetadataUpdate",
      "type": "event"
    },
    {
      "anonymous": false,
      "inputs": [
        {
          "indexed": false,
          "internalType": "string",
          "name": "eventId",
          "type": "string"
        },
        {
          "indexed": false,
          "internalType": "string",
          "name": "eventName",
          "type": "string"
        }
      ],
      "name": "Initialized",
      "type": "event"
    },
    {
      "anonymous": false,
      "inputs": [
        {
          "indexed": false,
          "internalType": "uint256",
          "name": "_tokenId",
          "type": "uint256"
        }
      ],
      "name": "MetadataUpdate",
      "type": "event"
    },
    {
      "anonymous": false,
      "inputs": [
        {
          "indexed": true,
          "internalType": "address",
          "name": "previousOwner",
          "type": "address"
        },
        {
          "indexed": true,
          "internalType": "address",
          "name": "newOwner",
          "type": "address"
        }
      ],
      "name": "OwnershipTransferred",
      "type": "event"
    },
    {
      "anonymous": false,
      "inputs": [
        {
          "indexed": true,
          "internalType": "address",
          "name": "buyer",
          "type": "address"
        },
        {
          "indexed": true,
          "internalType": "uint256",
          "name": "tokenId",
          "type": "uint256"
        },
        {
          "indexed": false,
          "internalType": "uint256",
          "name": "price",
          "type": "uint256"
        }
      ],
      "name": "TicketPurchased",
      "type": "event"
    },
    {
      "anonymous": false,
      "inputs": [
        {
          "indexed": true,
          "internalType": "address",
          "name": "from",
          "type": "address"
        },
        {
          "indexed": true,
          "internalType": "address",
          "name": "to",
          "type": "address"
        },
        {
          "indexed": true,
          "internalType": "uint256",
          "name": "tokenId",
          "type": "uint256"
        }
      ],
      "name": "Transfer",
      "type": "event"
    },
    {
      "inputs": [],
      "name": "MAX_ROYALTY_FEE",
      "outputs": [
        {
          "internalType": "uint96",
          "name": "",
          "type": "uint96"
        }
      ],
      "stateMutability": "view",
      "type": "function"
    },
    {
      "inputs": [
        {
          "internalType": "address",
          "name": "to",
          "type": "address"
        },
        {
          "internalType": "uint256",
          "name": "tokenId",
          "type": "uint256"
        }
      ],
      "name": "approve",
      "outputs": [],
      "stateMutability": "nonpayable",
      "type": "function"
    },
    {
      "inputs": [
        {
          "internalType": "address",
          "name": "owner",
          "type": "address"
        }
      ],
      "name": "balanceOf",
      "outputs": [
        {
          "internalType": "uint256",
          "name": "",
          "type": "uint256"
        }
      ],
      "stateMutability": "view",
      "type": "function"
    },
    {
      "inputs": [
        {
          "internalType": "uint256",
          "name": "zoneIndex",
          "type": "uint256"
        },
        {
          "internalType": "string",
          "name": "tokenURI_",
          "type": "string"
        }
      ],
      "name": "buyTicket",
      "outputs": [],
      "stateMutability": "payable",
      "type": "function"
    },
    {
      "inputs": [],
      "name": "description",
      "outputs": [
        {
          "internalType": "string",
          "name": "",
          "type": "string"
        }
      ],
      "stateMutability": "view",
      "type": "function"
    },
    {
      "inputs": [],
      "name": "eventId",
      "outputs": [
        {
          "internalType": "string",
          "name": "",
          "type": "string"
        }
      ],
      "stateMutability": "view",
      "type": "function"
    },
    {
      "inputs": [],
      "name": "eventName",
      "outputs": [
        {
          "internalType": "string",
          "name": "",
          "type": "string"
        }
      ],
      "stateMutability": "view",
      "type": "function"
    },
    {
      "inputs": [
        {
          "internalType": "uint256",
          "name": "tokenId",
          "type": "uint256"
        }
      ],
      "name": "getApproved",
      "outputs": [
        {
          "internalType": "address",
          "name": "",
          "type": "address"
        }
      ],
      "stateMutability": "view",
      "type": "function"
    },
    {
      "inputs": [],
      "name": "image",
      "outputs": [
        {
          "internalType": "string",
          "name": "",
          "type": "string"
        }
      ],
      "stateMutability": "view",
      "type": "function"
    },
    {
      "inputs": [
        {
          "internalType": "string",
          "name": "_eventId",
          "type": "string"
        },
        {
          "internalType": "string",
          "name": "_eventName",
          "type": "string"
        },
        {
          "internalType": "string",
          "name": "_description",
          "type": "string"
        },
        {
          "internalType": "string",
          "name": "_image",
          "type": "string"
        },
        {
          "internalType": "address",
          "name": "_organizer",
          "type": "address"
        },
        {
          "internalType": "uint96",
          "name": "_royaltyFee",
          "type": "uint96"
        },
        {
          "internalType": "address[]",
          "name": "_wallets",
          "type": "address[]"
        },
        {
          "internalType": "uint16[]",
          "name": "_shares",
          "type": "uint16[]"
        },
        {
          "internalType": "string[]",
          "name": "_zones",
          "type": "string[]"
        },
        {
          "internalType": "uint64[]",
          "name": "_prices",
          "type": "uint64[]"
        },
        {
          "internalType": "uint32[]",
          "name": "_maxSupplies",
          "type": "uint32[]"
        },
        {
          "internalType": "address",
          "name": "_vault",
          "type": "address"
        }
      ],
      "name": "initialize",
      "outputs": [],
      "stateMutability": "nonpayable",
      "type": "function"
    },
    {
      "inputs": [
        {
          "internalType": "address",
          "name": "owner",
          "type": "address"
        },
        {
          "internalType": "address",
          "name": "operator",
          "type": "address"
        }
      ],
      "name": "isApprovedForAll",
      "outputs": [
        {
          "internalType": "bool",
          "name": "",
          "type": "bool"
        }
      ],
      "stateMutability": "view",
      "type": "function"
    },
    {
      "inputs": [],
      "name": "name",
      "outputs": [
        {
          "internalType": "string",
          "name": "",
          "type": "string"
        }
      ],
      "stateMutability": "view",
      "type": "function"
    },
    {
      "inputs": [],
      "name": "owner",
      "outputs": [
        {
          "internalType": "address",
          "name": "",
          "type": "address"
        }
      ],
      "stateMutability": "view",
      "type": "function"
    },
    {
      "inputs": [
        {
          "internalType": "uint256",
          "name": "tokenId",
          "type": "uint256"
        }
      ],
      "name": "ownerOf",
      "outputs": [
        {
          "internalType": "address",
          "name": "",
          "type": "address"
        }
      ],
      "stateMutability": "view",
      "type": "function"
    },
    {
      "inputs": [
        {
          "internalType": "uint256",
          "name": "",
          "type": "uint256"
        }
      ],
      "name": "payouts",
      "outputs": [
        {
          "internalType": "address",
          "name": "wallet",
          "type": "address"
        },
        {
          "internalType": "uint96",
          "name": "share",
          "type": "uint96"
        }
      ],
      "stateMutability": "view",
      "type": "function"
    },
    {
      "inputs": [],
      "name": "renounceOwnership",
      "outputs": [],
      "stateMutability": "nonpayable",
      "type": "function"
    },
    {
      "inputs": [
        {
          "internalType": "uint256",
          "name": "tokenId",
          "type": "uint256"
        },
        {
          "internalType": "uint256",
          "name": "salePrice",
          "type": "uint256"
        }
      ],
      "name": "royaltyInfo",
      "outputs": [
        {
          "internalType": "address",
          "name": "receiver",
          "type": "address"
        },
        {
          "internalType": "uint256",
          "name": "amount",
          "type": "uint256"
        }
      ],
      "stateMutability": "view",
      "type": "function"
    },
    {
      "inputs": [
        {
          "internalType": "address",
          "name": "from",
          "type": "address"
        },
        {
          "internalType": "address",
          "name": "to",
          "type": "address"
        },
        {
          "internalType": "uint256",
          "name": "tokenId",
          "type": "uint256"
        }
      ],
      "name": "safeTransferFrom",
      "outputs": [],
      "stateMutability": "nonpayable",
      "type": "function"
    },
    {
      "inputs": [
        {
          "internalType": "address",
          "name": "from",
          "type": "address"
        },
        {
          "internalType": "address",
          "name": "to",
          "type": "address"
        },
        {
          "internalType": "uint256",
          "name": "tokenId",
          "type": "uint256"
        },
        {
          "internalType": "bytes",
          "name": "data",
          "type": "bytes"
        }
      ],
      "name": "safeTransferFrom",
      "outputs": [],
      "stateMutability": "nonpayable",
      "type": "function"
    },
    {
      "inputs": [
        {
          "internalType": "address",
          "name": "operator",
          "type": "address"
        },
        {
          "internalType": "bool",
          "name": "approved",
          "type": "bool"
        }
      ],
      "name": "setApprovalForAll",
      "outputs": [],
      "stateMutability": "nonpayable",
      "type": "function"
    },
    {
      "inputs": [
        {
          "internalType": "address",
          "name": "_vault",
          "type": "address"
        }
      ],
      "name": "setVault",
      "outputs": [],
      "stateMutability": "nonpayable",
      "type": "function"
    },
    {
      "inputs": [
        {
          "internalType": "bytes4",
          "name": "interfaceId",
          "type": "bytes4"
        }
      ],
      "name": "supportsInterface",
      "outputs": [
        {
          "internalType": "bool",
          "name": "",
          "type": "bool"
        }
      ],
      "stateMutability": "view",
      "type": "function"
    },
    {
      "inputs": [],
      "name": "symbol",
      "outputs": [
        {
          "internalType": "string",
          "name": "",
          "type": "string"
        }
      ],
      "stateMutability": "view",
      "type": "function"
    },
    {
      "inputs": [
        {
          "internalType": "uint256",
          "name": "tokenId",
          "type": "uint256"
        }
      ],
      "name": "tokenURI",
      "outputs": [
        {
          "internalType": "string",
          "name": "",
          "type": "string"
        }
      ],
      "stateMutability": "view",
      "type": "function"
    },
    {
      "inputs": [],
      "name": "totalMinted",
      "outputs": [
        {
          "internalType": "uint256",
          "name": "",
          "type": "uint256"
        }
      ],
      "stateMutability": "view",
      "type": "function"
    },
    {
      "inputs": [],
      "name": "totalShare",
      "outputs": [
        {
          "internalType": "uint96",
          "name": "",
          "type": "uint96"
        }
      ],
      "stateMutability": "view",
      "type": "function"
    },
    {
      "inputs": [
        {
          "internalType": "address",
          "name": "from",
          "type": "address"
        },
        {
          "internalType": "address",
          "name": "to",
          "type": "address"
        },
        {
          "internalType": "uint256",
          "name": "tokenId",
          "type": "uint256"
        }
      ],
      "name": "transferFrom",
      "outputs": [],
      "stateMutability": "nonpayable",
      "type": "function"
    },
    {
      "inputs": [
        {
          "internalType": "address",
          "name": "newOwner",
          "type": "address"
        }
      ],
      "name": "transferOwnership",
      "outputs": [],
      "stateMutability": "nonpayable",
      "type": "function"
    },
    {
      "inputs": [],
      "name": "vault",
      "outputs": [
        {
          "internalType": "address",
          "name": "",
          "type": "address"
        }
      ],
      "stateMutability": "view",
      "type": "function"
    },
    {
      "inputs": [
        {
          "internalType": "uint256",
          "name": "",
          "type": "uint256"
        }
      ],
      "name": "zones",
      "outputs": [
        {
          "internalType": "string",
          "name": "name",
          "type": "string"
        },
        {
          "internalType": "uint256",
          "name": "price",
          "type": "uint256"
        },
        {
          "internalType": "uint256",
          "name": "maxSupply",
          "type": "uint256"
        },
        {
          "internalType": "uint256",
          "name": "totalMinted",
          "type": "uint256"
        }
      ],
      "stateMutability": "view",
      "type": "function"
    }
  ],
  "bytecode": "0x60806040523461038a57604080519081016001600160401b03811182821017610297576040908152600a82526910985cd9551a58dad95d60b21b602083015280519081016001600160401b0381118282101761029757604052600781526610951250d2d15560ca1b602082015281516001600160401b03811161029757600054600181811c91168015610380575b602082101461027757601f811161031c575b50602092601f82116001146102b857928192936000926102ad575b50508160011b916000199060031b1c1916176000555b80516001600160401b03811161029757600154600181811c9116801561028d575b602082101461027757601f8111610212575b50602091601f82116001146101ae579181926000926101a3575b50508160011b916000199060031b1c1916176001555b331561018d5760098054336001600160a01b03198216811790925560405191906001600160a01b03167f8be0079c531659141344cd1fd0a4f28419497f9722a3daafe3b4186f6b6457e0600080a361264790816103908239f35b631e4fbdf760e01b600052600060045260246000fd5b01519050388061011d565b601f198216926001600052806000209160005b8581106101fa575083600195106101e1575b505050811b01600155610133565b015160001960f88460031b161c191690553880806101d3565b919260206001819286850151815501940192016101c1565b60016000527fb10e2d527612073b26eecdfd717e6a320cf44b4afac2b0732d9fcbe2b7fa0cf6601f830160051c8101916020841061026d575b601f0160051c01905b8181106102615750610103565b60008155600101610254565b909150819061024b565b634e487b7160e01b600052602260045260246000fd5b90607f16906100f1565b634e487b7160e01b600052604160045260246000fd5b0151905038806100ba565b601f1982169360008052806000209160005b86811061030457508360019596106102eb575b505050811b016000556100d0565b015160001960f88460031b161c191690553880806102dd565b919260206001819286850151815501940192016102ca565b600080527f290decd9548b62a8d60345a988386fc84ba6bc95484008f6362f93160ef3e563601f830160051c81019160208410610376575b601f0160051c01905b81811061036a575061009f565b6000815560010161035d565b9091508190610354565b90607f169061008d565b600080fdfe608080604052600436101561001357600080fd5b60003560e01c90816301ffc9a714611eb957508063026c420714611e9257806306fdde0314611ded578063081812fc14611daf578063089cdd0c14611d07578063095ea7b314611c185780631333963214611baa57806317e1f82e14611b8d57806323b872dd14611b7657806329652e8614611b305780632a55205a14611aad57806342842e0e14611a7d5780636352211e14611a4d5780636817031b14611a0a57806370a08231146119b4578063715018a6146119575780637284e416146118af5780638043c9c0146118075780638da5cb5b146117de57806395d89b41146117365780639afb93cb14611229578063a22cb46514611188578063a2309ff81461116a578063b88d4fde146110ff578063c87b56dd146110e0578063d9efce9814610328578063e985e9c5146102cd578063f2fde38b1461027c578063f3ccaac0146101975763fbfa77cf1461016957600080fd5b3461019257600036600319011261019257600a546040516001600160a01b039091168152602090f35b600080fd5b34610192576000366003190112610192576040516000600e546101b981611f97565b808452906001811690811561025857506001146101f9575b6101f5836101e181850382611fec565b604051918291602083526020830190611f58565b0390f35b600e60009081527fbb7b4a454dc3493923482f07822329ed19e8244eff582cc204f8554c3620c3fd939250905b80821061023e575090915081016020016101e16101d1565b919260018160209254838588010152019101909291610226565b60ff191660208086019190915291151560051b840190910191506101e190506101d1565b34610192576020366003190112610192576102956120b1565b61029d61248a565b6001600160a01b038116156102b7576102b5906124b3565b005b631e4fbdf760e01b600052600060045260246000fd5b34610192576040366003190112610192576102e66120b1565b6102ee6120c7565b9060018060a01b0316600052600560205260406000209060018060a01b0316600052602052602060ff604060002054166040519015158152f35b3461019257610180366003190112610192576004356001600160401b038111610192576103599036906004016121b9565b6024356001600160401b038111610192576103789036906004016121b9565b6044356001600160401b038111610192576103979036906004016121b9565b6064356001600160401b038111610192576103b69036906004016121b9565b6084356001600160a01b038116938482036101925760a435946001600160601b0386168096036101925760c435936001600160401b038511610192573660238601121561019257846004013561040b816121d7565b956104196040519788611fec565b8187526024602088019260051b8201019036821161019257602401915b8183106110c05750505060e435956001600160401b038711610192573660238801121561019257866004013561046b816121d7565b97610479604051998a611fec565b818952602460208a019260051b8201019036821161019257602401915b8183106110a55750505061010435976001600160401b038911610192573660238a0112156101925788600401356104cc816121d7565b996104da6040519b8c611fec565b818b52602460208c019260051b820101903682116101925760248101925b828410611076575050505061012435936001600160401b038511610192573660238601121561019257846004013561052f816121d7565b9561053d6040519788611fec565b8187526024602088019260051b8201019036821161019257602401915b8183106110565750505061014435966001600160401b0388116101925736602389011215610192578760040135610590816121d7565b9861059e6040519a8b611fec565b818a52602460208b019260051b8201019036821161019257602401915b81831061103957505050610164356001600160a01b03811691908290036101925760095460ff8160a01c16610ffe5760ff60a01b1916600160a01b1760095589518b5103610fc1578b51875181149081610fb6575b5015610f7c576103e88411610f44578161062e610647931515612391565b600a80546001600160a01b0319169190911790556124b3565b6127108211610f29578015610f13576040519061066382611fd1565b808252602090910182905260a09190911b6001600160a01b0319166001600160a01b039091161760075588516001600160401b0381116108d9576106a8600b54611f97565b601f8111610eae575b50806020601f8211600114610e4657600091610e3b575b508160011b916000199060031b1c191617600b555b83516001600160401b0381116108d9576106f8600c54611f97565b601f8111610dd6575b50806020601f8211600114610d7057600091610d65575b508160011b916000199060031b1c191617600c555b8051906001600160401b0382116108d957819061074b600d54611f97565b601f8111610cf5575b50602090601f8311600114610c8d57600092610c82575b50508160011b916000199060031b1c191617600d555b8051906001600160401b0382116108d957819061079f600e54611f97565b601f8111610c12575b50602090601f8311600114610baa57600092610b9f575b50508160011b916000199060031b1c191617600e555b600095865b8551881015610925576001600160a01b036107f5898861243f565b5116156108ef576001600160a01b0361080e898861243f565b511661ffff61081d8a8a61243f565b51166040519161082c83611fd1565b825260208201908152601154600160401b8110156108d957806001610854920160115561214c565b9290926108c35751905160a01b6001600160a01b0319166001600160a01b03919091161790556001600160601b0361ffff61088f8a8a61243f565b51169116016001600160601b0381116108ad576001909701966107da565b634e487b7160e01b600052601160045260246000fd5b634e487b7160e01b600052600060045260246000fd5b634e487b7160e01b600052604160045260246000fd5b60405162461bcd60e51b815260206004820152600e60248201526d1a5b9d985b1a59081dd85b1b195d60921b6044820152606490fd5b6001600160601b038991166127108103610b64576001600160601b0319601254161760125560005b8251811015610b1457610960818461243f565b516001600160401b03610973838761243f565b511663ffffffff610984848a61243f565b511660405192608084018481106001600160401b038211176108d95760405283526020830191825260408301908152606083019160008352601054600160401b8110156108d9578060016109db92016010556120dd565b9490946108c357518051906001600160401b0382116108d9576109fe8654611f97565b601f8111610acc575b50602090601f8311600114610a5d5791806001989796949260039694600092610a52575b505060001982871b1c191690881b1785555b5186850155516002840155519101550161094d565b015190508e80610a2b565b90601f1983169187600052816000209260005b818110610ab457509260019998979593928592600398968c9510610a9c575b505050811b018555610a3d565b015160001983891b60f8161c191690558e8080610a8f565b92936020600181928786015181550195019301610a70565b866000526020600020601f840160051c81019160208510610b0a575b601f0160051c01905b818110610afe5750610a07565b60008155600101610af1565b9091508190610ae8565b7fa070f05b16f4eb7ffaa9444c7d3e435633333ff89cc255bd7e648e7dab636f33610b5183610b5f88604051938493604085526040850190611f58565b908382036020850152611f58565b0390a1005b60405162461bcd60e51b8152602060048201526013602482015272746f74616c20736861726520213d203130302560681b6044820152606490fd5b0151905089806107bf565b600e60009081528281209350601f198516905b818110610bfa5750908460019594939210610be1575b505050811b01600e556107d5565b015160001960f88460031b161c19169055898080610bd3565b92936020600181928786015181550195019301610bbd565b600e6000529091507fbb7b4a454dc3493923482f07822329ed19e8244eff582cc204f8554c3620c3fd601f840160051c81019160208510610c78575b90601f859493920160051c01905b818110610c6957506107a8565b60008155849350600101610c5c565b9091508190610c4e565b015190508a8061076b565b600d60009081528281209350601f198516905b818110610cdd5750908460019594939210610cc4575b505050811b01600d55610781565b015160001960f88460031b161c191690558a8080610cb6565b92936020600181928786015181550195019301610ca0565b600d6000529091507fd7b6990105719101dabeb77144f2a3385c8033acd3af97e9423a695e81ad1eb5601f840160051c81019160208510610d5b575b90601f859493920160051c01905b818110610d4c5750610754565b60008155849350600101610d3f565b9091508190610d31565b90508501518b610718565b600c60009081528181209250601f198416905b818110610dbe57509083600194939210610da5575b5050811b01600c5561072d565b87015160001960f88460031b161c191690558b80610d98565b9192602060018192868c015181550194019201610d83565b600c6000527fdf6966c971051c3d54ec59162606531493a51404a002842f56009d7e5cf4a8c7601f830160051c81019160208410610e31575b601f0160051c01905b818110610e255750610701565b60008155600101610e18565b9091508190610e0f565b90508a01518b6106c8565b600b60009081528181209250601f198416905b8d828210610e965750509083600194939210610e7d575b5050811b01600b556106dd565b8c015160001960f88460031b161c191690558b80610e70565b60018495602093958493015181550194019201610e59565b600b6000527f0175b7a638427703f0dbe7bb9bbf987a2551717b34e79f33b5b1008d1fa01db9601f830160051c81019160208410610f09575b601f0160051c01905b818110610efd57506106b1565b60008155600101610ef0565b9091508190610ee7565b635b6cc80560e11b600052600060045260246000fd5b50636f483d0960e01b60005260045261271060245260446000fd5b60405162461bcd60e51b815260206004820152601060248201526f0e4def2c2d8e8f240e8dede40d0d2ced60831b6044820152606490fd5b60405162461bcd60e51b81526020600482015260126024820152710f4dedcca40c8c2e8c240dad2e6dac2e8c6d60731b6044820152606490fd5b90508951148e610610565b60405162461bcd60e51b81526020600482015260156024820152740eec2d8d8cae85ee6d0c2e4ca40dad2e6dac2e8c6d605b1b6044820152606490fd5b60405162461bcd60e51b8152602060048201526013602482015272185b1c9958591e481a5b9a5d1a585b1a5e9959606a1b6044820152606490fd5b823563ffffffff81168103610192578152602092830192016105bb565b82356001600160401b03811681036101925781526020928301920161055a565b83356001600160401b0381116101925760209161109a8392602436918701016121b9565b8152019301926104f8565b823561ffff8116810361019257815260209283019201610496565b82356001600160a01b038116810361019257815260209283019201610436565b34610192576020366003190112610192576101f56101e160043561240c565b34610192576080366003190112610192576111186120b1565b6111206120c7565b90604435606435926001600160401b0384116101925736602385011215610192576111586102b5943690602481600401359101612182565b926111648383836121ee565b336124fc565b34610192576000366003190112610192576020600f54604051908152f35b34610192576040366003190112610192576111a16120b1565b60243590811515809203610192576001600160a01b031690811561121457336000526005602052604060002082600052602052604060002060ff1981541660ff83161790556040519081527f17307eab39ab6107e8899845ad3d59bd9653f200f220920489ca2b5937696c3160203392a3005b50630b61174360e31b60005260045260246000fd5b6040366003190112610192576004356024356001600160401b038111610192576112579036906004016121b9565b906010548110156117025761126b906120dd565b50600381019081549060028101548210156116d25760010154341061169857611293906123cd565b90556112a0600f546123cd565b9081600f556020916040516112b58482611fec565b6000815233156116825760008281526002855260408120546001600160a01b03168015159184908361164e575b338082526003895260408083208054600101905583835260028a52822080546001600160a01b031916821790559083907fddf252ad1be2c89b69c2b068fc378daa952ba7f163c4a11628f55a4df523b3ef9080a45061163857333b611540575b5090918160005260068152604060002083516001600160401b0381116108d95761136c8254611f97565b601f81116114fa575b508294601f82116001146114965794819293949560009261148b575b50508160011b916000199060031b1c19161790555b7ff8e1a15aba9398e019f0b49df1a4fde98ee17ae345cb5f6b5e2c27f5033e8ce781604051848152a160005b60115481101561145d5760008080806127106113fb6113f08761214c565b505460a01c3461237e565b046114058661214c565b50546001600160a01b03165af161141a6123dc565b5015611428576001016113d2565b60405162461bcd60e51b815260048101839052600d60248201526c1c185e5bdd5d0819985a5b1959609a1b6044820152606490fd5b507f2a91574e12ad96234e84923e146b0946ecfb871cd8d5534dc1fdcbe87a7c01b3604051913483523392a3005b015190508580611391565b601f1982169583600052846000209160005b8881106114e3575083600195969798106114ca575b505050811b0190556113a6565b015160001960f88460031b161c191690558580806114bd565b9192866001819286850151815501940192016114a8565b8260005283600020601f830160051c810191858410611536575b601f0160051c01905b81811061152a5750611375565b6000815560010161151d565b9091508190611514565b8361157a9160405180938192630a85bd0160e11b835233600484015260006024840152866044840152608060648401526084830190611f58565b03816000335af180916000916115f3575b50906115bb578361159a6123dc565b80519190826115b857633250574960e11b6000523360045260246000fd5b01fd5b919290916001600160e01b03191663757a42ff60e11b016115de57919083611342565b633250574960e11b6000523360045260246000fd5b8581813d8311611631575b6116088183611fec565b8101031261162d5751906001600160e01b03198216820361162a57508561158b565b80fd5b5080fd5b503d6115fe565b6339e3563760e11b600052600060045260246000fd5b600082815260046020526040902080546001600160a01b0319169055828152600388526040812080546000190190556112e2565b633250574960e11b600052600060045260246000fd5b60405162461bcd60e51b8152602060048201526012602482015271696e73756666696369656e742066756e647360701b6044820152606490fd5b60405162461bcd60e51b81526020600482015260086024820152671cdbdb19081bdd5d60c21b6044820152606490fd5b60405162461bcd60e51b815260206004820152600c60248201526b696e76616c6964207a6f6e6560a01b6044820152606490fd5b3461019257600036600319011261019257604051600060015461175881611f97565b8084529060018116908115610258575060011461177f576101f5836101e181850382611fec565b600160009081527fb10e2d527612073b26eecdfd717e6a320cf44b4afac2b0732d9fcbe2b7fa0cf6939250905b8082106117c4575090915081016020016101e16101d1565b9192600181602092548385880101520191019092916117ac565b34610192576000366003190112610192576009546040516001600160a01b039091168152602090f35b34610192576000366003190112610192576040516000600c5461182981611f97565b80845290600181169081156102585750600114611850576101f5836101e181850382611fec565b600c60009081527fdf6966c971051c3d54ec59162606531493a51404a002842f56009d7e5cf4a8c7939250905b808210611895575090915081016020016101e16101d1565b91926001816020925483858801015201910190929161187d565b34610192576000366003190112610192576040516000600d546118d181611f97565b808452906001811690811561025857506001146118f8576101f5836101e181850382611fec565b600d60009081527fd7b6990105719101dabeb77144f2a3385c8033acd3af97e9423a695e81ad1eb5939250905b80821061193d575090915081016020016101e16101d1565b919260018160209254838588010152019101909291611925565b346101925760003660031901126101925761197061248a565b600980546001600160a01b031981169091556000906001600160a01b03167f8be0079c531659141344cd1fd0a4f28419497f9722a3daafe3b4186f6b6457e08280a3005b34610192576020366003190112610192576001600160a01b036119d56120b1565b1680156119f45760005260036020526020604060002054604051908152f35b6322718ad960e21b600052600060045260246000fd5b34610192576020366003190112610192576001600160a01b03611a2b6120b1565b16611a37811515612391565b600a80546001600160a01b031916919091179055005b34610192576020366003190112610192576020611a6b600435612453565b6040516001600160a01b039091168152f35b34610192576102b5611a8e36612112565b9060405192611a9e602085611fec565b600084526111648383836121ee565b346101925760403660031901126101925760043560009081526008602052604090205460a081901c906001600160a01b03168015611b17575b612710611b006001600160601b036040941660243561237e565b83516001600160a01b039093168352046020820152f35b505060075460a081901c906001600160a01b0316611ae6565b346101925760203660031901126101925760043560115481101561019257611b5960409161214c565b505481516001600160a01b038216815260a09190911c6020820152f35b34610192576102b5611b8736612112565b916121ee565b346101925760003660031901126101925760206040516103e88152f35b346101925760203660031901126101925760043560105481101561019257611bd4611c04916120dd565b50611bde8161200d565b906001810154906003600282015491015490604051948594608086526080860190611f58565b926020850152604084015260608301520390f35b3461019257604036600319011261019257611c316120b1565b602435611c3d81612453565b33151580611cf4575b80611cc6575b611cb15781906001600160a01b0384811691167f8c5be1e5ebec7d5bd14f71427d1e84f3dd0314c0f7b2291e5b200ac8c7c3b925600080a4600090815260046020526040902080546001600160a01b0319166001600160a01b03909216919091179055005b63a9fbf51f60e01b6000523360045260246000fd5b506001600160a01b038116600090815260056020908152604080832033845290915290205460ff1615611c4c565b506001600160a01b038116331415611c46565b34610192576000366003190112610192576040516000600b54611d2981611f97565b80845290600181169081156102585750600114611d50576101f5836101e181850382611fec565b600b60009081527f0175b7a638427703f0dbe7bb9bbf987a2551717b34e79f33b5b1008d1fa01db9939250905b808210611d95575090915081016020016101e16101d1565b919260018160209254838588010152019101909291611d7d565b3461019257602036600319011261019257600435611dcc81612453565b506000526004602052602060018060a01b0360406000205416604051908152f35b346101925760003660031901126101925760405160008054611e0e81611f97565b80845290600181169081156102585750600114611e35576101f5836101e181850382611fec565b60008080527f290decd9548b62a8d60345a988386fc84ba6bc95484008f6362f93160ef3e563939250905b808210611e78575090915081016020016101e16101d1565b919260018160209254838588010152019101909291611e60565b346101925760003660031901126101925760206001600160601b0360125416604051908152f35b34610192576020366003190112610192576004359063ffffffff60e01b82168092036101925760209163152a902d60e11b8114908115611efb575b5015158152f35b632483248360e11b811491508115611f15575b5083611ef4565b6380ac58cd60e01b811491508115611f47575b8115611f36575b5083611f0e565b6301ffc9a760e01b14905083611f2f565b635b5e139f60e01b81149150611f28565b919082518082526020808301940160005b828110611f87575050600081602094950152601f8019910116010190565b8181015186820152602001611f69565b90600182811c92168015611fc7575b6020831014611fb157565b634e487b7160e01b600052602260045260246000fd5b91607f1691611fa6565b604081019081106001600160401b038211176108d957604052565b90601f801991011681019081106001600160401b038211176108d957604052565b906040519182600082549261202184611f97565b808452936001811690811561208f5750600114612048575b5061204692500383611fec565b565b90506000929192526020600020906000915b8183106120735750509060206120469282010138612039565b602091935080600191548385890101520191019091849261205a565b90506020925061204694915060ff191682840152151560051b82010138612039565b600435906001600160a01b038216820361019257565b602435906001600160a01b038216820361019257565b6010548110156120fc57601060005260206000209060021b0190600090565b634e487b7160e01b600052603260045260246000fd5b6060906003190112610192576004356001600160a01b038116810361019257906024356001600160a01b0381168103610192579060443590565b6011548110156120fc57601160005260206000200190600090565b6001600160401b0381116108d957601f01601f191660200190565b92919261218e82612167565b9161219c6040519384611fec565b829481845281830111610192578281602093846000960137010152565b9080601f83011215610192578160206121d493359101612182565b90565b6001600160401b0381116108d95760051b60200190565b6001600160a01b0390911691908215611682576000828152600260205260408120546001600160a01b03169383918590331515806122e6575b507fddf252ad1be2c89b69c2b068fc378daa952ba7f163c4a11628f55a4df523b3ef90826122b1575b838152600360209081526040808320805460010190558683526002909152812080546001600160a01b0319168517905580a46001600160a01b031680830361229757505050565b6364283d7b60e01b60005260045260245260445260646000fd5b600085815260046020526040902080546001600160a01b03191690558281526003602052604081208054600019019055612250565b91509192508061232f575b15612300579084849238612227565b83908561231957602491637e27328960e01b8252600452fd5b60449163177e802f60e01b825233600452602452fd5b50338514801561235d575b806122f15750838152600460205260408120546001600160a01b031633146122f1565b5084815260056020908152604080832033845290915281205460ff1661233a565b818102929181159184041417156108ad57565b1561239857565b60405162461bcd60e51b815260206004820152600d60248201526c1a5b9d985b1a59081d985d5b1d609a1b6044820152606490fd5b60001981146108ad5760010190565b3d15612407573d906123ed82612167565b916123fb6040519384611fec565b82523d6000602084013e565b606090565b61241581612453565b50600052600660205261242b604060002061200d565b600060405161243b602082611fec565b5290565b80518210156120fc5760209160051b010190565b6000818152600260205260409020546001600160a01b0316908115612476575090565b637e27328960e01b60005260045260246000fd5b6009546001600160a01b0316330361249e57565b63118cdaa760e01b6000523360045260246000fd5b600980546001600160a01b039283166001600160a01b0319821681179092559091167f8be0079c531659141344cd1fd0a4f28419497f9722a3daafe3b4186f6b6457e0600080a3565b823b61250a575b5050505050565b604051630a85bd0160e11b81526001600160a01b039182166004820152918116602483015260448201939093526080606482015291169160209082908190612556906084830190611f58565b03816000865af180916000916125ce575b509061259857506125766123dc565b805190816125935782633250574960e11b60005260045260246000fd5b602001fd5b6001600160e01b03191663757a42ff60e11b016125ba57503880808080612503565b633250574960e11b60005260045260246000fd5b6020813d602011612609575b816125e760209383611fec565b8101031261162d5751906001600160e01b03198216820361162a575038612567565b3d91506125da56fea26469706673582212203ceb454edd4c439d1891d379407c25ace4c48c209de9acea4f35e1a5c266055964736f6c634300081c0033",
  "linkReferences": {},
  "deployedLinkReferences": {}
}