{
  "_format": "hh-sol-artifact-1",
  "contractName": "TicketImplementation",
  "sourceName": "contracts/ticket-implementation.sol",
  "abi": [
    {
      "inputs": [],
      "stateMutability": "nonpayable",
      "type": "constructor"
    },
    {
      "inputs": [
        {
          "internalType": "uint256",
          "name": "numerator",
          "type": "uint256"
        },
        {
          "internalType": "uint256",
          "name": "denominator",
          "type": "uint256"
        }
      ],
      "name": "ERC2981InvalidDefaultRoyalty",
      "type": "error"
    },
    {
      "inputs": [
        {
          "internalType": "address",
          "name": "receiver",
          "type": "address"
        }
      ],
      "name": "ERC2981InvalidDefaultRoyaltyReceiver",
      "type": "error"
    },
    {
      "inputs": [
        {
          "internalType": "uint256",
          "name": "tokenId",
          "type": "uint256"
        },
        {
          "internalType": "uint256",
          "name": "numerator",
          "type": "uint256"
        },
        {
          "internalType": "uint256",
          "name": "denominator",
          "type": "uint256"
        }
      ],
      "name": "ERC2981InvalidTokenRoyalty",
      "type": "error"
    },
    {
      "inputs": [
        {
          "internalType": "uint256",
          "name": "tokenId",
          "type": "uint256"
        },
        {
          "internalType": "address",
          "name": "receiver",
          "type": "address"
        }
      ],
      "name": "ERC2981InvalidTokenRoyaltyReceiver",
      "type": "error"
    },
    {
      "inputs": [
        {
          "internalType": "address",
          "name": "sender",
          "type": "address"
        },
        {
          "internalType": "uint256",
          "name": "tokenId",
          "type": "uint256"
        },
        {
          "internalType": "address",
          "name": "owner",
          "type": "address"
        }
      ],
      "name": "ERC721IncorrectOwner",
      "type": "error"
    },
    {
      "inputs": [
        {
          "internalType": "address",
          "name": "operator",
          "type": "address"
        },
        {
          "internalType": "uint256",
          "name": "tokenId",
          "type": "uint256"
        }
      ],
      "name": "ERC721InsufficientApproval",
      "type": "error"
    },
    {
      "inputs": [
        {
          "internalType": "address",
          "name": "approver",
          "type": "address"
        }
      ],
      "name": "ERC721InvalidApprover",
      "type": "error"
    },
    {
      "inputs": [
        {
          "internalType": "address",
          "name": "operator",
          "type": "address"
        }
      ],
      "name": "ERC721InvalidOperator",
      "type": "error"
    },
    {
      "inputs": [
        {
          "internalType": "address",
          "name": "owner",
          "type": "address"
        }
      ],
      "name": "ERC721InvalidOwner",
      "type": "error"
    },
    {
      "inputs": [
        {
          "internalType": "address",
          "name": "receiver",
          "type": "address"
        }
      ],
      "name": "ERC721InvalidReceiver",
      "type": "error"
    },
    {
      "inputs": [
        {
          "internalType": "address",
          "name": "sender",
          "type": "address"
        }
      ],
      "name": "ERC721InvalidSender",
      "type": "error"
    },
    {
      "inputs": [
        {
          "internalType": "uint256",
          "name": "tokenId",
          "type": "uint256"
        }
      ],
      "name": "ERC721NonexistentToken",
      "type": "error"
    },
    {
      "inputs": [
        {
          "internalType": "address",
          "name": "owner",
          "type": "address"
        }
      ],
      "name": "OwnableInvalidOwner",
      "type": "error"
    },
    {
      "inputs": [
        {
          "internalType": "address",
          "name": "account",
          "type": "address"
        }
      ],
      "name": "OwnableUnauthorizedAccount",
      "type": "error"
    },
    {
      "anonymous": false,
      "inputs": [
        {
          "indexed": true,
          "internalType": "address",
          "name": "owner",
          "type": "address"
        },
        {
          "indexed": true,
          "internalType": "address",
          "name": "approved",
          "type": "address"
        },
        {
          "indexed": true,
          "internalType": "uint256",
          "name": "tokenId",
          "type": "uint256"
        }
      ],
      "name": "Approval",
      "type": "event"
    },
    {
      "anonymous": false,
      "inputs": [
        {
          "indexed": true,
          "internalType": "address",
          "name": "owner",
          "type": "address"
        },
        {
          "indexed": true,
          "internalType": "address",
          "name": "operator",
          "type": "address"
        },
        {
          "indexed": false,
          "internalType": "bool",
          "name": "approved",
          "type": "bool"
        }
      ],
      "name": "ApprovalForAll",
      "type": "event"
    },
    {
      "anonymous": false,
      "inputs": [
        {
          "indexed": false,
          "internalType": "uint256",
          "name": "_fromTokenId",
          "type": "uint256"
        },
        {
          "indexed": false,
          "internalType": "uint256",
          "name": "_toTokenId",
          "type": "uint256"
        }
      ],
      "name": "BatchMetadataUpdate",
      "type": "event"
    },
    {
      "anonymous": false,
      "inputs": [
        {
          "indexed": false,
          "internalType": "string",
          "name": "eventId",
          "type": "string"
        },
        {
          "indexed": false,
          "internalType": "string",
          "name": "eventName",
          "type": "string"
        }
      ],
      "name": "Initialized",
      "type": "event"
    },
    {
      "anonymous": false,
      "inputs": [
        {
          "indexed": false,
          "internalType": "uint256",
          "name": "_tokenId",
          "type": "uint256"
        }
      ],
      "name": "MetadataUpdate",
      "type": "event"
    },
    {
      "anonymous": false,
      "inputs": [
        {
          "indexed": true,
          "internalType": "address",
          "name": "previousOwner",
          "type": "address"
        },
        {
          "indexed": true,
          "internalType": "address",
          "name": "newOwner",
          "type": "address"
        }
      ],
      "name": "OwnershipTransferred",
      "type": "event"
    },
    {
      "anonymous": false,
      "inputs": [
        {
          "indexed": true,
          "internalType": "address",
          "name": "buyer",
          "type": "address"
        },
        {
          "indexed": true,
          "internalType": "uint256",
          "name": "tokenId",
          "type": "uint256"
        },
        {
          "indexed": false,
          "internalType": "uint256",
          "name": "price",
          "type": "uint256"
        }
      ],
      "name": "TicketPurchased",
      "type": "event"
    },
    {
      "anonymous": false,
      "inputs": [
        {
          "indexed": true,
          "internalType": "address",
          "name": "from",
          "type": "address"
        },
        {
          "indexed": true,
          "internalType": "address",
          "name": "to",
          "type": "address"
        },
        {
          "indexed": true,
          "internalType": "uint256",
          "name": "tokenId",
          "type": "uint256"
        }
      ],
      "name": "Transfer",
      "type": "event"
    },
    {
      "inputs": [],
      "name": "MAX_ROYALTY_FEE",
      "outputs": [
        {
          "internalType": "uint96",
          "name": "",
          "type": "uint96"
        }
      ],
      "stateMutability": "view",
      "type": "function"
    },
    {
      "inputs": [
        {
          "internalType": "address",
          "name": "to",
          "type": "address"
        },
        {
          "internalType": "uint256",
          "name": "tokenId",
          "type": "uint256"
        }
      ],
      "name": "approve",
      "outputs": [],
      "stateMutability": "nonpayable",
      "type": "function"
    },
    {
      "inputs": [
        {
          "internalType": "address",
          "name": "owner",
          "type": "address"
        }
      ],
      "name": "balanceOf",
      "outputs": [
        {
          "internalType": "uint256",
          "name": "",
          "type": "uint256"
        }
      ],
      "stateMutability": "view",
      "type": "function"
    },
    {
      "inputs": [
        {
          "internalType": "uint256",
          "name": "zoneIndex",
          "type": "uint256"
        },
        {
          "internalType": "uint256",
          "name": "quantity",
          "type": "uint256"
        },
        {
          "internalType": "string",
          "name": "tokenURI_",
          "type": "string"
        }
      ],
      "name": "buyTicket",
      "outputs": [],
      "stateMutability": "payable",
      "type": "function"
    },
    {
      "inputs": [],
      "name": "description",
      "outputs": [
        {
          "internalType": "string",
          "name": "",
          "type": "string"
        }
      ],
      "stateMutability": "view",
      "type": "function"
    },
    {
      "inputs": [],
      "name": "eventId",
      "outputs": [
        {
          "internalType": "string",
          "name": "",
          "type": "string"
        }
      ],
      "stateMutability": "view",
      "type": "function"
    },
    {
      "inputs": [],
      "name": "eventName",
      "outputs": [
        {
          "internalType": "string",
          "name": "",
          "type": "string"
        }
      ],
      "stateMutability": "view",
      "type": "function"
    },
    {
      "inputs": [
        {
          "internalType": "uint256",
          "name": "tokenId",
          "type": "uint256"
        }
      ],
      "name": "getApproved",
      "outputs": [
        {
          "internalType": "address",
          "name": "",
          "type": "address"
        }
      ],
      "stateMutability": "view",
      "type": "function"
    },
    {
      "inputs": [],
      "name": "getEventZones",
      "outputs": [
        {
          "components": [
            {
              "internalType": "string",
              "name": "name",
              "type": "string"
            },
            {
              "internalType": "uint256",
              "name": "price",
              "type": "uint256"
            },
            {
              "internalType": "uint256",
              "name": "maxSupply",
              "type": "uint256"
            },
            {
              "internalType": "uint256",
              "name": "totalMinted",
              "type": "uint256"
            }
          ],
          "internalType": "struct TicketImplementation.Zone[]",
          "name": "",
          "type": "tuple[]"
        }
      ],
      "stateMutability": "view",
      "type": "function"
    },
    {
      "inputs": [],
      "name": "image",
      "outputs": [
        {
          "internalType": "string",
          "name": "",
          "type": "string"
        }
      ],
      "stateMutability": "view",
      "type": "function"
    },
    {
      "inputs": [
        {
          "internalType": "string",
          "name": "_eventId",
          "type": "string"
        },
        {
          "internalType": "string",
          "name": "_eventName",
          "type": "string"
        },
        {
          "internalType": "string",
          "name": "_description",
          "type": "string"
        },
        {
          "internalType": "string",
          "name": "_image",
          "type": "string"
        },
        {
          "internalType": "address",
          "name": "_organizer",
          "type": "address"
        },
        {
          "internalType": "uint96",
          "name": "_royaltyFee",
          "type": "uint96"
        },
        {
          "internalType": "string",
          "name": "_termsURI",
          "type": "string"
        },
        {
          "internalType": "address[]",
          "name": "_wallets",
          "type": "address[]"
        },
        {
          "internalType": "uint16[]",
          "name": "_shares",
          "type": "uint16[]"
        },
        {
          "internalType": "string[]",
          "name": "_zones",
          "type": "string[]"
        },
        {
          "internalType": "uint64[]",
          "name": "_prices",
          "type": "uint64[]"
        },
        {
          "internalType": "uint32[]",
          "name": "_maxSupplies",
          "type": "uint32[]"
        },
        {
          "internalType": "address",
          "name": "_vault",
          "type": "address"
        }
      ],
      "name": "initialize",
      "outputs": [],
      "stateMutability": "nonpayable",
      "type": "function"
    },
    {
      "inputs": [
        {
          "internalType": "address",
          "name": "owner",
          "type": "address"
        },
        {
          "internalType": "address",
          "name": "operator",
          "type": "address"
        }
      ],
      "name": "isApprovedForAll",
      "outputs": [
        {
          "internalType": "bool",
          "name": "",
          "type": "bool"
        }
      ],
      "stateMutability": "view",
      "type": "function"
    },
    {
      "inputs": [],
      "name": "name",
      "outputs": [
        {
          "internalType": "string",
          "name": "",
          "type": "string"
        }
      ],
      "stateMutability": "view",
      "type": "function"
    },
    {
      "inputs": [],
      "name": "owner",
      "outputs": [
        {
          "internalType": "address",
          "name": "",
          "type": "address"
        }
      ],
      "stateMutability": "view",
      "type": "function"
    },
    {
      "inputs": [
        {
          "internalType": "uint256",
          "name": "tokenId",
          "type": "uint256"
        }
      ],
      "name": "ownerOf",
      "outputs": [
        {
          "internalType": "address",
          "name": "",
          "type": "address"
        }
      ],
      "stateMutability": "view",
      "type": "function"
    },
    {
      "inputs": [
        {
          "internalType": "uint256",
          "name": "",
          "type": "uint256"
        }
      ],
      "name": "payouts",
      "outputs": [
        {
          "internalType": "address",
          "name": "wallet",
          "type": "address"
        },
        {
          "internalType": "uint96",
          "name": "share",
          "type": "uint96"
        }
      ],
      "stateMutability": "view",
      "type": "function"
    },
    {
      "inputs": [],
      "name": "renounceOwnership",
      "outputs": [],
      "stateMutability": "nonpayable",
      "type": "function"
    },
    {
      "inputs": [
        {
          "internalType": "uint256",
          "name": "tokenId",
          "type": "uint256"
        },
        {
          "internalType": "uint256",
          "name": "salePrice",
          "type": "uint256"
        }
      ],
      "name": "royaltyInfo",
      "outputs": [
        {
          "internalType": "address",
          "name": "receiver",
          "type": "address"
        },
        {
          "internalType": "uint256",
          "name": "amount",
          "type": "uint256"
        }
      ],
      "stateMutability": "view",
      "type": "function"
    },
    {
      "inputs": [
        {
          "internalType": "address",
          "name": "from",
          "type": "address"
        },
        {
          "internalType": "address",
          "name": "to",
          "type": "address"
        },
        {
          "internalType": "uint256",
          "name": "tokenId",
          "type": "uint256"
        }
      ],
      "name": "safeTransferFrom",
      "outputs": [],
      "stateMutability": "nonpayable",
      "type": "function"
    },
    {
      "inputs": [
        {
          "internalType": "address",
          "name": "from",
          "type": "address"
        },
        {
          "internalType": "address",
          "name": "to",
          "type": "address"
        },
        {
          "internalType": "uint256",
          "name": "tokenId",
          "type": "uint256"
        },
        {
          "internalType": "bytes",
          "name": "data",
          "type": "bytes"
        }
      ],
      "name": "safeTransferFrom",
      "outputs": [],
      "stateMutability": "nonpayable",
      "type": "function"
    },
    {
      "inputs": [
        {
          "internalType": "address",
          "name": "operator",
          "type": "address"
        },
        {
          "internalType": "bool",
          "name": "approved",
          "type": "bool"
        }
      ],
      "name": "setApprovalForAll",
      "outputs": [],
      "stateMutability": "nonpayable",
      "type": "function"
    },
    {
      "inputs": [
        {
          "internalType": "address",
          "name": "_vault",
          "type": "address"
        }
      ],
      "name": "setVault",
      "outputs": [],
      "stateMutability": "nonpayable",
      "type": "function"
    },
    {
      "inputs": [
        {
          "internalType": "bytes4",
          "name": "interfaceId",
          "type": "bytes4"
        }
      ],
      "name": "supportsInterface",
      "outputs": [
        {
          "internalType": "bool",
          "name": "",
          "type": "bool"
        }
      ],
      "stateMutability": "view",
      "type": "function"
    },
    {
      "inputs": [],
      "name": "symbol",
      "outputs": [
        {
          "internalType": "string",
          "name": "",
          "type": "string"
        }
      ],
      "stateMutability": "view",
      "type": "function"
    },
    {
      "inputs": [],
      "name": "termsURI",
      "outputs": [
        {
          "internalType": "string",
          "name": "",
          "type": "string"
        }
      ],
      "stateMutability": "view",
      "type": "function"
    },
    {
      "inputs": [
        {
          "internalType": "uint256",
          "name": "tokenId",
          "type": "uint256"
        }
      ],
      "name": "tokenURI",
      "outputs": [
        {
          "internalType": "string",
          "name": "",
          "type": "string"
        }
      ],
      "stateMutability": "view",
      "type": "function"
    },
    {
      "inputs": [],
      "name": "totalMinted",
      "outputs": [
        {
          "internalType": "uint256",
          "name": "",
          "type": "uint256"
        }
      ],
      "stateMutability": "view",
      "type": "function"
    },
    {
      "inputs": [],
      "name": "totalShare",
      "outputs": [
        {
          "internalType": "uint96",
          "name": "",
          "type": "uint96"
        }
      ],
      "stateMutability": "view",
      "type": "function"
    },
    {
      "inputs": [
        {
          "internalType": "address",
          "name": "from",
          "type": "address"
        },
        {
          "internalType": "address",
          "name": "to",
          "type": "address"
        },
        {
          "internalType": "uint256",
          "name": "tokenId",
          "type": "uint256"
        }
      ],
      "name": "transferFrom",
      "outputs": [],
      "stateMutability": "nonpayable",
      "type": "function"
    },
    {
      "inputs": [
        {
          "internalType": "address",
          "name": "newOwner",
          "type": "address"
        }
      ],
      "name": "transferOwnership",
      "outputs": [],
      "stateMutability": "nonpayable",
      "type": "function"
    },
    {
      "inputs": [],
      "name": "vault",
      "outputs": [
        {
          "internalType": "address",
          "name": "",
          "type": "address"
        }
      ],
      "stateMutability": "view",
      "type": "function"
    },
    {
      "inputs": [
        {
          "internalType": "uint256",
          "name": "",
          "type": "uint256"
        }
      ],
      "name": "zones",
      "outputs": [
        {
          "internalType": "string",
          "name": "name",
          "type": "string"
        },
        {
          "internalType": "uint256",
          "name": "price",
          "type": "uint256"
        },
        {
          "internalType": "uint256",
          "name": "maxSupply",
          "type": "uint256"
        },
        {
          "internalType": "uint256",
          "name": "totalMinted",
          "type": "uint256"
        }
      ],
      "stateMutability": "view",
      "type": "function"
    }
  ],
  "bytecode": "0x60806040523461038a57604080519081016001600160401b03811182821017610297576040908152600a82526910985cd9551a58dad95d60b21b602083015280519081016001600160401b0381118282101761029757604052600781526610951250d2d15560ca1b602082015281516001600160401b03811161029757600054600181811c91168015610380575b602082101461027757601f811161031c575b50602092601f82116001146102b857928192936000926102ad575b50508160011b916000199060031b1c1916176000555b80516001600160401b03811161029757600154600181811c9116801561028d575b602082101461027757601f8111610212575b50602091601f82116001146101ae579181926000926101a3575b50508160011b916000199060031b1c1916176001555b331561018d5760098054336001600160a01b03198216811790925560405191906001600160a01b03167f8be0079c531659141344cd1fd0a4f28419497f9722a3daafe3b4186f6b6457e0600080a3612a6d90816103908239f35b631e4fbdf760e01b600052600060045260246000fd5b01519050388061011d565b601f198216926001600052806000209160005b8581106101fa575083600195106101e1575b505050811b01600155610133565b015160001960f88460031b161c191690553880806101d3565b919260206001819286850151815501940192016101c1565b60016000527fb10e2d527612073b26eecdfd717e6a320cf44b4afac2b0732d9fcbe2b7fa0cf6601f830160051c8101916020841061026d575b601f0160051c01905b8181106102615750610103565b60008155600101610254565b909150819061024b565b634e487b7160e01b600052602260045260246000fd5b90607f16906100f1565b634e487b7160e01b600052604160045260246000fd5b0151905038806100ba565b601f1982169360008052806000209160005b86811061030457508360019596106102eb575b505050811b016000556100d0565b015160001960f88460031b161c191690553880806102dd565b919260206001819286850151815501940192016102ca565b600080527f290decd9548b62a8d60345a988386fc84ba6bc95484008f6362f93160ef3e563601f830160051c81019160208410610376575b601f0160051c01905b81811061036a575061009f565b6000815560010161035d565b9091508190610354565b90607f169061008d565b600080fdfe608080604052600436101561001357600080fd5b60003560e01c90816301ffc9a7146122cc57508063026c4207146122a557806306fdde0314612200578063081812fc146121c2578063089cdd0c1461211a578063095ea7b31461202b5780631333963214611fbd57806317e1f82e14611fa05780631d6916ab146119c357806323b872dd146119ac57806329652e86146119665780632a55205a146118e157806342842e0e146118b15780636352211e146118815780636817031b1461183e57806370a08231146117e8578063715018a61461178b5780637284e416146116e35780638043c9c01461163b5780638da5cb5b1461161257806392adb659146114d757806395d89b411461142f578063a22cb4651461138e578063a2309ff814611370578063b88d4fde14611305578063c87b56dd146112e6578063d90786d4146103e6578063e985e9c51461038b578063f2fde38b1461033a578063f3ccaac014610292578063f5c925d9146101ad5763fbfa77cf1461017f57600080fd5b346101a85760003660031901126101a857600a546040516001600160a01b039091168152602090f35b600080fd5b346101a85760003660031901126101a85760405160006010546101cf816123aa565b808452906001811690811561026e575060011461020f575b61020b836101f78185038261241a565b60405191829160208352602083019061236b565b0390f35b601060009081527f1b6847dc741a1b0cd08d278845f9d819d87b734759afb55fe2de5cb82a9ae672939250905b808210610254575090915081016020016101f76101e7565b91926001816020925483858801015201910190929161023c565b60ff191660208086019190915291151560051b840190910191506101f790506101e7565b346101a85760003660031901126101a8576040516000600e546102b4816123aa565b808452906001811690811561026e57506001146102db5761020b836101f78185038261241a565b600e60009081527fbb7b4a454dc3493923482f07822329ed19e8244eff582cc204f8554c3620c3fd939250905b808210610320575090915081016020016101f76101e7565b919260018160209254838588010152019101909291610308565b346101a85760203660031901126101a8576103536124df565b61035b612888565b6001600160a01b0381161561037557610373906128b1565b005b631e4fbdf760e01b600052600060045260246000fd5b346101a85760403660031901126101a8576103a46124df565b6103ac6124f5565b9060018060a01b0316600052600560205260406000209060018060a01b0316600052602052602060ff604060002054166040519015158152f35b346101a8576101a03660031901126101a8576004356001600160401b0381116101a857610417903690600401612592565b6024356001600160401b0381116101a857610436903690600401612592565b6044356001600160401b0381116101a857610455903690600401612592565b6064356001600160401b0381116101a857610474903690600401612592565b6084356001600160a01b038116938482036101a85760a435946001600160601b0386168096036101a85760c4356001600160401b0381116101a8576104bd903690600401612592565b60e435946001600160401b0386116101a857366023870112156101a85785600401356104e881612605565b966104f6604051988961241a565b8188526024602089019260051b820101903682116101a857602401915b8183106112c65750505061010435966001600160401b0388116101a857366023890112156101a857876004013561054981612605565b986105576040519a8b61241a565b818a52602460208b019260051b820101903682116101a857602401915b8183106112ab5750505061012435986001600160401b038a116101a8573660238b0112156101a85789600401356105aa81612605565b9a6105b86040519c8d61241a565b818c52602460208d019260051b820101903682116101a85760248101925b82841061127c575050505061014435946001600160401b0386116101a857366023870112156101a857856004013561060d81612605565b9661061b604051988961241a565b8188526024602089019260051b820101903682116101a857602401915b81831061125c5750505061016435976001600160401b0389116101a8573660238a0112156101a857886004013561066e81612605565b9961067c6040519b8c61241a565b818b52602460208c019260051b820101903682116101a857602401915b81831061123f57505050610184356001600160a01b03811691908290036101a85760095460ff8160a01c166112045760ff60a01b1916600160a01b176009558a518c51036111c7578c518851811490816111bc575b5015611182576103e8841161114a578161070c6107259315156127ce565b600a80546001600160a01b0319169190911790556128b1565b612710821161112f5780156111195760405190610741826123ff565b808252602090910182905260a09190911b6001600160a01b0319166001600160a01b039091161760075589516001600160401b038111610a0b57610786600b546123aa565b601f81116110b4575b50806020601f821160011461104b57600091611040575b508160011b916000199060031b1c191617600b555b84516001600160401b038111610a0b576107d6600c546123aa565b601f8111610fdb575b50806020601f8211600114610f7557600091610f6a575b508160011b916000199060031b1c191617600c555b8051906001600160401b038211610a0b578190610829600d546123aa565b601f8111610efa575b50602090601f8311600114610e9257600092610e87575b50508160011b916000199060031b1c191617600d555b8051906001600160401b038211610a0b57819061087d600e546123aa565b601f8111610e17575b50602090601f8311600114610daf57600092610da4575b50508160011b916000199060031b1c191617600e555b8051906001600160401b038211610a0b5781906108d16010546123aa565b601f8111610d34575b50602090601f8311600114610ccc57600092610cc1575b50508160011b916000199060031b1c1916176010555b600095865b8551881015610a57576001600160a01b03610927898861283d565b511615610a21576001600160a01b03610940898861283d565b511661ffff61094f8a8a61283d565b51166040519161095e836123ff565b825260208201908152601254600160401b811015610a0b5780600161098692016012556125ea565b9290926109f55751905160a01b6001600160a01b0319166001600160a01b03919091161790556001600160601b0361ffff6109c18a8a61283d565b51169116016001600160601b0381116109df5760019097019661090c565b634e487b7160e01b600052601160045260246000fd5b634e487b7160e01b600052600060045260246000fd5b634e487b7160e01b600052604160045260246000fd5b60405162461bcd60e51b815260206004820152600e60248201526d1a5b9d985b1a59081dd85b1b195d60921b6044820152606490fd5b6001600160601b038991166127108103610c86576001600160601b0319601354161760135560005b8251811015610c3657610a92818461283d565b516001600160401b03610aa5838761283d565b511663ffffffff610ab6848a61283d565b511660405192610ac5846123e4565b83526020830191825260408301908152606083019160008352601154600160401b811015610a0b57806001610afd920160115561250b565b9490946109f557518051906001600160401b038211610a0b57610b2086546123aa565b601f8111610bee575b50602090601f8311600114610b7f5791806001989796949260039694600092610b74575b505060001982871b1c191690881b1785555b51868501555160028401555191015501610a7f565b015190508e80610b4d565b90601f1983169187600052816000209260005b818110610bd657509260019998979593928592600398968c9510610bbe575b505050811b018555610b5f565b015160001983891b60f8161c191690558e8080610bb1565b92936020600181928786015181550195019301610b92565b866000526020600020601f840160051c81019160208510610c2c575b601f0160051c01905b818110610c205750610b29565b60008155600101610c13565b9091508190610c0a565b7fa070f05b16f4eb7ffaa9444c7d3e435633333ff89cc255bd7e648e7dab636f33610c7383610c818860405193849360408552604085019061236b565b90838203602085015261236b565b0390a1005b60405162461bcd60e51b8152602060048201526013602482015272746f74616c20736861726520213d203130302560681b6044820152606490fd5b0151905089806108f1565b601060009081528281209350601f198516905b818110610d1c5750908460019594939210610d03575b505050811b01601055610907565b015160001960f88460031b161c19169055898080610cf5565b92936020600181928786015181550195019301610cdf565b60106000529091507f1b6847dc741a1b0cd08d278845f9d819d87b734759afb55fe2de5cb82a9ae672601f840160051c81019160208510610d9a575b90601f859493920160051c01905b818110610d8b57506108da565b60008155849350600101610d7e565b9091508190610d70565b015190508a8061089d565b600e60009081528281209350601f198516905b818110610dff5750908460019594939210610de6575b505050811b01600e556108b3565b015160001960f88460031b161c191690558a8080610dd8565b92936020600181928786015181550195019301610dc2565b600e6000529091507fbb7b4a454dc3493923482f07822329ed19e8244eff582cc204f8554c3620c3fd601f840160051c81019160208510610e7d575b90601f859493920160051c01905b818110610e6e5750610886565b60008155849350600101610e61565b9091508190610e53565b015190508b80610849565b600d60009081528281209350601f198516905b818110610ee25750908460019594939210610ec9575b505050811b01600d5561085f565b015160001960f88460031b161c191690558b8080610ebb565b92936020600181928786015181550195019301610ea5565b600d6000529091507fd7b6990105719101dabeb77144f2a3385c8033acd3af97e9423a695e81ad1eb5601f840160051c81019160208510610f60575b90601f859493920160051c01905b818110610f515750610832565b60008155849350600101610f44565b9091508190610f36565b90508601518c6107f6565b600c60009081528181209250601f198416905b818110610fc357509083600194939210610faa575b5050811b01600c5561080b565b88015160001960f88460031b161c191690558c80610f9d565b9192602060018192868d015181550194019201610f88565b600c6000527fdf6966c971051c3d54ec59162606531493a51404a002842f56009d7e5cf4a8c7601f830160051c81019160208410611036575b601f0160051c01905b81811061102a57506107df565b6000815560010161101d565b9091508190611014565b90508b01518c6107a6565b600b60009081528181209250601f198416908e5b82821061109b5750509083600194939210611082575b5050811b01600b556107bb565b8d015160001960f88460031b161c191690558c80611075565b600184956020939584930151815501940192018e61105f565b600b6000527f0175b7a638427703f0dbe7bb9bbf987a2551717b34e79f33b5b1008d1fa01db9601f830160051c8101916020841061110f575b601f0160051c01905b818110611103575061078f565b600081556001016110f6565b90915081906110ed565b635b6cc80560e11b600052600060045260246000fd5b50636f483d0960e01b60005260045261271060245260446000fd5b60405162461bcd60e51b815260206004820152601060248201526f0e4def2c2d8e8f240e8dede40d0d2ced60831b6044820152606490fd5b60405162461bcd60e51b81526020600482015260126024820152710f4dedcca40c8c2e8c240dad2e6dac2e8c6d60731b6044820152606490fd5b90508a51148f6106ee565b60405162461bcd60e51b81526020600482015260156024820152740eec2d8d8cae85ee6d0c2e4ca40dad2e6dac2e8c6d605b1b6044820152606490fd5b60405162461bcd60e51b8152602060048201526013602482015272185b1c9958591e481a5b9a5d1a585b1a5e9959606a1b6044820152606490fd5b823563ffffffff811681036101a857815260209283019201610699565b82356001600160401b03811681036101a857815260209283019201610638565b83356001600160401b0381116101a8576020916112a0839260243691870101612592565b8152019301926105d6565b823561ffff811681036101a857815260209283019201610574565b82356001600160a01b03811681036101a857815260209283019201610513565b346101a85760203660031901126101a85761020b6101f760043561280a565b346101a85760803660031901126101a85761131e6124df565b6113266124f5565b90604435606435926001600160401b0384116101a857366023850112156101a85761135e61037394369060248160040135910161255b565b9261136a83838361263e565b336128fa565b346101a85760003660031901126101a8576020600f54604051908152f35b346101a85760403660031901126101a8576113a76124df565b602435908115158092036101a8576001600160a01b031690811561141a57336000526005602052604060002082600052602052604060002060ff1981541660ff83161790556040519081527f17307eab39ab6107e8899845ad3d59bd9653f200f220920489ca2b5937696c3160203392a3005b50630b61174360e31b60005260045260246000fd5b346101a85760003660031901126101a8576040516000600154611451816123aa565b808452906001811690811561026e57506001146114785761020b836101f78185038261241a565b600160009081527fb10e2d527612073b26eecdfd717e6a320cf44b4afac2b0732d9fcbe2b7fa0cf6939250905b8082106114bd575090915081016020016101f76101e7565b9192600181602092548385880101520191019092916114a5565b346101a85760003660031901126101a8576011546114f481612605565b90611502604051928361241a565b808252601160009081526020830191907f31ecc21a745e3968a04e9570e4425bc18fa8019c68028196b546d1669c200c68835b8383106115ca57848660405191829160208301906020845251809152604083019060408160051b85010192916000905b82821061157457505050500390f35b919360019193955060208091603f198982030185528751906060806115a2845160808552608085019061236b565b9385810151868501526040810151604085015201519101529601920192018594939192611565565b600460206001926040516115dd816123e4565b6115e68661243b565b815284860154838201526002860154604082015260038601546060820152815201920192019190611535565b346101a85760003660031901126101a8576009546040516001600160a01b039091168152602090f35b346101a85760003660031901126101a8576040516000600c5461165d816123aa565b808452906001811690811561026e57506001146116845761020b836101f78185038261241a565b600c60009081527fdf6966c971051c3d54ec59162606531493a51404a002842f56009d7e5cf4a8c7939250905b8082106116c9575090915081016020016101f76101e7565b9192600181602092548385880101520191019092916116b1565b346101a85760003660031901126101a8576040516000600d54611705816123aa565b808452906001811690811561026e575060011461172c5761020b836101f78185038261241a565b600d60009081527fd7b6990105719101dabeb77144f2a3385c8033acd3af97e9423a695e81ad1eb5939250905b808210611771575090915081016020016101f76101e7565b919260018160209254838588010152019101909291611759565b346101a85760003660031901126101a8576117a4612888565b600980546001600160a01b031981169091556000906001600160a01b03167f8be0079c531659141344cd1fd0a4f28419497f9722a3daafe3b4186f6b6457e08280a3005b346101a85760203660031901126101a8576001600160a01b036118096124df565b1680156118285760005260036020526020604060002054604051908152f35b6322718ad960e21b600052600060045260246000fd5b346101a85760203660031901126101a8576001600160a01b0361185f6124df565b1661186b8115156127ce565b600a80546001600160a01b031916919091179055005b346101a85760203660031901126101a857602061189f600435612851565b6040516001600160a01b039091168152f35b346101a8576103736118c2366125b0565b90604051926118d260208561241a565b6000845261136a83838361263e565b346101a85760403660031901126101a8576004356000908152600860205260409020546001600160a01b0381169060a01c811561194e575b6119316001600160601b03612710921660243561261c565b604080516001600160a01b03949094168452919004602083015290f35b50506007546001600160a01b0381169060a01c611919565b346101a85760203660031901126101a8576004356012548110156101a85761198f6040916125ea565b505481516001600160a01b038216815260a09190911c6020820152f35b346101a8576103736119bd366125b0565b9161263e565b60603660031901126101a8576004356024356044356001600160401b0381116101a8576119f4903690600401612592565b91601154811015611f6c57611a089061250b565b50918115611f3357600383019283548381018091116109df57600282015410611ef957600101611a3983825461261c565b3410611ebf57600a546001600160a01b031615611e8a576020933393929084159081159060005b868110611a995788600f54907f2a91574e12ad96234e84923e146b0946ecfb871cd8d5534dc1fdcbe87a7c01b3604051913483523392a3005b611aa3825461262f565b8255611ab0600f5461262f565b9081600f55604051611ac28b8261241a565b8560008252611e745760008381526002808d5260408220546001600160a01b03168015159290918691908f8a86611e3e575b611e27575b838352526040812080546001600160a01b0319168f179055339083907fddf252ad1be2c89b69c2b068fc378daa952ba7f163c4a11628f55a4df523b3ef9080a450611e11578a333b611cf7575b50508160005260068a52604060002086516001600160401b038111610a0b578b611b7083546123aa565b601f8111611caf575b5050808c601f8211600114611c4a57600091611c3f575b508160011b916000199060031b1c19161790555b7ff8e1a15aba9398e019f0b49df1a4fde98ee17ae345cb5f6b5e2c27f5033e8ce78a604051848152a186549160018060a01b03600a541690813b156101a8576040516311f9fbc960e21b815230600482015260248101919091529260009184916044918391905af1918215611c3357600192611c22575b5001611a60565b6000611c2d9161241a565b8a611c1b565b6040513d6000823e3d90fd5b90508801518d611b90565b60008481528e81209250601f198416908f5b8c838310611c99575050509083600194939210611c80575b5050811b019055611ba4565b8a015160001960f88460031b161c191690558d80611c74565b840151855560019094019392830192018f611c5c565b836000528160002090601f840160051c8201928410611ced575b601f0160051c01905b818110611ce1578d9150611b79565b60008155600101611cd2565b9091508190611cc9565b611d309160405180938192630a85bd0160e11b83523360048401526000602484015287604484015260806064840152608483019061236b565b03816000335af18091600091611dcc575b5090611d99578a3d15611d91573d90611d5982612540565b91611d67604051938461241a565b82523d60008284013e5b81519182611d8e57633250574960e11b6000523360045260246000fd5b01fd5b606090611d71565b6001600160e01b03191663757a42ff60e11b01611db7578a8a611b46565b633250574960e11b6000523360045260246000fd5b8c81813d8311611e0a575b611de1818361241a565b81010312611e065751906001600160e01b031982168203611e0357508c611d41565b80fd5b5080fd5b503d611dd7565b6339e3563760e11b600052600060045260246000fd5b338352600381526040832060018154019055611af9565b50600084815260046020526040902080546001600160a01b0319169055848352600381526040832080546000190190558a611af4565b633250574960e11b600052600060045260246000fd5b60405162461bcd60e51b815260206004820152600d60248201526c1d985d5b1d081b9bdd081cd95d609a1b6044820152606490fd5b60405162461bcd60e51b8152602060048201526012602482015271696e73756666696369656e742066756e647360701b6044820152606490fd5b60405162461bcd60e51b8152602060048201526012602482015271546964616b2063756b757020737570706c7960701b6044820152606490fd5b60405162461bcd60e51b815260206004820152601160248201527007175616e74697479206d757374203e203607c1b6044820152606490fd5b60405162461bcd60e51b815260206004820152600c60248201526b696e76616c6964207a6f6e6560a01b6044820152606490fd5b346101a85760003660031901126101a85760206040516103e88152f35b346101a85760203660031901126101a8576004356011548110156101a857611fe76120179161250b565b50611ff18161243b565b90600181015490600360028201549101549060405194859460808652608086019061236b565b926020850152604084015260608301520390f35b346101a85760403660031901126101a8576120446124df565b60243561205081612851565b33151580612107575b806120d9575b6120c45781906001600160a01b0384811691167f8c5be1e5ebec7d5bd14f71427d1e84f3dd0314c0f7b2291e5b200ac8c7c3b925600080a4600090815260046020526040902080546001600160a01b0319166001600160a01b03909216919091179055005b63a9fbf51f60e01b6000523360045260246000fd5b506001600160a01b038116600090815260056020908152604080832033845290915290205460ff161561205f565b506001600160a01b038116331415612059565b346101a85760003660031901126101a8576040516000600b5461213c816123aa565b808452906001811690811561026e57506001146121635761020b836101f78185038261241a565b600b60009081527f0175b7a638427703f0dbe7bb9bbf987a2551717b34e79f33b5b1008d1fa01db9939250905b8082106121a8575090915081016020016101f76101e7565b919260018160209254838588010152019101909291612190565b346101a85760203660031901126101a8576004356121df81612851565b506000526004602052602060018060a01b0360406000205416604051908152f35b346101a85760003660031901126101a85760405160008054612221816123aa565b808452906001811690811561026e57506001146122485761020b836101f78185038261241a565b60008080527f290decd9548b62a8d60345a988386fc84ba6bc95484008f6362f93160ef3e563939250905b80821061228b575090915081016020016101f76101e7565b919260018160209254838588010152019101909291612273565b346101a85760003660031901126101a85760206001600160601b0360135416604051908152f35b346101a85760203660031901126101a8576004359063ffffffff60e01b82168092036101a85760209163152a902d60e11b811490811561230e575b5015158152f35b632483248360e11b811491508115612328575b5083612307565b6380ac58cd60e01b81149150811561235a575b8115612349575b5083612321565b6301ffc9a760e01b14905083612342565b635b5e139f60e01b8114915061233b565b919082518082526020808301940160005b82811061239a575050600081602094950152601f8019910116010190565b818101518682015260200161237c565b90600182811c921680156123da575b60208310146123c457565b634e487b7160e01b600052602260045260246000fd5b91607f16916123b9565b608081019081106001600160401b03821117610a0b57604052565b604081019081106001600160401b03821117610a0b57604052565b90601f801991011681019081106001600160401b03821117610a0b57604052565b906040519182600082549261244f846123aa565b80845293600181169081156124bd5750600114612476575b506124749250038361241a565b565b90506000929192526020600020906000915b8183106124a15750509060206124749282010138612467565b6020919350806001915483858901015201910190918492612488565b90506020925061247494915060ff191682840152151560051b82010138612467565b600435906001600160a01b03821682036101a857565b602435906001600160a01b03821682036101a857565b60115481101561252a57601160005260206000209060021b0190600090565b634e487b7160e01b600052603260045260246000fd5b6001600160401b038111610a0b57601f01601f191660200190565b92919261256782612540565b91612575604051938461241a565b8294818452818301116101a8578281602093846000960137010152565b9080601f830112156101a8578160206125ad9335910161255b565b90565b60609060031901126101a8576004356001600160a01b03811681036101a857906024356001600160a01b03811681036101a8579060443590565b60125481101561252a57601260005260206000200190600090565b6001600160401b038111610a0b5760051b60200190565b818102929181159184041417156109df57565b60001981146109df5760010190565b6001600160a01b0390911691908215611e74576000828152600260205260408120546001600160a01b0316938391859033151580612736575b507fddf252ad1be2c89b69c2b068fc378daa952ba7f163c4a11628f55a4df523b3ef9082612701575b838152600360209081526040808320805460010190558683526002909152812080546001600160a01b0319168517905580a46001600160a01b03168083036126e757505050565b6364283d7b60e01b60005260045260245260445260646000fd5b600085815260046020526040902080546001600160a01b031916905582815260036020526040812080546000190190556126a0565b91509192508061277f575b15612750579084849238612677565b83908561276957602491637e27328960e01b8252600452fd5b60449163177e802f60e01b825233600452602452fd5b5033851480156127ad575b806127415750838152600460205260408120546001600160a01b03163314612741565b5084815260056020908152604080832033845290915281205460ff1661278a565b156127d557565b60405162461bcd60e51b815260206004820152600d60248201526c1a5b9d985b1a59081d985d5b1d609a1b6044820152606490fd5b61281381612851565b506000526006602052612829604060002061243b565b600060405161283960208261241a565b5290565b805182101561252a5760209160051b010190565b6000818152600260205260409020546001600160a01b0316908115612874575090565b637e27328960e01b60005260045260246000fd5b6009546001600160a01b0316330361289c57565b63118cdaa760e01b6000523360045260246000fd5b600980546001600160a01b039283166001600160a01b0319821681179092559091167f8be0079c531659141344cd1fd0a4f28419497f9722a3daafe3b4186f6b6457e0600080a3565b823b612908575b5050505050565b604051630a85bd0160e11b81526001600160a01b03918216600482015291811660248301526044820193909352608060648201529116916020908290819061295490608483019061236b565b03816000865af180916000916129f4575b50906129be57503d156129b7573d61297c81612540565b9061298a604051928361241a565b81523d6000602083013e5b805190816129b25782633250574960e11b60005260045260246000fd5b602001fd5b6060612995565b6001600160e01b03191663757a42ff60e11b016129e057503880808080612901565b633250574960e11b60005260045260246000fd5b6020813d602011612a2f575b81612a0d6020938361241a565b81010312611e065751906001600160e01b031982168203611e03575038612965565b3d9150612a0056fea2646970667358221220731fc81272eba2c104aed6e435c294f942424231a86ace41154feaa919d9960764736f6c634300081c0033",
  "linkReferences": {},
  "deployedLinkReferences": {}
}