{
  "_format": "hh-sol-artifact-1",
  "contractName": "TicketFactory",
  "sourceName": "contracts/ticket-factory.sol",
  "abi": [
    {
      "inputs": [
        {
          "internalType": "address",
          "name": "_vault",
          "type": "address"
        }
      ],
      "stateMutability": "nonpayable",
      "type": "constructor"
    },
    {
      "inputs": [
        {
          "internalType": "address",
          "name": "owner",
          "type": "address"
        }
      ],
      "name": "OwnableInvalidOwner",
      "type": "error"
    },
    {
      "inputs": [
        {
          "internalType": "address",
          "name": "account",
          "type": "address"
        }
      ],
      "name": "OwnableUnauthorizedAccount",
      "type": "error"
    },
    {
      "anonymous": false,
      "inputs": [
        {
          "indexed": true,
          "internalType": "address",
          "name": "organizer",
          "type": "address"
        },
        {
          "indexed": false,
          "internalType": "address",
          "name": "ticketAddress",
          "type": "address"
        },
        {
          "indexed": false,
          "internalType": "string",
          "name": "eventName",
          "type": "string"
        }
      ],
      "name": "EventCreated",
      "type": "event"
    },
    {
      "anonymous": false,
      "inputs": [
        {
          "indexed": true,
          "internalType": "address",
          "name": "previousOwner",
          "type": "address"
        },
        {
          "indexed": true,
          "internalType": "address",
          "name": "newOwner",
          "type": "address"
        }
      ],
      "name": "OwnershipTransferred",
      "type": "event"
    },
    {
      "inputs": [
        {
          "internalType": "uint256",
          "name": "",
          "type": "uint256"
        }
      ],
      "name": "allEvents",
      "outputs": [
        {
          "internalType": "address",
          "name": "ticketAddress",
          "type": "address"
        },
        {
          "internalType": "string",
          "name": "eventName",
          "type": "string"
        },
        {
          "internalType": "string",
          "name": "eventId",
          "type": "string"
        },
        {
          "internalType": "string",
          "name": "description",
          "type": "string"
        },
        {
          "internalType": "string",
          "name": "zone",
          "type": "string"
        },
        {
          "internalType": "string",
          "name": "image",
          "type": "string"
        },
        {
          "internalType": "uint256",
          "name": "price",
          "type": "uint256"
        },
        {
          "internalType": "uint256",
          "name": "maxSupply",
          "type": "uint256"
        },
        {
          "internalType": "address",
          "name": "organizer",
          "type": "address"
        },
        {
          "internalType": "uint96",
          "name": "royaltyFee",
          "type": "uint96"
        }
      ],
      "stateMutability": "view",
      "type": "function"
    },
    {
      "inputs": [
        {
          "internalType": "string",
          "name": "_eventId",
          "type": "string"
        },
        {
          "internalType": "string",
          "name": "_eventName",
          "type": "string"
        },
        {
          "internalType": "string",
          "name": "_description",
          "type": "string"
        },
        {
          "internalType": "string",
          "name": "_image",
          "type": "string"
        },
        {
          "internalType": "string",
          "name": "_zone",
          "type": "string"
        },
        {
          "internalType": "uint256",
          "name": "_price",
          "type": "uint256"
        },
        {
          "internalType": "uint256",
          "name": "_maxSupply",
          "type": "uint256"
        },
        {
          "internalType": "uint96",
          "name": "_royaltyFee",
          "type": "uint96"
        },
        {
          "internalType": "address[]",
          "name": "_wallets",
          "type": "address[]"
        },
        {
          "internalType": "uint96[]",
          "name": "_shares",
          "type": "uint96[]"
        }
      ],
      "name": "createEvent",
      "outputs": [
        {
          "internalType": "address",
          "name": "",
          "type": "address"
        }
      ],
      "stateMutability": "nonpayable",
      "type": "function"
    },
    {
      "inputs": [
        {
          "internalType": "address",
          "name": "",
          "type": "address"
        }
      ],
      "name": "eventDetails",
      "outputs": [
        {
          "internalType": "address",
          "name": "ticketAddress",
          "type": "address"
        },
        {
          "internalType": "string",
          "name": "eventName",
          "type": "string"
        },
        {
          "internalType": "string",
          "name": "eventId",
          "type": "string"
        },
        {
          "internalType": "string",
          "name": "description",
          "type": "string"
        },
        {
          "internalType": "string",
          "name": "zone",
          "type": "string"
        },
        {
          "internalType": "string",
          "name": "image",
          "type": "string"
        },
        {
          "internalType": "uint256",
          "name": "price",
          "type": "uint256"
        },
        {
          "internalType": "uint256",
          "name": "maxSupply",
          "type": "uint256"
        },
        {
          "internalType": "address",
          "name": "organizer",
          "type": "address"
        },
        {
          "internalType": "uint96",
          "name": "royaltyFee",
          "type": "uint96"
        }
      ],
      "stateMutability": "view",
      "type": "function"
    },
    {
      "inputs": [],
      "name": "getAllEvents",
      "outputs": [
        {
          "components": [
            {
              "internalType": "address",
              "name": "ticketAddress",
              "type": "address"
            },
            {
              "internalType": "string",
              "name": "eventName",
              "type": "string"
            },
            {
              "internalType": "string",
              "name": "eventId",
              "type": "string"
            },
            {
              "internalType": "string",
              "name": "description",
              "type": "string"
            },
            {
              "internalType": "string",
              "name": "zone",
              "type": "string"
            },
            {
              "internalType": "string",
              "name": "image",
              "type": "string"
            },
            {
              "internalType": "uint256",
              "name": "price",
              "type": "uint256"
            },
            {
              "internalType": "uint256",
              "name": "maxSupply",
              "type": "uint256"
            },
            {
              "internalType": "address",
              "name": "organizer",
              "type": "address"
            },
            {
              "internalType": "uint96",
              "name": "royaltyFee",
              "type": "uint96"
            }
          ],
          "internalType": "struct TicketFactory.EventInfo[]",
          "name": "",
          "type": "tuple[]"
        }
      ],
      "stateMutability": "view",
      "type": "function"
    },
    {
      "inputs": [],
      "name": "owner",
      "outputs": [
        {
          "internalType": "address",
          "name": "",
          "type": "address"
        }
      ],
      "stateMutability": "view",
      "type": "function"
    },
    {
      "inputs": [],
      "name": "renounceOwnership",
      "outputs": [],
      "stateMutability": "nonpayable",
      "type": "function"
    },
    {
      "inputs": [
        {
          "internalType": "address",
          "name": "newOwner",
          "type": "address"
        }
      ],
      "name": "transferOwnership",
      "outputs": [],
      "stateMutability": "nonpayable",
      "type": "function"
    },
    {
      "inputs": [],
      "name": "vault",
      "outputs": [
        {
          "internalType": "contract Vault",
          "name": "",
          "type": "address"
        }
      ],
      "stateMutability": "view",
      "type": "function"
    }
  ],
  "bytecode": "0x608060405234801561001057600080fd5b506040516175bd3803806175bd83398181016040528101906100329190610292565b33600073ffffffffffffffffffffffffffffffffffffffff168173ffffffffffffffffffffffffffffffffffffffff16036100a55760006040517f1e4fbdf700000000000000000000000000000000000000000000000000000000815260040161009c91906102ce565b60405180910390fd5b6100b48161016b60201b60201c565b50600073ffffffffffffffffffffffffffffffffffffffff168173ffffffffffffffffffffffffffffffffffffffff1603610124576040517f08c379a000000000000000000000000000000000000000000000000000000000815260040161011b90610346565b60405180910390fd5b80600160006101000a81548173ffffffffffffffffffffffffffffffffffffffff021916908373ffffffffffffffffffffffffffffffffffffffff16021790555050610366565b60008060009054906101000a900473ffffffffffffffffffffffffffffffffffffffff169050816000806101000a81548173ffffffffffffffffffffffffffffffffffffffff021916908373ffffffffffffffffffffffffffffffffffffffff1602179055508173ffffffffffffffffffffffffffffffffffffffff168173ffffffffffffffffffffffffffffffffffffffff167f8be0079c531659141344cd1fd0a4f28419497f9722a3daafe3b4186f6b6457e060405160405180910390a35050565b600080fd5b600073ffffffffffffffffffffffffffffffffffffffff82169050919050565b600061025f82610234565b9050919050565b61026f81610254565b811461027a57600080fd5b50565b60008151905061028c81610266565b92915050565b6000602082840312156102a8576102a761022f565b5b60006102b68482850161027d565b91505092915050565b6102c881610254565b82525050565b60006020820190506102e360008301846102bf565b92915050565b600082825260208201905092915050565b7f696e76616c6964207661756c7420616464726573730000000000000000000000600082015250565b60006103306015836102e9565b915061033b826102fa565b602082019050919050565b6000602082019050818103600083015261035f81610323565b9050919050565b617248806103756000396000f3fe608060405234801561001057600080fd5b50600436106100885760003560e01c8063cf11871a1161005b578063cf11871a1461010c578063d6e57f501461013c578063f2fde38b14610175578063fbfa77cf1461019157610088565b80633bec5cff1461008d578063715018a6146100c65780638da5cb5b146100d0578063c27a500d146100ee575b600080fd5b6100a760048036038101906100a29190611473565b6101af565b6040516100bd9a999897969594939291906115a7565b60405180910390f35b6100ce610513565b005b6100d8610527565b6040516100e59190611666565b60405180910390f35b6100f6610550565b60405161010391906118b0565b60405180910390f35b61012660048036038101906101219190611bea565b610988565b6040516101339190611666565b60405180910390f35b61015660048036038101906101519190611d8d565b610ec9565b60405161016c9a999897969594939291906115a7565b60405180910390f35b61018f600480360381019061018a9190611d8d565b61121d565b005b6101996112a3565b6040516101a69190611e19565b60405180910390f35b600281815481106101bf57600080fd5b90600052602060002090600902016000915090508060000160009054906101000a900473ffffffffffffffffffffffffffffffffffffffff169080600101805461020890611e63565b80601f016020809104026020016040519081016040528092919081815260200182805461023490611e63565b80156102815780601f1061025657610100808354040283529160200191610281565b820191906000526020600020905b81548152906001019060200180831161026457829003601f168201915b50505050509080600201805461029690611e63565b80601f01602080910402602001604051908101604052809291908181526020018280546102c290611e63565b801561030f5780601f106102e45761010080835404028352916020019161030f565b820191906000526020600020905b8154815290600101906020018083116102f257829003601f168201915b50505050509080600301805461032490611e63565b80601f016020809104026020016040519081016040528092919081815260200182805461035090611e63565b801561039d5780601f106103725761010080835404028352916020019161039d565b820191906000526020600020905b81548152906001019060200180831161038057829003601f168201915b5050505050908060040180546103b290611e63565b80601f01602080910402602001604051908101604052809291908181526020018280546103de90611e63565b801561042b5780601f106104005761010080835404028352916020019161042b565b820191906000526020600020905b81548152906001019060200180831161040e57829003601f168201915b50505050509080600501805461044090611e63565b80601f016020809104026020016040519081016040528092919081815260200182805461046c90611e63565b80156104b95780601f1061048e576101008083540402835291602001916104b9565b820191906000526020600020905b81548152906001019060200180831161049c57829003601f168201915b5050505050908060060154908060070154908060080160009054906101000a900473ffffffffffffffffffffffffffffffffffffffff16908060080160149054906101000a90046bffffffffffffffffffffffff1690508a565b61051b6112c9565b6105256000611350565b565b60008060009054906101000a900473ffffffffffffffffffffffffffffffffffffffff16905090565b60606002805480602002602001604051908101604052809291908181526020016000905b8282101561097f5783829060005260206000209060090201604051806101400160405290816000820160009054906101000a900473ffffffffffffffffffffffffffffffffffffffff1673ffffffffffffffffffffffffffffffffffffffff1673ffffffffffffffffffffffffffffffffffffffff1681526020016001820180546105fe90611e63565b80601f016020809104026020016040519081016040528092919081815260200182805461062a90611e63565b80156106775780601f1061064c57610100808354040283529160200191610677565b820191906000526020600020905b81548152906001019060200180831161065a57829003601f168201915b5050505050815260200160028201805461069090611e63565b80601f01602080910402602001604051908101604052809291908181526020018280546106bc90611e63565b80156107095780601f106106de57610100808354040283529160200191610709565b820191906000526020600020905b8154815290600101906020018083116106ec57829003601f168201915b5050505050815260200160038201805461072290611e63565b80601f016020809104026020016040519081016040528092919081815260200182805461074e90611e63565b801561079b5780601f106107705761010080835404028352916020019161079b565b820191906000526020600020905b81548152906001019060200180831161077e57829003601f168201915b505050505081526020016004820180546107b490611e63565b80601f01602080910402602001604051908101604052809291908181526020018280546107e090611e63565b801561082d5780601f106108025761010080835404028352916020019161082d565b820191906000526020600020905b81548152906001019060200180831161081057829003601f168201915b5050505050815260200160058201805461084690611e63565b80601f016020809104026020016040519081016040528092919081815260200182805461087290611e63565b80156108bf5780601f10610894576101008083540402835291602001916108bf565b820191906000526020600020905b8154815290600101906020018083116108a257829003601f168201915b5050505050815260200160068201548152602001600782015481526020016008820160009054906101000a900473ffffffffffffffffffffffffffffffffffffffff1673ffffffffffffffffffffffffffffffffffffffff1673ffffffffffffffffffffffffffffffffffffffff1681526020016008820160149054906101000a90046bffffffffffffffffffffffff166bffffffffffffffffffffffff166bffffffffffffffffffffffff168152505081526020019060010190610574565b50505050905090565b6000808b8b8b8a8c8b8b338c8c8c6040516109a29061141c565b6109b69b9a99989796959493929190611ff2565b604051809103906000f0801580156109d2573d6000803e3d6000fd5b5090508073ffffffffffffffffffffffffffffffffffffffff16636817031b600160009054906101000a900473ffffffffffffffffffffffffffffffffffffffff166040518263ffffffff1660e01b8152600401610a309190611666565b600060405180830381600087803b158015610a4a57600080fd5b505af1158015610a5e573d6000803e3d6000fd5b5050505060026040518061014001604052808373ffffffffffffffffffffffffffffffffffffffff1681526020018d81526020018e81526020018c81526020018a81526020018b81526020018981526020018881526020013373ffffffffffffffffffffffffffffffffffffffff168152602001876bffffffffffffffffffffffff16815250908060018154018082558091505060019003906000526020600020906009020160009091909190915060008201518160000160006101000a81548173ffffffffffffffffffffffffffffffffffffffff021916908373ffffffffffffffffffffffffffffffffffffffff1602179055506020820151816001019081610b699190612270565b506040820151816002019081610b7f9190612270565b506060820151816003019081610b959190612270565b506080820151816004019081610bab9190612270565b5060a0820151816005019081610bc19190612270565b5060c0820151816006015560e082015181600701556101008201518160080160006101000a81548173ffffffffffffffffffffffffffffffffffffffff021916908373ffffffffffffffffffffffffffffffffffffffff1602179055506101208201518160080160146101000a8154816bffffffffffffffffffffffff02191690836bffffffffffffffffffffffff160217905550505060026001600280549050610c6c9190612371565b81548110610c7d57610c7c6123a5565b5b9060005260206000209060090201600360008373ffffffffffffffffffffffffffffffffffffffff1673ffffffffffffffffffffffffffffffffffffffff1681526020019081526020016000206000820160009054906101000a900473ffffffffffffffffffffffffffffffffffffffff168160000160006101000a81548173ffffffffffffffffffffffffffffffffffffffff021916908373ffffffffffffffffffffffffffffffffffffffff16021790555060018201816001019081610d4591906123ea565b5060028201816002019081610d5a91906123ea565b5060038201816003019081610d6f91906123ea565b5060048201816004019081610d8491906123ea565b5060058201816005019081610d9991906123ea565b5060068201548160060155600782015481600701556008820160009054906101000a900473ffffffffffffffffffffffffffffffffffffffff168160080160006101000a81548173ffffffffffffffffffffffffffffffffffffffff021916908373ffffffffffffffffffffffffffffffffffffffff1602179055506008820160149054906101000a90046bffffffffffffffffffffffff168160080160146101000a8154816bffffffffffffffffffffffff02191690836bffffffffffffffffffffffff1602179055509050503373ffffffffffffffffffffffffffffffffffffffff167fa54c7891edaa21526f9ad14c69ae2fd966ac0969fcd9a990a4e006427afd382e828d604051610eaf9291906124d2565b60405180910390a2809150509a9950505050505050505050565b60036020528060005260406000206000915090508060000160009054906101000a900473ffffffffffffffffffffffffffffffffffffffff1690806001018054610f1290611e63565b80601f0160208091040260200160405190810160405280929190818152602001828054610f3e90611e63565b8015610f8b5780601f10610f6057610100808354040283529160200191610f8b565b820191906000526020600020905b815481529060010190602001808311610f6e57829003601f168201915b505050505090806002018054610fa090611e63565b80601f0160208091040260200160405190810160405280929190818152602001828054610fcc90611e63565b80156110195780601f10610fee57610100808354040283529160200191611019565b820191906000526020600020905b815481529060010190602001808311610ffc57829003601f168201915b50505050509080600301805461102e90611e63565b80601f016020809104026020016040519081016040528092919081815260200182805461105a90611e63565b80156110a75780601f1061107c576101008083540402835291602001916110a7565b820191906000526020600020905b81548152906001019060200180831161108a57829003601f168201915b5050505050908060040180546110bc90611e63565b80601f01602080910402602001604051908101604052809291908181526020018280546110e890611e63565b80156111355780601f1061110a57610100808354040283529160200191611135565b820191906000526020600020905b81548152906001019060200180831161111857829003601f168201915b50505050509080600501805461114a90611e63565b80601f016020809104026020016040519081016040528092919081815260200182805461117690611e63565b80156111c35780601f10611198576101008083540402835291602001916111c3565b820191906000526020600020905b8154815290600101906020018083116111a657829003601f168201915b5050505050908060060154908060070154908060080160009054906101000a900473ffffffffffffffffffffffffffffffffffffffff16908060080160149054906101000a90046bffffffffffffffffffffffff1690508a565b6112256112c9565b600073ffffffffffffffffffffffffffffffffffffffff168173ffffffffffffffffffffffffffffffffffffffff16036112975760006040517f1e4fbdf700000000000000000000000000000000000000000000000000000000815260040161128e9190611666565b60405180910390fd5b6112a081611350565b50565b600160009054906101000a900473ffffffffffffffffffffffffffffffffffffffff1681565b6112d1611414565b73ffffffffffffffffffffffffffffffffffffffff166112ef610527565b73ffffffffffffffffffffffffffffffffffffffff161461134e57611312611414565b6040517f118cdaa70000000000000000000000000000000000000000000000000000000081526004016113459190611666565b60405180910390fd5b565b60008060009054906101000a900473ffffffffffffffffffffffffffffffffffffffff169050816000806101000a81548173ffffffffffffffffffffffffffffffffffffffff021916908373ffffffffffffffffffffffffffffffffffffffff1602179055508173ffffffffffffffffffffffffffffffffffffffff168173ffffffffffffffffffffffffffffffffffffffff167f8be0079c531659141344cd1fd0a4f28419497f9722a3daafe3b4186f6b6457e060405160405180910390a35050565b600033905090565b614d108061250383390190565b6000604051905090565b600080fd5b600080fd5b6000819050919050565b6114508161143d565b811461145b57600080fd5b50565b60008135905061146d81611447565b92915050565b60006020828403121561148957611488611433565b5b60006114978482850161145e565b91505092915050565b600073ffffffffffffffffffffffffffffffffffffffff82169050919050565b60006114cb826114a0565b9050919050565b6114db816114c0565b82525050565b600081519050919050565b600082825260208201905092915050565b60005b8381101561151b578082015181840152602081019050611500565b60008484015250505050565b6000601f19601f8301169050919050565b6000611543826114e1565b61154d81856114ec565b935061155d8185602086016114fd565b61156681611527565b840191505092915050565b61157a8161143d565b82525050565b60006bffffffffffffffffffffffff82169050919050565b6115a181611580565b82525050565b6000610140820190506115bd600083018d6114d2565b81810360208301526115cf818c611538565b905081810360408301526115e3818b611538565b905081810360608301526115f7818a611538565b9050818103608083015261160b8189611538565b905081810360a083015261161f8188611538565b905061162e60c0830187611571565b61163b60e0830186611571565b6116496101008301856114d2565b611657610120830184611598565b9b9a5050505050505050505050565b600060208201905061167b60008301846114d2565b92915050565b600081519050919050565b600082825260208201905092915050565b6000819050602082019050919050565b6116b6816114c0565b82525050565b600082825260208201905092915050565b60006116d8826114e1565b6116e281856116bc565b93506116f28185602086016114fd565b6116fb81611527565b840191505092915050565b61170f8161143d565b82525050565b61171e81611580565b82525050565b60006101408301600083015161173d60008601826116ad565b506020830151848203602086015261175582826116cd565b9150506040830151848203604086015261176f82826116cd565b9150506060830151848203606086015261178982826116cd565b915050608083015184820360808601526117a382826116cd565b91505060a083015184820360a08601526117bd82826116cd565b91505060c08301516117d260c0860182611706565b5060e08301516117e560e0860182611706565b506101008301516117fa6101008601826116ad565b5061012083015161180f610120860182611715565b508091505092915050565b60006118268383611724565b905092915050565b6000602082019050919050565b600061184682611681565b611850818561168c565b9350836020820285016118628561169d565b8060005b8581101561189e578484038952815161187f858261181a565b945061188a8361182e565b925060208a01995050600181019050611866565b50829750879550505050505092915050565b600060208201905081810360008301526118ca818461183b565b905092915050565b600080fd5b600080fd5b7f4e487b7100000000000000000000000000000000000000000000000000000000600052604160045260246000fd5b61191482611527565b810181811067ffffffffffffffff82111715611933576119326118dc565b5b80604052505050565b6000611946611429565b9050611952828261190b565b919050565b600067ffffffffffffffff821115611972576119716118dc565b5b61197b82611527565b9050602081019050919050565b82818337600083830152505050565b60006119aa6119a584611957565b61193c565b9050828152602081018484840111156119c6576119c56118d7565b5b6119d1848285611988565b509392505050565b600082601f8301126119ee576119ed6118d2565b5b81356119fe848260208601611997565b91505092915050565b611a1081611580565b8114611a1b57600080fd5b50565b600081359050611a2d81611a07565b92915050565b600067ffffffffffffffff821115611a4e57611a4d6118dc565b5b602082029050602081019050919050565b600080fd5b611a6d816114c0565b8114611a7857600080fd5b50565b600081359050611a8a81611a64565b92915050565b6000611aa3611a9e84611a33565b61193c565b90508083825260208201905060208402830185811115611ac657611ac5611a5f565b5b835b81811015611aef5780611adb8882611a7b565b845260208401935050602081019050611ac8565b5050509392505050565b600082601f830112611b0e57611b0d6118d2565b5b8135611b1e848260208601611a90565b91505092915050565b600067ffffffffffffffff821115611b4257611b416118dc565b5b602082029050602081019050919050565b6000611b66611b6184611b27565b61193c565b90508083825260208201905060208402830185811115611b8957611b88611a5f565b5b835b81811015611bb25780611b9e8882611a1e565b845260208401935050602081019050611b8b565b5050509392505050565b600082601f830112611bd157611bd06118d2565b5b8135611be1848260208601611b53565b91505092915050565b6000806000806000806000806000806101408b8d031215611c0e57611c0d611433565b5b60008b013567ffffffffffffffff811115611c2c57611c2b611438565b5b611c388d828e016119d9565b9a505060208b013567ffffffffffffffff811115611c5957611c58611438565b5b611c658d828e016119d9565b99505060408b013567ffffffffffffffff811115611c8657611c85611438565b5b611c928d828e016119d9565b98505060608b013567ffffffffffffffff811115611cb357611cb2611438565b5b611cbf8d828e016119d9565b97505060808b013567ffffffffffffffff811115611ce057611cdf611438565b5b611cec8d828e016119d9565b96505060a0611cfd8d828e0161145e565b95505060c0611d0e8d828e0161145e565b94505060e0611d1f8d828e01611a1e565b9350506101008b013567ffffffffffffffff811115611d4157611d40611438565b5b611d4d8d828e01611af9565b9250506101208b013567ffffffffffffffff811115611d6f57611d6e611438565b5b611d7b8d828e01611bbc565b9150509295989b9194979a5092959850565b600060208284031215611da357611da2611433565b5b6000611db184828501611a7b565b91505092915050565b6000819050919050565b6000611ddf611dda611dd5846114a0565b611dba565b6114a0565b9050919050565b6000611df182611dc4565b9050919050565b6000611e0382611de6565b9050919050565b611e1381611df8565b82525050565b6000602082019050611e2e6000830184611e0a565b92915050565b7f4e487b7100000000000000000000000000000000000000000000000000000000600052602260045260246000fd5b60006002820490506001821680611e7b57607f821691505b602082108103611e8e57611e8d611e34565b5b50919050565b600081519050919050565b600082825260208201905092915050565b6000819050602082019050919050565b6000611ecc83836116ad565b60208301905092915050565b6000602082019050919050565b6000611ef082611e94565b611efa8185611e9f565b9350611f0583611eb0565b8060005b83811015611f36578151611f1d8882611ec0565b9750611f2883611ed8565b925050600181019050611f09565b5085935050505092915050565b600081519050919050565b600082825260208201905092915050565b6000819050602082019050919050565b6000611f7b8383611715565b60208301905092915050565b6000602082019050919050565b6000611f9f82611f43565b611fa98185611f4e565b9350611fb483611f5f565b8060005b83811015611fe5578151611fcc8882611f6f565b9750611fd783611f87565b925050600181019050611fb8565b5085935050505092915050565b600061016082019050818103600083015261200d818e611538565b90508181036020830152612021818d611538565b90508181036040830152612035818c611538565b90508181036060830152612049818b611538565b9050818103608083015261205d818a611538565b905061206c60a0830189611571565b61207960c0830188611571565b61208660e08301876114d2565b612094610100830186611598565b8181036101208301526120a78185611ee5565b90508181036101408301526120bc8184611f94565b90509c9b505050505050505050505050565b60008190508160005260206000209050919050565b60006020601f8301049050919050565b600082821b905092915050565b6000600883026121307fffffffffffffffffffffffffffffffffffffffffffffffffffffffffffffffff826120f3565b61213a86836120f3565b95508019841693508086168417925050509392505050565b600061216d6121686121638461143d565b611dba565b61143d565b9050919050565b6000819050919050565b61218783612152565b61219b61219382612174565b848454612100565b825550505050565b600090565b6121b06121a3565b6121bb81848461217e565b505050565b5b818110156121df576121d46000826121a8565b6001810190506121c1565b5050565b601f821115612224576121f5816120ce565b6121fe846120e3565b8101602085101561220d578190505b612221612219856120e3565b8301826121c0565b50505b505050565b600082821c905092915050565b600061224760001984600802612229565b1980831691505092915050565b60006122608383612236565b9150826002028217905092915050565b612279826114e1565b67ffffffffffffffff811115612292576122916118dc565b5b61229c8254611e63565b6122a78282856121e3565b600060209050601f8311600181146122da57600084156122c8578287015190505b6122d28582612254565b86555061233a565b601f1984166122e8866120ce565b60005b82811015612310578489015182556001820191506020850194506020810190506122eb565b8683101561232d5784890151612329601f891682612236565b8355505b6001600288020188555050505b505050505050565b7f4e487b7100000000000000000000000000000000000000000000000000000000600052601160045260246000fd5b600061237c8261143d565b91506123878361143d565b925082820390508181111561239f5761239e612342565b5b92915050565b7f4e487b7100000000000000000000000000000000000000000000000000000000600052603260045260246000fd5b6000815490506123e381611e63565b9050919050565b8181036123f85750506124d0565b612401826123d4565b67ffffffffffffffff81111561241a576124196118dc565b5b6124248254611e63565b61242f8282856121e3565b6000601f83116001811461245e576000841561244c578287015490505b6124568582612254565b8655506124c9565b601f19841661246c876120ce565b9650612477866120ce565b60005b8281101561249f5784890154825560018201915060018501945060208101905061247a565b868310156124bc57848901546124b8601f891682612236565b8355505b6001600288020188555050505b5050505050505b565b60006040820190506124e760008301856114d2565b81810360208301526124f98184611538565b9050939250505056fe60806040526103e8601360006101000a8154816bffffffffffffffffffffffff02191690836bffffffffffffffffffffffff16021790555034801561004357600080fd5b50604051614d10380380614d1083398181016040528101906100659190610bbe565b838a6040518060400160405280600681526020017f5449434b4554000000000000000000000000000000000000000000000000000081525081600090816100ac9190610f8d565b5080600190816100bc9190610f8d565b505050600073ffffffffffffffffffffffffffffffffffffffff168173ffffffffffffffffffffffffffffffffffffffff16036101315760006040517f1e4fbdf7000000000000000000000000000000000000000000000000000000008152600401610128919061106e565b60405180910390fd5b6101408161056e60201b60201c565b508051825114610185576040517f08c379a000000000000000000000000000000000000000000000000000000000815260040161017c906110e6565b60405180910390fd5b600086116101c8576040517f08c379a00000000000000000000000000000000000000000000000000000000081526004016101bf90611152565b60405180910390fd5b6000851161020b576040517f08c379a0000000000000000000000000000000000000000000000000000000008152600401610202906111be565b60405180910390fd5b601360009054906101000a90046bffffffffffffffffffffffff166bffffffffffffffffffffffff16836bffffffffffffffffffffffff161115610284576040517f08c379a000000000000000000000000000000000000000000000000000000000815260040161027b9061122a565b60405180910390fd5b6000805b835181101561046357600073ffffffffffffffffffffffffffffffffffffffff168482815181106102bc576102bb61124a565b5b602002602001015173ffffffffffffffffffffffffffffffffffffffff160361031a576040517f08c379a0000000000000000000000000000000000000000000000000000000008152600401610311906112c5565b60405180910390fd5b6014604051806040016040528086848151811061033a5761033961124a565b5b602002602001015173ffffffffffffffffffffffffffffffffffffffff1681526020018584815181106103705761036f61124a565b5b60200260200101516bffffffffffffffffffffffff168152509080600181540180825580915050600190039060005260206000200160009091909190915060008201518160000160006101000a81548173ffffffffffffffffffffffffffffffffffffffff021916908373ffffffffffffffffffffffffffffffffffffffff16021790555060208201518160000160146101000a8154816bffffffffffffffffffffffff02191690836bffffffffffffffffffffffff16021790555050508281815181106104415761044061124a565b5b6020026020010151826104549190611314565b91508080600101915050610288565b50612710816bffffffffffffffffffffffff16146104b6576040517f08c379a00000000000000000000000000000000000000000000000000000000081526004016104ad906113a0565b60405180910390fd5b80601560006101000a8154816bffffffffffffffffffffffff02191690836bffffffffffffffffffffffff1602179055506104f7858561063460201b60201c565b8b600b90816105069190610f8d565b508a600c90816105169190610f8d565b5089600d90816105269190610f8d565b5088600e90816105369190610f8d565b5087600f90816105469190610f8d565b5086601081905550856011819055506000601281905550505050505050505050505050611429565b6000600960009054906101000a900473ffffffffffffffffffffffffffffffffffffffff16905081600960006101000a81548173ffffffffffffffffffffffffffffffffffffffff021916908373ffffffffffffffffffffffffffffffffffffffff1602179055508173ffffffffffffffffffffffffffffffffffffffff168173ffffffffffffffffffffffffffffffffffffffff167f8be0079c531659141344cd1fd0a4f28419497f9722a3daafe3b4186f6b6457e060405160405180910390a35050565b60006106446107dc60201b60201c565b6bffffffffffffffffffffffff16905080826bffffffffffffffffffffffff1611156106a95781816040517f6f483d090000000000000000000000000000000000000000000000000000000081526004016106a0929190611400565b60405180910390fd5b600073ffffffffffffffffffffffffffffffffffffffff168373ffffffffffffffffffffffffffffffffffffffff160361071b5760006040517fb6d9900a000000000000000000000000000000000000000000000000000000008152600401610712919061106e565b60405180910390fd5b60405180604001604052808473ffffffffffffffffffffffffffffffffffffffff168152602001836bffffffffffffffffffffffff16815250600760008201518160000160006101000a81548173ffffffffffffffffffffffffffffffffffffffff021916908373ffffffffffffffffffffffffffffffffffffffff16021790555060208201518160000160146101000a8154816bffffffffffffffffffffffff02191690836bffffffffffffffffffffffff160217905550905050505050565b6000612710905090565b6000604051905090565b600080fd5b600080fd5b600080fd5b600080fd5b6000601f19601f8301169050919050565b7f4e487b7100000000000000000000000000000000000000000000000000000000600052604160045260246000fd5b61084d82610804565b810181811067ffffffffffffffff8211171561086c5761086b610815565b5b80604052505050565b600061087f6107e6565b905061088b8282610844565b919050565b600067ffffffffffffffff8211156108ab576108aa610815565b5b6108b482610804565b9050602081019050919050565b60005b838110156108df5780820151818401526020810190506108c4565b60008484015250505050565b60006108fe6108f984610890565b610875565b90508281526020810184848401111561091a576109196107ff565b5b6109258482856108c1565b509392505050565b600082601f830112610942576109416107fa565b5b81516109528482602086016108eb565b91505092915050565b6000819050919050565b61096e8161095b565b811461097957600080fd5b50565b60008151905061098b81610965565b92915050565b600073ffffffffffffffffffffffffffffffffffffffff82169050919050565b60006109bc82610991565b9050919050565b6109cc816109b1565b81146109d757600080fd5b50565b6000815190506109e9816109c3565b92915050565b60006bffffffffffffffffffffffff82169050919050565b610a10816109ef565b8114610a1b57600080fd5b50565b600081519050610a2d81610a07565b92915050565b600067ffffffffffffffff821115610a4e57610a4d610815565b5b602082029050602081019050919050565b600080fd5b6000610a77610a7284610a33565b610875565b90508083825260208201905060208402830185811115610a9a57610a99610a5f565b5b835b81811015610ac35780610aaf88826109da565b845260208401935050602081019050610a9c565b5050509392505050565b600082601f830112610ae257610ae16107fa565b5b8151610af2848260208601610a64565b91505092915050565b600067ffffffffffffffff821115610b1657610b15610815565b5b602082029050602081019050919050565b6000610b3a610b3584610afb565b610875565b90508083825260208201905060208402830185811115610b5d57610b5c610a5f565b5b835b81811015610b865780610b728882610a1e565b845260208401935050602081019050610b5f565b5050509392505050565b600082601f830112610ba557610ba46107fa565b5b8151610bb5848260208601610b27565b91505092915050565b60008060008060008060008060008060006101608c8e031215610be457610be36107f0565b5b60008c015167ffffffffffffffff811115610c0257610c016107f5565b5b610c0e8e828f0161092d565b9b505060208c015167ffffffffffffffff811115610c2f57610c2e6107f5565b5b610c3b8e828f0161092d565b9a505060408c015167ffffffffffffffff811115610c5c57610c5b6107f5565b5b610c688e828f0161092d565b99505060608c015167ffffffffffffffff811115610c8957610c886107f5565b5b610c958e828f0161092d565b98505060808c015167ffffffffffffffff811115610cb657610cb56107f5565b5b610cc28e828f0161092d565b97505060a0610cd38e828f0161097c565b96505060c0610ce48e828f0161097c565b95505060e0610cf58e828f016109da565b945050610100610d078e828f01610a1e565b9350506101208c015167ffffffffffffffff811115610d2957610d286107f5565b5b610d358e828f01610acd565b9250506101408c015167ffffffffffffffff811115610d5757610d566107f5565b5b610d638e828f01610b90565b9150509295989b509295989b9093969950565b600081519050919050565b7f4e487b7100000000000000000000000000000000000000000000000000000000600052602260045260246000fd5b60006002820490506001821680610dc857607f821691505b602082108103610ddb57610dda610d81565b5b50919050565b60008190508160005260206000209050919050565b60006020601f8301049050919050565b600082821b905092915050565b600060088302610e437fffffffffffffffffffffffffffffffffffffffffffffffffffffffffffffffff82610e06565b610e4d8683610e06565b95508019841693508086168417925050509392505050565b6000819050919050565b6000610e8a610e85610e808461095b565b610e65565b61095b565b9050919050565b6000819050919050565b610ea483610e6f565b610eb8610eb082610e91565b848454610e13565b825550505050565b600090565b610ecd610ec0565b610ed8818484610e9b565b505050565b5b81811015610efc57610ef1600082610ec5565b600181019050610ede565b5050565b601f821115610f4157610f1281610de1565b610f1b84610df6565b81016020851015610f2a578190505b610f3e610f3685610df6565b830182610edd565b50505b505050565b600082821c905092915050565b6000610f6460001984600802610f46565b1980831691505092915050565b6000610f7d8383610f53565b9150826002028217905092915050565b610f9682610d76565b67ffffffffffffffff811115610faf57610fae610815565b5b610fb98254610db0565b610fc4828285610f00565b600060209050601f831160018114610ff75760008415610fe5578287015190505b610fef8582610f71565b865550611057565b601f19841661100586610de1565b60005b8281101561102d57848901518255600182019150602085019450602081019050611008565b8683101561104a5784890151611046601f891682610f53565b8355505b6001600288020188555050505b505050505050565b611068816109b1565b82525050565b6000602082019050611083600083018461105f565b92915050565b600082825260208201905092915050565b7f77616c6c65742f7368617265206d69736d617463680000000000000000000000600082015250565b60006110d0601583611089565b91506110db8261109a565b602082019050919050565b600060208201905081810360008301526110ff816110c3565b9050919050565b7f7072696365206d757374206265203e2030000000000000000000000000000000600082015250565b600061113c601183611089565b915061114782611106565b602082019050919050565b6000602082019050818103600083015261116b8161112f565b9050919050565b7f6d6178537570706c79206d757374206265203e20300000000000000000000000600082015250565b60006111a8601583611089565b91506111b382611172565b602082019050919050565b600060208201905081810360008301526111d78161119b565b9050919050565b7f726f79616c747920746f6f206869676800000000000000000000000000000000600082015250565b6000611214601083611089565b915061121f826111de565b602082019050919050565b6000602082019050818103600083015261124381611207565b9050919050565b7f4e487b7100000000000000000000000000000000000000000000000000000000600052603260045260246000fd5b7f696e76616c69642077616c6c6574000000000000000000000000000000000000600082015250565b60006112af600e83611089565b91506112ba82611279565b602082019050919050565b600060208201905081810360008301526112de816112a2565b9050919050565b7f4e487b7100000000000000000000000000000000000000000000000000000000600052601160045260246000fd5b600061131f826109ef565b915061132a836109ef565b925082820190506bffffffffffffffffffffffff81111561134e5761134d6112e5565b5b92915050565b7f746f74616c20736861726520213d203130302500000000000000000000000000600082015250565b600061138a601383611089565b915061139582611354565b602082019050919050565b600060208201905081810360008301526113b98161137d565b9050919050565b60006113db6113d66113d1846109ef565b610e65565b61095b565b9050919050565b6113eb816113c0565b82525050565b6113fa8161095b565b82525050565b600060408201905061141560008301856113e2565b61142260208301846113f1565b9392505050565b6138d8806114386000396000f3fe6080604052600436106101e35760003560e01c80638043c9c011610102578063c87b56dd11610095578063f310b98511610064578063f310b9851461070a578063f3ccaac014610735578063fa30b25114610760578063fbfa77cf1461077c576101e3565b8063c87b56dd1461063c578063d5abeb0114610679578063e985e9c5146106a4578063f2fde38b146106e1576101e3565b8063a035b1fe116100d1578063a035b1fe14610594578063a22cb465146105bf578063a2309ff8146105e8578063b88d4fde14610613576101e3565b80638043c9c0146104e85780638cdd9c8f146105135780638da5cb5b1461053e57806395d89b4114610569576101e3565b80632a55205a1161017a5780636817031b116101495780636817031b1461044057806370a0823114610469578063715018a6146104a65780637284e416146104bd576101e3565b80632a55205a1461037357806342842e0e146103b15780635388842c146103da5780636352211e14610403576101e3565b8063089cdd0c116101b6578063089cdd0c146102b8578063095ea7b3146102e357806323b872dd1461030c57806329652e8614610335576101e3565b806301ffc9a7146101e8578063026c42071461022557806306fdde0314610250578063081812fc1461027b575b600080fd5b3480156101f457600080fd5b5061020f600480360381019061020a91906128cc565b6107a7565b60405161021c9190612914565b60405180910390f35b34801561023157600080fd5b5061023a6107b9565b6040516102479190612956565b60405180910390f35b34801561025c57600080fd5b506102656107d7565b6040516102729190612a01565b60405180910390f35b34801561028757600080fd5b506102a2600480360381019061029d9190612a59565b610869565b6040516102af9190612ac7565b60405180910390f35b3480156102c457600080fd5b506102cd610885565b6040516102da9190612a01565b60405180910390f35b3480156102ef57600080fd5b5061030a60048036038101906103059190612b0e565b610913565b005b34801561031857600080fd5b50610333600480360381019061032e9190612b4e565b610929565b005b34801561034157600080fd5b5061035c60048036038101906103579190612a59565b610a2b565b60405161036a929190612ba1565b60405180910390f35b34801561037f57600080fd5b5061039a60048036038101906103959190612bca565b610a93565b6040516103a8929190612c19565b60405180910390f35b3480156103bd57600080fd5b506103d860048036038101906103d39190612b4e565b610bc3565b005b3480156103e657600080fd5b5061040160048036038101906103fc9190612d77565b610be3565b005b34801561040f57600080fd5b5061042a60048036038101906104259190612a59565b610d29565b6040516104379190612ac7565b60405180910390f35b34801561044c57600080fd5b5061046760048036038101906104629190612dd3565b610d3b565b005b34801561047557600080fd5b50610490600480360381019061048b9190612dd3565b610df6565b60405161049d9190612e00565b60405180910390f35b3480156104b257600080fd5b506104bb610eb0565b005b3480156104c957600080fd5b506104d2610ec4565b6040516104df9190612a01565b60405180910390f35b3480156104f457600080fd5b506104fd610f52565b60405161050a9190612a01565b60405180910390f35b34801561051f57600080fd5b50610528610fe0565b6040516105359190612956565b60405180910390f35b34801561054a57600080fd5b50610553610ffe565b6040516105609190612ac7565b60405180910390f35b34801561057557600080fd5b5061057e611028565b60405161058b9190612a01565b60405180910390f35b3480156105a057600080fd5b506105a96110ba565b6040516105b69190612e00565b60405180910390f35b3480156105cb57600080fd5b506105e660048036038101906105e19190612e47565b6110c0565b005b3480156105f457600080fd5b506105fd6110d6565b60405161060a9190612e00565b60405180910390f35b34801561061f57600080fd5b5061063a60048036038101906106359190612f28565b6110dc565b005b34801561064857600080fd5b50610663600480360381019061065e9190612a59565b611101565b6040516106709190612a01565b60405180910390f35b34801561068557600080fd5b5061068e611113565b60405161069b9190612e00565b60405180910390f35b3480156106b057600080fd5b506106cb60048036038101906106c69190612fab565b611119565b6040516106d89190612914565b60405180910390f35b3480156106ed57600080fd5b5061070860048036038101906107039190612dd3565b6111ad565b005b34801561071657600080fd5b5061071f611233565b60405161072c9190612a01565b60405180910390f35b34801561074157600080fd5b5061074a6112c1565b6040516107579190612a01565b60405180910390f35b61077a60048036038101906107759190612feb565b61134f565b005b34801561078857600080fd5b506107916115d1565b60405161079e9190612ac7565b60405180910390f35b60006107b2826115f7565b9050919050565b601560009054906101000a90046bffffffffffffffffffffffff1681565b6060600080546107e690613063565b80601f016020809104026020016040519081016040528092919081815260200182805461081290613063565b801561085f5780601f106108345761010080835404028352916020019161085f565b820191906000526020600020905b81548152906001019060200180831161084257829003601f168201915b5050505050905090565b600061087482611671565b5061087e826116f9565b9050919050565b600b805461089290613063565b80601f01602080910402602001604051908101604052809291908181526020018280546108be90613063565b801561090b5780601f106108e05761010080835404028352916020019161090b565b820191906000526020600020905b8154815290600101906020018083116108ee57829003601f168201915b505050505081565b6109258282610920611736565b61173e565b5050565b600073ffffffffffffffffffffffffffffffffffffffff168273ffffffffffffffffffffffffffffffffffffffff160361099b5760006040517f64a0ae920000000000000000000000000000000000000000000000000000000081526004016109929190612ac7565b60405180910390fd5b60006109af83836109aa611736565b611750565b90508373ffffffffffffffffffffffffffffffffffffffff168173ffffffffffffffffffffffffffffffffffffffff1614610a25578382826040517f64283d7b000000000000000000000000000000000000000000000000000000008152600401610a1c93929190613094565b60405180910390fd5b50505050565b60148181548110610a3b57600080fd5b906000526020600020016000915090508060000160009054906101000a900473ffffffffffffffffffffffffffffffffffffffff16908060000160149054906101000a90046bffffffffffffffffffffffff16905082565b600080600060086000868152602001908152602001600020905060008160000160009054906101000a900473ffffffffffffffffffffffffffffffffffffffff16905060008260000160149054906101000a90046bffffffffffffffffffffffff169050600073ffffffffffffffffffffffffffffffffffffffff168273ffffffffffffffffffffffffffffffffffffffff1603610b7457600760000160009054906101000a900473ffffffffffffffffffffffffffffffffffffffff169150600760000160149054906101000a90046bffffffffffffffffffffffff1690505b6000610b7e61196a565b6bffffffffffffffffffffffff16826bffffffffffffffffffffffff1688610ba691906130fa565b610bb0919061316b565b9050828195509550505050509250929050565b610bde838383604051806020016040528060008152506110dc565b505050565b610beb611974565b60115460125410610c31576040517f08c379a0000000000000000000000000000000000000000000000000000000008152600401610c28906131e8565b60405180910390fd5b600073ffffffffffffffffffffffffffffffffffffffff168273ffffffffffffffffffffffffffffffffffffffff1603610ca0576040517f08c379a0000000000000000000000000000000000000000000000000000000008152600401610c9790613254565b60405180910390fd5b60126000815480929190610cb390613274565b919050555060006012549050610cc983826119fb565b610cd38183611a19565b808373ffffffffffffffffffffffffffffffffffffffff167fcbea9c23945e351434f7ae5b1a435091cc278dd9dd0eba4c04203674014ca7d7601054604051610d1c9190612e00565b60405180910390a3505050565b6000610d3482611671565b9050919050565b610d43611974565b600073ffffffffffffffffffffffffffffffffffffffff168173ffffffffffffffffffffffffffffffffffffffff1603610db2576040517f08c379a0000000000000000000000000000000000000000000000000000000008152600401610da990613308565b60405180910390fd5b80600a60006101000a81548173ffffffffffffffffffffffffffffffffffffffff021916908373ffffffffffffffffffffffffffffffffffffffff16021790555050565b60008073ffffffffffffffffffffffffffffffffffffffff168273ffffffffffffffffffffffffffffffffffffffff1603610e695760006040517f89c62b64000000000000000000000000000000000000000000000000000000008152600401610e609190612ac7565b60405180910390fd5b600360008373ffffffffffffffffffffffffffffffffffffffff1673ffffffffffffffffffffffffffffffffffffffff168152602001908152602001600020549050919050565b610eb8611974565b610ec26000611a75565b565b600d8054610ed190613063565b80601f0160208091040260200160405190810160405280929190818152602001828054610efd90613063565b8015610f4a5780601f10610f1f57610100808354040283529160200191610f4a565b820191906000526020600020905b815481529060010190602001808311610f2d57829003601f168201915b505050505081565b600c8054610f5f90613063565b80601f0160208091040260200160405190810160405280929190818152602001828054610f8b90613063565b8015610fd85780601f10610fad57610100808354040283529160200191610fd8565b820191906000526020600020905b815481529060010190602001808311610fbb57829003601f168201915b505050505081565b601360009054906101000a90046bffffffffffffffffffffffff1681565b6000600960009054906101000a900473ffffffffffffffffffffffffffffffffffffffff16905090565b60606001805461103790613063565b80601f016020809104026020016040519081016040528092919081815260200182805461106390613063565b80156110b05780601f10611085576101008083540402835291602001916110b0565b820191906000526020600020905b81548152906001019060200180831161109357829003601f168201915b5050505050905090565b60105481565b6110d26110cb611736565b8383611b3b565b5050565b60125481565b6110e7848484610929565b6110fb6110f2611736565b85858585611caa565b50505050565b606061110c82611e5b565b9050919050565b60115481565b6000600560008473ffffffffffffffffffffffffffffffffffffffff1673ffffffffffffffffffffffffffffffffffffffff16815260200190815260200160002060008373ffffffffffffffffffffffffffffffffffffffff1673ffffffffffffffffffffffffffffffffffffffff16815260200190815260200160002060009054906101000a900460ff16905092915050565b6111b5611974565b600073ffffffffffffffffffffffffffffffffffffffff168173ffffffffffffffffffffffffffffffffffffffff16036112275760006040517f1e4fbdf700000000000000000000000000000000000000000000000000000000815260040161121e9190612ac7565b60405180910390fd5b61123081611a75565b50565b600e805461124090613063565b80601f016020809104026020016040519081016040528092919081815260200182805461126c90613063565b80156112b95780601f1061128e576101008083540402835291602001916112b9565b820191906000526020600020905b81548152906001019060200180831161129c57829003601f168201915b505050505081565b600f80546112ce90613063565b80601f01602080910402602001604051908101604052809291908181526020018280546112fa90613063565b80156113475780601f1061131c57610100808354040283529160200191611347565b820191906000526020600020905b81548152906001019060200180831161132a57829003601f168201915b505050505081565b60115460125410611395576040517f08c379a000000000000000000000000000000000000000000000000000000000815260040161138c90613374565b60405180910390fd5b6010543410156113da576040517f08c379a00000000000000000000000000000000000000000000000000000000081526004016113d1906133e0565b60405180910390fd5b601260008154809291906113ed90613274565b91905055506000601254905061140333826119fb565b61140d8183611a19565b60005b60148054905081101561157d5760006127106014838154811061143657611435613400565b5b9060005260206000200160000160149054906101000a90046bffffffffffffffffffffffff166bffffffffffffffffffffffff163461147591906130fa565b61147f919061316b565b905060006014838154811061149757611496613400565b5b9060005260206000200160000160009054906101000a900473ffffffffffffffffffffffffffffffffffffffff1673ffffffffffffffffffffffffffffffffffffffff16826040516114e890613460565b60006040518083038185875af1925050503d8060008114611525576040519150601f19603f3d011682016040523d82523d6000602084013e61152a565b606091505b505090508061156e576040517f08c379a0000000000000000000000000000000000000000000000000000000008152600401611565906134c1565b60405180910390fd5b50508080600101915050611410565b50803373ffffffffffffffffffffffffffffffffffffffff167f2a91574e12ad96234e84923e146b0946ecfb871cd8d5534dc1fdcbe87a7c01b3346040516115c59190612e00565b60405180910390a35050565b600a60009054906101000a900473ffffffffffffffffffffffffffffffffffffffff1681565b60007f2a55205a000000000000000000000000000000000000000000000000000000007bffffffffffffffffffffffffffffffffffffffffffffffffffffffff1916827bffffffffffffffffffffffffffffffffffffffffffffffffffffffff1916148061166a575061166982611f6e565b5b9050919050565b60008061167d83611fcf565b9050600073ffffffffffffffffffffffffffffffffffffffff168173ffffffffffffffffffffffffffffffffffffffff16036116f057826040517f7e2732890000000000000000000000000000000000000000000000000000000081526004016116e79190612e00565b60405180910390fd5b80915050919050565b60006004600083815260200190815260200160002060009054906101000a900473ffffffffffffffffffffffffffffffffffffffff169050919050565b600033905090565b61174b838383600161200c565b505050565b60008061175c84611fcf565b9050600073ffffffffffffffffffffffffffffffffffffffff168373ffffffffffffffffffffffffffffffffffffffff161461179e5761179d8184866121d1565b5b600073ffffffffffffffffffffffffffffffffffffffff168173ffffffffffffffffffffffffffffffffffffffff161461182f576117e060008560008061200c565b6001600360008373ffffffffffffffffffffffffffffffffffffffff1673ffffffffffffffffffffffffffffffffffffffff168152602001908152602001600020600082825403925050819055505b600073ffffffffffffffffffffffffffffffffffffffff168573ffffffffffffffffffffffffffffffffffffffff16146118b2576001600360008773ffffffffffffffffffffffffffffffffffffffff1673ffffffffffffffffffffffffffffffffffffffff168152602001908152602001600020600082825401925050819055505b846002600086815260200190815260200160002060006101000a81548173ffffffffffffffffffffffffffffffffffffffff021916908373ffffffffffffffffffffffffffffffffffffffff160217905550838573ffffffffffffffffffffffffffffffffffffffff168273ffffffffffffffffffffffffffffffffffffffff167fddf252ad1be2c89b69c2b068fc378daa952ba7f163c4a11628f55a4df523b3ef60405160405180910390a4809150509392505050565b6000612710905090565b61197c611736565b73ffffffffffffffffffffffffffffffffffffffff1661199a610ffe565b73ffffffffffffffffffffffffffffffffffffffff16146119f9576119bd611736565b6040517f118cdaa70000000000000000000000000000000000000000000000000000000081526004016119f09190612ac7565b60405180910390fd5b565b611a15828260405180602001604052806000815250612295565b5050565b80600660008481526020019081526020016000209081611a39919061368d565b507ff8e1a15aba9398e019f0b49df1a4fde98ee17ae345cb5f6b5e2c27f5033e8ce782604051611a699190612e00565b60405180910390a15050565b6000600960009054906101000a900473ffffffffffffffffffffffffffffffffffffffff16905081600960006101000a81548173ffffffffffffffffffffffffffffffffffffffff021916908373ffffffffffffffffffffffffffffffffffffffff1602179055508173ffffffffffffffffffffffffffffffffffffffff168173ffffffffffffffffffffffffffffffffffffffff167f8be0079c531659141344cd1fd0a4f28419497f9722a3daafe3b4186f6b6457e060405160405180910390a35050565b600073ffffffffffffffffffffffffffffffffffffffff168273ffffffffffffffffffffffffffffffffffffffff1603611bac57816040517f5b08ba18000000000000000000000000000000000000000000000000000000008152600401611ba39190612ac7565b60405180910390fd5b80600560008573ffffffffffffffffffffffffffffffffffffffff1673ffffffffffffffffffffffffffffffffffffffff16815260200190815260200160002060008473ffffffffffffffffffffffffffffffffffffffff1673ffffffffffffffffffffffffffffffffffffffff16815260200190815260200160002060006101000a81548160ff0219169083151502179055508173ffffffffffffffffffffffffffffffffffffffff168373ffffffffffffffffffffffffffffffffffffffff167f17307eab39ab6107e8899845ad3d59bd9653f200f220920489ca2b5937696c3183604051611c9d9190612914565b60405180910390a3505050565b60008373ffffffffffffffffffffffffffffffffffffffff163b1115611e54578273ffffffffffffffffffffffffffffffffffffffff1663150b7a02868685856040518563ffffffff1660e01b8152600401611d0994939291906137b4565b6020604051808303816000875af1925050508015611d4557506040513d601f19601f82011682018060405250810190611d429190613815565b60015b611dc9573d8060008114611d75576040519150601f19603f3d011682016040523d82523d6000602084013e611d7a565b606091505b506000815103611dc157836040517f64a0ae92000000000000000000000000000000000000000000000000000000008152600401611db89190612ac7565b60405180910390fd5b805160208201fd5b63150b7a0260e01b7bffffffffffffffffffffffffffffffffffffffffffffffffffffffff1916817bffffffffffffffffffffffffffffffffffffffffffffffffffffffff191614611e5257836040517f64a0ae92000000000000000000000000000000000000000000000000000000008152600401611e499190612ac7565b60405180910390fd5b505b5050505050565b6060611e6682611671565b506000600660008481526020019081526020016000208054611e8790613063565b80601f0160208091040260200160405190810160405280929190818152602001828054611eb390613063565b8015611f005780601f10611ed557610100808354040283529160200191611f00565b820191906000526020600020905b815481529060010190602001808311611ee357829003601f168201915b505050505090506000611f116122b9565b90506000815103611f26578192505050611f69565b600082511115611f5b578082604051602001611f4392919061387e565b60405160208183030381529060405292505050611f69565b611f64846122d0565b925050505b919050565b6000634906490660e01b7bffffffffffffffffffffffffffffffffffffffffffffffffffffffff1916827bffffffffffffffffffffffffffffffffffffffffffffffffffffffff19161480611fc85750611fc782612339565b5b9050919050565b60006002600083815260200190815260200160002060009054906101000a900473ffffffffffffffffffffffffffffffffffffffff169050919050565b80806120455750600073ffffffffffffffffffffffffffffffffffffffff168273ffffffffffffffffffffffffffffffffffffffff1614155b1561217957600061205584611671565b9050600073ffffffffffffffffffffffffffffffffffffffff168373ffffffffffffffffffffffffffffffffffffffff16141580156120c057508273ffffffffffffffffffffffffffffffffffffffff168173ffffffffffffffffffffffffffffffffffffffff1614155b80156120d357506120d18184611119565b155b1561211557826040517fa9fbf51f00000000000000000000000000000000000000000000000000000000815260040161210c9190612ac7565b60405180910390fd5b811561217757838573ffffffffffffffffffffffffffffffffffffffff168273ffffffffffffffffffffffffffffffffffffffff167f8c5be1e5ebec7d5bd14f71427d1e84f3dd0314c0f7b2291e5b200ac8c7c3b92560405160405180910390a45b505b836004600085815260200190815260200160002060006101000a81548173ffffffffffffffffffffffffffffffffffffffff021916908373ffffffffffffffffffffffffffffffffffffffff16021790555050505050565b6121dc83838361241b565b61229057600073ffffffffffffffffffffffffffffffffffffffff168373ffffffffffffffffffffffffffffffffffffffff160361225157806040517f7e2732890000000000000000000000000000000000000000000000000000000081526004016122489190612e00565b60405180910390fd5b81816040517f177e802f000000000000000000000000000000000000000000000000000000008152600401612287929190612c19565b60405180910390fd5b505050565b61229f83836124dc565b6122b46122aa611736565b6000858585611caa565b505050565b606060405180602001604052806000815250905090565b60606122db82611671565b5060006122e66122b9565b905060008151116123065760405180602001604052806000815250612331565b80612310846125d5565b60405160200161232192919061387e565b6040516020818303038152906040525b915050919050565b60007f80ac58cd000000000000000000000000000000000000000000000000000000007bffffffffffffffffffffffffffffffffffffffffffffffffffffffff1916827bffffffffffffffffffffffffffffffffffffffffffffffffffffffff1916148061240457507f5b5e139f000000000000000000000000000000000000000000000000000000007bffffffffffffffffffffffffffffffffffffffffffffffffffffffff1916827bffffffffffffffffffffffffffffffffffffffffffffffffffffffff1916145b806124145750612413826126a3565b5b9050919050565b60008073ffffffffffffffffffffffffffffffffffffffff168373ffffffffffffffffffffffffffffffffffffffff16141580156124d357508273ffffffffffffffffffffffffffffffffffffffff168473ffffffffffffffffffffffffffffffffffffffff16148061249457506124938484611119565b5b806124d257508273ffffffffffffffffffffffffffffffffffffffff166124ba836116f9565b73ffffffffffffffffffffffffffffffffffffffff16145b5b90509392505050565b600073ffffffffffffffffffffffffffffffffffffffff168273ffffffffffffffffffffffffffffffffffffffff160361254e5760006040517f64a0ae920000000000000000000000000000000000000000000000000000000081526004016125459190612ac7565b60405180910390fd5b600061255c83836000611750565b9050600073ffffffffffffffffffffffffffffffffffffffff168173ffffffffffffffffffffffffffffffffffffffff16146125d05760006040517f73c6ac6e0000000000000000000000000000000000000000000000000000000081526004016125c79190612ac7565b60405180910390fd5b505050565b6060600060016125e48461270d565b01905060008167ffffffffffffffff81111561260357612602612c4c565b5b6040519080825280601f01601f1916602001820160405280156126355781602001600182028036833780820191505090505b509050600082602083010190505b600115612698578080600190039150507f3031323334353637383961626364656600000000000000000000000000000000600a86061a8153600a858161268c5761268b61313c565b5b04945060008503612643575b819350505050919050565b60007f01ffc9a7000000000000000000000000000000000000000000000000000000007bffffffffffffffffffffffffffffffffffffffffffffffffffffffff1916827bffffffffffffffffffffffffffffffffffffffffffffffffffffffff1916149050919050565b600080600090507a184f03e93ff9f4daa797ed6e38ed64bf6a1f010000000000000000831061276b577a184f03e93ff9f4daa797ed6e38ed64bf6a1f01000000000000000083816127615761276061313c565b5b0492506040810190505b6d04ee2d6d415b85acef810000000083106127a8576d04ee2d6d415b85acef8100000000838161279e5761279d61313c565b5b0492506020810190505b662386f26fc1000083106127d757662386f26fc1000083816127cd576127cc61313c565b5b0492506010810190505b6305f5e1008310612800576305f5e10083816127f6576127f561313c565b5b0492506008810190505b612710831061282557612710838161281b5761281a61313c565b5b0492506004810190505b60648310612848576064838161283e5761283d61313c565b5b0492506002810190505b600a8310612857576001810190505b80915050919050565b6000604051905090565b600080fd5b600080fd5b60007fffffffff0000000000000000000000000000000000000000000000000000000082169050919050565b6128a981612874565b81146128b457600080fd5b50565b6000813590506128c6816128a0565b92915050565b6000602082840312156128e2576128e161286a565b5b60006128f0848285016128b7565b91505092915050565b60008115159050919050565b61290e816128f9565b82525050565b60006020820190506129296000830184612905565b92915050565b60006bffffffffffffffffffffffff82169050919050565b6129508161292f565b82525050565b600060208201905061296b6000830184612947565b92915050565b600081519050919050565b600082825260208201905092915050565b60005b838110156129ab578082015181840152602081019050612990565b60008484015250505050565b6000601f19601f8301169050919050565b60006129d382612971565b6129dd818561297c565b93506129ed81856020860161298d565b6129f6816129b7565b840191505092915050565b60006020820190508181036000830152612a1b81846129c8565b905092915050565b6000819050919050565b612a3681612a23565b8114612a4157600080fd5b50565b600081359050612a5381612a2d565b92915050565b600060208284031215612a6f57612a6e61286a565b5b6000612a7d84828501612a44565b91505092915050565b600073ffffffffffffffffffffffffffffffffffffffff82169050919050565b6000612ab182612a86565b9050919050565b612ac181612aa6565b82525050565b6000602082019050612adc6000830184612ab8565b92915050565b612aeb81612aa6565b8114612af657600080fd5b50565b600081359050612b0881612ae2565b92915050565b60008060408385031215612b2557612b2461286a565b5b6000612b3385828601612af9565b9250506020612b4485828601612a44565b9150509250929050565b600080600060608486031215612b6757612b6661286a565b5b6000612b7586828701612af9565b9350506020612b8686828701612af9565b9250506040612b9786828701612a44565b9150509250925092565b6000604082019050612bb66000830185612ab8565b612bc36020830184612947565b9392505050565b60008060408385031215612be157612be061286a565b5b6000612bef85828601612a44565b9250506020612c0085828601612a44565b9150509250929050565b612c1381612a23565b82525050565b6000604082019050612c2e6000830185612ab8565b612c3b6020830184612c0a565b9392505050565b600080fd5b600080fd5b7f4e487b7100000000000000000000000000000000000000000000000000000000600052604160045260246000fd5b612c84826129b7565b810181811067ffffffffffffffff82111715612ca357612ca2612c4c565b5b80604052505050565b6000612cb6612860565b9050612cc28282612c7b565b919050565b600067ffffffffffffffff821115612ce257612ce1612c4c565b5b612ceb826129b7565b9050602081019050919050565b82818337600083830152505050565b6000612d1a612d1584612cc7565b612cac565b905082815260208101848484011115612d3657612d35612c47565b5b612d41848285612cf8565b509392505050565b600082601f830112612d5e57612d5d612c42565b5b8135612d6e848260208601612d07565b91505092915050565b60008060408385031215612d8e57612d8d61286a565b5b6000612d9c85828601612af9565b925050602083013567ffffffffffffffff811115612dbd57612dbc61286f565b5b612dc985828601612d49565b9150509250929050565b600060208284031215612de957612de861286a565b5b6000612df784828501612af9565b91505092915050565b6000602082019050612e156000830184612c0a565b92915050565b612e24816128f9565b8114612e2f57600080fd5b50565b600081359050612e4181612e1b565b92915050565b60008060408385031215612e5e57612e5d61286a565b5b6000612e6c85828601612af9565b9250506020612e7d85828601612e32565b9150509250929050565b600067ffffffffffffffff821115612ea257612ea1612c4c565b5b612eab826129b7565b9050602081019050919050565b6000612ecb612ec684612e87565b612cac565b905082815260208101848484011115612ee757612ee6612c47565b5b612ef2848285612cf8565b509392505050565b600082601f830112612f0f57612f0e612c42565b5b8135612f1f848260208601612eb8565b91505092915050565b60008060008060808587031215612f4257612f4161286a565b5b6000612f5087828801612af9565b9450506020612f6187828801612af9565b9350506040612f7287828801612a44565b925050606085013567ffffffffffffffff811115612f9357612f9261286f565b5b612f9f87828801612efa565b91505092959194509250565b60008060408385031215612fc257612fc161286a565b5b6000612fd085828601612af9565b9250506020612fe185828601612af9565b9150509250929050565b6000602082840312156130015761300061286a565b5b600082013567ffffffffffffffff81111561301f5761301e61286f565b5b61302b84828501612d49565b91505092915050565b7f4e487b7100000000000000000000000000000000000000000000000000000000600052602260045260246000fd5b6000600282049050600182168061307b57607f821691505b60208210810361308e5761308d613034565b5b50919050565b60006060820190506130a96000830186612ab8565b6130b66020830185612c0a565b6130c36040830184612ab8565b949350505050565b7f4e487b7100000000000000000000000000000000000000000000000000000000600052601160045260246000fd5b600061310582612a23565b915061311083612a23565b925082820261311e81612a23565b91508282048414831517613135576131346130cb565b5b5092915050565b7f4e487b7100000000000000000000000000000000000000000000000000000000600052601260045260246000fd5b600061317682612a23565b915061318183612a23565b9250826131915761319061313c565b5b828204905092915050565b7f536f6c64204f7574000000000000000000000000000000000000000000000000600082015250565b60006131d260088361297c565b91506131dd8261319c565b602082019050919050565b60006020820190508181036000830152613201816131c5565b9050919050565b7f696e76616c696420616464726573730000000000000000000000000000000000600082015250565b600061323e600f8361297c565b915061324982613208565b602082019050919050565b6000602082019050818103600083015261326d81613231565b9050919050565b600061327f82612a23565b91507fffffffffffffffffffffffffffffffffffffffffffffffffffffffffffffffff82036132b1576132b06130cb565b5b600182019050919050565b7f696e76616c6964207661756c7400000000000000000000000000000000000000600082015250565b60006132f2600d8361297c565b91506132fd826132bc565b602082019050919050565b60006020820190508181036000830152613321816132e5565b9050919050565b7f736f6c64206f7574000000000000000000000000000000000000000000000000600082015250565b600061335e60088361297c565b915061336982613328565b602082019050919050565b6000602082019050818103600083015261338d81613351565b9050919050565b7f696e73756666696369656e742066756e64730000000000000000000000000000600082015250565b60006133ca60128361297c565b91506133d582613394565b602082019050919050565b600060208201905081810360008301526133f9816133bd565b9050919050565b7f4e487b7100000000000000000000000000000000000000000000000000000000600052603260045260246000fd5b600081905092915050565b50565b600061344a60008361342f565b91506134558261343a565b600082019050919050565b600061346b8261343d565b9150819050919050565b7f7061796f7574206661696c656400000000000000000000000000000000000000600082015250565b60006134ab600d8361297c565b91506134b682613475565b602082019050919050565b600060208201905081810360008301526134da8161349e565b9050919050565b60008190508160005260206000209050919050565b60006020601f8301049050919050565b600082821b905092915050565b6000600883026135437fffffffffffffffffffffffffffffffffffffffffffffffffffffffffffffffff82613506565b61354d8683613506565b95508019841693508086168417925050509392505050565b6000819050919050565b600061358a61358561358084612a23565b613565565b612a23565b9050919050565b6000819050919050565b6135a48361356f565b6135b86135b082613591565b848454613513565b825550505050565b600090565b6135cd6135c0565b6135d881848461359b565b505050565b5b818110156135fc576135f16000826135c5565b6001810190506135de565b5050565b601f82111561364157613612816134e1565b61361b846134f6565b8101602085101561362a578190505b61363e613636856134f6565b8301826135dd565b50505b505050565b600082821c905092915050565b600061366460001984600802613646565b1980831691505092915050565b600061367d8383613653565b9150826002028217905092915050565b61369682612971565b67ffffffffffffffff8111156136af576136ae612c4c565b5b6136b98254613063565b6136c4828285613600565b600060209050601f8311600181146136f757600084156136e5578287015190505b6136ef8582613671565b865550613757565b601f198416613705866134e1565b60005b8281101561372d57848901518255600182019150602085019450602081019050613708565b8683101561374a5784890151613746601f891682613653565b8355505b6001600288020188555050505b505050505050565b600081519050919050565b600082825260208201905092915050565b60006137868261375f565b613790818561376a565b93506137a081856020860161298d565b6137a9816129b7565b840191505092915050565b60006080820190506137c96000830187612ab8565b6137d66020830186612ab8565b6137e36040830185612c0a565b81810360608301526137f5818461377b565b905095945050505050565b60008151905061380f816128a0565b92915050565b60006020828403121561382b5761382a61286a565b5b600061383984828501613800565b91505092915050565b600081905092915050565b600061385882612971565b6138628185613842565b935061387281856020860161298d565b80840191505092915050565b600061388a828561384d565b9150613896828461384d565b9150819050939250505056fea264697066735822122013a915cc53e7e4e184714355eb1fe65c934b359a4d8835fa2d918be43dd8870064736f6c634300081c0033a26469706673582212200186207e235686657b557c4a7c2ba9527c0d8d377c126fd78789ba52d3a5504864736f6c634300081c0033",
  "linkReferences": {},
  "deployedLinkReferences": {}
}