{
  "_format": "hh-sol-artifact-1",
  "contractName": "TicketFactory",
  "sourceName": "contracts/ticket-factory.sol",
  "abi": [
    {
      "inputs": [
        {
          "internalType": "address",
          "name": "_vault",
          "type": "address"
        },
        {
          "internalType": "address",
          "name": "_ticketImplementation",
          "type": "address"
        }
      ],
      "stateMutability": "nonpayable",
      "type": "constructor"
    },
    {
      "inputs": [],
      "name": "FailedDeployment",
      "type": "error"
    },
    {
      "inputs": [
        {
          "internalType": "uint256",
          "name": "balance",
          "type": "uint256"
        },
        {
          "internalType": "uint256",
          "name": "needed",
          "type": "uint256"
        }
      ],
      "name": "InsufficientBalance",
      "type": "error"
    },
    {
      "inputs": [
        {
          "internalType": "address",
          "name": "owner",
          "type": "address"
        }
      ],
      "name": "OwnableInvalidOwner",
      "type": "error"
    },
    {
      "inputs": [
        {
          "internalType": "address",
          "name": "account",
          "type": "address"
        }
      ],
      "name": "OwnableUnauthorizedAccount",
      "type": "error"
    },
    {
      "anonymous": false,
      "inputs": [
        {
          "indexed": true,
          "internalType": "address",
          "name": "organizer",
          "type": "address"
        },
        {
          "indexed": false,
          "internalType": "address",
          "name": "ticketAddress",
          "type": "address"
        },
        {
          "indexed": false,
          "internalType": "string",
          "name": "eventName",
          "type": "string"
        }
      ],
      "name": "EventCreated",
      "type": "event"
    },
    {
      "anonymous": false,
      "inputs": [
        {
          "indexed": true,
          "internalType": "address",
          "name": "previousOwner",
          "type": "address"
        },
        {
          "indexed": true,
          "internalType": "address",
          "name": "newOwner",
          "type": "address"
        }
      ],
      "name": "OwnershipTransferred",
      "type": "event"
    },
    {
      "inputs": [
        {
          "internalType": "uint256",
          "name": "",
          "type": "uint256"
        }
      ],
      "name": "allEvents",
      "outputs": [
        {
          "internalType": "address",
          "name": "eventAddress",
          "type": "address"
        },
        {
          "internalType": "address",
          "name": "organizer",
          "type": "address"
        },
        {
          "internalType": "string",
          "name": "eventName",
          "type": "string"
        },
        {
          "internalType": "string",
          "name": "eventId",
          "type": "string"
        },
        {
          "internalType": "string",
          "name": "description",
          "type": "string"
        },
        {
          "internalType": "string",
          "name": "image",
          "type": "string"
        },
        {
          "internalType": "uint16",
          "name": "royaltyFee",
          "type": "uint16"
        }
      ],
      "stateMutability": "view",
      "type": "function"
    },
    {
      "inputs": [
        {
          "internalType": "string",
          "name": "_eventName",
          "type": "string"
        },
        {
          "internalType": "string",
          "name": "_description",
          "type": "string"
        },
        {
          "internalType": "string",
          "name": "_image",
          "type": "string"
        },
        {
          "internalType": "uint16",
          "name": "_royaltyFee",
          "type": "uint16"
        },
        {
          "internalType": "address[]",
          "name": "_wallets",
          "type": "address[]"
        },
        {
          "internalType": "uint16[]",
          "name": "_shares",
          "type": "uint16[]"
        },
        {
          "internalType": "string[]",
          "name": "_zones",
          "type": "string[]"
        },
        {
          "internalType": "uint64[]",
          "name": "_prices",
          "type": "uint64[]"
        },
        {
          "internalType": "uint32[]",
          "name": "_maxSupplies",
          "type": "uint32[]"
        }
      ],
      "name": "createEvent",
      "outputs": [
        {
          "internalType": "address",
          "name": "",
          "type": "address"
        }
      ],
      "stateMutability": "nonpayable",
      "type": "function"
    },
    {
      "inputs": [
        {
          "internalType": "address",
          "name": "",
          "type": "address"
        }
      ],
      "name": "eventIndex",
      "outputs": [
        {
          "internalType": "uint256",
          "name": "",
          "type": "uint256"
        }
      ],
      "stateMutability": "view",
      "type": "function"
    },
    {
      "inputs": [],
      "name": "getAllEvents",
      "outputs": [
        {
          "components": [
            {
              "internalType": "address",
              "name": "eventAddress",
              "type": "address"
            },
            {
              "internalType": "address",
              "name": "organizer",
              "type": "address"
            },
            {
              "internalType": "string",
              "name": "eventName",
              "type": "string"
            },
            {
              "internalType": "string",
              "name": "eventId",
              "type": "string"
            },
            {
              "internalType": "string",
              "name": "description",
              "type": "string"
            },
            {
              "internalType": "string",
              "name": "image",
              "type": "string"
            },
            {
              "internalType": "uint16",
              "name": "royaltyFee",
              "type": "uint16"
            }
          ],
          "internalType": "struct TicketFactory.EventInfo[]",
          "name": "",
          "type": "tuple[]"
        }
      ],
      "stateMutability": "view",
      "type": "function"
    },
    {
      "inputs": [
        {
          "internalType": "string",
          "name": "_eventId",
          "type": "string"
        }
      ],
      "name": "getEventById",
      "outputs": [
        {
          "components": [
            {
              "internalType": "address",
              "name": "eventAddress",
              "type": "address"
            },
            {
              "internalType": "address",
              "name": "organizer",
              "type": "address"
            },
            {
              "internalType": "string",
              "name": "eventName",
              "type": "string"
            },
            {
              "internalType": "string",
              "name": "eventId",
              "type": "string"
            },
            {
              "internalType": "string",
              "name": "description",
              "type": "string"
            },
            {
              "internalType": "string",
              "name": "image",
              "type": "string"
            },
            {
              "internalType": "uint16",
              "name": "royaltyFee",
              "type": "uint16"
            }
          ],
          "internalType": "struct TicketFactory.EventInfo",
          "name": "",
          "type": "tuple"
        }
      ],
      "stateMutability": "view",
      "type": "function"
    },
    {
      "inputs": [],
      "name": "owner",
      "outputs": [
        {
          "internalType": "address",
          "name": "",
          "type": "address"
        }
      ],
      "stateMutability": "view",
      "type": "function"
    },
    {
      "inputs": [],
      "name": "renounceOwnership",
      "outputs": [],
      "stateMutability": "nonpayable",
      "type": "function"
    },
    {
      "inputs": [],
      "name": "ticketImplementation",
      "outputs": [
        {
          "internalType": "address",
          "name": "",
          "type": "address"
        }
      ],
      "stateMutability": "view",
      "type": "function"
    },
    {
      "inputs": [
        {
          "internalType": "address",
          "name": "newOwner",
          "type": "address"
        }
      ],
      "name": "transferOwnership",
      "outputs": [],
      "stateMutability": "nonpayable",
      "type": "function"
    },
    {
      "inputs": [],
      "name": "vault",
      "outputs": [
        {
          "internalType": "contract Vault",
          "name": "",
          "type": "address"
        }
      ],
      "stateMutability": "view",
      "type": "function"
    }
  ],
  "bytecode": "0x60803461014257601f61178938819003918201601f19168301916001600160401b0383118484101761014757808492604094855283398101031261014257610052602061004b8361015d565b920161015d565b90331561012c5760008054336001600160a01b0319821681178355604051939290916001600160a01b0316907f8be0079c531659141344cd1fd0a4f28419497f9722a3daafe3b4186f6b6457e09080a36001600160a01b03169081156100ea575060018060a01b0319600154161760015560018060a01b031660018060a01b0319600254161760025560405161161790816101728239f35b62461bcd60e51b815260206004820152601560248201527f696e76616c6964207661756c74206164647265737300000000000000000000006044820152606490fd5b631e4fbdf760e01b600052600060045260246000fd5b600080fd5b634e487b7160e01b600052604160045260246000fd5b51906001600160a01b03821682036101425756fe61028080604052600436101561001457600080fd5b60006101e0526101e0513560e01c9081633a72eeab14611096575080633bec5cff14610fbe578063715018a614610f5c5780638da5cb5b14610f2f57806395759cc614610ecb57806396f08f2f14610299578063c27a500d1461019c578063d62d369b1461015e578063f2fde38b146100c85763fbfa77cf1461009657600080fd5b346100c1576101e0513660031901126100c1576001546040516001600160a01b039091168152602090f35b6101e05180fd5b346100c15760203660031901126100c1576100e1611391565b6100e96115a7565b6001600160a01b03168015610142576101e05180546001600160a01b03198116831782556001600160a01b0316907f8be0079c531659141344cd1fd0a4f28419497f9722a3daafe3b4186f6b6457e09080a36101e05180f35b631e4fbdf760e01b6101e051526101e05160045260246101e051fd5b346100c15760203660031901126100c1576001600160a01b0361017f611391565b166101e051526004602052602060406101e0512054604051908152f35b346100c1576101e0513660031901126100c1576003546001600160401b03811161027f57604051906101d460208260051b018361115c565b80825260208201908160036101e0515260206101e051206101e051915b83831061026157848660405191829160208301906020845251809152604083019060408160051b85010192916101e051905b82821061023257505050500390f35b919360019193955060206102518192603f198a820301865288516112ad565b9601920192018594939192610223565b60076020600192610271856113a7565b8152019201920191906101f1565b634e487b7160e01b6101e05152604160045260246101e051fd5b346100c1576101203660031901126100c1576004356001600160401b0381116100c1576102ca903690600401611334565b61024052610200526024356001600160401b0381116100c1576102f1903690600401611334565b61012052610180526044356001600160401b0381116100c157610318903690600401611334565b610160526101a0526064356101c081905261ffff811690036100c1576084356001600160401b0381116100c157610353903690600401611361565b6102605260a4356001600160401b0381116100c157610376903690600401611361565b60c4929192356001600160401b0381116100c157610398903690600401611361565b909160e4356001600160401b0381116100c1576103b9903690600401611361565b9060a05293610104356001600160401b0381116100c1576103de903690600401611361565b60e0526101005260405160208101903360601b82526102405161020051603483013761041f602060348361024051810142838201520301808452018261115c565b5190206040516101408190526104379060609061115c565b60406101405152601f196060013660206101405101376101e0515b60208110610e185750506002546101e08051608883901c62ffffff16763d602d80600a3d3981f3363d3d373d3d3d363d7300000017905260789190911b6001600160781b0319166e5af43d82803e903d91602b57fd5bf317602052516001600160a01b0390603790600990f016610220526102205115610e03576001546001600160a01b031660c052610220513b156100c15760409593929551608052631b3df9d360e31b6080515261018060046080510152602061057a61055d6105406105236101846080510161014051611221565b600319608051820301602460805101526102405161020051611586565b600319608051820301604460805101526101205161018051611586565b60031960805182030160646080510152610160516101a051611586565b336084608051015261ffff6101c0511660a4608051015260031960805182030160c4608051015261026051815201906101e0515b610260518110610dd157505060209060031960805182030160e460805101528281520192906101e051905b808210610da1575050506003196080518303016101046080510152838252602082019360208160051b84010192826101e051915b838310610d41578660208760031960805182030161012460805101528281520160a0516101e051925b808410610d1657602083600319608051820301610144608051015260e051815201610100516101e0515b60e0518110610cf0578260c05161016460805101526101e051906080519060805190036080516101e051610220515af18015610ce257610cce575b6040516106a78161112b565b610220518152602081013381526106c5366102405161020051611262565b9160408101928352606081016101405181526106e8366101205161018051611262565b906080830191825261070136610160516101a051611262565b9460a0840195865260c084019461ffff6101c051168652600354600160401b81101561027f5780600161073792016003556110bc565b959095610cb2575185546001600160a01b03199081166001600160a01b039283161787559151600187018054909316911617905551805160028501916001600160401b03821161027f57819061078d84546110f1565b601f8111610c59575b506020906001601f841114610bf0576101e05192610be5575b50508160011b916000199060031b1c19161790555b51805160038401916001600160401b03821161027f5781906107e684546110f1565b601f8111610b8c575b506020906001601f841114610b23576101e05192610b18575b50508160011b916000199060031b1c19161790555b51805160048301916001600160401b03821161027f57819061083f84546110f1565b601f8111610abf575b506020906001601f841114610a56576101e05192610a4b575b50508160011b916000199060031b1c19161790555b6005810192519283516001600160401b03811161027f5761089782546110f1565b601f81116109fd575b5060206001601f831114610989579080600694939261ffff96976101e0519261097e575b50508160011b916000199060031b1c19161790555b0191511661ffff19825416179055600354600019810190811161096457610220516101e05152600460205260406101e0512055604051610220518152604060208201527fa54c7891edaa21526f9ad14c69ae2fd966ac0969fcd9a990a4e006427afd382e339180610954604082016102405161020051611586565b0390a26020604051610220518152f35b634e487b7160e01b6101e05152601160045260246101e051fd5b0151905087806108c4565b601f19821695836101e05152816101e05120966101e0515b8181106109e55750966001928492600697969561ffff999a106109cc575b505050811b0190556108d9565b015160001960f88460031b161c191690558780806109bf565b838301518955600190980197602093840193016109a1565b826101e0515260206101e05120601f830160051c81019160208410610a41575b601f0160051c01905b818110610a3357506108a0565b6101e0518155600101610a26565b9091508190610a1d565b015190508680610861565b6101e08051869052518281209350601f198516905b818110610aa75750908460019594939210610a8e575b505050811b019055610876565b015160001960f88460031b161c19169055868080610a81565b92936020600181928786015181550195019301610a6b565b909150836101e0515260206101e05120601f840160051c81019160208510610b0e575b90601f859493920160051c01905b818110610afd5750610848565b6101e0518155849350600101610af0565b9091508190610ae2565b015190508780610808565b6101e08051869052518281209350601f198516905b818110610b745750908460019594939210610b5b575b505050811b01905561081d565b015160001960f88460031b161c19169055878080610b4e565b92936020600181928786015181550195019301610b38565b909150836101e0515260206101e05120601f840160051c81019160208510610bdb575b90601f859493920160051c01905b818110610bca57506107ef565b6101e0518155849350600101610bbd565b9091508190610baf565b0151905088806107af565b6101e08051869052518281209350601f198516905b818110610c415750908460019594939210610c28575b505050811b0190556107c4565b015160001960f88460031b161c19169055888080610c1b565b92936020600181928786015181550195019301610c05565b909150836101e0515260206101e05120601f840160051c81019160208510610ca8575b90601f859493920160051c01905b818110610c975750610796565b6101e0518155849350600101610c8a565b9091508190610c7c565b634e487b7160e01b6101e051526101e05160045260246101e051fd5b610cdd6101e05160805161115c565b61069b565b6040513d6101e051823e3d90fd5b909182359063ffffffff82168092036100c1576020816001938293520193019101610660565b90918235906001600160401b0382168092036100c15760208160019382935201930193019290610636565b9091929394601f198282030188528535601e19843603018112156100c157830190602082359201916001600160401b0381116100c15780360383136100c157610d906020928392600195611586565b97019801930191909693929661060d565b90919592936101e0515086359061ffff82168092036100c1579081529295602093840194930191600101906105d9565b94969394909182356001600160a01b03811691908290036100c1576020816001938293520193019101969493966105ae565b63b06ebf3d60e01b6101e0515260046101e051fd5b81811a90600482901c600f166010811015610eb157818060011b0460021482151715610964576f181899199a1a9b1b9c1cb0b131b232b360811b901a610e648260011b610140516115d0565b536010600f83161015610eb157600181811b81011061096457600191600f6f181899199a1a9b1b9c1cb0b131b232b360811b91161a610eaa82841b8401610140516115d0565b5301610452565b634e487b7160e01b6101e05152603260045260246101e051fd5b346100c15760203660031901126100c1576004356001600160401b0381116100c157366023820112156100c157610f17610f12610f2b923690602481600401359101611262565b611427565b6040519182916020835260208301906112ad565b0390f35b346100c1576101e0513660031901126100c1576101e051546040516001600160a01b039091168152602090f35b346100c1576101e0513660031901126100c157610f776115a7565b6101e05180546001600160a01b0319811682556001600160a01b03167f8be0079c531659141344cd1fd0a4f28419497f9722a3daafe3b4186f6b6457e08280a36101e05180f35b346100c15760203660031901126100c1576004356003548110156100c157610fe5906110bc565b50805460018201546001600160a01b039081169291169061108c61100b6002830161117d565b9161107e61101b6003830161117d565b61107061102a6004850161117d565b9161106261ffff600661103f6005890161117d565b97015416976040519a8b9a8b5260208b015260e060408b015260e08a0190611221565b9088820360608a0152611221565b908682036080880152611221565b9084820360a0860152611221565b9060c08301520390f35b346100c1576101e0513660031901126100c1576002546001600160a01b03168152602090f35b6003548110156110db5760036000526007602060002091020190600090565b634e487b7160e01b600052603260045260246000fd5b90600182811c92168015611121575b602083101461110b57565b634e487b7160e01b600052602260045260246000fd5b91607f1691611100565b60e081019081106001600160401b0382111761114657604052565b634e487b7160e01b600052604160045260246000fd5b90601f801991011681019081106001600160401b0382111761114657604052565b9060405191826000825492611191846110f1565b80845293600181169081156111ff57506001146111b8575b506111b69250038361115c565b565b90506000929192526020600020906000915b8183106111e35750509060206111b692820101386111a9565b60209193508060019154838589010152019101909184926111ca565b9050602092506111b694915060ff191682840152151560051b820101386111a9565b919082519283825260005b84811061124d575050826000602080949584010152601f8019910116010190565b8060208092840101518282860101520161122c565b9291926001600160401b038211611146576040519161128b601f8201601f19166020018461115c565b8294818452818301116112a8578281602093846000960137010152565b600080fd5b9060018060a01b03825116815260018060a01b03602083015116602082015260c061ffff8161132a6113186113066112f4604089015160e060408a015260e0890190611221565b606089015188820360608a0152611221565b60808801518782036080890152611221565b60a087015186820360a0880152611221565b9401511691015290565b9181601f840112156112a8578235916001600160401b0383116112a857602083818601950101116112a857565b9181601f840112156112a8578235916001600160401b0383116112a8576020808501948460051b0101116112a857565b600435906001600160a01b03821682036112a857565b906040516113b48161112b565b82546001600160a01b039081168252600184015416602082015291829060c09061ffff906006906113e76002820161117d565b60408601526113f86003820161117d565b60608601526114096004820161117d565b608086015261141a6005820161117d565b60a0860152015416910152565b6040516114338161112b565b60008152600060208201526060604082015260608082015260606080820152606060a0820152600060c082015250600090600354915b8281106114a75760405162461bcd60e51b815260206004820152600f60248201526e115d995b9d081b9bdd08199bdd5b99608a1b6044820152606490fd5b60036114b2826110bc565b5001604051600091818154936114c7856110f1565b9283835260208301956001811690816000146115675750600114611522575b506114f39250038261115c565b519020825160208401201461150a57600101611469565b61151f925061151991506110bc565b506113a7565b90565b915050600052816020600020916000925b81841061154b57505060206114f392820101386114e6565b6020919250806001915483868801015201920191908391611533565b60ff19168752506114f393151560051b830160200191503890506114e6565b908060209392818452848401376000828201840152601f01601f1916010190565b6000546001600160a01b031633036115bb57565b63118cdaa760e01b6000523360045260246000fd5b9081518110156110db57016020019056fea26469706673582212208f132da8b049fb66c659504a7eb3846bcade1c14acd06013295ea479aafc41c164736f6c634300081c0033",
  "linkReferences": {},
  "deployedLinkReferences": {}
}