{
  "_format": "hh-sol-artifact-1",
  "contractName": "TicketFactory",
  "sourceName": "contracts/ticket-factory.sol",
  "abi": [
    {
      "inputs": [
        {
          "internalType": "address",
          "name": "_vault",
          "type": "address"
        },
        {
          "internalType": "address",
          "name": "_ticketImplementation",
          "type": "address"
        }
      ],
      "stateMutability": "nonpayable",
      "type": "constructor"
    },
    {
      "inputs": [],
      "name": "FailedDeployment",
      "type": "error"
    },
    {
      "inputs": [
        {
          "internalType": "uint256",
          "name": "balance",
          "type": "uint256"
        },
        {
          "internalType": "uint256",
          "name": "needed",
          "type": "uint256"
        }
      ],
      "name": "InsufficientBalance",
      "type": "error"
    },
    {
      "inputs": [
        {
          "internalType": "address",
          "name": "owner",
          "type": "address"
        }
      ],
      "name": "OwnableInvalidOwner",
      "type": "error"
    },
    {
      "inputs": [
        {
          "internalType": "address",
          "name": "account",
          "type": "address"
        }
      ],
      "name": "OwnableUnauthorizedAccount",
      "type": "error"
    },
    {
      "anonymous": false,
      "inputs": [
        {
          "indexed": true,
          "internalType": "address",
          "name": "organizer",
          "type": "address"
        },
        {
          "indexed": false,
          "internalType": "address",
          "name": "ticketAddress",
          "type": "address"
        },
        {
          "indexed": false,
          "internalType": "string",
          "name": "eventName",
          "type": "string"
        }
      ],
      "name": "EventCreated",
      "type": "event"
    },
    {
      "anonymous": false,
      "inputs": [
        {
          "indexed": true,
          "internalType": "address",
          "name": "previousOwner",
          "type": "address"
        },
        {
          "indexed": true,
          "internalType": "address",
          "name": "newOwner",
          "type": "address"
        }
      ],
      "name": "OwnershipTransferred",
      "type": "event"
    },
    {
      "inputs": [
        {
          "internalType": "uint256",
          "name": "",
          "type": "uint256"
        }
      ],
      "name": "allEvents",
      "outputs": [
        {
          "internalType": "address",
          "name": "eventAddress",
          "type": "address"
        },
        {
          "internalType": "address",
          "name": "organizer",
          "type": "address"
        },
        {
          "internalType": "string",
          "name": "eventName",
          "type": "string"
        },
        {
          "internalType": "string",
          "name": "eventId",
          "type": "string"
        },
        {
          "internalType": "string",
          "name": "description",
          "type": "string"
        },
        {
          "internalType": "string",
          "name": "image",
          "type": "string"
        },
        {
          "internalType": "uint16",
          "name": "royaltyFee",
          "type": "uint16"
        }
      ],
      "stateMutability": "view",
      "type": "function"
    },
    {
      "inputs": [
        {
          "internalType": "address",
          "name": "_marketplace",
          "type": "address"
        }
      ],
      "name": "authorizeMarketplace",
      "outputs": [],
      "stateMutability": "nonpayable",
      "type": "function"
    },
    {
      "inputs": [
        {
          "internalType": "string",
          "name": "_eventName",
          "type": "string"
        },
        {
          "internalType": "string",
          "name": "_description",
          "type": "string"
        },
        {
          "internalType": "string",
          "name": "_image",
          "type": "string"
        },
        {
          "internalType": "string",
          "name": "_termsURI",
          "type": "string"
        },
        {
          "internalType": "uint16",
          "name": "_royaltyFee",
          "type": "uint16"
        },
        {
          "internalType": "address[]",
          "name": "_wallets",
          "type": "address[]"
        },
        {
          "internalType": "uint16[]",
          "name": "_shares",
          "type": "uint16[]"
        },
        {
          "internalType": "string[]",
          "name": "_zones",
          "type": "string[]"
        },
        {
          "internalType": "uint64[]",
          "name": "_prices",
          "type": "uint64[]"
        },
        {
          "internalType": "uint32[]",
          "name": "_maxSupplies",
          "type": "uint32[]"
        }
      ],
      "name": "createEvent",
      "outputs": [
        {
          "internalType": "address",
          "name": "",
          "type": "address"
        }
      ],
      "stateMutability": "nonpayable",
      "type": "function"
    },
    {
      "inputs": [
        {
          "internalType": "address",
          "name": "",
          "type": "address"
        }
      ],
      "name": "eventIndex",
      "outputs": [
        {
          "internalType": "uint256",
          "name": "",
          "type": "uint256"
        }
      ],
      "stateMutability": "view",
      "type": "function"
    },
    {
      "inputs": [],
      "name": "getAllEvents",
      "outputs": [
        {
          "components": [
            {
              "internalType": "address",
              "name": "eventAddress",
              "type": "address"
            },
            {
              "internalType": "address",
              "name": "organizer",
              "type": "address"
            },
            {
              "internalType": "string",
              "name": "eventName",
              "type": "string"
            },
            {
              "internalType": "string",
              "name": "eventId",
              "type": "string"
            },
            {
              "internalType": "string",
              "name": "description",
              "type": "string"
            },
            {
              "internalType": "string",
              "name": "image",
              "type": "string"
            },
            {
              "internalType": "uint16",
              "name": "royaltyFee",
              "type": "uint16"
            }
          ],
          "internalType": "struct TicketFactory.EventInfo[]",
          "name": "",
          "type": "tuple[]"
        }
      ],
      "stateMutability": "view",
      "type": "function"
    },
    {
      "inputs": [
        {
          "internalType": "address",
          "name": "eventAddr",
          "type": "address"
        }
      ],
      "name": "getEventByAddress",
      "outputs": [
        {
          "components": [
            {
              "internalType": "address",
              "name": "eventAddress",
              "type": "address"
            },
            {
              "internalType": "address",
              "name": "organizer",
              "type": "address"
            },
            {
              "internalType": "string",
              "name": "eventName",
              "type": "string"
            },
            {
              "internalType": "string",
              "name": "eventId",
              "type": "string"
            },
            {
              "internalType": "string",
              "name": "description",
              "type": "string"
            },
            {
              "internalType": "string",
              "name": "image",
              "type": "string"
            },
            {
              "internalType": "uint16",
              "name": "royaltyFee",
              "type": "uint16"
            }
          ],
          "internalType": "struct TicketFactory.EventInfo",
          "name": "",
          "type": "tuple"
        }
      ],
      "stateMutability": "view",
      "type": "function"
    },
    {
      "inputs": [
        {
          "internalType": "string",
          "name": "_eventId",
          "type": "string"
        }
      ],
      "name": "getEventById",
      "outputs": [
        {
          "components": [
            {
              "internalType": "address",
              "name": "eventAddress",
              "type": "address"
            },
            {
              "internalType": "address",
              "name": "organizer",
              "type": "address"
            },
            {
              "internalType": "string",
              "name": "eventName",
              "type": "string"
            },
            {
              "internalType": "string",
              "name": "eventId",
              "type": "string"
            },
            {
              "internalType": "string",
              "name": "description",
              "type": "string"
            },
            {
              "internalType": "string",
              "name": "image",
              "type": "string"
            },
            {
              "internalType": "uint16",
              "name": "royaltyFee",
              "type": "uint16"
            }
          ],
          "internalType": "struct TicketFactory.EventInfo",
          "name": "",
          "type": "tuple"
        }
      ],
      "stateMutability": "view",
      "type": "function"
    },
    {
      "inputs": [],
      "name": "getMyEvents",
      "outputs": [
        {
          "components": [
            {
              "internalType": "address",
              "name": "eventAddress",
              "type": "address"
            },
            {
              "internalType": "address",
              "name": "organizer",
              "type": "address"
            },
            {
              "internalType": "string",
              "name": "eventName",
              "type": "string"
            },
            {
              "internalType": "string",
              "name": "eventId",
              "type": "string"
            },
            {
              "internalType": "string",
              "name": "description",
              "type": "string"
            },
            {
              "internalType": "string",
              "name": "image",
              "type": "string"
            },
            {
              "internalType": "uint16",
              "name": "royaltyFee",
              "type": "uint16"
            }
          ],
          "internalType": "struct TicketFactory.EventInfo[]",
          "name": "",
          "type": "tuple[]"
        }
      ],
      "stateMutability": "view",
      "type": "function"
    },
    {
      "inputs": [],
      "name": "owner",
      "outputs": [
        {
          "internalType": "address",
          "name": "",
          "type": "address"
        }
      ],
      "stateMutability": "view",
      "type": "function"
    },
    {
      "inputs": [],
      "name": "renounceOwnership",
      "outputs": [],
      "stateMutability": "nonpayable",
      "type": "function"
    },
    {
      "inputs": [],
      "name": "ticketImplementation",
      "outputs": [
        {
          "internalType": "address",
          "name": "",
          "type": "address"
        }
      ],
      "stateMutability": "view",
      "type": "function"
    },
    {
      "inputs": [
        {
          "internalType": "address",
          "name": "newOwner",
          "type": "address"
        }
      ],
      "name": "transferOwnership",
      "outputs": [],
      "stateMutability": "nonpayable",
      "type": "function"
    },
    {
      "inputs": [],
      "name": "vault",
      "outputs": [
        {
          "internalType": "contract Vault",
          "name": "",
          "type": "address"
        }
      ],
      "stateMutability": "view",
      "type": "function"
    }
  ],
  "bytecode": "0x60803461014257601f611ab738819003918201601f19168301916001600160401b0383118484101761014757808492604094855283398101031261014257610052602061004b8361015d565b920161015d565b90331561012c5760008054336001600160a01b0319821681178355604051939290916001600160a01b0316907f8be0079c531659141344cd1fd0a4f28419497f9722a3daafe3b4186f6b6457e09080a36001600160a01b03169081156100ea575060018060a01b0319600154161760015560018060a01b031660018060a01b0319600254161760025560405161194590816101728239f35b62461bcd60e51b815260206004820152601560248201527f696e76616c6964207661756c74206164647265737300000000000000000000006044820152606490fd5b631e4fbdf760e01b600052600060045260246000fd5b600080fd5b634e487b7160e01b600052604160045260246000fd5b51906001600160a01b03821682036101425756fe610320604052600436101561001357600080fd5b60006101e0526101e0513560e01c80633548124b146112175780633a72eeab146111ec5780633bec5cff14611114578063653f5d7c146110c4578063715018a6146110625780638da5cb5b1461103557806395759cc614610fd5578063c27a500d14610f56578063ca0ad14214610ed0578063d609cab7146101ba578063d62d369b1461017c578063f2fde38b146100e65763fbfa77cf146100b457600080fd5b346100df576101e0513660031901126100df576001546040516001600160a01b039091168152602090f35b6101e05180fd5b346100df5760203660031901126100df576100ff6115c5565b6101076118d5565b6001600160a01b03168015610160576101e05180546001600160a01b03198116831782556001600160a01b0316907f8be0079c531659141344cd1fd0a4f28419497f9722a3daafe3b4186f6b6457e09080a36101e05180f35b631e4fbdf760e01b6101e051526101e05160045260246101e051fd5b346100df5760203660031901126100df576001600160a01b0361019d6115c5565b166101e051526004602052602060406101e0512054604051908152f35b346100df576101403660031901126100df576004356001600160401b0381116100df576101eb903690600401611626565b6102a052610280526024356001600160401b0381116100df57610212903690600401611626565b610240526101a0526044356001600160401b0381116100df57610239903690600401611626565b610200526101c0526064356001600160401b0381116100df57610260903690600401611626565b6102c05260843561026081905261ffff811690036100df5760a4356001600160401b0381116100df57610297903690600401611653565b919060c4356001600160401b0381116100df576102b8903690600401611653565b9060e0529160e4356001600160401b0381116100df576102dc903690600401611653565b60c052608052610104356001600160401b0381116100df57610302903690600401611653565b6101205261014052610124356001600160401b0381116100df5761032a903690600401611653565b610160526101805260405160208101903360601b82526102a05161028051603483013761036c60206034836102a0518101428382015203018084520182611500565b51902060606103008190526040516102e081905261038a9190611500565b60406102e05152601f1961030051013660206102e05101376101e0515b60208110610e115750506002546101e08051608883901c62ffffff16763d602d80600a3d3981f3363d3d373d3d3d363d7300000017905260789190911b6001600160781b0319166e5af43d82803e903d91602b57fd5bf317602052516001600160a01b0390603790600990f016610220526102205115610dfc576001546001600160a01b031661010052610220513b156100df5761050260209160405160a052633641e1b560e21b60a051526101a0600460a05101526104d06104b36104966104796101a460a051016102e051611338565b60031960a051820301602460a05101526102a051610280516118b4565b60031960a051820301604460a0510152610240516101a0516118b4565b60031960a051820301606460a0510152610200516101c0516118b4565b9033608460a051015261ffff610260511660a460a051015260031960a05183030160c460a05101526102c051906118b4565b60031960a05182030160e460a051015284815201906101e051935b808510610dd05760a051808403600319016101049091015283835260e0516101e051602085019190865b808210610da5578360031960a05182030161012460a051015260c05181526020810190602060c05160051b82010190608051906101e0515b60c0518110610d455760208460031960a05182030161014460a05101526101205181520161014051906101e051915b610120518310610d1c5760208260031960a05182030161016460a051015261016051815201610180516101e0515b610160518110610cf657826101005161018460a05101526101e0519060a0519060a051900360a0516101e051610220515af18015610cc957610cd7575b6001546001600160a01b0316803b156100df5760405190634615d10560e11b8252610220516004830152816024816101e051936101e051905af18015610cc957610cae575b5060405161066b816114cf565b61022051815260208101338152610689366102a051610280516115e0565b91604081019283526103005181016102e05181526106ae36610240516101a0516115e0565b90608083019182526106c736610200516101c0516115e0565b9460a0840195865260c084019461ffff61026051168652600354600160401b811015610a11578060016106fd9201600355611460565b959095610c92575185546001600160a01b03199081166001600160a01b039283161787559151600187018054909316911617905551805160028501916001600160401b038211610a115781906107538454611495565b601f8111610c39575b506020906001601f841114610bd0576101e05192610bc5575b50508160011b916000199060031b1c19161790555b51805160038401916001600160401b038211610a115781906107ac8454611495565b601f8111610b6c575b506020906001601f841114610b03576101e05192610af8575b50508160011b916000199060031b1c19161790555b51805160048301916001600160401b038211610a115781906108058454611495565b601f8111610a9f575b506020906001601f841114610a36576101e05192610a2b575b50508160011b916000199060031b1c19161790555b6005810192519283516001600160401b038111610a115761085d8254611495565b601f81116109c3575b5060206001601f83111461094f579080600694939261ffff96976101e05192610944575b50508160011b916000199060031b1c19161790555b0191511661ffff19825416179055600354600019810190811161092a57610220516101e05152600460205260406101e0512055604051610220518152604060208201527fa54c7891edaa21526f9ad14c69ae2fd966ac0969fcd9a990a4e006427afd382e33918061091a604082016102a051610280516118b4565b0390a26020604051610220518152f35b634e487b7160e01b6101e05152601160045260246101e051fd5b01519050878061088a565b601f19821695836101e05152816101e05120966101e0515b8181106109ab5750966001928492600697969561ffff999a10610992575b505050811b01905561089f565b015160001960f88460031b161c19169055878080610985565b83830151895560019098019760209384019301610967565b826101e0515260206101e05120601f830160051c81019160208410610a07575b601f0160051c01905b8181106109f95750610866565b6101e05181556001016109ec565b90915081906109e3565b634e487b7160e01b6101e05152604160045260246101e051fd5b015190508680610827565b6101e08051869052518281209350601f198516905b818110610a875750908460019594939210610a6e575b505050811b01905561083c565b015160001960f88460031b161c19169055868080610a61565b92936020600181928786015181550195019301610a4b565b909150836101e0515260206101e05120601f840160051c81019160208510610aee575b90601f859493920160051c01905b818110610add575061080e565b6101e0518155849350600101610ad0565b9091508190610ac2565b0151905087806107ce565b6101e08051869052518281209350601f198516905b818110610b545750908460019594939210610b3b575b505050811b0190556107e3565b015160001960f88460031b161c19169055878080610b2e565b92936020600181928786015181550195019301610b18565b909150836101e0515260206101e05120601f840160051c81019160208510610bbb575b90601f859493920160051c01905b818110610baa57506107b5565b6101e0518155849350600101610b9d565b9091508190610b8f565b015190508880610775565b6101e08051869052518281209350601f198516905b818110610c215750908460019594939210610c08575b505050811b01905561078a565b015160001960f88460031b161c19169055888080610bfb565b92936020600181928786015181550195019301610be5565b909150836101e0515260206101e05120601f840160051c81019160208510610c88575b90601f859493920160051c01905b818110610c77575061075c565b6101e0518155849350600101610c6a565b9091508190610c5c565b634e487b7160e01b6101e051526101e05160045260246101e051fd5b6101e051610cbb91611500565b6101e0516100df578061065e565b6040513d6101e051823e3d90fd5b610ce66101e05160a051611500565b6101e05115610619576101e05180fd5b909182359063ffffffff82168092036100df5760208160019382935201930191016105dc565b908135906001600160401b0382168092036100df576020816001938293520192019201916105ae565b909192601f198382030185528335601e196080513603018112156100df576080510190602082359201916001600160401b0381116100df5780360383136100df57610d9660209283926001956118b4565b9501950191019391909361057f565b9091926101e0515083359061ffff82168092036100df57602081600193829352019401920190610547565b909182356001600160a01b03811691908290036100df576020816001938293520193019401939061051d565b63b06ebf3d60e01b6101e0515260046101e051fd5b601082821a60041c600f161015610eb657808060011b046002148115171561092a576102e0516f181899199a1a9b1b9c1cb0b131b232b360811b83831a60041c600f161a90610e6590600184901b906118fe565b536010600f83831a161015610eb657600181811b81011061092a576001906f181899199a1a9b1b9c1cb0b131b232b360811b600f84831a161a610eaf82841b84016102e0516118fe565b53016103a7565b634e487b7160e01b6101e05152603260045260246101e051fd5b346100df5760203660031901126100df57610ee96115c5565b610ef16118d5565b6001546001600160a01b0316803b156100df57604051634615d10560e11b81526001600160a01b0390921660048301526101e051908290602490829084905af18015610cc957610f43575b6101e05180f35b6101e051610f5091611500565b80610f3c565b346100df576101e0513660031901126100df57600354610f75816116a8565b90610f836040519283611500565b8082526020820160036101e0515260206101e051206101e051915b838310610fb75760405180610fb38782611400565b0390f35b60076020600192610fc78561170d565b815201920192019190610f9e565b346100df5760203660031901126100df576004356001600160401b0381116100df57366023820112156100df5761102161101c610fb39236906024816004013591016115e0565b61178d565b604051918291602083526020830190611379565b346100df576101e0513660031901126100df576101e051546040516001600160a01b039091168152602090f35b346100df576101e0513660031901126100df5761107d6118d5565b6101e05180546001600160a01b0319811682556001600160a01b03167f8be0079c531659141344cd1fd0a4f28419497f9722a3daafe3b4186f6b6457e08280a36101e05180f35b346100df5760203660031901126100df576110dd6115c5565b6110e56116bf565b5060018060a01b03166101e051526004602052610fb361102161110e60406101e0512054611460565b5061170d565b346100df5760203660031901126100df576004356003548110156100df5761113b90611460565b50805460018201546001600160a01b03908116929116906111e261116160028301611521565b916111d461117160038301611521565b6111c661118060048501611521565b916111b861ffff600661119560058901611521565b97015416976040519a8b9a8b5260208b015260e060408b015260e08a0190611338565b9088820360608a0152611338565b908682036080880152611338565b9084820360a0860152611338565b9060c08301520390f35b346100df576101e0513660031901126100df576002546040516001600160a01b039091168152602090f35b346100df576101e0513660031901126100df576101e051600354815b8181106112fe5750611244826116a8565b916112526040519384611500565b808352611261601f19916116a8565b016101e0515b8181106112e75750506101e051805b82811061128b5760405180610fb38682611400565b61129481611460565b50600101546001600160a01b031633146112b1575b600101611276565b906112df6001916112c461110e85611460565b6112ce82886116f9565b526112d981876116f9565b50611683565b9190506112a9565b6020906112f26116bf565b82828701015201611267565b61130781611460565b50600101546001600160a01b03163314611324575b600101611233565b91611330600191611683565b92905061131c565b919082519283825260005b848110611364575050826000602080949584010152601f8019910116010190565b80602080928401015182828601015201611343565b9060018060a01b03825116815260018060a01b03602083015116602082015260c061ffff816113f66113e46113d26113c0604089015160e060408a015260e0890190611338565b606089015188820360608a0152611338565b60808801518782036080890152611338565b60a087015186820360a0880152611338565b9401511691015290565b602081016020825282518091526040820191602060408360051b8301019401926000915b83831061143357505050505090565b9091929394602080611451600193603f198682030187528951611379565b97019301930191939290611424565b60035481101561147f5760036000526007602060002091020190600090565b634e487b7160e01b600052603260045260246000fd5b90600182811c921680156114c5575b60208310146114af57565b634e487b7160e01b600052602260045260246000fd5b91607f16916114a4565b60e081019081106001600160401b038211176114ea57604052565b634e487b7160e01b600052604160045260246000fd5b90601f801991011681019081106001600160401b038211176114ea57604052565b906040519182600082549261153584611495565b80845293600181169081156115a3575060011461155c575b5061155a92500383611500565b565b90506000929192526020600020906000915b81831061158757505090602061155a928201013861154d565b602091935080600191548385890101520191019091849261156e565b90506020925061155a94915060ff191682840152151560051b8201013861154d565b600435906001600160a01b03821682036115db57565b600080fd5b9291926001600160401b0382116114ea5760405191611609601f8201601f191660200184611500565b8294818452818301116115db578281602093846000960137010152565b9181601f840112156115db578235916001600160401b0383116115db57602083818601950101116115db57565b9181601f840112156115db578235916001600160401b0383116115db576020808501948460051b0101116115db57565b60001981146116925760010190565b634e487b7160e01b600052601160045260246000fd5b6001600160401b0381116114ea5760051b60200190565b604051906116cc826114cf565b600060c0838281528260208201526060604082015260608082015260606080820152606060a08201520152565b805182101561147f5760209160051b010190565b9060405161171a816114cf565b82546001600160a01b039081168252600184015416602082015291829060c09061ffff9060069061174d60028201611521565b604086015261175e60038201611521565b606086015261176f60048201611521565b608086015261178060058201611521565b60a0860152015416910152565b6117956116bf565b506003549060005b8281106117db5760405162461bcd60e51b815260206004820152600f60248201526e115d995b9d081b9bdd08199bdd5b99608a1b6044820152606490fd5b60036117e682611460565b5001604051600091818154936117fb85611495565b9283835260208301956001811690816000146118955750600114611850575b5061182792500382611500565b519020825160208401201461183e5760010161179d565b61184d925061110e9150611460565b90565b915050600052816020600020916000925b8184106118795750506020611827928201013861181a565b6020919250806001915483868801015201920191908391611861565b60ff191687525061182793151560051b8301602001915038905061181a565b908060209392818452848401376000828201840152601f01601f1916010190565b6000546001600160a01b031633036118e957565b63118cdaa760e01b6000523360045260246000fd5b90815181101561147f57016020019056fea264697066735822122047a0cbef163eabb51dcb9928661d6e3f9ad72b649876652bf1ebf8d4c7408c1964736f6c634300081c0033",
  "linkReferences": {},
  "deployedLinkReferences": {}
}