{
  "_format": "hh-sol-artifact-1",
  "contractName": "TicketFactory",
  "sourceName": "contracts/ticket-factory.sol",
  "abi": [
    {
      "inputs": [
        {
          "internalType": "address",
          "name": "_vault",
          "type": "address"
        }
      ],
      "stateMutability": "nonpayable",
      "type": "constructor"
    },
    {
      "inputs": [
        {
          "internalType": "address",
          "name": "owner",
          "type": "address"
        }
      ],
      "name": "OwnableInvalidOwner",
      "type": "error"
    },
    {
      "inputs": [
        {
          "internalType": "address",
          "name": "account",
          "type": "address"
        }
      ],
      "name": "OwnableUnauthorizedAccount",
      "type": "error"
    },
    {
      "anonymous": false,
      "inputs": [
        {
          "indexed": true,
          "internalType": "address",
          "name": "organizer",
          "type": "address"
        },
        {
          "indexed": false,
          "internalType": "address",
          "name": "ticketAddress",
          "type": "address"
        },
        {
          "indexed": false,
          "internalType": "string",
          "name": "eventName",
          "type": "string"
        }
      ],
      "name": "EventCreated",
      "type": "event"
    },
    {
      "anonymous": false,
      "inputs": [
        {
          "indexed": true,
          "internalType": "address",
          "name": "previousOwner",
          "type": "address"
        },
        {
          "indexed": true,
          "internalType": "address",
          "name": "newOwner",
          "type": "address"
        }
      ],
      "name": "OwnershipTransferred",
      "type": "event"
    },
    {
      "inputs": [
        {
          "internalType": "uint256",
          "name": "",
          "type": "uint256"
        }
      ],
      "name": "allEvents",
      "outputs": [
        {
          "internalType": "address",
          "name": "ticketAddress",
          "type": "address"
        },
        {
          "internalType": "string",
          "name": "eventName",
          "type": "string"
        },
        {
          "internalType": "string",
          "name": "eventId",
          "type": "string"
        },
        {
          "internalType": "string",
          "name": "description",
          "type": "string"
        },
        {
          "internalType": "string",
          "name": "image",
          "type": "string"
        },
        {
          "internalType": "address",
          "name": "organizer",
          "type": "address"
        },
        {
          "internalType": "uint96",
          "name": "royaltyFee",
          "type": "uint96"
        }
      ],
      "stateMutability": "view",
      "type": "function"
    },
    {
      "inputs": [
        {
          "internalType": "string",
          "name": "_eventId",
          "type": "string"
        },
        {
          "internalType": "string",
          "name": "_eventName",
          "type": "string"
        },
        {
          "internalType": "string",
          "name": "_description",
          "type": "string"
        },
        {
          "internalType": "string",
          "name": "_image",
          "type": "string"
        },
        {
          "internalType": "uint96",
          "name": "_royaltyFee",
          "type": "uint96"
        },
        {
          "internalType": "address[]",
          "name": "_wallets",
          "type": "address[]"
        },
        {
          "internalType": "uint96[]",
          "name": "_shares",
          "type": "uint96[]"
        },
        {
          "internalType": "string[]",
          "name": "_zones",
          "type": "string[]"
        },
        {
          "internalType": "uint256[]",
          "name": "_prices",
          "type": "uint256[]"
        },
        {
          "internalType": "uint256[]",
          "name": "_maxSupplies",
          "type": "uint256[]"
        }
      ],
      "name": "createEvent",
      "outputs": [
        {
          "internalType": "address",
          "name": "",
          "type": "address"
        }
      ],
      "stateMutability": "nonpayable",
      "type": "function"
    },
    {
      "inputs": [
        {
          "internalType": "address",
          "name": "",
          "type": "address"
        }
      ],
      "name": "eventDetails",
      "outputs": [
        {
          "internalType": "address",
          "name": "ticketAddress",
          "type": "address"
        },
        {
          "internalType": "string",
          "name": "eventName",
          "type": "string"
        },
        {
          "internalType": "string",
          "name": "eventId",
          "type": "string"
        },
        {
          "internalType": "string",
          "name": "description",
          "type": "string"
        },
        {
          "internalType": "string",
          "name": "image",
          "type": "string"
        },
        {
          "internalType": "address",
          "name": "organizer",
          "type": "address"
        },
        {
          "internalType": "uint96",
          "name": "royaltyFee",
          "type": "uint96"
        }
      ],
      "stateMutability": "view",
      "type": "function"
    },
    {
      "inputs": [],
      "name": "getAllEvents",
      "outputs": [
        {
          "components": [
            {
              "internalType": "address",
              "name": "ticketAddress",
              "type": "address"
            },
            {
              "internalType": "string",
              "name": "eventName",
              "type": "string"
            },
            {
              "internalType": "string",
              "name": "eventId",
              "type": "string"
            },
            {
              "internalType": "string",
              "name": "description",
              "type": "string"
            },
            {
              "internalType": "string",
              "name": "image",
              "type": "string"
            },
            {
              "internalType": "address",
              "name": "organizer",
              "type": "address"
            },
            {
              "internalType": "uint96",
              "name": "royaltyFee",
              "type": "uint96"
            }
          ],
          "internalType": "struct TicketFactory.EventInfo[]",
          "name": "",
          "type": "tuple[]"
        }
      ],
      "stateMutability": "view",
      "type": "function"
    },
    {
      "inputs": [],
      "name": "owner",
      "outputs": [
        {
          "internalType": "address",
          "name": "",
          "type": "address"
        }
      ],
      "stateMutability": "view",
      "type": "function"
    },
    {
      "inputs": [],
      "name": "renounceOwnership",
      "outputs": [],
      "stateMutability": "nonpayable",
      "type": "function"
    },
    {
      "inputs": [
        {
          "internalType": "address",
          "name": "newOwner",
          "type": "address"
        }
      ],
      "name": "transferOwnership",
      "outputs": [],
      "stateMutability": "nonpayable",
      "type": "function"
    },
    {
      "inputs": [],
      "name": "vault",
      "outputs": [
        {
          "internalType": "contract Vault",
          "name": "",
          "type": "address"
        }
      ],
      "stateMutability": "view",
      "type": "function"
    }
  ],
  "bytecode": "0x608060405234801561001057600080fd5b5060405161421938038061421983398101604081905261002f9161012b565b338061005657604051631e4fbdf760e01b8152600060048201526024015b60405180910390fd5b61005f816100db565b506001600160a01b0381166100b65760405162461bcd60e51b815260206004820152601560248201527f696e76616c6964207661756c7420616464726573730000000000000000000000604482015260640161004d565b600180546001600160a01b0319166001600160a01b039290921691909117905561015b565b600080546001600160a01b038381166001600160a01b0319831681178455604051919092169283917f8be0079c531659141344cd1fd0a4f28419497f9722a3daafe3b4186f6b6457e09190a35050565b60006020828403121561013d57600080fd5b81516001600160a01b038116811461015457600080fd5b9392505050565b6140af8061016a6000396000f3fe608060405234801561001057600080fd5b50600436106100885760003560e01c8063c27a500d1161005b578063c27a500d146100fe578063d6e57f5014610113578063f2fde38b14610126578063fbfa77cf1461013957600080fd5b80633bec5cff1461008d578063715018a6146100bc5780638da5cb5b146100c6578063b6ba151b146100eb575b600080fd5b6100a061009b366004610ae3565b61014c565b6040516100b39796959493929190610b42565b60405180910390f35b6100c46103da565b005b6000546001600160a01b03165b6040516001600160a01b0390911681526020016100b3565b6100d36100f9366004610e92565b6103ee565b6101066106f9565b6040516100b39190611036565b6100a0610121366004611142565b6109ea565b6100c4610134366004611142565b610a16565b6001546100d3906001600160a01b031681565b6002818154811061015c57600080fd5b6000918252602090912060069091020180546001820180546001600160a01b0390921693509061018b90611164565b80601f01602080910402602001604051908101604052809291908181526020018280546101b790611164565b80156102045780601f106101d957610100808354040283529160200191610204565b820191906000526020600020905b8154815290600101906020018083116101e757829003601f168201915b50505050509080600201805461021990611164565b80601f016020809104026020016040519081016040528092919081815260200182805461024590611164565b80156102925780601f1061026757610100808354040283529160200191610292565b820191906000526020600020905b81548152906001019060200180831161027557829003601f168201915b5050505050908060030180546102a790611164565b80601f01602080910402602001604051908101604052809291908181526020018280546102d390611164565b80156103205780601f106102f557610100808354040283529160200191610320565b820191906000526020600020905b81548152906001019060200180831161030357829003601f168201915b50505050509080600401805461033590611164565b80601f016020809104026020016040519081016040528092919081815260200182805461036190611164565b80156103ae5780601f10610383576101008083540402835291602001916103ae565b820191906000526020600020905b81548152906001019060200180831161039157829003601f168201915b505050600590930154919250506001600160a01b038116906001600160601b03600160a01b9091041687565b6103e2610a59565b6103ec6000610a86565b565b6000808b8b8b8b338c8c8c8c8c8c60405161040890610ad6565b61041c9b9a999897969594939291906112ac565b604051809103906000f080158015610438573d6000803e3d6000fd5b50600154604051636817031b60e01b81526001600160a01b039182166004820152919250821690636817031b90602401600060405180830381600087803b15801561048257600080fd5b505af1158015610496573d6000803e3d6000fd5b5050505060026040518060e00160405280836001600160a01b031681526020018d81526020018e81526020018c81526020018b8152602001336001600160a01b031681526020018a6001600160601b0316815250908060018154018082558091505060019003906000526020600020906006020160009091909190915060008201518160000160006101000a8154816001600160a01b0302191690836001600160a01b03160217905550602082015181600101908161055591906113e1565b506040820151600282019061056a90826113e1565b506060820151600382019061057f90826113e1565b506080820151600482019061059490826113e1565b5060a082015160c0909201516001600160601b0316600160a01b026001600160a01b0390921691909117600590910155600280546105d4906001906114a2565b815481106105e4576105e46114c9565b600091825260208083206001600160a01b038086168552600390925260409093206006909202909201805482546001600160a01b0319169316929092178155600180820190610635908401826114df565b50600281810190610648908401826114df565b5060038181019061065b908401826114df565b5060048181019061066e908401826114df565b50600591820180549190920180546001600160a01b0319166001600160a01b03909216918217815591546001600160601b03600160a01b91829004160217905560405133907fa54c7891edaa21526f9ad14c69ae2fd966ac0969fcd9a990a4e006427afd382e906106e29084908f906115b3565b60405180910390a29b9a5050505050505050505050565b60606002805480602002602001604051908101604052809291908181526020016000905b828210156109e15760008481526020908190206040805160e081019091526006850290910180546001600160a01b03168252600181018054929391929184019161076690611164565b80601f016020809104026020016040519081016040528092919081815260200182805461079290611164565b80156107df5780601f106107b4576101008083540402835291602001916107df565b820191906000526020600020905b8154815290600101906020018083116107c257829003601f168201915b505050505081526020016002820180546107f890611164565b80601f016020809104026020016040519081016040528092919081815260200182805461082490611164565b80156108715780601f1061084657610100808354040283529160200191610871565b820191906000526020600020905b81548152906001019060200180831161085457829003601f168201915b5050505050815260200160038201805461088a90611164565b80601f01602080910402602001604051908101604052809291908181526020018280546108b690611164565b80156109035780601f106108d857610100808354040283529160200191610903565b820191906000526020600020905b8154815290600101906020018083116108e657829003601f168201915b5050505050815260200160048201805461091c90611164565b80601f016020809104026020016040519081016040528092919081815260200182805461094890611164565b80156109955780601f1061096a57610100808354040283529160200191610995565b820191906000526020600020905b81548152906001019060200180831161097857829003601f168201915b5050509183525050600591909101546001600160a01b038116602080840191909152600160a01b9091046001600160601b0316604090920191909152908252600192909201910161071d565b50505050905090565b600360205260009081526040902080546001820180546001600160a01b03909216929161018b90611164565b610a1e610a59565b6001600160a01b038116610a4d57604051631e4fbdf760e01b8152600060048201526024015b60405180910390fd5b610a5681610a86565b50565b6000546001600160a01b031633146103ec5760405163118cdaa760e01b8152336004820152602401610a44565b600080546001600160a01b038381166001600160a01b0319831681178455604051919092169283917f8be0079c531659141344cd1fd0a4f28419497f9722a3daafe3b4186f6b6457e09190a35050565b612a9a806115e083390190565b600060208284031215610af557600080fd5b5035919050565b6000815180845260005b81811015610b2257602081850181015186830182015201610b06565b506000602082860101526020601f19601f83011685010191505092915050565b6001600160a01b038816815260e060208201819052600090610b6690830189610afc565b8281036040840152610b788189610afc565b90508281036060840152610b8c8188610afc565b90508281036080840152610ba08187610afc565b6001600160a01b039590951660a084015250506001600160601b039190911660c09091015295945050505050565b634e487b7160e01b600052604160045260246000fd5b604051601f8201601f191681016001600160401b0381118282101715610c0c57610c0c610bce565b604052919050565b600082601f830112610c2557600080fd5b81356001600160401b03811115610c3e57610c3e610bce565b610c51601f8201601f1916602001610be4565b818152846020838601011115610c6657600080fd5b816020850160208301376000918101602001919091529392505050565b80356001600160601b0381168114610c9a57600080fd5b919050565b60006001600160401b03821115610cb857610cb8610bce565b5060051b60200190565b80356001600160a01b0381168114610c9a57600080fd5b600082601f830112610cea57600080fd5b8135610cfd610cf882610c9f565b610be4565b8082825260208201915060208360051b860101925085831115610d1f57600080fd5b602085015b83811015610d4357610d3581610cc2565b835260209283019201610d24565b5095945050505050565b600082601f830112610d5e57600080fd5b8135610d6c610cf882610c9f565b8082825260208201915060208360051b860101925085831115610d8e57600080fd5b602085015b83811015610d4357610da481610c83565b835260209283019201610d93565b600082601f830112610dc357600080fd5b8135610dd1610cf882610c9f565b8082825260208201915060208360051b860101925085831115610df357600080fd5b602085015b83811015610d435780356001600160401b03811115610e1657600080fd5b610e25886020838a0101610c14565b84525060209283019201610df8565b600082601f830112610e4557600080fd5b8135610e53610cf882610c9f565b8082825260208201915060208360051b860101925085831115610e7557600080fd5b602085015b83811015610d43578035835260209283019201610e7a565b6000806000806000806000806000806101408b8d031215610eb257600080fd5b8a356001600160401b03811115610ec857600080fd5b610ed48d828e01610c14565b9a505060208b01356001600160401b03811115610ef057600080fd5b610efc8d828e01610c14565b99505060408b01356001600160401b03811115610f1857600080fd5b610f248d828e01610c14565b98505060608b01356001600160401b03811115610f4057600080fd5b610f4c8d828e01610c14565b975050610f5b60808c01610c83565b955060a08b01356001600160401b03811115610f7657600080fd5b610f828d828e01610cd9565b95505060c08b01356001600160401b03811115610f9e57600080fd5b610faa8d828e01610d4d565b94505060e08b01356001600160401b03811115610fc657600080fd5b610fd28d828e01610db2565b9350506101008b01356001600160401b03811115610fef57600080fd5b610ffb8d828e01610e34565b9250506101208b01356001600160401b0381111561101857600080fd5b6110248d828e01610e34565b9150509295989b9194979a5092959850565b6000602082016020835280845180835260408501915060408160051b86010192506020860160005b8281101561113657868503603f19018452815180516001600160a01b0316865260208082015160e09188018290529061109990880182610afc565b9050604082015187820360408901526110b28282610afc565b915050606082015187820360608901526110cc8282610afc565b915050608082015187820360808901526110e68282610afc565b91505060a082015161110360a08901826001600160a01b03169052565b5060c0820151915061112060c08801836001600160601b03169052565b955050602093840193919091019060010161105e565b50929695505050505050565b60006020828403121561115457600080fd5b61115d82610cc2565b9392505050565b600181811c9082168061117857607f821691505b60208210810361119857634e487b7160e01b600052602260045260246000fd5b50919050565b600081518084526020840193506020830160005b828110156111d95781516001600160a01b03168652602095860195909101906001016111b2565b5093949350505050565b600081518084526020840193506020830160005b828110156111d95781516001600160601b03168652602095860195909101906001016111f7565b600082825180855260208501945060208160051b8301016020850160005b8381101561126e57601f19858403018852611258838351610afc565b602098890198909350919091019060010161123c565b50909695505050505050565b600081518084526020840193506020830160005b828110156111d957815186526020958601959091019060010161128e565b610160815260006112c161016083018e610afc565b82810360208401526112d3818e610afc565b905082810360408401526112e7818d610afc565b905082810360608401526112fb818c610afc565b6001600160a01b038b16608085015290506001600160601b03891660a084015282810360c084015261132d818961119e565b905082810360e084015261134181886111e3565b9050828103610100840152611356818761121e565b905082810361012084015261136b818661127a565b9050828103610140840152611380818561127a565b9e9d5050505050505050505050505050565b601f8211156113dc57806000526020600020601f840160051c810160208510156113b95750805b601f840160051c820191505b818110156113d957600081556001016113c5565b50505b505050565b81516001600160401b038111156113fa576113fa610bce565b61140e816114088454611164565b84611392565b6020601f821160018114611445576000831561142a5750848201515b600184901b600019600386901b1c198216175b8555506113d9565b600084815260208120601f198516915b828110156114755787850151825560209485019460019092019101611455565b50848210156114935786840151600019600387901b60f8161c191681555b50505050600190811b01905550565b818103818111156114c357634e487b7160e01b600052601160045260246000fd5b92915050565b634e487b7160e01b600052603260045260246000fd5b8181036114ea575050565b6114f48254611164565b6001600160401b0381111561150b5761150b610bce565b611519816114088454611164565b6000601f82116001811461154b576000831561142a575081850154600184901b600019600386901b1c1982161761143d565b600085815260209020601f19841690600086815260209020845b838110156115855782860154825560019586019590910190602001611565565b50858310156115a35781850154600019600388901b60f8161c191681555b5050505050600190811b01905550565b6001600160a01b03831681526040602082018190526000906115d790830184610afc565b94935050505056fe6080604052601280546001600160601b0319166103e817905534801561002457600080fd5b50604051612a9a380380612a9a8339810160408190526100439161084e565b604080518082019091526006815265151250d2d15560d21b602082015287908b9060006100708382610a9c565b50600161007d8282610a9c565b5050506001600160a01b0381166100af57604051631e4fbdf760e01b8152600060048201526024015b60405180910390fd5b6100b88161047f565b50835185511461010a5760405162461bcd60e51b815260206004820152601560248201527f77616c6c65742f7368617265206d69736d61746368000000000000000000000060448201526064016100a6565b8151835114801561011c575080518351145b61015d5760405162461bcd60e51b81526020600482015260126024820152710f4dedcca40c8c2e8c240dad2e6dac2e8c6d60731b60448201526064016100a6565b6012546001600160601b0390811690871611156101af5760405162461bcd60e51b815260206004820152601060248201526f0e4def2c2d8e8f240e8dede40d0d2ced60831b60448201526064016100a6565b6000805b86518110156102ed5760006001600160a01b03168782815181106101d9576101d9610b5a565b60200260200101516001600160a01b0316036102285760405162461bcd60e51b815260206004820152600e60248201526d1a5b9d985b1a59081dd85b1b195d60921b60448201526064016100a6565b6014604051806040016040528089848151811061024757610247610b5a565b60200260200101516001600160a01b0316815260200188848151811061026f5761026f610b5a565b6020908102919091018101516001600160601b03908116909252835460018101855560009485529381902083519390910151909116600160a01b026001600160a01b039092169190911791015585518690829081106102d0576102d0610b5a565b6020026020010151826102e39190610b70565b91506001016101b3565b50806001600160601b0316612710146103485760405162461bcd60e51b815260206004820152601360248201527f746f74616c20736861726520213d20313030250000000000000000000000000060448201526064016100a6565b601580546001600160601b0319166001600160601b03831617905560005b845181101561042f576013604051806080016040528087848151811061038e5761038e610b5a565b602002602001015181526020018684815181106103ad576103ad610b5a565b602002602001015181526020018584815181106103cc576103cc610b5a565b602090810291909101810151825260009181018290528354600181018555938252902081519192600402019081906104049082610a9c565b5060208201516001808301919091556040830151600283015560609092015160039091015501610366565b50600b61043c8d82610a9c565b50600c6104498c82610a9c565b50600d6104568b82610a9c565b50600e6104638a82610a9c565b5061046e88886104d1565b505050505050505050505050610ba3565b600980546001600160a01b038381166001600160a01b0319831681179093556040519116919082907f8be0079c531659141344cd1fd0a4f28419497f9722a3daafe3b4186f6b6457e090600090a35050565b6127106001600160601b03821681101561051057604051636f483d0960e01b81526001600160601b0383166004820152602481018290526044016100a6565b6001600160a01b03831661053a57604051635b6cc80560e11b8152600060048201526024016100a6565b50604080518082019091526001600160a01b039092168083526001600160601b039091166020909201829052600160a01b90910217600755565b634e487b7160e01b600052604160045260246000fd5b604051601f8201601f191681016001600160401b03811182821017156105b2576105b2610574565b604052919050565b600082601f8301126105cb57600080fd5b81516001600160401b038111156105e4576105e4610574565b6105f7601f8201601f191660200161058a565b81815284602083860101111561060c57600080fd5b60005b8281101561062b5760208186018101518383018201520161060f565b506000918101602001919091529392505050565b80516001600160a01b038116811461065657600080fd5b919050565b80516001600160601b038116811461065657600080fd5b60006001600160401b0382111561068b5761068b610574565b5060051b60200190565b600082601f8301126106a657600080fd5b81516106b96106b482610672565b61058a565b8082825260208201915060208360051b8601019250858311156106db57600080fd5b602085015b838110156106ff576106f18161063f565b8352602092830192016106e0565b5095945050505050565b600082601f83011261071a57600080fd5b81516107286106b482610672565b8082825260208201915060208360051b86010192508583111561074a57600080fd5b602085015b838110156106ff576107608161065b565b83526020928301920161074f565b600082601f83011261077f57600080fd5b815161078d6106b482610672565b8082825260208201915060208360051b8601019250858311156107af57600080fd5b602085015b838110156106ff5780516001600160401b038111156107d257600080fd5b6107e1886020838a01016105ba565b845250602092830192016107b4565b600082601f83011261080157600080fd5b815161080f6106b482610672565b8082825260208201915060208360051b86010192508583111561083157600080fd5b602085015b838110156106ff578051835260209283019201610836565b60008060008060008060008060008060006101608c8e03121561087057600080fd5b8b516001600160401b0381111561088657600080fd5b6108928e828f016105ba565b60208e0151909c5090506001600160401b038111156108b057600080fd5b6108bc8e828f016105ba565b60408e0151909b5090506001600160401b038111156108da57600080fd5b6108e68e828f016105ba565b60608e0151909a5090506001600160401b0381111561090457600080fd5b6109108e828f016105ba565b98505061091f60808d0161063f565b965061092d60a08d0161065b565b60c08d01519096506001600160401b0381111561094957600080fd5b6109558e828f01610695565b60e08e015190965090506001600160401b0381111561097357600080fd5b61097f8e828f01610709565b6101008e015190955090506001600160401b0381111561099e57600080fd5b6109aa8e828f0161076e565b6101208e015190945090506001600160401b038111156109c957600080fd5b6109d58e828f016107f0565b6101408e015190935090506001600160401b038111156109f457600080fd5b610a008e828f016107f0565b9150509295989b509295989b9093969950565b600181811c90821680610a2757607f821691505b602082108103610a4757634e487b7160e01b600052602260045260246000fd5b50919050565b601f821115610a9757806000526020600020601f840160051c81016020851015610a745750805b601f840160051c820191505b81811015610a945760008155600101610a80565b50505b505050565b81516001600160401b03811115610ab557610ab5610574565b610ac981610ac38454610a13565b84610a4d565b6020601f821160018114610afd5760008315610ae55750848201515b600019600385901b1c1916600184901b178455610a94565b600084815260208120601f198516915b82811015610b2d5787850151825560209485019460019092019101610b0d565b5084821015610b4b5786840151600019600387901b60f8161c191681555b50505050600190811b01905550565b634e487b7160e01b600052603260045260246000fd5b6001600160601b038181168382160190811115610b9d57634e487b7160e01b600052601160045260246000fd5b92915050565b611ee880610bb26000396000f3fe6080604052600436106101e35760003560e01c80637284e41611610102578063a2309ff811610095578063e985e9c511610064578063e985e9c5146105b1578063f2fde38b146105d1578063f3ccaac0146105f1578063fbfa77cf1461060657600080fd5b8063a2309ff814610545578063b88d4fde1461055b578063c87b56dd1461057b578063d5abeb011461059b57600080fd5b806395d89b41116100d157806395d89b41146104e75780639afb93cb146104fc578063a035b1fe1461050f578063a22cb4651461052557600080fd5b80637284e4161461047f5780638043c9c0146104945780638cdd9c8f146104a95780638da5cb5b146104c957600080fd5b806329652e861161017a5780636352211e116101495780636352211e146103fc5780636817031b1461041c57806370a082311461043c578063715018a61461046a57600080fd5b806329652e86146103365780632a55205a1461037d57806342842e0e146103bc5780635388842c146103dc57600080fd5b8063089cdd0c116101b6578063089cdd0c146102af578063095ea7b3146102c457806313339632146102e657806323b872dd1461031657600080fd5b806301ffc9a7146101e8578063026c42071461021d57806306fdde0314610255578063081812fc14610277575b600080fd5b3480156101f457600080fd5b506102086102033660046118c9565b610626565b60405190151581526020015b60405180910390f35b34801561022957600080fd5b5060155461023d906001600160601b031681565b6040516001600160601b039091168152602001610214565b34801561026157600080fd5b5061026a610637565b6040516102149190611936565b34801561028357600080fd5b50610297610292366004611949565b6106c9565b6040516001600160a01b039091168152602001610214565b3480156102bb57600080fd5b5061026a6106f2565b3480156102d057600080fd5b506102e46102df36600461197e565b610780565b005b3480156102f257600080fd5b50610306610301366004611949565b61078f565b60405161021494939291906119a8565b34801561032257600080fd5b506102e46103313660046119d7565b610857565b34801561034257600080fd5b50610356610351366004611949565b6108e7565b604080516001600160a01b0390931683526001600160601b03909116602083015201610214565b34801561038957600080fd5b5061039d610398366004611a14565b610922565b604080516001600160a01b039093168352602083019190915201610214565b3480156103c857600080fd5b506102e46103d73660046119d7565b6109a7565b3480156103e857600080fd5b506102e46103f7366004611ae6565b6109c7565b34801561040857600080fd5b50610297610417366004611949565b610acc565b34801561042857600080fd5b506102e4610437366004611b34565b610ad7565b34801561044857600080fd5b5061045c610457366004611b34565b610b47565b604051908152602001610214565b34801561047657600080fd5b506102e4610b8f565b34801561048b57600080fd5b5061026a610ba3565b3480156104a057600080fd5b5061026a610bb0565b3480156104b557600080fd5b5060125461023d906001600160601b031681565b3480156104d557600080fd5b506009546001600160a01b0316610297565b3480156104f357600080fd5b5061026a610bbd565b6102e461050a366004611b4f565b610bcc565b34801561051b57600080fd5b5061045c600f5481565b34801561053157600080fd5b506102e4610540366004611b80565b610e4d565b34801561055157600080fd5b5061045c60115481565b34801561056757600080fd5b506102e4610576366004611bbc565b610e58565b34801561058757600080fd5b5061026a610596366004611949565b610e70565b3480156105a757600080fd5b5061045c60105481565b3480156105bd57600080fd5b506102086105cc366004611c38565b610e7b565b3480156105dd57600080fd5b506102e46105ec366004611b34565b610ea9565b3480156105fd57600080fd5b5061026a610ee7565b34801561061257600080fd5b50600a54610297906001600160a01b031681565b600061063182610ef4565b92915050565b60606000805461064690611c6b565b80601f016020809104026020016040519081016040528092919081815260200182805461067290611c6b565b80156106bf5780601f10610694576101008083540402835291602001916106bf565b820191906000526020600020905b8154815290600101906020018083116106a257829003601f168201915b5050505050905090565b60006106d482610f19565b506000828152600460205260409020546001600160a01b0316610631565b600b80546106ff90611c6b565b80601f016020809104026020016040519081016040528092919081815260200182805461072b90611c6b565b80156107785780601f1061074d57610100808354040283529160200191610778565b820191906000526020600020905b81548152906001019060200180831161075b57829003601f168201915b505050505081565b61078b828233610f52565b5050565b6013818154811061079f57600080fd5b90600052602060002090600402016000915090508060000180546107c290611c6b565b80601f01602080910402602001604051908101604052809291908181526020018280546107ee90611c6b565b801561083b5780601f106108105761010080835404028352916020019161083b565b820191906000526020600020905b81548152906001019060200180831161081e57829003601f168201915b5050505050908060010154908060020154908060030154905084565b6001600160a01b03821661088657604051633250574960e11b8152600060048201526024015b60405180910390fd5b6000610893838333610f5f565b9050836001600160a01b0316816001600160a01b0316146108e1576040516364283d7b60e01b81526001600160a01b038086166004830152602482018490528216604482015260640161087d565b50505050565b601481815481106108f757600080fd5b6000918252602090912001546001600160a01b0381169150600160a01b90046001600160601b031682565b600082815260086020526040812080548291906001600160a01b03811690600160a01b90046001600160601b0316816109765750506007546001600160a01b03811690600160a01b90046001600160601b03165b600061271061098e6001600160601b03841689611cbb565b6109989190611cd2565b92989297509195505050505050565b6109c283838360405180602001604052806000815250610e58565b505050565b6109cf611058565b60105460115410610a0d5760405162461bcd60e51b815260206004820152600860248201526714dbdb190813dd5d60c21b604482015260640161087d565b6001600160a01b038216610a555760405162461bcd60e51b815260206004820152600f60248201526e696e76616c6964206164647265737360881b604482015260640161087d565b60118054906000610a6583611cf4565b9091555050601154610a778382611085565b610a81818361109f565b80836001600160a01b03167fcbea9c23945e351434f7ae5b1a435091cc278dd9dd0eba4c04203674014ca7d7600f54604051610abf91815260200190565b60405180910390a3505050565b600061063182610f19565b610adf611058565b6001600160a01b038116610b255760405162461bcd60e51b815260206004820152600d60248201526c1a5b9d985b1a59081d985d5b1d609a1b604482015260640161087d565b600a80546001600160a01b0319166001600160a01b0392909216919091179055565b60006001600160a01b038216610b73576040516322718ad960e21b81526000600482015260240161087d565b506001600160a01b031660009081526003602052604090205490565b610b97611058565b610ba160006110ef565b565b600d80546106ff90611c6b565b600c80546106ff90611c6b565b60606001805461064690611c6b565b6013548210610c0c5760405162461bcd60e51b815260206004820152600c60248201526b496e76616c6964207a6f6e6560a01b604482015260640161087d565b600060138381548110610c2157610c21611d0d565b906000526020600020906004020190508060020154816003015410610c735760405162461bcd60e51b81526020600482015260086024820152671cdbdb19081bdd5d60c21b604482015260640161087d565b8060010154341015610cbc5760405162461bcd60e51b8152602060048201526012602482015271696e73756666696369656e742066756e647360701b604482015260640161087d565b600381018054906000610cce83611cf4565b909155505060118054906000610ce383611cf4565b9091555050601154610cf53382611085565b610cff818461109f565b60005b601454811015610e0f57600061271060148381548110610d2457610d24611d0d565b600091825260209091200154610d4a90600160a01b90046001600160601b031634611cbb565b610d549190611cd2565b9050600060148381548110610d6b57610d6b611d0d565b60009182526020822001546040516001600160a01b039091169184919081818185875af1925050503d8060008114610dbf576040519150601f19603f3d011682016040523d82523d6000602084013e610dc4565b606091505b5050905080610e055760405162461bcd60e51b815260206004820152600d60248201526c1c185e5bdd5d0819985a5b1959609a1b604482015260640161087d565b5050600101610d02565b50604051348152819033907f2a91574e12ad96234e84923e146b0946ecfb871cd8d5534dc1fdcbe87a7c01b39060200160405180910390a350505050565b61078b338383611141565b610e63848484610857565b6108e133858585856111d8565b606061063182611303565b6001600160a01b03918216600090815260056020908152604080832093909416825291909152205460ff1690565b610eb1611058565b6001600160a01b038116610edb57604051631e4fbdf760e01b81526000600482015260240161087d565b610ee4816110ef565b50565b600e80546106ff90611c6b565b60006001600160e01b0319821663152a902d60e11b1480610631575061063182611414565b6000818152600260205260408120546001600160a01b03168061063157604051637e27328960e01b81526004810184905260240161087d565b6109c28383836001611439565b6000828152600260205260408120546001600160a01b0390811690831615610f8c57610f8c81848661153f565b6001600160a01b03811615610fca57610fa9600085600080611439565b6001600160a01b038116600090815260036020526040902080546000190190555b6001600160a01b03851615610ff9576001600160a01b0385166000908152600360205260409020805460010190555b60008481526002602052604080822080546001600160a01b0319166001600160a01b0389811691821790925591518793918516917fddf252ad1be2c89b69c2b068fc378daa952ba7f163c4a11628f55a4df523b3ef91a4949350505050565b6009546001600160a01b03163314610ba15760405163118cdaa760e01b815233600482015260240161087d565b61078b8282604051806020016040528060008152506115a3565b60008281526006602052604090206110b78282611d6a565b506040518281527ff8e1a15aba9398e019f0b49df1a4fde98ee17ae345cb5f6b5e2c27f5033e8ce79060200160405180910390a15050565b600980546001600160a01b038381166001600160a01b0319831681179093556040519116919082907f8be0079c531659141344cd1fd0a4f28419497f9722a3daafe3b4186f6b6457e090600090a35050565b6001600160a01b03821661117357604051630b61174360e31b81526001600160a01b038316600482015260240161087d565b6001600160a01b03838116600081815260056020908152604080832094871680845294825291829020805460ff191686151590811790915591519182527f17307eab39ab6107e8899845ad3d59bd9653f200f220920489ca2b5937696c319101610abf565b6001600160a01b0383163b156112fc57604051630a85bd0160e11b81526001600160a01b0384169063150b7a029061121a908890889087908790600401611e29565b6020604051808303816000875af1925050508015611255575060408051601f3d908101601f1916820190925261125291810190611e66565b60015b6112be573d808015611283576040519150601f19603f3d011682016040523d82523d6000602084013e611288565b606091505b5080516000036112b657604051633250574960e11b81526001600160a01b038516600482015260240161087d565b805160208201fd5b6001600160e01b03198116630a85bd0160e11b146112fa57604051633250574960e11b81526001600160a01b038516600482015260240161087d565b505b5050505050565b606061130e82610f19565b506000828152600660205260408120805461132890611c6b565b80601f016020809104026020016040519081016040528092919081815260200182805461135490611c6b565b80156113a15780601f10611376576101008083540402835291602001916113a1565b820191906000526020600020905b81548152906001019060200180831161138457829003601f168201915b5050505050905060006113bf60408051602081019091526000815290565b905080516000036113d1575092915050565b8151156114035780826040516020016113eb929190611e83565b60405160208183030381529060405292505050919050565b61140c846115bb565b949350505050565b60006001600160e01b03198216632483248360e11b1480610631575061063182611630565b808061144d57506001600160a01b03821615155b1561150f57600061145d84610f19565b90506001600160a01b038316158015906114895750826001600160a01b0316816001600160a01b031614155b801561149c575061149a8184610e7b565b155b156114c55760405163a9fbf51f60e01b81526001600160a01b038416600482015260240161087d565b811561150d5783856001600160a01b0316826001600160a01b03167f8c5be1e5ebec7d5bd14f71427d1e84f3dd0314c0f7b2291e5b200ac8c7c3b92560405160405180910390a45b505b5050600090815260046020526040902080546001600160a01b0319166001600160a01b0392909216919091179055565b61154a838383611680565b6109c2576001600160a01b03831661157857604051637e27328960e01b81526004810182905260240161087d565b60405163177e802f60e01b81526001600160a01b03831660048201526024810182905260440161087d565b6115ad83836116e3565b6109c23360008585856111d8565b60606115c682610f19565b5060006115de60408051602081019091526000815290565b905060008151116115fe5760405180602001604052806000815250611629565b8061160884611748565b604051602001611619929190611e83565b6040516020818303038152906040525b9392505050565b60006001600160e01b031982166380ac58cd60e01b148061166157506001600160e01b03198216635b5e139f60e01b145b8061063157506301ffc9a760e01b6001600160e01b0319831614610631565b60006001600160a01b0383161580159061140c5750826001600160a01b0316846001600160a01b031614806116ba57506116ba8484610e7b565b8061140c5750506000908152600460205260409020546001600160a01b03908116911614919050565b6001600160a01b03821661170d57604051633250574960e11b81526000600482015260240161087d565b600061171b83836000610f5f565b90506001600160a01b038116156109c2576040516339e3563760e11b81526000600482015260240161087d565b60606000611755836117db565b600101905060008167ffffffffffffffff81111561177557611775611a36565b6040519080825280601f01601f19166020018201604052801561179f576020820181803683370190505b5090508181016020015b600019016f181899199a1a9b1b9c1cb0b131b232b360811b600a86061a8153600a85049450846117a957509392505050565b60008072184f03e93ff9f4daa797ed6e38ed64bf6a1f0160401b831061181a5772184f03e93ff9f4daa797ed6e38ed64bf6a1f0160401b830492506040015b6d04ee2d6d415b85acef81000000008310611846576d04ee2d6d415b85acef8100000000830492506020015b662386f26fc10000831061186457662386f26fc10000830492506010015b6305f5e100831061187c576305f5e100830492506008015b612710831061189057612710830492506004015b606483106118a2576064830492506002015b600a83106106315760010192915050565b6001600160e01b031981168114610ee457600080fd5b6000602082840312156118db57600080fd5b8135611629816118b3565b60005b838110156119015781810151838201526020016118e9565b50506000910152565b600081518084526119228160208601602086016118e6565b601f01601f19169290920160200192915050565b602081526000611629602083018461190a565b60006020828403121561195b57600080fd5b5035919050565b80356001600160a01b038116811461197957600080fd5b919050565b6000806040838503121561199157600080fd5b61199a83611962565b946020939093013593505050565b6080815260006119bb608083018761190a565b6020830195909552506040810192909252606090910152919050565b6000806000606084860312156119ec57600080fd5b6119f584611962565b9250611a0360208501611962565b929592945050506040919091013590565b60008060408385031215611a2757600080fd5b50508035926020909101359150565b634e487b7160e01b600052604160045260246000fd5b60008067ffffffffffffffff841115611a6757611a67611a36565b50604051601f19601f85018116603f0116810181811067ffffffffffffffff82111715611a9657611a96611a36565b604052838152905080828401851015611aae57600080fd5b83836020830137600060208583010152509392505050565b600082601f830112611ad757600080fd5b61162983833560208501611a4c565b60008060408385031215611af957600080fd5b611b0283611962565b9150602083013567ffffffffffffffff811115611b1e57600080fd5b611b2a85828601611ac6565b9150509250929050565b600060208284031215611b4657600080fd5b61162982611962565b60008060408385031215611b6257600080fd5b82359150602083013567ffffffffffffffff811115611b1e57600080fd5b60008060408385031215611b9357600080fd5b611b9c83611962565b915060208301358015158114611bb157600080fd5b809150509250929050565b60008060008060808587031215611bd257600080fd5b611bdb85611962565b9350611be960208601611962565b925060408501359150606085013567ffffffffffffffff811115611c0c57600080fd5b8501601f81018713611c1d57600080fd5b611c2c87823560208401611a4c565b91505092959194509250565b60008060408385031215611c4b57600080fd5b611c5483611962565b9150611c6260208401611962565b90509250929050565b600181811c90821680611c7f57607f821691505b602082108103611c9f57634e487b7160e01b600052602260045260246000fd5b50919050565b634e487b7160e01b600052601160045260246000fd5b808202811582820484141761063157610631611ca5565b600082611cef57634e487b7160e01b600052601260045260246000fd5b500490565b600060018201611d0657611d06611ca5565b5060010190565b634e487b7160e01b600052603260045260246000fd5b601f8211156109c257806000526020600020601f840160051c81016020851015611d4a5750805b601f840160051c820191505b818110156112fc5760008155600101611d56565b815167ffffffffffffffff811115611d8457611d84611a36565b611d9881611d928454611c6b565b84611d23565b6020601f821160018114611dcc5760008315611db45750848201515b600019600385901b1c1916600184901b1784556112fc565b600084815260208120601f198516915b82811015611dfc5787850151825560209485019460019092019101611ddc565b5084821015611e1a5786840151600019600387901b60f8161c191681555b50505050600190811b01905550565b6001600160a01b0385811682528416602082015260408101839052608060608201819052600090611e5c9083018461190a565b9695505050505050565b600060208284031215611e7857600080fd5b8151611629816118b3565b60008351611e958184602088016118e6565b835190830190611ea98183602088016118e6565b0194935050505056fea26469706673582212206f7fc02071b57b1a48254f74c74cdc66a8ec85ca8b6864f7ce5942192397b97c64736f6c634300081c0033a264697066735822122045061b7fdedb8bdbe16b1add2c69d78237293c9a2b37999bf597e76a274045d764736f6c634300081c0033",
  "linkReferences": {},
  "deployedLinkReferences": {}
}