{
  "_format": "hh-sol-artifact-1",
  "contractName": "TicketImplementation",
  "sourceName": "contracts/ticket-implementation.sol",
  "abi": [
    {
      "inputs": [],
      "stateMutability": "nonpayable",
      "type": "constructor"
    },
    {
      "inputs": [
        {
          "internalType": "uint256",
          "name": "numerator",
          "type": "uint256"
        },
        {
          "internalType": "uint256",
          "name": "denominator",
          "type": "uint256"
        }
      ],
      "name": "ERC2981InvalidDefaultRoyalty",
      "type": "error"
    },
    {
      "inputs": [
        {
          "internalType": "address",
          "name": "receiver",
          "type": "address"
        }
      ],
      "name": "ERC2981InvalidDefaultRoyaltyReceiver",
      "type": "error"
    },
    {
      "inputs": [
        {
          "internalType": "uint256",
          "name": "tokenId",
          "type": "uint256"
        },
        {
          "internalType": "uint256",
          "name": "numerator",
          "type": "uint256"
        },
        {
          "internalType": "uint256",
          "name": "denominator",
          "type": "uint256"
        }
      ],
      "name": "ERC2981InvalidTokenRoyalty",
      "type": "error"
    },
    {
      "inputs": [
        {
          "internalType": "uint256",
          "name": "tokenId",
          "type": "uint256"
        },
        {
          "internalType": "address",
          "name": "receiver",
          "type": "address"
        }
      ],
      "name": "ERC2981InvalidTokenRoyaltyReceiver",
      "type": "error"
    },
    {
      "inputs": [
        {
          "internalType": "address",
          "name": "sender",
          "type": "address"
        },
        {
          "internalType": "uint256",
          "name": "tokenId",
          "type": "uint256"
        },
        {
          "internalType": "address",
          "name": "owner",
          "type": "address"
        }
      ],
      "name": "ERC721IncorrectOwner",
      "type": "error"
    },
    {
      "inputs": [
        {
          "internalType": "address",
          "name": "operator",
          "type": "address"
        },
        {
          "internalType": "uint256",
          "name": "tokenId",
          "type": "uint256"
        }
      ],
      "name": "ERC721InsufficientApproval",
      "type": "error"
    },
    {
      "inputs": [
        {
          "internalType": "address",
          "name": "approver",
          "type": "address"
        }
      ],
      "name": "ERC721InvalidApprover",
      "type": "error"
    },
    {
      "inputs": [
        {
          "internalType": "address",
          "name": "operator",
          "type": "address"
        }
      ],
      "name": "ERC721InvalidOperator",
      "type": "error"
    },
    {
      "inputs": [
        {
          "internalType": "address",
          "name": "owner",
          "type": "address"
        }
      ],
      "name": "ERC721InvalidOwner",
      "type": "error"
    },
    {
      "inputs": [
        {
          "internalType": "address",
          "name": "receiver",
          "type": "address"
        }
      ],
      "name": "ERC721InvalidReceiver",
      "type": "error"
    },
    {
      "inputs": [
        {
          "internalType": "address",
          "name": "sender",
          "type": "address"
        }
      ],
      "name": "ERC721InvalidSender",
      "type": "error"
    },
    {
      "inputs": [
        {
          "internalType": "uint256",
          "name": "tokenId",
          "type": "uint256"
        }
      ],
      "name": "ERC721NonexistentToken",
      "type": "error"
    },
    {
      "inputs": [
        {
          "internalType": "address",
          "name": "owner",
          "type": "address"
        }
      ],
      "name": "OwnableInvalidOwner",
      "type": "error"
    },
    {
      "inputs": [
        {
          "internalType": "address",
          "name": "account",
          "type": "address"
        }
      ],
      "name": "OwnableUnauthorizedAccount",
      "type": "error"
    },
    {
      "anonymous": false,
      "inputs": [
        {
          "indexed": true,
          "internalType": "address",
          "name": "owner",
          "type": "address"
        },
        {
          "indexed": true,
          "internalType": "address",
          "name": "approved",
          "type": "address"
        },
        {
          "indexed": true,
          "internalType": "uint256",
          "name": "tokenId",
          "type": "uint256"
        }
      ],
      "name": "Approval",
      "type": "event"
    },
    {
      "anonymous": false,
      "inputs": [
        {
          "indexed": true,
          "internalType": "address",
          "name": "owner",
          "type": "address"
        },
        {
          "indexed": true,
          "internalType": "address",
          "name": "operator",
          "type": "address"
        },
        {
          "indexed": false,
          "internalType": "bool",
          "name": "approved",
          "type": "bool"
        }
      ],
      "name": "ApprovalForAll",
      "type": "event"
    },
    {
      "anonymous": false,
      "inputs": [
        {
          "indexed": false,
          "internalType": "uint256",
          "name": "_fromTokenId",
          "type": "uint256"
        },
        {
          "indexed": false,
          "internalType": "uint256",
          "name": "_toTokenId",
          "type": "uint256"
        }
      ],
      "name": "BatchMetadataUpdate",
      "type": "event"
    },
    {
      "anonymous": false,
      "inputs": [
        {
          "indexed": false,
          "internalType": "string",
          "name": "eventId",
          "type": "string"
        },
        {
          "indexed": false,
          "internalType": "string",
          "name": "eventName",
          "type": "string"
        }
      ],
      "name": "Initialized",
      "type": "event"
    },
    {
      "anonymous": false,
      "inputs": [
        {
          "indexed": false,
          "internalType": "uint256",
          "name": "_tokenId",
          "type": "uint256"
        }
      ],
      "name": "MetadataUpdate",
      "type": "event"
    },
    {
      "anonymous": false,
      "inputs": [
        {
          "indexed": true,
          "internalType": "address",
          "name": "previousOwner",
          "type": "address"
        },
        {
          "indexed": true,
          "internalType": "address",
          "name": "newOwner",
          "type": "address"
        }
      ],
      "name": "OwnershipTransferred",
      "type": "event"
    },
    {
      "anonymous": false,
      "inputs": [
        {
          "indexed": true,
          "internalType": "address",
          "name": "buyer",
          "type": "address"
        },
        {
          "indexed": true,
          "internalType": "uint256",
          "name": "tokenId",
          "type": "uint256"
        },
        {
          "indexed": false,
          "internalType": "uint256",
          "name": "price",
          "type": "uint256"
        }
      ],
      "name": "TicketPurchased",
      "type": "event"
    },
    {
      "anonymous": false,
      "inputs": [
        {
          "indexed": true,
          "internalType": "address",
          "name": "from",
          "type": "address"
        },
        {
          "indexed": true,
          "internalType": "address",
          "name": "to",
          "type": "address"
        },
        {
          "indexed": true,
          "internalType": "uint256",
          "name": "tokenId",
          "type": "uint256"
        }
      ],
      "name": "Transfer",
      "type": "event"
    },
    {
      "inputs": [],
      "name": "MAX_ROYALTY_FEE",
      "outputs": [
        {
          "internalType": "uint96",
          "name": "",
          "type": "uint96"
        }
      ],
      "stateMutability": "view",
      "type": "function"
    },
    {
      "inputs": [
        {
          "internalType": "address",
          "name": "to",
          "type": "address"
        },
        {
          "internalType": "uint256",
          "name": "tokenId",
          "type": "uint256"
        }
      ],
      "name": "approve",
      "outputs": [],
      "stateMutability": "nonpayable",
      "type": "function"
    },
    {
      "inputs": [
        {
          "internalType": "address",
          "name": "owner",
          "type": "address"
        }
      ],
      "name": "balanceOf",
      "outputs": [
        {
          "internalType": "uint256",
          "name": "",
          "type": "uint256"
        }
      ],
      "stateMutability": "view",
      "type": "function"
    },
    {
      "inputs": [
        {
          "internalType": "uint256",
          "name": "zoneIndex",
          "type": "uint256"
        },
        {
          "internalType": "uint256",
          "name": "quantity",
          "type": "uint256"
        },
        {
          "internalType": "string",
          "name": "tokenURI_",
          "type": "string"
        }
      ],
      "name": "buyTicket",
      "outputs": [],
      "stateMutability": "payable",
      "type": "function"
    },
    {
      "inputs": [],
      "name": "description",
      "outputs": [
        {
          "internalType": "string",
          "name": "",
          "type": "string"
        }
      ],
      "stateMutability": "view",
      "type": "function"
    },
    {
      "inputs": [],
      "name": "eventAddress",
      "outputs": [
        {
          "internalType": "address",
          "name": "",
          "type": "address"
        }
      ],
      "stateMutability": "view",
      "type": "function"
    },
    {
      "inputs": [],
      "name": "eventId",
      "outputs": [
        {
          "internalType": "string",
          "name": "",
          "type": "string"
        }
      ],
      "stateMutability": "view",
      "type": "function"
    },
    {
      "inputs": [],
      "name": "eventName",
      "outputs": [
        {
          "internalType": "string",
          "name": "",
          "type": "string"
        }
      ],
      "stateMutability": "view",
      "type": "function"
    },
    {
      "inputs": [
        {
          "internalType": "uint256",
          "name": "tokenId",
          "type": "uint256"
        }
      ],
      "name": "getApproved",
      "outputs": [
        {
          "internalType": "address",
          "name": "",
          "type": "address"
        }
      ],
      "stateMutability": "view",
      "type": "function"
    },
    {
      "inputs": [
        {
          "internalType": "address",
          "name": "_eventAddress",
          "type": "address"
        }
      ],
      "name": "getEventZones",
      "outputs": [
        {
          "components": [
            {
              "internalType": "string",
              "name": "name",
              "type": "string"
            },
            {
              "internalType": "uint256",
              "name": "price",
              "type": "uint256"
            },
            {
              "internalType": "uint256",
              "name": "maxSupply",
              "type": "uint256"
            },
            {
              "internalType": "uint256",
              "name": "totalMinted",
              "type": "uint256"
            }
          ],
          "internalType": "struct TicketImplementation.Zone[]",
          "name": "",
          "type": "tuple[]"
        }
      ],
      "stateMutability": "view",
      "type": "function"
    },
    {
      "inputs": [
        {
          "internalType": "address",
          "name": "_eventAddress",
          "type": "address"
        }
      ],
      "name": "getPayoutCount",
      "outputs": [
        {
          "internalType": "uint256",
          "name": "",
          "type": "uint256"
        }
      ],
      "stateMutability": "view",
      "type": "function"
    },
    {
      "inputs": [
        {
          "internalType": "uint256",
          "name": "index",
          "type": "uint256"
        }
      ],
      "name": "getPayoutInfo",
      "outputs": [
        {
          "internalType": "address",
          "name": "",
          "type": "address"
        },
        {
          "internalType": "uint96",
          "name": "",
          "type": "uint96"
        }
      ],
      "stateMutability": "view",
      "type": "function"
    },
    {
      "inputs": [],
      "name": "image",
      "outputs": [
        {
          "internalType": "string",
          "name": "",
          "type": "string"
        }
      ],
      "stateMutability": "view",
      "type": "function"
    },
    {
      "inputs": [
        {
          "internalType": "string",
          "name": "_eventId",
          "type": "string"
        },
        {
          "internalType": "string",
          "name": "_eventName",
          "type": "string"
        },
        {
          "internalType": "string",
          "name": "_description",
          "type": "string"
        },
        {
          "internalType": "string",
          "name": "_image",
          "type": "string"
        },
        {
          "internalType": "address",
          "name": "_organizer",
          "type": "address"
        },
        {
          "internalType": "uint96",
          "name": "_royaltyFee",
          "type": "uint96"
        },
        {
          "internalType": "string",
          "name": "_termsURI",
          "type": "string"
        },
        {
          "internalType": "address[]",
          "name": "_wallets",
          "type": "address[]"
        },
        {
          "internalType": "uint16[]",
          "name": "_shares",
          "type": "uint16[]"
        },
        {
          "internalType": "string[]",
          "name": "_zones",
          "type": "string[]"
        },
        {
          "internalType": "uint64[]",
          "name": "_prices",
          "type": "uint64[]"
        },
        {
          "internalType": "uint32[]",
          "name": "_maxSupplies",
          "type": "uint32[]"
        },
        {
          "internalType": "address",
          "name": "_vault",
          "type": "address"
        }
      ],
      "name": "initialize",
      "outputs": [],
      "stateMutability": "nonpayable",
      "type": "function"
    },
    {
      "inputs": [
        {
          "internalType": "address",
          "name": "owner",
          "type": "address"
        },
        {
          "internalType": "address",
          "name": "operator",
          "type": "address"
        }
      ],
      "name": "isApprovedForAll",
      "outputs": [
        {
          "internalType": "bool",
          "name": "",
          "type": "bool"
        }
      ],
      "stateMutability": "view",
      "type": "function"
    },
    {
      "inputs": [],
      "name": "name",
      "outputs": [
        {
          "internalType": "string",
          "name": "",
          "type": "string"
        }
      ],
      "stateMutability": "view",
      "type": "function"
    },
    {
      "inputs": [],
      "name": "owner",
      "outputs": [
        {
          "internalType": "address",
          "name": "",
          "type": "address"
        }
      ],
      "stateMutability": "view",
      "type": "function"
    },
    {
      "inputs": [
        {
          "internalType": "uint256",
          "name": "tokenId",
          "type": "uint256"
        }
      ],
      "name": "ownerOf",
      "outputs": [
        {
          "internalType": "address",
          "name": "",
          "type": "address"
        }
      ],
      "stateMutability": "view",
      "type": "function"
    },
    {
      "inputs": [
        {
          "internalType": "address",
          "name": "",
          "type": "address"
        },
        {
          "internalType": "uint256",
          "name": "",
          "type": "uint256"
        }
      ],
      "name": "payouts",
      "outputs": [
        {
          "internalType": "address",
          "name": "wallet",
          "type": "address"
        },
        {
          "internalType": "uint96",
          "name": "share",
          "type": "uint96"
        }
      ],
      "stateMutability": "view",
      "type": "function"
    },
    {
      "inputs": [],
      "name": "renounceOwnership",
      "outputs": [],
      "stateMutability": "nonpayable",
      "type": "function"
    },
    {
      "inputs": [
        {
          "internalType": "uint256",
          "name": "tokenId",
          "type": "uint256"
        },
        {
          "internalType": "uint256",
          "name": "salePrice",
          "type": "uint256"
        }
      ],
      "name": "royaltyInfo",
      "outputs": [
        {
          "internalType": "address",
          "name": "receiver",
          "type": "address"
        },
        {
          "internalType": "uint256",
          "name": "amount",
          "type": "uint256"
        }
      ],
      "stateMutability": "view",
      "type": "function"
    },
    {
      "inputs": [
        {
          "internalType": "address",
          "name": "from",
          "type": "address"
        },
        {
          "internalType": "address",
          "name": "to",
          "type": "address"
        },
        {
          "internalType": "uint256",
          "name": "tokenId",
          "type": "uint256"
        }
      ],
      "name": "safeTransferFrom",
      "outputs": [],
      "stateMutability": "nonpayable",
      "type": "function"
    },
    {
      "inputs": [
        {
          "internalType": "address",
          "name": "from",
          "type": "address"
        },
        {
          "internalType": "address",
          "name": "to",
          "type": "address"
        },
        {
          "internalType": "uint256",
          "name": "tokenId",
          "type": "uint256"
        },
        {
          "internalType": "bytes",
          "name": "data",
          "type": "bytes"
        }
      ],
      "name": "safeTransferFrom",
      "outputs": [],
      "stateMutability": "nonpayable",
      "type": "function"
    },
    {
      "inputs": [
        {
          "internalType": "address",
          "name": "operator",
          "type": "address"
        },
        {
          "internalType": "bool",
          "name": "approved",
          "type": "bool"
        }
      ],
      "name": "setApprovalForAll",
      "outputs": [],
      "stateMutability": "nonpayable",
      "type": "function"
    },
    {
      "inputs": [
        {
          "internalType": "address",
          "name": "_vault",
          "type": "address"
        }
      ],
      "name": "setVault",
      "outputs": [],
      "stateMutability": "nonpayable",
      "type": "function"
    },
    {
      "inputs": [
        {
          "internalType": "bytes4",
          "name": "interfaceId",
          "type": "bytes4"
        }
      ],
      "name": "supportsInterface",
      "outputs": [
        {
          "internalType": "bool",
          "name": "",
          "type": "bool"
        }
      ],
      "stateMutability": "view",
      "type": "function"
    },
    {
      "inputs": [],
      "name": "symbol",
      "outputs": [
        {
          "internalType": "string",
          "name": "",
          "type": "string"
        }
      ],
      "stateMutability": "view",
      "type": "function"
    },
    {
      "inputs": [],
      "name": "termsURI",
      "outputs": [
        {
          "internalType": "string",
          "name": "",
          "type": "string"
        }
      ],
      "stateMutability": "view",
      "type": "function"
    },
    {
      "inputs": [
        {
          "internalType": "uint256",
          "name": "tokenId",
          "type": "uint256"
        }
      ],
      "name": "tokenURI",
      "outputs": [
        {
          "internalType": "string",
          "name": "",
          "type": "string"
        }
      ],
      "stateMutability": "view",
      "type": "function"
    },
    {
      "inputs": [],
      "name": "totalMinted",
      "outputs": [
        {
          "internalType": "uint256",
          "name": "",
          "type": "uint256"
        }
      ],
      "stateMutability": "view",
      "type": "function"
    },
    {
      "inputs": [],
      "name": "totalShare",
      "outputs": [
        {
          "internalType": "uint96",
          "name": "",
          "type": "uint96"
        }
      ],
      "stateMutability": "view",
      "type": "function"
    },
    {
      "inputs": [
        {
          "internalType": "address",
          "name": "from",
          "type": "address"
        },
        {
          "internalType": "address",
          "name": "to",
          "type": "address"
        },
        {
          "internalType": "uint256",
          "name": "tokenId",
          "type": "uint256"
        }
      ],
      "name": "transferFrom",
      "outputs": [],
      "stateMutability": "nonpayable",
      "type": "function"
    },
    {
      "inputs": [
        {
          "internalType": "address",
          "name": "newOwner",
          "type": "address"
        }
      ],
      "name": "transferOwnership",
      "outputs": [],
      "stateMutability": "nonpayable",
      "type": "function"
    },
    {
      "inputs": [],
      "name": "vault",
      "outputs": [
        {
          "internalType": "address",
          "name": "",
          "type": "address"
        }
      ],
      "stateMutability": "view",
      "type": "function"
    },
    {
      "inputs": [
        {
          "internalType": "address",
          "name": "",
          "type": "address"
        }
      ],
      "name": "zoneCount",
      "outputs": [
        {
          "internalType": "uint256",
          "name": "",
          "type": "uint256"
        }
      ],
      "stateMutability": "view",
      "type": "function"
    },
    {
      "inputs": [
        {
          "internalType": "address",
          "name": "",
          "type": "address"
        },
        {
          "internalType": "uint256",
          "name": "",
          "type": "uint256"
        }
      ],
      "name": "zones",
      "outputs": [
        {
          "internalType": "string",
          "name": "name",
          "type": "string"
        },
        {
          "internalType": "uint256",
          "name": "price",
          "type": "uint256"
        },
        {
          "internalType": "uint256",
          "name": "maxSupply",
          "type": "uint256"
        },
        {
          "internalType": "uint256",
          "name": "totalMinted",
          "type": "uint256"
        }
      ],
      "stateMutability": "view",
      "type": "function"
    }
  ],
  "bytecode": "0x60806040523461038a57604080519081016001600160401b03811182821017610297576040908152600a82526910985cd9551a58dad95d60b21b602083015280519081016001600160401b0381118282101761029757604052600781526610951250d2d15560ca1b602082015281516001600160401b03811161029757600054600181811c91168015610380575b602082101461027757601f811161031c575b50602092601f82116001146102b857928192936000926102ad575b50508160011b916000199060031b1c1916176000555b80516001600160401b03811161029757600154600181811c9116801561028d575b602082101461027757601f8111610212575b50602091601f82116001146101ae579181926000926101a3575b50508160011b916000199060031b1c1916176001555b331561018d5760098054336001600160a01b03198216811790925560405191906001600160a01b03167f8be0079c531659141344cd1fd0a4f28419497f9722a3daafe3b4186f6b6457e0600080a3612c9090816103908239f35b631e4fbdf760e01b600052600060045260246000fd5b01519050388061011d565b601f198216926001600052806000209160005b8581106101fa575083600195106101e1575b505050811b01600155610133565b015160001960f88460031b161c191690553880806101d3565b919260206001819286850151815501940192016101c1565b60016000527fb10e2d527612073b26eecdfd717e6a320cf44b4afac2b0732d9fcbe2b7fa0cf6601f830160051c8101916020841061026d575b601f0160051c01905b8181106102615750610103565b60008155600101610254565b909150819061024b565b634e487b7160e01b600052602260045260246000fd5b90607f16906100f1565b634e487b7160e01b600052604160045260246000fd5b0151905038806100ba565b601f1982169360008052806000209160005b86811061030457508360019596106102eb575b505050811b016000556100d0565b015160001960f88460031b161c191690553880806102dd565b919260206001819286850151815501940192016102ca565b600080527f290decd9548b62a8d60345a988386fc84ba6bc95484008f6362f93160ef3e563601f830160051c81019160208410610376575b601f0160051c01905b81811061036a575061009f565b6000815560010161035d565b9091508190610354565b90607f169061008d565b600080fdfe608080604052600436101561001357600080fd5b60003560e01c90816301ffc9a71461251157508063026c4207146124ea57806306fdde0314612445578063081812fc14612407578063089cdd0c1461235f578063095ea7b31461227057806317e1f82e146122535780631d6916ab14611c9b57806323b872dd14611c845780632a55205a14611bff578063342914f314611a6257806335ccdc3d14611a2857806342842e0e146119f85780636352211e146119c85780636817031b1461198557806370a082311461192f578063715018a6146118d25780637284e4161461182a5780637a5c15c81461176b5780638009245c146117315780638043c9c0146116895780638c86cf58146116065780638da5cb5b146115dd57806395d89b41146115355780639d484693146114c4578063a22cb46514611423578063a2309ff814611405578063b88d4fde1461139a578063c87b56dd1461137b578063d90786d41461043b578063e985e9c5146103e0578063f2fde38b1461038f578063f3ccaac0146102e7578063f5c925d914610202578063fad56779146101d95763fbfa77cf146101ab57600080fd5b346101d45760003660031901126101d457600a546040516001600160a01b039091168152602090f35b600080fd5b346101d45760003660031901126101d457600b546040516001600160a01b039091168152602090f35b346101d45760003660031901126101d4576040516000601154610224816125ef565b80845290600181169081156102c35750600114610264575b6102608361024c8185038261265f565b6040519182916020835260208301906125b0565b0390f35b601160009081527f31ecc21a745e3968a04e9570e4425bc18fa8019c68028196b546d1669c200c68939250905b8082106102a95750909150810160200161024c61023c565b919260018160209254838588010152019101909291610291565b60ff191660208086019190915291151560051b8401909101915061024c905061023c565b346101d45760003660031901126101d4576040516000600f54610309816125ef565b80845290600181169081156102c35750600114610330576102608361024c8185038261265f565b600f60009081527f8d1108e10bcb7c27dddfc02ed9d693a074039d026cf4ea4240b40f7d581ac802939250905b8082106103755750909150810160200161024c61023c565b91926001816020925483858801015201910190929161035d565b346101d45760203660031901126101d4576103a8612724565b6103b0612aab565b6001600160a01b038116156103ca576103c890612ad4565b005b631e4fbdf760e01b600052600060045260246000fd5b346101d45760403660031901126101d4576103f9612724565b61040161273a565b9060018060a01b0316600052600560205260406000209060018060a01b0316600052602052602060ff604060002054166040519015158152f35b346101d4576101a03660031901126101d4576004356001600160401b0381116101d45761046c9036906004016127a2565b6024356001600160401b0381116101d45761048b9036906004016127a2565b6044356001600160401b0381116101d4576104aa9036906004016127a2565b6064356001600160401b0381116101d4576104c99036906004016127a2565b6084356001600160a01b038116938482036101d45760a435946001600160601b0386168096036101d45760c4356001600160401b0381116101d4576105129036906004016127a2565b60e435946001600160401b0386116101d457366023870112156101d457856004013561053d81612828565b9661054b604051988961265f565b8188526024602089019260051b820101903682116101d457602401915b81831061135b5750505061010435966001600160401b0388116101d457366023890112156101d457876004013561059e81612828565b986105ac6040519a8b61265f565b818a52602460208b019260051b820101903682116101d457602401915b8183106113405750505061012435986001600160401b038a116101d4573660238b0112156101d45789600401356105ff81612828565b9a61060d6040519c8d61265f565b818c52602460208d019260051b820101903682116101d45760248101925b828410611311575050505061014435946001600160401b0386116101d457366023870112156101d457856004013561066281612828565b96610670604051988961265f565b8188526024602089019260051b820101903682116101d457602401915b8183106112f15750505061016435976001600160401b0389116101d4573660238a0112156101d45788600401356106c381612828565b996106d16040519b8c61265f565b818b52602460208c019260051b820101903682116101d457602401915b8183106112d457505050610184356001600160a01b03811691908290036101d45760095460ff8160a01c166112995760ff60a01b1916600160a01b176009558a518c510361125c578c51885181149081611251575b5015611217576103e884116111df578161076161077a931515612a05565b600a80546001600160a01b031916919091179055612ad4565b61271082116111c45780156111ae576040519061079682612644565b808252602090910182905260a09190911b6001600160a01b0319166001600160a01b039091161760075589516001600160401b038111610a75576107db600c546125ef565b601f8111611149575b50806020601f82116001146110e0576000916110d5575b508160011b916000199060031b1c191617600c555b84516001600160401b038111610a755761082b600d546125ef565b601f8111611070575b50806020601f821160011461100a57600091610fff575b508160011b916000199060031b1c191617600d555b8051906001600160401b038211610a7557819061087e600e546125ef565b601f8111610f8f575b50602090601f8311600114610f2757600092610f1c575b50508160011b916000199060031b1c191617600e555b8051906001600160401b038211610a755781906108d2600f546125ef565b601f8111610eac575b50602090601f8311600114610e4457600092610e39575b50508160011b916000199060031b1c191617600f555b8051906001600160401b038211610a755781906109266011546125ef565b601f8111610dc9575b50602090601f8311600114610d6157600092610d56575b50508160011b916000199060031b1c1916176011555b600095865b8551881015610ac1576001600160a01b0361097c89886129f1565b511615610a8b57600b546001600160a01b039081166000908152601460205260409020906109aa8a896129f1565b51169061ffff6109ba8b8b6129f1565b511690604051926109ca84612644565b8352602083019182528054600160401b811015610a75576109f0916001820181556127fa565b929092610a5f5751905160a01b6001600160a01b0319166001600160a01b03919091161790556001600160601b0361ffff610a2b8a8a6129f1565b51169116016001600160601b038111610a4957600190970196610961565b634e487b7160e01b600052601160045260246000fd5b634e487b7160e01b600052600060045260246000fd5b634e487b7160e01b600052604160045260246000fd5b60405162461bcd60e51b815260206004820152600e60248201526d1a5b9d985b1a59081dd85b1b195d60921b6044820152606490fd5b6001600160601b038991166127108103610d1b576001600160601b0319601554161760155560005b8251811015610c9f57610afc81846129f1565b516001600160401b03610b0f83876129f1565b511663ffffffff610b20848a6129f1565b511660405192610b2f84612629565b8352602083019182526040830190815260608301916000835260018060a01b03600b54166000526012602052604060002085600052602052604060002093518051906001600160401b038211610a7557610b8986546125ef565b601f8111610c57575b50602090601f8311600114610be85791806001989796949260039694600092610bdd575b505060001982871b1c191690881b1785555b51868501555160028401555191015501610ae9565b015190508e80610bb6565b90601f1983169187600052816000209260005b818110610c3f57509260019998979593928592600398968c9510610c27575b505050811b018555610bc8565b015160001983891b60f8161c191690558e8080610c1a565b92936020600181928786015181550195019301610bfb565b866000526020600020601f840160051c81019160208510610c95575b601f0160051c01905b818110610c895750610b92565b60008155600101610c7c565b9091508190610c73565b7fa070f05b16f4eb7ffaa9444c7d3e435633333ff89cc255bd7e648e7dab636f33610d0883610d1688875160018060a01b03600b541660005260136020526040600020553060018060a01b0319600b541617600b556040519384936040855260408501906125b0565b9083820360208501526125b0565b0390a1005b60405162461bcd60e51b8152602060048201526013602482015272746f74616c20736861726520213d203130302560681b6044820152606490fd5b015190508980610946565b601160009081528281209350601f198516905b818110610db15750908460019594939210610d98575b505050811b0160115561095c565b015160001960f88460031b161c19169055898080610d8a565b92936020600181928786015181550195019301610d74565b60116000529091507f31ecc21a745e3968a04e9570e4425bc18fa8019c68028196b546d1669c200c68601f840160051c81019160208510610e2f575b90601f859493920160051c01905b818110610e20575061092f565b60008155849350600101610e13565b9091508190610e05565b015190508a806108f2565b600f60009081528281209350601f198516905b818110610e945750908460019594939210610e7b575b505050811b01600f55610908565b015160001960f88460031b161c191690558a8080610e6d565b92936020600181928786015181550195019301610e57565b600f6000529091507f8d1108e10bcb7c27dddfc02ed9d693a074039d026cf4ea4240b40f7d581ac802601f840160051c81019160208510610f12575b90601f859493920160051c01905b818110610f0357506108db565b60008155849350600101610ef6565b9091508190610ee8565b015190508b8061089e565b600e60009081528281209350601f198516905b818110610f775750908460019594939210610f5e575b505050811b01600e556108b4565b015160001960f88460031b161c191690558b8080610f50565b92936020600181928786015181550195019301610f3a565b600e6000529091507fbb7b4a454dc3493923482f07822329ed19e8244eff582cc204f8554c3620c3fd601f840160051c81019160208510610ff5575b90601f859493920160051c01905b818110610fe65750610887565b60008155849350600101610fd9565b9091508190610fcb565b90508601518c61084b565b600d60009081528181209250601f198416905b8181106110585750908360019493921061103f575b5050811b01600d55610860565b88015160001960f88460031b161c191690558c80611032565b9192602060018192868d01518155019401920161101d565b600d6000527fd7b6990105719101dabeb77144f2a3385c8033acd3af97e9423a695e81ad1eb5601f830160051c810191602084106110cb575b601f0160051c01905b8181106110bf5750610834565b600081556001016110b2565b90915081906110a9565b90508b01518c6107fb565b600c60009081528181209250601f198416908e5b8282106111305750509083600194939210611117575b5050811b01600c55610810565b8d015160001960f88460031b161c191690558c8061110a565b600184956020939584930151815501940192018e6110f4565b600c6000527fdf6966c971051c3d54ec59162606531493a51404a002842f56009d7e5cf4a8c7601f830160051c810191602084106111a4575b601f0160051c01905b81811061119857506107e4565b6000815560010161118b565b9091508190611182565b635b6cc80560e11b600052600060045260246000fd5b50636f483d0960e01b60005260045261271060245260446000fd5b60405162461bcd60e51b815260206004820152601060248201526f0e4def2c2d8e8f240e8dede40d0d2ced60831b6044820152606490fd5b60405162461bcd60e51b81526020600482015260126024820152710f4dedcca40c8c2e8c240dad2e6dac2e8c6d60731b6044820152606490fd5b90508a51148f610743565b60405162461bcd60e51b81526020600482015260156024820152740eec2d8d8cae85ee6d0c2e4ca40dad2e6dac2e8c6d605b1b6044820152606490fd5b60405162461bcd60e51b8152602060048201526013602482015272185b1c9958591e481a5b9a5d1a585b1a5e9959606a1b6044820152606490fd5b823563ffffffff811681036101d4578152602092830192016106ee565b82356001600160401b03811681036101d45781526020928301920161068d565b83356001600160401b0381116101d4576020916113358392602436918701016127a2565b81520193019261062b565b823561ffff811681036101d4578152602092830192016105c9565b82356001600160a01b03811681036101d457815260209283019201610568565b346101d45760203660031901126101d45761026061024c600435612a41565b346101d45760803660031901126101d4576113b3612724565b6113bb61273a565b90604435606435926001600160401b0384116101d457366023850112156101d4576113f36103c894369060248160040135910161276b565b926113ff838383612861565b33612b1d565b346101d45760003660031901126101d4576020601054604051908152f35b346101d45760403660031901126101d45761143c612724565b602435908115158092036101d4576001600160a01b03169081156114af57336000526005602052604060002082600052602052604060002060ff1981541660ff83161790556040519081527f17307eab39ab6107e8899845ad3d59bd9653f200f220920489ca2b5937696c3160203392a3005b50630b61174360e31b60005260045260246000fd5b346101d45760403660031901126101d4576114dd612724565b6001600160a01b03166000908152601460205260409020805460243591908210156101d4576102609161150f916127fa565b5054604080516001600160a01b038316815260a09290921c602083015290918291820190565b346101d45760003660031901126101d4576040516000600154611557816125ef565b80845290600181169081156102c3575060011461157e576102608361024c8185038261265f565b600160009081527fb10e2d527612073b26eecdfd717e6a320cf44b4afac2b0732d9fcbe2b7fa0cf6939250905b8082106115c35750909150810160200161024c61023c565b9192600181602092548385880101520191019092916115ab565b346101d45760003660031901126101d4576009546040516001600160a01b039091168152602090f35b346101d45760403660031901126101d4576001600160a01b03611627612724565b1660005260126020526040600020602435600052602052611675604060002061164f81612680565b9060018101549060036002820154910154906040519485946080865260808601906125b0565b926020850152604084015260608301520390f35b346101d45760003660031901126101d4576040516000600d546116ab816125ef565b80845290600181169081156102c357506001146116d2576102608361024c8185038261265f565b600d60009081527fd7b6990105719101dabeb77144f2a3385c8033acd3af97e9423a695e81ad1eb5939250905b8082106117175750909150810160200161024c61023c565b9192600181602092548385880101520191019092916116ff565b346101d45760203660031901126101d4576001600160a01b03611752612724565b1660005260136020526020604060002054604051908152f35b346101d45760203660031901126101d457600b546001600160a01b031660008181526014602052604090205460043591908210156117f5576020916117bb916000526014835260406000206127fa565b50604051906117c982612644565b546001600160a01b03811680835260a09190911c92909101829052604080519182526020820192909252f35b60405162461bcd60e51b815260206004820152600d60248201526c092dcecc2d8d2c840d2dcc8caf609b1b6044820152606490fd5b346101d45760003660031901126101d4576040516000600e5461184c816125ef565b80845290600181169081156102c35750600114611873576102608361024c8185038261265f565b600e60009081527fbb7b4a454dc3493923482f07822329ed19e8244eff582cc204f8554c3620c3fd939250905b8082106118b85750909150810160200161024c61023c565b9192600181602092548385880101520191019092916118a0565b346101d45760003660031901126101d4576118eb612aab565b600980546001600160a01b031981169091556000906001600160a01b03167f8be0079c531659141344cd1fd0a4f28419497f9722a3daafe3b4186f6b6457e08280a3005b346101d45760203660031901126101d4576001600160a01b03611950612724565b16801561196f5760005260036020526020604060002054604051908152f35b6322718ad960e21b600052600060045260246000fd5b346101d45760203660031901126101d4576001600160a01b036119a6612724565b166119b2811515612a05565b600a80546001600160a01b031916919091179055005b346101d45760203660031901126101d45760206119e6600435612a74565b6040516001600160a01b039091168152f35b346101d4576103c8611a09366127c0565b9060405192611a1960208561265f565b600084526113ff838383612861565b346101d45760203660031901126101d4576001600160a01b03611a49612724565b1660005260146020526020604060002054604051908152f35b346101d45760203660031901126101d4576001600160a01b03611a83612724565b16806000526013602052604060002054611a9c81612828565b91611aaa604051938461265f565b818352601f19611ab983612828565b0160005b818110611bcc57505060005b828110611b5f57836040518091602082016020835281518091526040830190602060408260051b8601019301916000905b828210611b0957505050500390f35b919360019193955060208091603f19898203018552875190606080611b3784516080855260808501906125b0565b9385810151868501526040810151604085015201519101529601920192018594939192611afa565b6001908260005260126020526040600020816000526020526040600020600360405191611b8b83612629565b611b9481612680565b83528481015460208401526002810154604084015201546060820152611bba82876129f1565b52611bc581866129f1565b5001611ac9565b602090604051611bdb81612629565b60608152600083820152600060408201526000606082015282828801015201611abd565b346101d45760403660031901126101d4576004356000908152600860205260409020546001600160a01b0381169060a01c8115611c6c575b611c4f6001600160601b03612710921660243561283f565b604080516001600160a01b03949094168452919004602083015290f35b50506007546001600160a01b0381169060a01c611c37565b346101d4576103c8611c95366127c0565b91612861565b60603660031901126101d4576024356044356001600160401b0381116101d457611cc99036906004016127a2565b9060018060a01b03600b541660005260126020526040600020600435600052602052604060002091811561221a5760038301928354838101809111610a49576002820154106121e057600101611d2083825461283f565b34106121a657600a546001600160a01b031615612171576020933393929084159081159060005b868110611d805788601054907f2a91574e12ad96234e84923e146b0946ecfb871cd8d5534dc1fdcbe87a7c01b3604051913483523392a3005b611d8a8254612852565b8255611d97601054612852565b9081601055604051611da98b8261265f565b856000825261215b5760008381526002808d5260408220546001600160a01b03168015159290918691908f8a86612125575b61210e575b838352526040812080546001600160a01b0319168f179055339083907fddf252ad1be2c89b69c2b068fc378daa952ba7f163c4a11628f55a4df523b3ef9080a4506120f8578a333b611fde575b50508160005260068a52604060002086516001600160401b038111610a75578b611e5783546125ef565b601f8111611f96575b5050808c601f8211600114611f3157600091611f26575b508160011b916000199060031b1c19161790555b7ff8e1a15aba9398e019f0b49df1a4fde98ee17ae345cb5f6b5e2c27f5033e8ce78a604051848152a186549160018060a01b03600a541690813b156101d4576040516311f9fbc960e21b815230600482015260248101919091529260009184916044918391905af1918215611f1a57600192611f09575b5001611d47565b6000611f149161265f565b8a611f02565b6040513d6000823e3d90fd5b90508801518d611e77565b60008481528e81209250601f198416908f5b8c838310611f80575050509083600194939210611f67575b5050811b019055611e8b565b8a015160001960f88460031b161c191690558d80611f5b565b840151855560019094019392830192018f611f43565b836000528160002090601f840160051c8201928410611fd4575b601f0160051c01905b818110611fc8578d9150611e60565b60008155600101611fb9565b9091508190611fb0565b6120179160405180938192630a85bd0160e11b8352336004840152600060248401528760448401526080606484015260848301906125b0565b03816000335af180916000916120b3575b5090612080578a3d15612078573d9061204082612750565b9161204e604051938461265f565b82523d60008284013e5b8151918261207557633250574960e11b6000523360045260246000fd5b01fd5b606090612058565b6001600160e01b03191663757a42ff60e11b0161209e578a8a611e2d565b633250574960e11b6000523360045260246000fd5b8c81813d83116120f1575b6120c8818361265f565b810103126120ed5751906001600160e01b0319821682036120ea57508c612028565b80fd5b5080fd5b503d6120be565b6339e3563760e11b600052600060045260246000fd5b338352600381526040832060018154019055611de0565b50600084815260046020526040902080546001600160a01b0319169055848352600381526040832080546000190190558a611ddb565b633250574960e11b600052600060045260246000fd5b60405162461bcd60e51b815260206004820152600d60248201526c1d985d5b1d081b9bdd081cd95d609a1b6044820152606490fd5b60405162461bcd60e51b8152602060048201526012602482015271696e73756666696369656e742066756e647360701b6044820152606490fd5b60405162461bcd60e51b8152602060048201526012602482015271546964616b2063756b757020737570706c7960701b6044820152606490fd5b60405162461bcd60e51b815260206004820152601160248201527007175616e74697479206d757374203e203607c1b6044820152606490fd5b346101d45760003660031901126101d45760206040516103e88152f35b346101d45760403660031901126101d457612289612724565b60243561229581612a74565b3315158061234c575b8061231e575b6123095781906001600160a01b0384811691167f8c5be1e5ebec7d5bd14f71427d1e84f3dd0314c0f7b2291e5b200ac8c7c3b925600080a4600090815260046020526040902080546001600160a01b0319166001600160a01b03909216919091179055005b63a9fbf51f60e01b6000523360045260246000fd5b506001600160a01b038116600090815260056020908152604080832033845290915290205460ff16156122a4565b506001600160a01b03811633141561229e565b346101d45760003660031901126101d4576040516000600c54612381816125ef565b80845290600181169081156102c357506001146123a8576102608361024c8185038261265f565b600c60009081527fdf6966c971051c3d54ec59162606531493a51404a002842f56009d7e5cf4a8c7939250905b8082106123ed5750909150810160200161024c61023c565b9192600181602092548385880101520191019092916123d5565b346101d45760203660031901126101d45760043561242481612a74565b506000526004602052602060018060a01b0360406000205416604051908152f35b346101d45760003660031901126101d45760405160008054612466816125ef565b80845290600181169081156102c3575060011461248d576102608361024c8185038261265f565b60008080527f290decd9548b62a8d60345a988386fc84ba6bc95484008f6362f93160ef3e563939250905b8082106124d05750909150810160200161024c61023c565b9192600181602092548385880101520191019092916124b8565b346101d45760003660031901126101d45760206001600160601b0360155416604051908152f35b346101d45760203660031901126101d4576004359063ffffffff60e01b82168092036101d45760209163152a902d60e11b8114908115612553575b5015158152f35b632483248360e11b81149150811561256d575b508361254c565b6380ac58cd60e01b81149150811561259f575b811561258e575b5083612566565b6301ffc9a760e01b14905083612587565b635b5e139f60e01b81149150612580565b919082518082526020808301940160005b8281106125df575050600081602094950152601f8019910116010190565b81810151868201526020016125c1565b90600182811c9216801561261f575b602083101461260957565b634e487b7160e01b600052602260045260246000fd5b91607f16916125fe565b608081019081106001600160401b03821117610a7557604052565b604081019081106001600160401b03821117610a7557604052565b90601f801991011681019081106001600160401b03821117610a7557604052565b9060405191826000825492612694846125ef565b808452936001811690811561270257506001146126bb575b506126b99250038361265f565b565b90506000929192526020600020906000915b8183106126e65750509060206126b992820101386126ac565b60209193508060019154838589010152019101909184926126cd565b9050602092506126b994915060ff191682840152151560051b820101386126ac565b600435906001600160a01b03821682036101d457565b602435906001600160a01b03821682036101d457565b6001600160401b038111610a7557601f01601f191660200190565b92919261277782612750565b91612785604051938461265f565b8294818452818301116101d4578281602093846000960137010152565b9080601f830112156101d4578160206127bd9335910161276b565b90565b60609060031901126101d4576004356001600160a01b03811681036101d457906024356001600160a01b03811681036101d4579060443590565b80548210156128125760005260206000200190600090565b634e487b7160e01b600052603260045260246000fd5b6001600160401b038111610a755760051b60200190565b81810292918115918404141715610a4957565b6000198114610a495760010190565b6001600160a01b039091169190821561215b576000828152600260205260408120546001600160a01b0316938391859033151580612959575b507fddf252ad1be2c89b69c2b068fc378daa952ba7f163c4a11628f55a4df523b3ef9082612924575b838152600360209081526040808320805460010190558683526002909152812080546001600160a01b0319168517905580a46001600160a01b031680830361290a57505050565b6364283d7b60e01b60005260045260245260445260646000fd5b600085815260046020526040902080546001600160a01b031916905582815260036020526040812080546000190190556128c3565b9150919250806129a2575b1561297357908484923861289a565b83908561298c57602491637e27328960e01b8252600452fd5b60449163177e802f60e01b825233600452602452fd5b5033851480156129d0575b806129645750838152600460205260408120546001600160a01b03163314612964565b5084815260056020908152604080832033845290915281205460ff166129ad565b80518210156128125760209160051b010190565b15612a0c57565b60405162461bcd60e51b815260206004820152600d60248201526c1a5b9d985b1a59081d985d5b1d609a1b6044820152606490fd5b612a4a81612a74565b506000526006602052612a606040600020612680565b6000604051612a7060208261265f565b5290565b6000818152600260205260409020546001600160a01b0316908115612a97575090565b637e27328960e01b60005260045260246000fd5b6009546001600160a01b03163303612abf57565b63118cdaa760e01b6000523360045260246000fd5b600980546001600160a01b039283166001600160a01b0319821681179092559091167f8be0079c531659141344cd1fd0a4f28419497f9722a3daafe3b4186f6b6457e0600080a3565b823b612b2b575b5050505050565b604051630a85bd0160e11b81526001600160a01b039182166004820152918116602483015260448201939093526080606482015291169160209082908190612b779060848301906125b0565b03816000865af18091600091612c17575b5090612be157503d15612bda573d612b9f81612750565b90612bad604051928361265f565b81523d6000602083013e5b80519081612bd55782633250574960e11b60005260045260246000fd5b602001fd5b6060612bb8565b6001600160e01b03191663757a42ff60e11b01612c0357503880808080612b24565b633250574960e11b60005260045260246000fd5b6020813d602011612c52575b81612c306020938361265f565b810103126120ed5751906001600160e01b0319821682036120ea575038612b88565b3d9150612c2356fea2646970667358221220fb545817652920b0e0b6d82f7463fe673242e5ca4b55335bfbbc0b36c4df6e1464736f6c634300081c0033",
  "linkReferences": {},
  "deployedLinkReferences": {}
}