{
  "_format": "hh-sol-artifact-1",
  "contractName": "TicketFactory",
  "sourceName": "contracts/ticket-factory.sol",
  "abi": [
    {
      "inputs": [
        {
          "internalType": "address",
          "name": "_vault",
          "type": "address"
        },
        {
          "internalType": "address",
          "name": "_ticketImplementation",
          "type": "address"
        }
      ],
      "stateMutability": "nonpayable",
      "type": "constructor"
    },
    {
      "inputs": [],
      "name": "FailedDeployment",
      "type": "error"
    },
    {
      "inputs": [
        {
          "internalType": "uint256",
          "name": "balance",
          "type": "uint256"
        },
        {
          "internalType": "uint256",
          "name": "needed",
          "type": "uint256"
        }
      ],
      "name": "InsufficientBalance",
      "type": "error"
    },
    {
      "inputs": [
        {
          "internalType": "address",
          "name": "owner",
          "type": "address"
        }
      ],
      "name": "OwnableInvalidOwner",
      "type": "error"
    },
    {
      "inputs": [
        {
          "internalType": "address",
          "name": "account",
          "type": "address"
        }
      ],
      "name": "OwnableUnauthorizedAccount",
      "type": "error"
    },
    {
      "anonymous": false,
      "inputs": [
        {
          "indexed": true,
          "internalType": "address",
          "name": "organizer",
          "type": "address"
        },
        {
          "indexed": false,
          "internalType": "address",
          "name": "ticketAddress",
          "type": "address"
        },
        {
          "indexed": false,
          "internalType": "string",
          "name": "eventName",
          "type": "string"
        }
      ],
      "name": "EventCreated",
      "type": "event"
    },
    {
      "anonymous": false,
      "inputs": [
        {
          "indexed": true,
          "internalType": "address",
          "name": "previousOwner",
          "type": "address"
        },
        {
          "indexed": true,
          "internalType": "address",
          "name": "newOwner",
          "type": "address"
        }
      ],
      "name": "OwnershipTransferred",
      "type": "event"
    },
    {
      "inputs": [
        {
          "internalType": "uint256",
          "name": "",
          "type": "uint256"
        }
      ],
      "name": "allEvents",
      "outputs": [
        {
          "internalType": "address",
          "name": "eventAddress",
          "type": "address"
        },
        {
          "internalType": "address",
          "name": "organizer",
          "type": "address"
        },
        {
          "internalType": "string",
          "name": "eventName",
          "type": "string"
        },
        {
          "internalType": "string",
          "name": "eventId",
          "type": "string"
        },
        {
          "internalType": "string",
          "name": "description",
          "type": "string"
        },
        {
          "internalType": "string",
          "name": "image",
          "type": "string"
        },
        {
          "internalType": "uint16",
          "name": "royaltyFee",
          "type": "uint16"
        }
      ],
      "stateMutability": "view",
      "type": "function"
    },
    {
      "inputs": [
        {
          "internalType": "address",
          "name": "_marketplace",
          "type": "address"
        }
      ],
      "name": "authorizeMarketplace",
      "outputs": [],
      "stateMutability": "nonpayable",
      "type": "function"
    },
    {
      "inputs": [
        {
          "internalType": "string",
          "name": "_eventName",
          "type": "string"
        },
        {
          "internalType": "string",
          "name": "_description",
          "type": "string"
        },
        {
          "internalType": "string",
          "name": "_image",
          "type": "string"
        },
        {
          "internalType": "string",
          "name": "_termsURI",
          "type": "string"
        },
        {
          "internalType": "uint16",
          "name": "_royaltyFee",
          "type": "uint16"
        },
        {
          "internalType": "address[]",
          "name": "_wallets",
          "type": "address[]"
        },
        {
          "internalType": "uint16[]",
          "name": "_shares",
          "type": "uint16[]"
        },
        {
          "internalType": "string[]",
          "name": "_zones",
          "type": "string[]"
        },
        {
          "internalType": "uint64[]",
          "name": "_prices",
          "type": "uint64[]"
        },
        {
          "internalType": "uint32[]",
          "name": "_maxSupplies",
          "type": "uint32[]"
        }
      ],
      "name": "createEvent",
      "outputs": [
        {
          "internalType": "address",
          "name": "",
          "type": "address"
        }
      ],
      "stateMutability": "nonpayable",
      "type": "function"
    },
    {
      "inputs": [
        {
          "internalType": "address",
          "name": "",
          "type": "address"
        }
      ],
      "name": "eventIndex",
      "outputs": [
        {
          "internalType": "uint256",
          "name": "",
          "type": "uint256"
        }
      ],
      "stateMutability": "view",
      "type": "function"
    },
    {
      "inputs": [],
      "name": "getAllEvents",
      "outputs": [
        {
          "components": [
            {
              "internalType": "address",
              "name": "eventAddress",
              "type": "address"
            },
            {
              "internalType": "address",
              "name": "organizer",
              "type": "address"
            },
            {
              "internalType": "string",
              "name": "eventName",
              "type": "string"
            },
            {
              "internalType": "string",
              "name": "eventId",
              "type": "string"
            },
            {
              "internalType": "string",
              "name": "description",
              "type": "string"
            },
            {
              "internalType": "string",
              "name": "image",
              "type": "string"
            },
            {
              "internalType": "uint16",
              "name": "royaltyFee",
              "type": "uint16"
            }
          ],
          "internalType": "struct TicketFactory.EventInfo[]",
          "name": "",
          "type": "tuple[]"
        }
      ],
      "stateMutability": "view",
      "type": "function"
    },
    {
      "inputs": [
        {
          "internalType": "address",
          "name": "eventAddr",
          "type": "address"
        }
      ],
      "name": "getEventByAddress",
      "outputs": [
        {
          "components": [
            {
              "internalType": "address",
              "name": "eventAddress",
              "type": "address"
            },
            {
              "internalType": "address",
              "name": "organizer",
              "type": "address"
            },
            {
              "internalType": "string",
              "name": "eventName",
              "type": "string"
            },
            {
              "internalType": "string",
              "name": "eventId",
              "type": "string"
            },
            {
              "internalType": "string",
              "name": "description",
              "type": "string"
            },
            {
              "internalType": "string",
              "name": "image",
              "type": "string"
            },
            {
              "internalType": "uint16",
              "name": "royaltyFee",
              "type": "uint16"
            }
          ],
          "internalType": "struct TicketFactory.EventInfo",
          "name": "",
          "type": "tuple"
        }
      ],
      "stateMutability": "view",
      "type": "function"
    },
    {
      "inputs": [
        {
          "internalType": "string",
          "name": "_eventId",
          "type": "string"
        }
      ],
      "name": "getEventById",
      "outputs": [
        {
          "components": [
            {
              "internalType": "address",
              "name": "eventAddress",
              "type": "address"
            },
            {
              "internalType": "address",
              "name": "organizer",
              "type": "address"
            },
            {
              "internalType": "string",
              "name": "eventName",
              "type": "string"
            },
            {
              "internalType": "string",
              "name": "eventId",
              "type": "string"
            },
            {
              "internalType": "string",
              "name": "description",
              "type": "string"
            },
            {
              "internalType": "string",
              "name": "image",
              "type": "string"
            },
            {
              "internalType": "uint16",
              "name": "royaltyFee",
              "type": "uint16"
            }
          ],
          "internalType": "struct TicketFactory.EventInfo",
          "name": "",
          "type": "tuple"
        }
      ],
      "stateMutability": "view",
      "type": "function"
    },
    {
      "inputs": [],
      "name": "owner",
      "outputs": [
        {
          "internalType": "address",
          "name": "",
          "type": "address"
        }
      ],
      "stateMutability": "view",
      "type": "function"
    },
    {
      "inputs": [],
      "name": "renounceOwnership",
      "outputs": [],
      "stateMutability": "nonpayable",
      "type": "function"
    },
    {
      "inputs": [],
      "name": "ticketImplementation",
      "outputs": [
        {
          "internalType": "address",
          "name": "",
          "type": "address"
        }
      ],
      "stateMutability": "view",
      "type": "function"
    },
    {
      "inputs": [
        {
          "internalType": "address",
          "name": "newOwner",
          "type": "address"
        }
      ],
      "name": "transferOwnership",
      "outputs": [],
      "stateMutability": "nonpayable",
      "type": "function"
    },
    {
      "inputs": [],
      "name": "vault",
      "outputs": [
        {
          "internalType": "contract Vault",
          "name": "",
          "type": "address"
        }
      ],
      "stateMutability": "view",
      "type": "function"
    }
  ],
  "bytecode": "0x60803461014257601f61194138819003918201601f19168301916001600160401b0383118484101761014757808492604094855283398101031261014257610052602061004b8361015d565b920161015d565b90331561012c5760008054336001600160a01b0319821681178355604051939290916001600160a01b0316907f8be0079c531659141344cd1fd0a4f28419497f9722a3daafe3b4186f6b6457e09080a36001600160a01b03169081156100ea575060018060a01b0319600154161760015560018060a01b031660018060a01b031960025416176002556040516117cf90816101728239f35b62461bcd60e51b815260206004820152601560248201527f696e76616c6964207661756c74206164647265737300000000000000000000006044820152606490fd5b631e4fbdf760e01b600052600060045260246000fd5b600080fd5b634e487b7160e01b600052604160045260246000fd5b51906001600160a01b03821682036101425756fe61032080604052600436101561001457600080fd5b60006101e0526101e0513560e01c9081633a72eeab1461124c575080633bec5cff14611174578063653f5d7c14611124578063715018a6146110c25780638da5cb5b1461109557806395759cc614611031578063c27a500d14610f4e578063ca0ad14214610ec8578063d609cab7146101b2578063d62d369b14610174578063f2fde38b146100de5763fbfa77cf146100ac57600080fd5b346100d7576101e0513660031901126100d7576001546040516001600160a01b039091168152602090f35b6101e05180fd5b346100d75760203660031901126100d7576100f7611418565b6100ff61175f565b6001600160a01b03168015610158576101e05180546001600160a01b03198116831782556001600160a01b0316907f8be0079c531659141344cd1fd0a4f28419497f9722a3daafe3b4186f6b6457e09080a36101e05180f35b631e4fbdf760e01b6101e051526101e05160045260246101e051fd5b346100d75760203660031901126100d7576001600160a01b03610195611418565b166101e051526004602052602060406101e0512054604051908152f35b346100d7576101403660031901126100d7576004356001600160401b0381116100d7576101e3903690600401611500565b6102a052610280526024356001600160401b0381116100d75761020a903690600401611500565b610240526101a0526044356001600160401b0381116100d757610231903690600401611500565b610200526101c0526064356001600160401b0381116100d757610258903690600401611500565b6102c05260843561026081905261ffff811690036100d75760a4356001600160401b0381116100d75761028f90369060040161152d565b919060c4356001600160401b0381116100d7576102b090369060040161152d565b9060e0529160e4356001600160401b0381116100d7576102d490369060040161152d565b60c052608052610104356001600160401b0381116100d7576102fa90369060040161152d565b6101205261014052610124356001600160401b0381116100d75761032290369060040161152d565b610160526101805260405160208101903360601b82526102a05161028051603483013761036460206034836102a0518101428382015203018084520182611312565b51902060606103008190526040516102e08190526103829190611312565b60406102e05152601f1961030051013660206102e05101376101e0515b60208110610e095750506002546101e08051608883901c62ffffff16763d602d80600a3d3981f3363d3d373d3d3d363d7300000017905260789190911b6001600160781b0319166e5af43d82803e903d91602b57fd5bf317602052516001600160a01b0390603790600990f016610220526102205115610df4576001546001600160a01b031661010052610220513b156100d7576104fa60209160405160a052633641e1b560e21b60a051526101a0600460a05101526104c86104ab61048e6104716101a460a051016102e0516113d7565b60031960a051820301602460a05101526102a0516102805161173e565b60031960a051820301604460a0510152610240516101a05161173e565b60031960a051820301606460a0510152610200516101c05161173e565b9033608460a051015261ffff610260511660a460a051015260031960a05183030160c460a05101526102c0519061173e565b60031960a05182030160e460a051015284815201906101e051935b808510610dc85760a051808403600319016101049091015283835260e0516101e051602085019190865b808210610d9d578360031960a05182030161012460a051015260c05181526020810190602060c05160051b82010190608051906101e0515b60c0518110610d3d5760208460031960a05182030161014460a05101526101205181520161014051906101e051915b610120518310610d145760208260031960a05182030161016460a051015261016051815201610180516101e0515b610160518110610cee57826101005161018460a05101526101e0519060a0519060a051900360a0516101e051610220515af18015610cc157610ccf575b6001546001600160a01b0316803b156100d75760405190634615d10560e11b8252610220516004830152816024816101e051936101e051905af18015610cc157610ca6575b50604051610663816112e1565b61022051815260208101338152610681366102a051610280516114ba565b91604081019283526103005181016102e05181526106a636610240516101a0516114ba565b90608083019182526106bf36610200516101c0516114ba565b9460a0840195865260c084019461ffff61026051168652600354600160401b811015610a09578060016106f59201600355611272565b959095610c8a575185546001600160a01b03199081166001600160a01b039283161787559151600187018054909316911617905551805160028501916001600160401b038211610a0957819061074b84546112a7565b601f8111610c31575b506020906001601f841114610bc8576101e05192610bbd575b50508160011b916000199060031b1c19161790555b51805160038401916001600160401b038211610a095781906107a484546112a7565b601f8111610b64575b506020906001601f841114610afb576101e05192610af0575b50508160011b916000199060031b1c19161790555b51805160048301916001600160401b038211610a095781906107fd84546112a7565b601f8111610a97575b506020906001601f841114610a2e576101e05192610a23575b50508160011b916000199060031b1c19161790555b6005810192519283516001600160401b038111610a095761085582546112a7565b601f81116109bb575b5060206001601f831114610947579080600694939261ffff96976101e0519261093c575b50508160011b916000199060031b1c19161790555b0191511661ffff19825416179055600354600019810190811161092257610220516101e05152600460205260406101e0512055604051610220518152604060208201527fa54c7891edaa21526f9ad14c69ae2fd966ac0969fcd9a990a4e006427afd382e339180610912604082016102a0516102805161173e565b0390a26020604051610220518152f35b634e487b7160e01b6101e05152601160045260246101e051fd5b015190508780610882565b601f19821695836101e05152816101e05120966101e0515b8181106109a35750966001928492600697969561ffff999a1061098a575b505050811b019055610897565b015160001960f88460031b161c1916905587808061097d565b8383015189556001909801976020938401930161095f565b826101e0515260206101e05120601f830160051c810191602084106109ff575b601f0160051c01905b8181106109f1575061085e565b6101e05181556001016109e4565b90915081906109db565b634e487b7160e01b6101e05152604160045260246101e051fd5b01519050868061081f565b6101e08051869052518281209350601f198516905b818110610a7f5750908460019594939210610a66575b505050811b019055610834565b015160001960f88460031b161c19169055868080610a59565b92936020600181928786015181550195019301610a43565b909150836101e0515260206101e05120601f840160051c81019160208510610ae6575b90601f859493920160051c01905b818110610ad55750610806565b6101e0518155849350600101610ac8565b9091508190610aba565b0151905087806107c6565b6101e08051869052518281209350601f198516905b818110610b4c5750908460019594939210610b33575b505050811b0190556107db565b015160001960f88460031b161c19169055878080610b26565b92936020600181928786015181550195019301610b10565b909150836101e0515260206101e05120601f840160051c81019160208510610bb3575b90601f859493920160051c01905b818110610ba257506107ad565b6101e0518155849350600101610b95565b9091508190610b87565b01519050888061076d565b6101e08051869052518281209350601f198516905b818110610c195750908460019594939210610c00575b505050811b019055610782565b015160001960f88460031b161c19169055888080610bf3565b92936020600181928786015181550195019301610bdd565b909150836101e0515260206101e05120601f840160051c81019160208510610c80575b90601f859493920160051c01905b818110610c6f5750610754565b6101e0518155849350600101610c62565b9091508190610c54565b634e487b7160e01b6101e051526101e05160045260246101e051fd5b6101e051610cb391611312565b6101e0516100d75780610656565b6040513d6101e051823e3d90fd5b610cde6101e05160a051611312565b6101e05115610611576101e05180fd5b909182359063ffffffff82168092036100d75760208160019382935201930191016105d4565b908135906001600160401b0382168092036100d7576020816001938293520192019201916105a6565b909192601f198382030185528335601e196080513603018112156100d7576080510190602082359201916001600160401b0381116100d75780360383136100d757610d8e602092839260019561173e565b95019501910193919093610577565b9091926101e0515083359061ffff82168092036100d75760208160019382935201940192019061053f565b909182356001600160a01b03811691908290036100d75760208160019382935201930194019390610515565b63b06ebf3d60e01b6101e0515260046101e051fd5b601082821a60041c600f161015610eae57808060011b0460021481151715610922576102e0516f181899199a1a9b1b9c1cb0b131b232b360811b83831a60041c600f161a90610e5d90600184901b90611788565b536010600f83831a161015610eae57600181811b810110610922576001906f181899199a1a9b1b9c1cb0b131b232b360811b600f84831a161a610ea782841b84016102e051611788565b530161039f565b634e487b7160e01b6101e05152603260045260246101e051fd5b346100d75760203660031901126100d757610ee1611418565b610ee961175f565b6001546001600160a01b0316803b156100d757604051634615d10560e11b81526001600160a01b0390921660048301526101e051908290602490829084905af18015610cc157610f3b575b6101e05180f35b6101e051610f4891611312565b80610f34565b346100d7576101e0513660031901126100d7576003546001600160401b038111610a095760405190610f8660208260051b0183611312565b80825260208201908160036101e0515260206101e051206101e051915b83831061101357848660405191829160208301906020845251809152604083019060408160051b85010192916101e051905b828210610fe457505050500390f35b919360019193955060206110038192603f198a82030186528851611433565b9601920192018594939192610fd5565b6007602060019261102385611597565b815201920192019190610fa3565b346100d75760203660031901126100d7576004356001600160401b0381116100d757366023820112156100d75761107d6110786110919236906024816004013591016114ba565b611617565b604051918291602083526020830190611433565b0390f35b346100d7576101e0513660031901126100d7576101e051546040516001600160a01b039091168152602090f35b346100d7576101e0513660031901126100d7576110dd61175f565b6101e05180546001600160a01b0319811682556001600160a01b03167f8be0079c531659141344cd1fd0a4f28419497f9722a3daafe3b4186f6b6457e08280a36101e05180f35b346100d75760203660031901126100d75761113d611418565b61114561155d565b5060018060a01b03166101e05152600460205261109161107d61116e60406101e0512054611272565b50611597565b346100d75760203660031901126100d7576004356003548110156100d75761119b90611272565b50805460018201546001600160a01b03908116929116906112426111c160028301611333565b916112346111d160038301611333565b6112266111e060048501611333565b9161121861ffff60066111f560058901611333565b97015416976040519a8b9a8b5260208b015260e060408b015260e08a01906113d7565b9088820360608a01526113d7565b9086820360808801526113d7565b9084820360a08601526113d7565b9060c08301520390f35b346100d7576101e0513660031901126100d7576002546001600160a01b03168152602090f35b6003548110156112915760036000526007602060002091020190600090565b634e487b7160e01b600052603260045260246000fd5b90600182811c921680156112d7575b60208310146112c157565b634e487b7160e01b600052602260045260246000fd5b91607f16916112b6565b60e081019081106001600160401b038211176112fc57604052565b634e487b7160e01b600052604160045260246000fd5b90601f801991011681019081106001600160401b038211176112fc57604052565b9060405191826000825492611347846112a7565b80845293600181169081156113b5575060011461136e575b5061136c92500383611312565b565b90506000929192526020600020906000915b81831061139957505090602061136c928201013861135f565b6020919350806001915483858901015201910190918492611380565b90506020925061136c94915060ff191682840152151560051b8201013861135f565b919082519283825260005b848110611403575050826000602080949584010152601f8019910116010190565b806020809284010151828286010152016113e2565b600435906001600160a01b038216820361142e57565b600080fd5b9060018060a01b03825116815260018060a01b03602083015116602082015260c061ffff816114b061149e61148c61147a604089015160e060408a015260e08901906113d7565b606089015188820360608a01526113d7565b608088015187820360808901526113d7565b60a087015186820360a08801526113d7565b9401511691015290565b9291926001600160401b0382116112fc57604051916114e3601f8201601f191660200184611312565b82948184528183011161142e578281602093846000960137010152565b9181601f8401121561142e578235916001600160401b03831161142e576020838186019501011161142e57565b9181601f8401121561142e578235916001600160401b03831161142e576020808501948460051b01011161142e57565b6040519061156a826112e1565b600060c0838281528260208201526060604082015260608082015260606080820152606060a08201520152565b906040516115a4816112e1565b82546001600160a01b039081168252600184015416602082015291829060c09061ffff906006906115d760028201611333565b60408601526115e860038201611333565b60608601526115f960048201611333565b608086015261160a60058201611333565b60a0860152015416910152565b61161f61155d565b506003549060005b8281106116655760405162461bcd60e51b815260206004820152600f60248201526e115d995b9d081b9bdd08199bdd5b99608a1b6044820152606490fd5b600361167082611272565b500160405160009181815493611685856112a7565b92838352602083019560018116908160001461171f57506001146116da575b506116b192500382611312565b51902082516020840120146116c857600101611627565b6116d7925061116e9150611272565b90565b915050600052816020600020916000925b81841061170357505060206116b192820101386116a4565b60209192508060019154838688010152019201919083916116eb565b60ff19168752506116b193151560051b830160200191503890506116a4565b908060209392818452848401376000828201840152601f01601f1916010190565b6000546001600160a01b0316330361177357565b63118cdaa760e01b6000523360045260246000fd5b90815181101561129157016020019056fea2646970667358221220dc5edca496bfd471deba5b3e13a88dcc4f606da0e25dd5355f57125b4cbfe2c964736f6c634300081c0033",
  "linkReferences": {},
  "deployedLinkReferences": {}
}