{
  "_format": "hh-sol-artifact-1",
  "contractName": "TicketFactory",
  "sourceName": "contracts/ticket-factory.sol",
  "abi": [
    {
      "inputs": [
        {
          "internalType": "address",
          "name": "_vault",
          "type": "address"
        },
        {
          "internalType": "address",
          "name": "_ticketImplementation",
          "type": "address"
        }
      ],
      "stateMutability": "nonpayable",
      "type": "constructor"
    },
    {
      "inputs": [],
      "name": "FailedDeployment",
      "type": "error"
    },
    {
      "inputs": [
        {
          "internalType": "uint256",
          "name": "balance",
          "type": "uint256"
        },
        {
          "internalType": "uint256",
          "name": "needed",
          "type": "uint256"
        }
      ],
      "name": "InsufficientBalance",
      "type": "error"
    },
    {
      "inputs": [
        {
          "internalType": "address",
          "name": "owner",
          "type": "address"
        }
      ],
      "name": "OwnableInvalidOwner",
      "type": "error"
    },
    {
      "inputs": [
        {
          "internalType": "address",
          "name": "account",
          "type": "address"
        }
      ],
      "name": "OwnableUnauthorizedAccount",
      "type": "error"
    },
    {
      "anonymous": false,
      "inputs": [
        {
          "indexed": true,
          "internalType": "address",
          "name": "organizer",
          "type": "address"
        },
        {
          "indexed": false,
          "internalType": "address",
          "name": "ticketAddress",
          "type": "address"
        },
        {
          "indexed": false,
          "internalType": "string",
          "name": "eventName",
          "type": "string"
        }
      ],
      "name": "EventCreated",
      "type": "event"
    },
    {
      "anonymous": false,
      "inputs": [
        {
          "indexed": true,
          "internalType": "address",
          "name": "previousOwner",
          "type": "address"
        },
        {
          "indexed": true,
          "internalType": "address",
          "name": "newOwner",
          "type": "address"
        }
      ],
      "name": "OwnershipTransferred",
      "type": "event"
    },
    {
      "inputs": [
        {
          "internalType": "uint256",
          "name": "",
          "type": "uint256"
        }
      ],
      "name": "allEvents",
      "outputs": [
        {
          "internalType": "address",
          "name": "ticketAddress",
          "type": "address"
        },
        {
          "internalType": "address",
          "name": "organizer",
          "type": "address"
        },
        {
          "internalType": "string",
          "name": "eventName",
          "type": "string"
        },
        {
          "internalType": "string",
          "name": "eventId",
          "type": "string"
        },
        {
          "internalType": "string",
          "name": "description",
          "type": "string"
        },
        {
          "internalType": "string",
          "name": "image",
          "type": "string"
        },
        {
          "internalType": "uint16",
          "name": "royaltyFee",
          "type": "uint16"
        }
      ],
      "stateMutability": "view",
      "type": "function"
    },
    {
      "inputs": [
        {
          "internalType": "string",
          "name": "_eventId",
          "type": "string"
        },
        {
          "internalType": "string",
          "name": "_eventName",
          "type": "string"
        },
        {
          "internalType": "string",
          "name": "_description",
          "type": "string"
        },
        {
          "internalType": "string",
          "name": "_image",
          "type": "string"
        },
        {
          "internalType": "uint16",
          "name": "_royaltyFee",
          "type": "uint16"
        },
        {
          "internalType": "address[]",
          "name": "_wallets",
          "type": "address[]"
        },
        {
          "internalType": "uint16[]",
          "name": "_shares",
          "type": "uint16[]"
        },
        {
          "internalType": "string[]",
          "name": "_zones",
          "type": "string[]"
        },
        {
          "internalType": "uint64[]",
          "name": "_prices",
          "type": "uint64[]"
        },
        {
          "internalType": "uint32[]",
          "name": "_maxSupplies",
          "type": "uint32[]"
        }
      ],
      "name": "createEvent",
      "outputs": [
        {
          "internalType": "address",
          "name": "",
          "type": "address"
        }
      ],
      "stateMutability": "nonpayable",
      "type": "function"
    },
    {
      "inputs": [
        {
          "internalType": "address",
          "name": "",
          "type": "address"
        }
      ],
      "name": "eventIndex",
      "outputs": [
        {
          "internalType": "uint256",
          "name": "",
          "type": "uint256"
        }
      ],
      "stateMutability": "view",
      "type": "function"
    },
    {
      "inputs": [],
      "name": "getAllEvents",
      "outputs": [
        {
          "components": [
            {
              "internalType": "address",
              "name": "ticketAddress",
              "type": "address"
            },
            {
              "internalType": "address",
              "name": "organizer",
              "type": "address"
            },
            {
              "internalType": "string",
              "name": "eventName",
              "type": "string"
            },
            {
              "internalType": "string",
              "name": "eventId",
              "type": "string"
            },
            {
              "internalType": "string",
              "name": "description",
              "type": "string"
            },
            {
              "internalType": "string",
              "name": "image",
              "type": "string"
            },
            {
              "internalType": "uint16",
              "name": "royaltyFee",
              "type": "uint16"
            }
          ],
          "internalType": "struct TicketFactory.EventInfo[]",
          "name": "",
          "type": "tuple[]"
        }
      ],
      "stateMutability": "view",
      "type": "function"
    },
    {
      "inputs": [],
      "name": "owner",
      "outputs": [
        {
          "internalType": "address",
          "name": "",
          "type": "address"
        }
      ],
      "stateMutability": "view",
      "type": "function"
    },
    {
      "inputs": [],
      "name": "renounceOwnership",
      "outputs": [],
      "stateMutability": "nonpayable",
      "type": "function"
    },
    {
      "inputs": [],
      "name": "ticketImplementation",
      "outputs": [
        {
          "internalType": "address",
          "name": "",
          "type": "address"
        }
      ],
      "stateMutability": "view",
      "type": "function"
    },
    {
      "inputs": [
        {
          "internalType": "address",
          "name": "newOwner",
          "type": "address"
        }
      ],
      "name": "transferOwnership",
      "outputs": [],
      "stateMutability": "nonpayable",
      "type": "function"
    },
    {
      "inputs": [],
      "name": "vault",
      "outputs": [
        {
          "internalType": "contract Vault",
          "name": "",
          "type": "address"
        }
      ],
      "stateMutability": "view",
      "type": "function"
    }
  ],
  "bytecode": "0x60803461014257601f6114a538819003918201601f19168301916001600160401b0383118484101761014757808492604094855283398101031261014257610052602061004b8361015d565b920161015d565b90331561012c5760008054336001600160a01b0319821681178355604051939290916001600160a01b0316907f8be0079c531659141344cd1fd0a4f28419497f9722a3daafe3b4186f6b6457e09080a36001600160a01b03169081156100ea575060018060a01b0319600154161760015560018060a01b031660018060a01b0319600254161760025560405161133390816101728239f35b62461bcd60e51b815260206004820152601560248201527f696e76616c6964207661756c74206164647265737300000000000000000000006044820152606490fd5b631e4fbdf760e01b600052600060045260246000fd5b600080fd5b634e487b7160e01b600052604160045260246000fd5b51906001600160a01b03821682036101425756fe6102e080604052600436101561001457600080fd5b600061022052610220513560e01c9081633a72eeab14611029575080633bec5cff14610f51578063715018a614610eef5780638da5cb5b14610ec2578063c27a500d14610cfa578063d609cab714610191578063d62d369b14610153578063f2fde38b146100bd5763fbfa77cf1461008b57600080fd5b346100b657610220513660031901126100b6576001546040516001600160a01b039091168152602090f35b6102205180fd5b346100b65760203660031901126100b6576100d6611257565b6100de6112d4565b6001600160a01b03168015610137576102205180546001600160a01b03198116831782556001600160a01b0316907f8be0079c531659141344cd1fd0a4f28419497f9722a3daafe3b4186f6b6457e09080a36102205180f35b631e4fbdf760e01b610220515261022051600452602461022051fd5b346100b65760203660031901126100b6576001600160a01b03610174611257565b166102205152600460205260206040610220512054604051908152f35b346100b6576101403660031901126100b6576004356001600160401b0381116100b6576101c29036906004016111f5565b6101c052610160526024356001600160401b0381116100b6576101e99036906004016111f5565b6102a052610280526044356001600160401b0381116100b6576102109036906004016111f5565b6101e052610180526064356001600160401b0381116100b6576102379036906004016111f5565b610200526101a05260843561024081905261ffff811690036100b65760a4356001600160401b0381116100b657610272903690600401611227565b6102c05260c4356001600160401b0381116100b657610295903690600401611227565b9060a0529060e4356001600160401b0381116100b6576102b9903690600401611227565b9091610104356001600160401b0381116100b6576102db903690600401611227565b6101005260e052610124356001600160401b0381116100b657610302903690600401611227565b61012052610140526002546102208051608883901c62ffffff16763d602d80600a3d3981f3363d3d373d3d3d363d7300000017905260789190911b6001600160781b0319166e5af43d82803e903d91602b57fd5bf317602052516001600160a01b0390603790600990f016610260526102605115610ce5576001546001600160a01b031660c052610260513b156100b657828491604051608052631b3df9d360e31b6080515261018060046080510152602061042b61040e6103f16103d4610184608051016101c0516101605161126d565b600319608051820301602460805101526102a0516102805161126d565b600319608051820301604460805101526101e0516101805161126d565b60031960805182030160646080510152610200516101a05161126d565b336084608051015261ffff610240511660a4608051015260031960805182030160c460805101526102c05181520190610220515b6102c0518110610cb357505060209060031960805182030160e46080510152838152019160a0519061022051905b808210610c83575050506003196080518303016101046080510152828252602082019260208160051b840101928261022051915b838310610c235760208660031960805182030161012460805101526101005181520160e0519061022051915b610100518310610bfa5760208260031960805182030161014460805101526101205181520161014051610220515b610120518110610bd4578260c0516101646080510152610220519060805190608051900360805161022051610260515af18015610bc657610bb2575b604051610563816110be565b61026051815260208101338152610581366102a0516102805161128e565b916040810192835261059a366101c0516101605161128e565b606082019081526105b2366101e0516101805161128e565b90608083019182526105cb36610200516101a05161128e565b9460a0840195865260c084019461ffff61024051168652600354600160401b81101561091557806001610601920160035561104f565b959095610b96575185546001600160a01b03199081166001600160a01b039283161787559151600187018054909316911617905551805160028501916001600160401b0382116109155781906106578454611084565b601f8111610b3d575b506020906001601f841114610ad4576102205192610ac9575b50508160011b916000199060031b1c19161790555b51805160038401916001600160401b0382116109155781906106b08454611084565b601f8111610a70575b506020906001601f841114610a075761022051926109fc575b50508160011b916000199060031b1c19161790555b51805160048301916001600160401b0382116109155781906107098454611084565b601f81116109a3575b506020906001601f84111461093a57610220519261092f575b50508160011b916000199060031b1c19161790555b6005810192519283516001600160401b038111610915576107618254611084565b601f81116108c7575b5060206001601f831114610853579080600694939261ffff96976102205192610848575b50508160011b916000199060031b1c19161790555b0191511661ffff19825416179055600354600019810190811161082e5761026051610220515260046020526040610220512055604051610260518152604060208201527fa54c7891edaa21526f9ad14c69ae2fd966ac0969fcd9a990a4e006427afd382e33918061081e604082016102a0516102805161126d565b0390a26020604051610260518152f35b634e487b7160e01b61022051526011600452602461022051fd5b01519050878061078e565b601f1982169583610220515281610220512096610220515b8181106108af5750966001928492600697969561ffff999a10610896575b505050811b0190556107a3565b015160001960f88460031b161c19169055878080610889565b8383015189556001909801976020938401930161086b565b82610220515260206102205120601f830160051c8101916020841061090b575b601f0160051c01905b8181106108fd575061076a565b6102205181556001016108f0565b90915081906108e7565b634e487b7160e01b61022051526041600452602461022051fd5b01519050868061072b565b6102208051869052518281209350601f198516905b81811061098b5750908460019594939210610972575b505050811b019055610740565b015160001960f88460031b161c19169055868080610965565b9293602060018192878601518155019501930161094f565b90915083610220515260206102205120601f840160051c810191602085106109f2575b90601f859493920160051c01905b8181106109e15750610712565b6102205181558493506001016109d4565b90915081906109c6565b0151905087806106d2565b6102208051869052518281209350601f198516905b818110610a585750908460019594939210610a3f575b505050811b0190556106e7565b015160001960f88460031b161c19169055878080610a32565b92936020600181928786015181550195019301610a1c565b90915083610220515260206102205120601f840160051c81019160208510610abf575b90601f859493920160051c01905b818110610aae57506106b9565b610220518155849350600101610aa1565b9091508190610a93565b015190508880610679565b6102208051869052518281209350601f198516905b818110610b255750908460019594939210610b0c575b505050811b01905561068e565b015160001960f88460031b161c19169055888080610aff565b92936020600181928786015181550195019301610ae9565b90915083610220515260206102205120601f840160051c81019160208510610b8c575b90601f859493920160051c01905b818110610b7b5750610660565b610220518155849350600101610b6e565b9091508190610b60565b634e487b7160e01b610220515261022051600452602461022051fd5b610bc1610220516080516110ef565b610557565b6040513d61022051823e3d90fd5b909182359063ffffffff82168092036100b657602081600193829352019301910161051b565b908135906001600160401b0382168092036100b6576020816001938293520192019201916104ed565b9091929394601f198282030187528535601e19843603018112156100b657830190602082359201916001600160401b0381116100b65780360383136100b657610c72602092839260019561126d565b9701970193019190959392956104c1565b9091949293610220515085359061ffff82168092036100b65790815292946020938401949301916001019061048d565b93949293909182356001600160a01b03811691908290036100b65760208160019382935201930191019493929461045f565b63b06ebf3d60e01b6102205152600461022051fd5b346100b657610220513660031901126100b6576003546001600160401b0381116109155760405190610d3260208260051b01836110ef565b808252602082019081600361022051526020610220512061022051915b838310610e3757848660405191829160208301906020845251809152604083019060408160051b850101929161022051905b828210610d9057505050500390f35b919360019193955060208091603f19898203018552875190848060a01b038251168152848060a01b0383830151168382015260c061ffff81610e20610e0e610dfc610dea604089015160e060408a015260e08901906111b4565b606089015188820360608a01526111b4565b608088015187820360808901526111b4565b60a087015186820360a08801526111b4565b940151169101529601920192018594939192610d81565b60076020600192604051610e4a816110be565b855460a086901b8690039081168252868601541683820152610e6e60028701611110565b6040820152610e7f60038701611110565b6060820152610e9060048701611110565b6080820152610ea160058701611110565b60a082015261ffff60068701541660c0820152815201920192019190610d4f565b346100b657610220513660031901126100b65761022051546040516001600160a01b039091168152602090f35b346100b657610220513660031901126100b657610f0a6112d4565b6102205180546001600160a01b0319811682556001600160a01b03167f8be0079c531659141344cd1fd0a4f28419497f9722a3daafe3b4186f6b6457e08280a36102205180f35b346100b65760203660031901126100b6576004356003548110156100b657610f789061104f565b50805460018201546001600160a01b039081169291169061101f610f9e60028301611110565b91611011610fae60038301611110565b611003610fbd60048501611110565b91610ff561ffff6006610fd260058901611110565b97015416976040519a8b9a8b5260208b015260e060408b015260e08a01906111b4565b9088820360608a01526111b4565b9086820360808801526111b4565b9084820360a08601526111b4565b9060c08301520390f35b346100b657610220513660031901126100b6576002546001600160a01b03168152602090f35b60035481101561106e5760036000526007602060002091020190600090565b634e487b7160e01b600052603260045260246000fd5b90600182811c921680156110b4575b602083101461109e57565b634e487b7160e01b600052602260045260246000fd5b91607f1691611093565b60e081019081106001600160401b038211176110d957604052565b634e487b7160e01b600052604160045260246000fd5b90601f801991011681019081106001600160401b038211176110d957604052565b906040519182600082549261112484611084565b8084529360018116908115611192575060011461114b575b50611149925003836110ef565b565b90506000929192526020600020906000915b818310611176575050906020611149928201013861113c565b602091935080600191548385890101520191019091849261115d565b90506020925061114994915060ff191682840152151560051b8201013861113c565b919082519283825260005b8481106111e0575050826000602080949584010152601f8019910116010190565b806020809284010151828286010152016111bf565b9181601f84011215611222578235916001600160401b038311611222576020838186019501011161122257565b600080fd5b9181601f84011215611222578235916001600160401b038311611222576020808501948460051b01011161122257565b600435906001600160a01b038216820361122257565b908060209392818452848401376000828201840152601f01601f1916010190565b9291926001600160401b0382116110d957604051916112b7601f8201601f1916602001846110ef565b829481845281830111611222578281602093846000960137010152565b6000546001600160a01b031633036112e857565b63118cdaa760e01b6000523360045260246000fdfea26469706673582212204f52f18052c08a90fa1f39712f7f93c75db1860da8290a88bb83ccdd36f3ae3964736f6c634300081c0033",
  "linkReferences": {},
  "deployedLinkReferences": {}
}