{
  "_format": "hh-sol-artifact-1",
  "contractName": "TicketImplementation",
  "sourceName": "contracts/ticket-implementation.sol",
  "abi": [
    {
      "inputs": [],
      "stateMutability": "nonpayable",
      "type": "constructor"
    },
    {
      "inputs": [
        {
          "internalType": "uint256",
          "name": "numerator",
          "type": "uint256"
        },
        {
          "internalType": "uint256",
          "name": "denominator",
          "type": "uint256"
        }
      ],
      "name": "ERC2981InvalidDefaultRoyalty",
      "type": "error"
    },
    {
      "inputs": [
        {
          "internalType": "address",
          "name": "receiver",
          "type": "address"
        }
      ],
      "name": "ERC2981InvalidDefaultRoyaltyReceiver",
      "type": "error"
    },
    {
      "inputs": [
        {
          "internalType": "uint256",
          "name": "tokenId",
          "type": "uint256"
        },
        {
          "internalType": "uint256",
          "name": "numerator",
          "type": "uint256"
        },
        {
          "internalType": "uint256",
          "name": "denominator",
          "type": "uint256"
        }
      ],
      "name": "ERC2981InvalidTokenRoyalty",
      "type": "error"
    },
    {
      "inputs": [
        {
          "internalType": "uint256",
          "name": "tokenId",
          "type": "uint256"
        },
        {
          "internalType": "address",
          "name": "receiver",
          "type": "address"
        }
      ],
      "name": "ERC2981InvalidTokenRoyaltyReceiver",
      "type": "error"
    },
    {
      "inputs": [
        {
          "internalType": "address",
          "name": "sender",
          "type": "address"
        },
        {
          "internalType": "uint256",
          "name": "tokenId",
          "type": "uint256"
        },
        {
          "internalType": "address",
          "name": "owner",
          "type": "address"
        }
      ],
      "name": "ERC721IncorrectOwner",
      "type": "error"
    },
    {
      "inputs": [
        {
          "internalType": "address",
          "name": "operator",
          "type": "address"
        },
        {
          "internalType": "uint256",
          "name": "tokenId",
          "type": "uint256"
        }
      ],
      "name": "ERC721InsufficientApproval",
      "type": "error"
    },
    {
      "inputs": [
        {
          "internalType": "address",
          "name": "approver",
          "type": "address"
        }
      ],
      "name": "ERC721InvalidApprover",
      "type": "error"
    },
    {
      "inputs": [
        {
          "internalType": "address",
          "name": "operator",
          "type": "address"
        }
      ],
      "name": "ERC721InvalidOperator",
      "type": "error"
    },
    {
      "inputs": [
        {
          "internalType": "address",
          "name": "owner",
          "type": "address"
        }
      ],
      "name": "ERC721InvalidOwner",
      "type": "error"
    },
    {
      "inputs": [
        {
          "internalType": "address",
          "name": "receiver",
          "type": "address"
        }
      ],
      "name": "ERC721InvalidReceiver",
      "type": "error"
    },
    {
      "inputs": [
        {
          "internalType": "address",
          "name": "sender",
          "type": "address"
        }
      ],
      "name": "ERC721InvalidSender",
      "type": "error"
    },
    {
      "inputs": [
        {
          "internalType": "uint256",
          "name": "tokenId",
          "type": "uint256"
        }
      ],
      "name": "ERC721NonexistentToken",
      "type": "error"
    },
    {
      "inputs": [
        {
          "internalType": "address",
          "name": "owner",
          "type": "address"
        }
      ],
      "name": "OwnableInvalidOwner",
      "type": "error"
    },
    {
      "inputs": [
        {
          "internalType": "address",
          "name": "account",
          "type": "address"
        }
      ],
      "name": "OwnableUnauthorizedAccount",
      "type": "error"
    },
    {
      "anonymous": false,
      "inputs": [
        {
          "indexed": true,
          "internalType": "address",
          "name": "owner",
          "type": "address"
        },
        {
          "indexed": true,
          "internalType": "address",
          "name": "approved",
          "type": "address"
        },
        {
          "indexed": true,
          "internalType": "uint256",
          "name": "tokenId",
          "type": "uint256"
        }
      ],
      "name": "Approval",
      "type": "event"
    },
    {
      "anonymous": false,
      "inputs": [
        {
          "indexed": true,
          "internalType": "address",
          "name": "owner",
          "type": "address"
        },
        {
          "indexed": true,
          "internalType": "address",
          "name": "operator",
          "type": "address"
        },
        {
          "indexed": false,
          "internalType": "bool",
          "name": "approved",
          "type": "bool"
        }
      ],
      "name": "ApprovalForAll",
      "type": "event"
    },
    {
      "anonymous": false,
      "inputs": [
        {
          "indexed": false,
          "internalType": "uint256",
          "name": "_fromTokenId",
          "type": "uint256"
        },
        {
          "indexed": false,
          "internalType": "uint256",
          "name": "_toTokenId",
          "type": "uint256"
        }
      ],
      "name": "BatchMetadataUpdate",
      "type": "event"
    },
    {
      "anonymous": false,
      "inputs": [
        {
          "indexed": false,
          "internalType": "string",
          "name": "eventId",
          "type": "string"
        },
        {
          "indexed": false,
          "internalType": "string",
          "name": "eventName",
          "type": "string"
        }
      ],
      "name": "Initialized",
      "type": "event"
    },
    {
      "anonymous": false,
      "inputs": [
        {
          "indexed": false,
          "internalType": "uint256",
          "name": "_tokenId",
          "type": "uint256"
        }
      ],
      "name": "MetadataUpdate",
      "type": "event"
    },
    {
      "anonymous": false,
      "inputs": [
        {
          "indexed": true,
          "internalType": "address",
          "name": "previousOwner",
          "type": "address"
        },
        {
          "indexed": true,
          "internalType": "address",
          "name": "newOwner",
          "type": "address"
        }
      ],
      "name": "OwnershipTransferred",
      "type": "event"
    },
    {
      "anonymous": false,
      "inputs": [
        {
          "indexed": true,
          "internalType": "address",
          "name": "buyer",
          "type": "address"
        },
        {
          "indexed": true,
          "internalType": "uint256",
          "name": "tokenId",
          "type": "uint256"
        },
        {
          "indexed": false,
          "internalType": "uint256",
          "name": "price",
          "type": "uint256"
        }
      ],
      "name": "TicketPurchased",
      "type": "event"
    },
    {
      "anonymous": false,
      "inputs": [
        {
          "indexed": true,
          "internalType": "address",
          "name": "from",
          "type": "address"
        },
        {
          "indexed": true,
          "internalType": "address",
          "name": "to",
          "type": "address"
        },
        {
          "indexed": true,
          "internalType": "uint256",
          "name": "tokenId",
          "type": "uint256"
        }
      ],
      "name": "Transfer",
      "type": "event"
    },
    {
      "inputs": [],
      "name": "MAX_ROYALTY_FEE",
      "outputs": [
        {
          "internalType": "uint96",
          "name": "",
          "type": "uint96"
        }
      ],
      "stateMutability": "view",
      "type": "function"
    },
    {
      "inputs": [
        {
          "internalType": "address",
          "name": "to",
          "type": "address"
        },
        {
          "internalType": "uint256",
          "name": "tokenId",
          "type": "uint256"
        }
      ],
      "name": "approve",
      "outputs": [],
      "stateMutability": "nonpayable",
      "type": "function"
    },
    {
      "inputs": [
        {
          "internalType": "address",
          "name": "owner",
          "type": "address"
        }
      ],
      "name": "balanceOf",
      "outputs": [
        {
          "internalType": "uint256",
          "name": "",
          "type": "uint256"
        }
      ],
      "stateMutability": "view",
      "type": "function"
    },
    {
      "inputs": [
        {
          "internalType": "uint256",
          "name": "zoneIndex",
          "type": "uint256"
        },
        {
          "internalType": "uint256",
          "name": "quantity",
          "type": "uint256"
        },
        {
          "internalType": "string",
          "name": "tokenURI_",
          "type": "string"
        }
      ],
      "name": "buyTicket",
      "outputs": [],
      "stateMutability": "payable",
      "type": "function"
    },
    {
      "inputs": [],
      "name": "description",
      "outputs": [
        {
          "internalType": "string",
          "name": "",
          "type": "string"
        }
      ],
      "stateMutability": "view",
      "type": "function"
    },
    {
      "inputs": [],
      "name": "eventId",
      "outputs": [
        {
          "internalType": "string",
          "name": "",
          "type": "string"
        }
      ],
      "stateMutability": "view",
      "type": "function"
    },
    {
      "inputs": [],
      "name": "eventName",
      "outputs": [
        {
          "internalType": "string",
          "name": "",
          "type": "string"
        }
      ],
      "stateMutability": "view",
      "type": "function"
    },
    {
      "inputs": [
        {
          "internalType": "uint256",
          "name": "tokenId",
          "type": "uint256"
        }
      ],
      "name": "getApproved",
      "outputs": [
        {
          "internalType": "address",
          "name": "",
          "type": "address"
        }
      ],
      "stateMutability": "view",
      "type": "function"
    },
    {
      "inputs": [],
      "name": "getEventZones",
      "outputs": [
        {
          "components": [
            {
              "internalType": "string",
              "name": "name",
              "type": "string"
            },
            {
              "internalType": "uint256",
              "name": "price",
              "type": "uint256"
            },
            {
              "internalType": "uint256",
              "name": "maxSupply",
              "type": "uint256"
            },
            {
              "internalType": "uint256",
              "name": "totalMinted",
              "type": "uint256"
            }
          ],
          "internalType": "struct TicketImplementation.Zone[]",
          "name": "",
          "type": "tuple[]"
        }
      ],
      "stateMutability": "view",
      "type": "function"
    },
    {
      "inputs": [],
      "name": "getPayoutCount",
      "outputs": [
        {
          "internalType": "uint256",
          "name": "",
          "type": "uint256"
        }
      ],
      "stateMutability": "view",
      "type": "function"
    },
    {
      "inputs": [
        {
          "internalType": "uint256",
          "name": "index",
          "type": "uint256"
        }
      ],
      "name": "getPayoutInfo",
      "outputs": [
        {
          "internalType": "address",
          "name": "",
          "type": "address"
        },
        {
          "internalType": "uint96",
          "name": "",
          "type": "uint96"
        }
      ],
      "stateMutability": "view",
      "type": "function"
    },
    {
      "inputs": [],
      "name": "image",
      "outputs": [
        {
          "internalType": "string",
          "name": "",
          "type": "string"
        }
      ],
      "stateMutability": "view",
      "type": "function"
    },
    {
      "inputs": [
        {
          "internalType": "string",
          "name": "_eventId",
          "type": "string"
        },
        {
          "internalType": "string",
          "name": "_eventName",
          "type": "string"
        },
        {
          "internalType": "string",
          "name": "_description",
          "type": "string"
        },
        {
          "internalType": "string",
          "name": "_image",
          "type": "string"
        },
        {
          "internalType": "address",
          "name": "_organizer",
          "type": "address"
        },
        {
          "internalType": "uint96",
          "name": "_royaltyFee",
          "type": "uint96"
        },
        {
          "internalType": "string",
          "name": "_termsURI",
          "type": "string"
        },
        {
          "internalType": "address[]",
          "name": "_wallets",
          "type": "address[]"
        },
        {
          "internalType": "uint16[]",
          "name": "_shares",
          "type": "uint16[]"
        },
        {
          "internalType": "string[]",
          "name": "_zones",
          "type": "string[]"
        },
        {
          "internalType": "uint64[]",
          "name": "_prices",
          "type": "uint64[]"
        },
        {
          "internalType": "uint32[]",
          "name": "_maxSupplies",
          "type": "uint32[]"
        },
        {
          "internalType": "address",
          "name": "_vault",
          "type": "address"
        }
      ],
      "name": "initialize",
      "outputs": [],
      "stateMutability": "nonpayable",
      "type": "function"
    },
    {
      "inputs": [
        {
          "internalType": "address",
          "name": "owner",
          "type": "address"
        },
        {
          "internalType": "address",
          "name": "operator",
          "type": "address"
        }
      ],
      "name": "isApprovedForAll",
      "outputs": [
        {
          "internalType": "bool",
          "name": "",
          "type": "bool"
        }
      ],
      "stateMutability": "view",
      "type": "function"
    },
    {
      "inputs": [],
      "name": "name",
      "outputs": [
        {
          "internalType": "string",
          "name": "",
          "type": "string"
        }
      ],
      "stateMutability": "view",
      "type": "function"
    },
    {
      "inputs": [],
      "name": "owner",
      "outputs": [
        {
          "internalType": "address",
          "name": "",
          "type": "address"
        }
      ],
      "stateMutability": "view",
      "type": "function"
    },
    {
      "inputs": [
        {
          "internalType": "uint256",
          "name": "tokenId",
          "type": "uint256"
        }
      ],
      "name": "ownerOf",
      "outputs": [
        {
          "internalType": "address",
          "name": "",
          "type": "address"
        }
      ],
      "stateMutability": "view",
      "type": "function"
    },
    {
      "inputs": [
        {
          "internalType": "uint256",
          "name": "",
          "type": "uint256"
        }
      ],
      "name": "payouts",
      "outputs": [
        {
          "internalType": "address",
          "name": "wallet",
          "type": "address"
        },
        {
          "internalType": "uint96",
          "name": "share",
          "type": "uint96"
        }
      ],
      "stateMutability": "view",
      "type": "function"
    },
    {
      "inputs": [],
      "name": "renounceOwnership",
      "outputs": [],
      "stateMutability": "nonpayable",
      "type": "function"
    },
    {
      "inputs": [
        {
          "internalType": "uint256",
          "name": "tokenId",
          "type": "uint256"
        },
        {
          "internalType": "uint256",
          "name": "salePrice",
          "type": "uint256"
        }
      ],
      "name": "royaltyInfo",
      "outputs": [
        {
          "internalType": "address",
          "name": "receiver",
          "type": "address"
        },
        {
          "internalType": "uint256",
          "name": "amount",
          "type": "uint256"
        }
      ],
      "stateMutability": "view",
      "type": "function"
    },
    {
      "inputs": [
        {
          "internalType": "address",
          "name": "from",
          "type": "address"
        },
        {
          "internalType": "address",
          "name": "to",
          "type": "address"
        },
        {
          "internalType": "uint256",
          "name": "tokenId",
          "type": "uint256"
        }
      ],
      "name": "safeTransferFrom",
      "outputs": [],
      "stateMutability": "nonpayable",
      "type": "function"
    },
    {
      "inputs": [
        {
          "internalType": "address",
          "name": "from",
          "type": "address"
        },
        {
          "internalType": "address",
          "name": "to",
          "type": "address"
        },
        {
          "internalType": "uint256",
          "name": "tokenId",
          "type": "uint256"
        },
        {
          "internalType": "bytes",
          "name": "data",
          "type": "bytes"
        }
      ],
      "name": "safeTransferFrom",
      "outputs": [],
      "stateMutability": "nonpayable",
      "type": "function"
    },
    {
      "inputs": [
        {
          "internalType": "address",
          "name": "operator",
          "type": "address"
        },
        {
          "internalType": "bool",
          "name": "approved",
          "type": "bool"
        }
      ],
      "name": "setApprovalForAll",
      "outputs": [],
      "stateMutability": "nonpayable",
      "type": "function"
    },
    {
      "inputs": [
        {
          "internalType": "address",
          "name": "_vault",
          "type": "address"
        }
      ],
      "name": "setVault",
      "outputs": [],
      "stateMutability": "nonpayable",
      "type": "function"
    },
    {
      "inputs": [
        {
          "internalType": "bytes4",
          "name": "interfaceId",
          "type": "bytes4"
        }
      ],
      "name": "supportsInterface",
      "outputs": [
        {
          "internalType": "bool",
          "name": "",
          "type": "bool"
        }
      ],
      "stateMutability": "view",
      "type": "function"
    },
    {
      "inputs": [],
      "name": "symbol",
      "outputs": [
        {
          "internalType": "string",
          "name": "",
          "type": "string"
        }
      ],
      "stateMutability": "view",
      "type": "function"
    },
    {
      "inputs": [],
      "name": "termsURI",
      "outputs": [
        {
          "internalType": "string",
          "name": "",
          "type": "string"
        }
      ],
      "stateMutability": "view",
      "type": "function"
    },
    {
      "inputs": [
        {
          "internalType": "uint256",
          "name": "tokenId",
          "type": "uint256"
        }
      ],
      "name": "tokenURI",
      "outputs": [
        {
          "internalType": "string",
          "name": "",
          "type": "string"
        }
      ],
      "stateMutability": "view",
      "type": "function"
    },
    {
      "inputs": [],
      "name": "totalMinted",
      "outputs": [
        {
          "internalType": "uint256",
          "name": "",
          "type": "uint256"
        }
      ],
      "stateMutability": "view",
      "type": "function"
    },
    {
      "inputs": [],
      "name": "totalShare",
      "outputs": [
        {
          "internalType": "uint96",
          "name": "",
          "type": "uint96"
        }
      ],
      "stateMutability": "view",
      "type": "function"
    },
    {
      "inputs": [
        {
          "internalType": "address",
          "name": "from",
          "type": "address"
        },
        {
          "internalType": "address",
          "name": "to",
          "type": "address"
        },
        {
          "internalType": "uint256",
          "name": "tokenId",
          "type": "uint256"
        }
      ],
      "name": "transferFrom",
      "outputs": [],
      "stateMutability": "nonpayable",
      "type": "function"
    },
    {
      "inputs": [
        {
          "internalType": "address",
          "name": "newOwner",
          "type": "address"
        }
      ],
      "name": "transferOwnership",
      "outputs": [],
      "stateMutability": "nonpayable",
      "type": "function"
    },
    {
      "inputs": [],
      "name": "vault",
      "outputs": [
        {
          "internalType": "address",
          "name": "",
          "type": "address"
        }
      ],
      "stateMutability": "view",
      "type": "function"
    },
    {
      "inputs": [
        {
          "internalType": "uint256",
          "name": "",
          "type": "uint256"
        }
      ],
      "name": "zones",
      "outputs": [
        {
          "internalType": "string",
          "name": "name",
          "type": "string"
        },
        {
          "internalType": "uint256",
          "name": "price",
          "type": "uint256"
        },
        {
          "internalType": "uint256",
          "name": "maxSupply",
          "type": "uint256"
        },
        {
          "internalType": "uint256",
          "name": "totalMinted",
          "type": "uint256"
        }
      ],
      "stateMutability": "view",
      "type": "function"
    }
  ],
  "bytecode": "0x60806040523461038a57604080519081016001600160401b03811182821017610297576040908152600a82526910985cd9551a58dad95d60b21b602083015280519081016001600160401b0381118282101761029757604052600781526610951250d2d15560ca1b602082015281516001600160401b03811161029757600054600181811c91168015610380575b602082101461027757601f811161031c575b50602092601f82116001146102b857928192936000926102ad575b50508160011b916000199060031b1c1916176000555b80516001600160401b03811161029757600154600181811c9116801561028d575b602082101461027757601f8111610212575b50602091601f82116001146101ae579181926000926101a3575b50508160011b916000199060031b1c1916176001555b331561018d5760098054336001600160a01b03198216811790925560405191906001600160a01b03167f8be0079c531659141344cd1fd0a4f28419497f9722a3daafe3b4186f6b6457e0600080a3612b4390816103908239f35b631e4fbdf760e01b600052600060045260246000fd5b01519050388061011d565b601f198216926001600052806000209160005b8581106101fa575083600195106101e1575b505050811b01600155610133565b015160001960f88460031b161c191690553880806101d3565b919260206001819286850151815501940192016101c1565b60016000527fb10e2d527612073b26eecdfd717e6a320cf44b4afac2b0732d9fcbe2b7fa0cf6601f830160051c8101916020841061026d575b601f0160051c01905b8181106102615750610103565b60008155600101610254565b909150819061024b565b634e487b7160e01b600052602260045260246000fd5b90607f16906100f1565b634e487b7160e01b600052604160045260246000fd5b0151905038806100ba565b601f1982169360008052806000209160005b86811061030457508360019596106102eb575b505050811b016000556100d0565b015160001960f88460031b161c191690553880806102dd565b919260206001819286850151815501940192016102ca565b600080527f290decd9548b62a8d60345a988386fc84ba6bc95484008f6362f93160ef3e563601f830160051c81019160208410610376575b601f0160051c01905b81811061036a575061009f565b6000815560010161035d565b9091508190610354565b90607f169061008d565b600080fdfe608080604052600436101561001357600080fd5b60003560e01c90816301ffc9a7146123a257508063026c42071461237b57806306fdde03146122d6578063081812fc14612298578063089cdd0c146121f0578063095ea7b314612101578063133396321461209357806317e1f82e146120765780631d6916ab14611a9957806323b872dd14611a8257806329652e8614611a325780632a55205a146119ad5780634083c32a1461198f57806342842e0e1461195f5780636352211e1461192f5780636817031b146118ec57806370a0823114611896578063715018a6146118395780637284e416146117915780637a5c15c8146116f95780638043c9c0146116515780638da5cb5b1461162857806392adb659146114ed57806395d89b4114611445578063a22cb465146113a4578063a2309ff814611386578063b88d4fde1461131b578063c87b56dd146112fc578063d90786d4146103fc578063e985e9c5146103a1578063f2fde38b14610350578063f3ccaac0146102a8578063f5c925d9146101c35763fbfa77cf1461019557600080fd5b346101be5760003660031901126101be57600a546040516001600160a01b039091168152602090f35b600080fd5b346101be5760003660031901126101be5760405160006010546101e581612480565b80845290600181169081156102845750600114610225575b6102218361020d818503826124f0565b604051918291602083526020830190612441565b0390f35b601060009081527f1b6847dc741a1b0cd08d278845f9d819d87b734759afb55fe2de5cb82a9ae672939250905b80821061026a5750909150810160200161020d6101fd565b919260018160209254838588010152019101909291610252565b60ff191660208086019190915291151560051b8401909101915061020d90506101fd565b346101be5760003660031901126101be576040516000600e546102ca81612480565b808452906001811690811561028457506001146102f1576102218361020d818503826124f0565b600e60009081527fbb7b4a454dc3493923482f07822329ed19e8244eff582cc204f8554c3620c3fd939250905b8082106103365750909150810160200161020d6101fd565b91926001816020925483858801015201910190929161031e565b346101be5760203660031901126101be576103696125b5565b61037161295e565b6001600160a01b0381161561038b5761038990612987565b005b631e4fbdf760e01b600052600060045260246000fd5b346101be5760403660031901126101be576103ba6125b5565b6103c26125cb565b9060018060a01b0316600052600560205260406000209060018060a01b0316600052602052602060ff604060002054166040519015158152f35b346101be576101a03660031901126101be576004356001600160401b0381116101be5761042d903690600401612668565b6024356001600160401b0381116101be5761044c903690600401612668565b6044356001600160401b0381116101be5761046b903690600401612668565b6064356001600160401b0381116101be5761048a903690600401612668565b6084356001600160a01b038116938482036101be5760a435946001600160601b0386168096036101be5760c4356001600160401b0381116101be576104d3903690600401612668565b60e435946001600160401b0386116101be57366023870112156101be5785600401356104fe816126db565b9661050c60405198896124f0565b8188526024602089019260051b820101903682116101be57602401915b8183106112dc5750505061010435966001600160401b0388116101be57366023890112156101be57876004013561055f816126db565b9861056d6040519a8b6124f0565b818a52602460208b019260051b820101903682116101be57602401915b8183106112c15750505061012435986001600160401b038a116101be573660238b0112156101be5789600401356105c0816126db565b9a6105ce6040519c8d6124f0565b818c52602460208d019260051b820101903682116101be5760248101925b828410611292575050505061014435946001600160401b0386116101be57366023870112156101be578560040135610623816126db565b9661063160405198896124f0565b8188526024602089019260051b820101903682116101be57602401915b8183106112725750505061016435976001600160401b0389116101be573660238a0112156101be578860040135610684816126db565b996106926040519b8c6124f0565b818b52602460208c019260051b820101903682116101be57602401915b81831061125557505050610184356001600160a01b03811691908290036101be5760095460ff8160a01c1661121a5760ff60a01b1916600160a01b176009558a518c51036111dd578c518851811490816111d2575b5015611198576103e88411611160578161072261073b9315156128a4565b600a80546001600160a01b031916919091179055612987565b612710821161114557801561112f5760405190610757826124ba565b808252602090910182905260a09190911b6001600160a01b0319166001600160a01b039091161760075589516001600160401b038111610a215761079c600b54612480565b601f81116110ca575b50806020601f821160011461106157600091611056575b508160011b916000199060031b1c191617600b555b84516001600160401b038111610a21576107ec600c54612480565b601f8111610ff1575b50806020601f8211600114610f8b57600091610f80575b508160011b916000199060031b1c191617600c555b8051906001600160401b038211610a2157819061083f600d54612480565b601f8111610f10575b50602090601f8311600114610ea857600092610e9d575b50508160011b916000199060031b1c191617600d555b8051906001600160401b038211610a21578190610893600e54612480565b601f8111610e2d575b50602090601f8311600114610dc557600092610dba575b50508160011b916000199060031b1c191617600e555b8051906001600160401b038211610a215781906108e7601054612480565b601f8111610d4a575b50602090601f8311600114610ce257600092610cd7575b50508160011b916000199060031b1c1916176010555b600095865b8551881015610a6d576001600160a01b0361093d8988612913565b511615610a37576001600160a01b036109568988612913565b511661ffff6109658a8a612913565b511660405191610974836124ba565b825260208201908152601254600160401b811015610a215780600161099c92016012556126c0565b929092610a0b5751905160a01b6001600160a01b0319166001600160a01b03919091161790556001600160601b0361ffff6109d78a8a612913565b51169116016001600160601b0381116109f557600190970196610922565b634e487b7160e01b600052601160045260246000fd5b634e487b7160e01b600052600060045260246000fd5b634e487b7160e01b600052604160045260246000fd5b60405162461bcd60e51b815260206004820152600e60248201526d1a5b9d985b1a59081dd85b1b195d60921b6044820152606490fd5b6001600160601b038991166127108103610c9c576001600160601b0319601354161760135560005b8251811015610c4c57610aa88184612913565b516001600160401b03610abb8387612913565b511663ffffffff610acc848a612913565b511660405192610adb846124d5565b83526020830191825260408301908152606083019160008352601154600160401b811015610a2157806001610b1392016011556125e1565b949094610a0b57518051906001600160401b038211610a2157610b368654612480565b601f8111610c04575b50602090601f8311600114610b955791806001989796949260039694600092610b8a575b505060001982871b1c191690881b1785555b51868501555160028401555191015501610a95565b015190508e80610b63565b90601f1983169187600052816000209260005b818110610bec57509260019998979593928592600398968c9510610bd4575b505050811b018555610b75565b015160001983891b60f8161c191690558e8080610bc7565b92936020600181928786015181550195019301610ba8565b866000526020600020601f840160051c81019160208510610c42575b601f0160051c01905b818110610c365750610b3f565b60008155600101610c29565b9091508190610c20565b7fa070f05b16f4eb7ffaa9444c7d3e435633333ff89cc255bd7e648e7dab636f33610c8983610c9788604051938493604085526040850190612441565b908382036020850152612441565b0390a1005b60405162461bcd60e51b8152602060048201526013602482015272746f74616c20736861726520213d203130302560681b6044820152606490fd5b015190508980610907565b601060009081528281209350601f198516905b818110610d325750908460019594939210610d19575b505050811b0160105561091d565b015160001960f88460031b161c19169055898080610d0b565b92936020600181928786015181550195019301610cf5565b60106000529091507f1b6847dc741a1b0cd08d278845f9d819d87b734759afb55fe2de5cb82a9ae672601f840160051c81019160208510610db0575b90601f859493920160051c01905b818110610da157506108f0565b60008155849350600101610d94565b9091508190610d86565b015190508a806108b3565b600e60009081528281209350601f198516905b818110610e155750908460019594939210610dfc575b505050811b01600e556108c9565b015160001960f88460031b161c191690558a8080610dee565b92936020600181928786015181550195019301610dd8565b600e6000529091507fbb7b4a454dc3493923482f07822329ed19e8244eff582cc204f8554c3620c3fd601f840160051c81019160208510610e93575b90601f859493920160051c01905b818110610e84575061089c565b60008155849350600101610e77565b9091508190610e69565b015190508b8061085f565b600d60009081528281209350601f198516905b818110610ef85750908460019594939210610edf575b505050811b01600d55610875565b015160001960f88460031b161c191690558b8080610ed1565b92936020600181928786015181550195019301610ebb565b600d6000529091507fd7b6990105719101dabeb77144f2a3385c8033acd3af97e9423a695e81ad1eb5601f840160051c81019160208510610f76575b90601f859493920160051c01905b818110610f675750610848565b60008155849350600101610f5a565b9091508190610f4c565b90508601518c61080c565b600c60009081528181209250601f198416905b818110610fd957509083600194939210610fc0575b5050811b01600c55610821565b88015160001960f88460031b161c191690558c80610fb3565b9192602060018192868d015181550194019201610f9e565b600c6000527fdf6966c971051c3d54ec59162606531493a51404a002842f56009d7e5cf4a8c7601f830160051c8101916020841061104c575b601f0160051c01905b81811061104057506107f5565b60008155600101611033565b909150819061102a565b90508b01518c6107bc565b600b60009081528181209250601f198416908e5b8282106110b15750509083600194939210611098575b5050811b01600b556107d1565b8d015160001960f88460031b161c191690558c8061108b565b600184956020939584930151815501940192018e611075565b600b6000527f0175b7a638427703f0dbe7bb9bbf987a2551717b34e79f33b5b1008d1fa01db9601f830160051c81019160208410611125575b601f0160051c01905b81811061111957506107a5565b6000815560010161110c565b9091508190611103565b635b6cc80560e11b600052600060045260246000fd5b50636f483d0960e01b60005260045261271060245260446000fd5b60405162461bcd60e51b815260206004820152601060248201526f0e4def2c2d8e8f240e8dede40d0d2ced60831b6044820152606490fd5b60405162461bcd60e51b81526020600482015260126024820152710f4dedcca40c8c2e8c240dad2e6dac2e8c6d60731b6044820152606490fd5b90508a51148f610704565b60405162461bcd60e51b81526020600482015260156024820152740eec2d8d8cae85ee6d0c2e4ca40dad2e6dac2e8c6d605b1b6044820152606490fd5b60405162461bcd60e51b8152602060048201526013602482015272185b1c9958591e481a5b9a5d1a585b1a5e9959606a1b6044820152606490fd5b823563ffffffff811681036101be578152602092830192016106af565b82356001600160401b03811681036101be5781526020928301920161064e565b83356001600160401b0381116101be576020916112b6839260243691870101612668565b8152019301926105ec565b823561ffff811681036101be5781526020928301920161058a565b82356001600160a01b03811681036101be57815260209283019201610529565b346101be5760203660031901126101be5761022161020d6004356128e0565b346101be5760803660031901126101be576113346125b5565b61133c6125cb565b90604435606435926001600160401b0384116101be57366023850112156101be57611374610389943690602481600401359101612631565b92611380838383612714565b336129d0565b346101be5760003660031901126101be576020600f54604051908152f35b346101be5760403660031901126101be576113bd6125b5565b602435908115158092036101be576001600160a01b031690811561143057336000526005602052604060002082600052602052604060002060ff1981541660ff83161790556040519081527f17307eab39ab6107e8899845ad3d59bd9653f200f220920489ca2b5937696c3160203392a3005b50630b61174360e31b60005260045260246000fd5b346101be5760003660031901126101be57604051600060015461146781612480565b8084529060018116908115610284575060011461148e576102218361020d818503826124f0565b600160009081527fb10e2d527612073b26eecdfd717e6a320cf44b4afac2b0732d9fcbe2b7fa0cf6939250905b8082106114d35750909150810160200161020d6101fd565b9192600181602092548385880101520191019092916114bb565b346101be5760003660031901126101be5760115461150a816126db565b9061151860405192836124f0565b808252601160009081526020830191907f31ecc21a745e3968a04e9570e4425bc18fa8019c68028196b546d1669c200c68835b8383106115e057848660405191829160208301906020845251809152604083019060408160051b85010192916000905b82821061158a57505050500390f35b919360019193955060208091603f198982030185528751906060806115b88451608085526080850190612441565b938581015186850152604081015160408501520151910152960192019201859493919261157b565b600460206001926040516115f3816124d5565b6115fc86612511565b81528486015483820152600286015460408201526003860154606082015281520192019201919061154b565b346101be5760003660031901126101be576009546040516001600160a01b039091168152602090f35b346101be5760003660031901126101be576040516000600c5461167381612480565b8084529060018116908115610284575060011461169a576102218361020d818503826124f0565b600c60009081527fdf6966c971051c3d54ec59162606531493a51404a002842f56009d7e5cf4a8c7939250905b8082106116df5750909150810160200161020d6101fd565b9192600181602092548385880101520191019092916116c7565b346101be5760203660031901126101be5760043560125481101561175c576117226020916126c0565b5060405190611730826124ba565b546001600160a01b03811680835260a09190911c92909101829052604080519182526020820192909252f35b60405162461bcd60e51b815260206004820152600d60248201526c092dcecc2d8d2c840d2dcc8caf609b1b6044820152606490fd5b346101be5760003660031901126101be576040516000600d546117b381612480565b808452906001811690811561028457506001146117da576102218361020d818503826124f0565b600d60009081527fd7b6990105719101dabeb77144f2a3385c8033acd3af97e9423a695e81ad1eb5939250905b80821061181f5750909150810160200161020d6101fd565b919260018160209254838588010152019101909291611807565b346101be5760003660031901126101be5761185261295e565b600980546001600160a01b031981169091556000906001600160a01b03167f8be0079c531659141344cd1fd0a4f28419497f9722a3daafe3b4186f6b6457e08280a3005b346101be5760203660031901126101be576001600160a01b036118b76125b5565b1680156118d65760005260036020526020604060002054604051908152f35b6322718ad960e21b600052600060045260246000fd5b346101be5760203660031901126101be576001600160a01b0361190d6125b5565b166119198115156128a4565b600a80546001600160a01b031916919091179055005b346101be5760203660031901126101be57602061194d600435612927565b6040516001600160a01b039091168152f35b346101be5761038961197036612686565b90604051926119806020856124f0565b60008452611380838383612714565b346101be5760003660031901126101be576020601254604051908152f35b346101be5760403660031901126101be576004356000908152600860205260409020546001600160a01b0381169060a01c8115611a1a575b6119fd6001600160601b0361271092166024356126f2565b604080516001600160a01b03949094168452919004602083015290f35b50506007546001600160a01b0381169060a01c6119e5565b346101be5760203660031901126101be576004356012548110156101be57611a5c610221916126c0565b5054604080516001600160a01b038316815260a09290921c602083015290918291820190565b346101be57610389611a9336612686565b91612714565b60603660031901126101be576004356024356044356001600160401b0381116101be57611aca903690600401612668565b9160115481101561204257611ade906125e1565b5091811561200957600383019283548381018091116109f557600282015410611fcf57600101611b0f8382546126f2565b3410611f9557600a546001600160a01b031615611f60576020933393929084159081159060005b868110611b6f5788600f54907f2a91574e12ad96234e84923e146b0946ecfb871cd8d5534dc1fdcbe87a7c01b3604051913483523392a3005b611b798254612705565b8255611b86600f54612705565b9081600f55604051611b988b826124f0565b8560008252611f4a5760008381526002808d5260408220546001600160a01b03168015159290918691908f8a86611f14575b611efd575b838352526040812080546001600160a01b0319168f179055339083907fddf252ad1be2c89b69c2b068fc378daa952ba7f163c4a11628f55a4df523b3ef9080a450611ee7578a333b611dcd575b50508160005260068a52604060002086516001600160401b038111610a21578b611c468354612480565b601f8111611d85575b5050808c601f8211600114611d2057600091611d15575b508160011b916000199060031b1c19161790555b7ff8e1a15aba9398e019f0b49df1a4fde98ee17ae345cb5f6b5e2c27f5033e8ce78a604051848152a186549160018060a01b03600a541690813b156101be576040516311f9fbc960e21b815230600482015260248101919091529260009184916044918391905af1918215611d0957600192611cf8575b5001611b36565b6000611d03916124f0565b8a611cf1565b6040513d6000823e3d90fd5b90508801518d611c66565b60008481528e81209250601f198416908f5b8c838310611d6f575050509083600194939210611d56575b5050811b019055611c7a565b8a015160001960f88460031b161c191690558d80611d4a565b840151855560019094019392830192018f611d32565b836000528160002090601f840160051c8201928410611dc3575b601f0160051c01905b818110611db7578d9150611c4f565b60008155600101611da8565b9091508190611d9f565b611e069160405180938192630a85bd0160e11b835233600484015260006024840152876044840152608060648401526084830190612441565b03816000335af18091600091611ea2575b5090611e6f578a3d15611e67573d90611e2f82612616565b91611e3d60405193846124f0565b82523d60008284013e5b81519182611e6457633250574960e11b6000523360045260246000fd5b01fd5b606090611e47565b6001600160e01b03191663757a42ff60e11b01611e8d578a8a611c1c565b633250574960e11b6000523360045260246000fd5b8c81813d8311611ee0575b611eb781836124f0565b81010312611edc5751906001600160e01b031982168203611ed957508c611e17565b80fd5b5080fd5b503d611ead565b6339e3563760e11b600052600060045260246000fd5b338352600381526040832060018154019055611bcf565b50600084815260046020526040902080546001600160a01b0319169055848352600381526040832080546000190190558a611bca565b633250574960e11b600052600060045260246000fd5b60405162461bcd60e51b815260206004820152600d60248201526c1d985d5b1d081b9bdd081cd95d609a1b6044820152606490fd5b60405162461bcd60e51b8152602060048201526012602482015271696e73756666696369656e742066756e647360701b6044820152606490fd5b60405162461bcd60e51b8152602060048201526012602482015271546964616b2063756b757020737570706c7960701b6044820152606490fd5b60405162461bcd60e51b815260206004820152601160248201527007175616e74697479206d757374203e203607c1b6044820152606490fd5b60405162461bcd60e51b815260206004820152600c60248201526b696e76616c6964207a6f6e6560a01b6044820152606490fd5b346101be5760003660031901126101be5760206040516103e88152f35b346101be5760203660031901126101be576004356011548110156101be576120bd6120ed916125e1565b506120c781612511565b906001810154906003600282015491015490604051948594608086526080860190612441565b926020850152604084015260608301520390f35b346101be5760403660031901126101be5761211a6125b5565b60243561212681612927565b331515806121dd575b806121af575b61219a5781906001600160a01b0384811691167f8c5be1e5ebec7d5bd14f71427d1e84f3dd0314c0f7b2291e5b200ac8c7c3b925600080a4600090815260046020526040902080546001600160a01b0319166001600160a01b03909216919091179055005b63a9fbf51f60e01b6000523360045260246000fd5b506001600160a01b038116600090815260056020908152604080832033845290915290205460ff1615612135565b506001600160a01b03811633141561212f565b346101be5760003660031901126101be576040516000600b5461221281612480565b80845290600181169081156102845750600114612239576102218361020d818503826124f0565b600b60009081527f0175b7a638427703f0dbe7bb9bbf987a2551717b34e79f33b5b1008d1fa01db9939250905b80821061227e5750909150810160200161020d6101fd565b919260018160209254838588010152019101909291612266565b346101be5760203660031901126101be576004356122b581612927565b506000526004602052602060018060a01b0360406000205416604051908152f35b346101be5760003660031901126101be57604051600080546122f781612480565b8084529060018116908115610284575060011461231e576102218361020d818503826124f0565b60008080527f290decd9548b62a8d60345a988386fc84ba6bc95484008f6362f93160ef3e563939250905b8082106123615750909150810160200161020d6101fd565b919260018160209254838588010152019101909291612349565b346101be5760003660031901126101be5760206001600160601b0360135416604051908152f35b346101be5760203660031901126101be576004359063ffffffff60e01b82168092036101be5760209163152a902d60e11b81149081156123e4575b5015158152f35b632483248360e11b8114915081156123fe575b50836123dd565b6380ac58cd60e01b811491508115612430575b811561241f575b50836123f7565b6301ffc9a760e01b14905083612418565b635b5e139f60e01b81149150612411565b919082518082526020808301940160005b828110612470575050600081602094950152601f8019910116010190565b8181015186820152602001612452565b90600182811c921680156124b0575b602083101461249a57565b634e487b7160e01b600052602260045260246000fd5b91607f169161248f565b604081019081106001600160401b03821117610a2157604052565b608081019081106001600160401b03821117610a2157604052565b90601f801991011681019081106001600160401b03821117610a2157604052565b906040519182600082549261252584612480565b8084529360018116908115612593575060011461254c575b5061254a925003836124f0565b565b90506000929192526020600020906000915b81831061257757505090602061254a928201013861253d565b602091935080600191548385890101520191019091849261255e565b90506020925061254a94915060ff191682840152151560051b8201013861253d565b600435906001600160a01b03821682036101be57565b602435906001600160a01b03821682036101be57565b60115481101561260057601160005260206000209060021b0190600090565b634e487b7160e01b600052603260045260246000fd5b6001600160401b038111610a2157601f01601f191660200190565b92919261263d82612616565b9161264b60405193846124f0565b8294818452818301116101be578281602093846000960137010152565b9080601f830112156101be5781602061268393359101612631565b90565b60609060031901126101be576004356001600160a01b03811681036101be57906024356001600160a01b03811681036101be579060443590565b60125481101561260057601260005260206000200190600090565b6001600160401b038111610a215760051b60200190565b818102929181159184041417156109f557565b60001981146109f55760010190565b6001600160a01b0390911691908215611f4a576000828152600260205260408120546001600160a01b031693839185903315158061280c575b507fddf252ad1be2c89b69c2b068fc378daa952ba7f163c4a11628f55a4df523b3ef90826127d7575b838152600360209081526040808320805460010190558683526002909152812080546001600160a01b0319168517905580a46001600160a01b03168083036127bd57505050565b6364283d7b60e01b60005260045260245260445260646000fd5b600085815260046020526040902080546001600160a01b03191690558281526003602052604081208054600019019055612776565b915091925080612855575b1561282657908484923861274d565b83908561283f57602491637e27328960e01b8252600452fd5b60449163177e802f60e01b825233600452602452fd5b503385148015612883575b806128175750838152600460205260408120546001600160a01b03163314612817565b5084815260056020908152604080832033845290915281205460ff16612860565b156128ab57565b60405162461bcd60e51b815260206004820152600d60248201526c1a5b9d985b1a59081d985d5b1d609a1b6044820152606490fd5b6128e981612927565b5060005260066020526128ff6040600020612511565b600060405161290f6020826124f0565b5290565b80518210156126005760209160051b010190565b6000818152600260205260409020546001600160a01b031690811561294a575090565b637e27328960e01b60005260045260246000fd5b6009546001600160a01b0316330361297257565b63118cdaa760e01b6000523360045260246000fd5b600980546001600160a01b039283166001600160a01b0319821681179092559091167f8be0079c531659141344cd1fd0a4f28419497f9722a3daafe3b4186f6b6457e0600080a3565b823b6129de575b5050505050565b604051630a85bd0160e11b81526001600160a01b039182166004820152918116602483015260448201939093526080606482015291169160209082908190612a2a906084830190612441565b03816000865af18091600091612aca575b5090612a9457503d15612a8d573d612a5281612616565b90612a6060405192836124f0565b81523d6000602083013e5b80519081612a885782633250574960e11b60005260045260246000fd5b602001fd5b6060612a6b565b6001600160e01b03191663757a42ff60e11b01612ab6575038808080806129d7565b633250574960e11b60005260045260246000fd5b6020813d602011612b05575b81612ae3602093836124f0565b81010312611edc5751906001600160e01b031982168203611ed9575038612a3b565b3d9150612ad656fea2646970667358221220b901100df0daf7c8833d9228a86524ee2bd1ffa9b36d1736ccaa87a9d4097b9764736f6c634300081c0033",
  "linkReferences": {},
  "deployedLinkReferences": {}
}