{
  "_format": "hh-sol-artifact-1",
  "contractName": "TicketFactory",
  "sourceName": "contracts/ticket-factory.sol",
  "abi": [
    {
      "inputs": [
        {
          "internalType": "address",
          "name": "_vault",
          "type": "address"
        },
        {
          "internalType": "address",
          "name": "_ticketImplementation",
          "type": "address"
        }
      ],
      "stateMutability": "nonpayable",
      "type": "constructor"
    },
    {
      "inputs": [],
      "name": "FailedDeployment",
      "type": "error"
    },
    {
      "inputs": [
        {
          "internalType": "uint256",
          "name": "balance",
          "type": "uint256"
        },
        {
          "internalType": "uint256",
          "name": "needed",
          "type": "uint256"
        }
      ],
      "name": "InsufficientBalance",
      "type": "error"
    },
    {
      "inputs": [
        {
          "internalType": "address",
          "name": "owner",
          "type": "address"
        }
      ],
      "name": "OwnableInvalidOwner",
      "type": "error"
    },
    {
      "inputs": [
        {
          "internalType": "address",
          "name": "account",
          "type": "address"
        }
      ],
      "name": "OwnableUnauthorizedAccount",
      "type": "error"
    },
    {
      "anonymous": false,
      "inputs": [
        {
          "indexed": true,
          "internalType": "address",
          "name": "organizer",
          "type": "address"
        },
        {
          "indexed": false,
          "internalType": "address",
          "name": "ticketAddress",
          "type": "address"
        },
        {
          "indexed": false,
          "internalType": "string",
          "name": "eventName",
          "type": "string"
        }
      ],
      "name": "EventCreated",
      "type": "event"
    },
    {
      "anonymous": false,
      "inputs": [
        {
          "indexed": true,
          "internalType": "address",
          "name": "previousOwner",
          "type": "address"
        },
        {
          "indexed": true,
          "internalType": "address",
          "name": "newOwner",
          "type": "address"
        }
      ],
      "name": "OwnershipTransferred",
      "type": "event"
    },
    {
      "inputs": [
        {
          "internalType": "uint256",
          "name": "",
          "type": "uint256"
        }
      ],
      "name": "allEvents",
      "outputs": [
        {
          "internalType": "address",
          "name": "ticketAddress",
          "type": "address"
        },
        {
          "internalType": "address",
          "name": "organizer",
          "type": "address"
        },
        {
          "internalType": "string",
          "name": "eventName",
          "type": "string"
        },
        {
          "internalType": "string",
          "name": "eventId",
          "type": "string"
        },
        {
          "internalType": "string",
          "name": "description",
          "type": "string"
        },
        {
          "internalType": "string",
          "name": "image",
          "type": "string"
        },
        {
          "internalType": "uint16",
          "name": "royaltyFee",
          "type": "uint16"
        }
      ],
      "stateMutability": "view",
      "type": "function"
    },
    {
      "inputs": [
        {
          "internalType": "string",
          "name": "_eventName",
          "type": "string"
        },
        {
          "internalType": "string",
          "name": "_description",
          "type": "string"
        },
        {
          "internalType": "string",
          "name": "_image",
          "type": "string"
        },
        {
          "internalType": "uint16",
          "name": "_royaltyFee",
          "type": "uint16"
        },
        {
          "internalType": "address[]",
          "name": "_wallets",
          "type": "address[]"
        },
        {
          "internalType": "uint16[]",
          "name": "_shares",
          "type": "uint16[]"
        },
        {
          "internalType": "string[]",
          "name": "_zones",
          "type": "string[]"
        },
        {
          "internalType": "uint64[]",
          "name": "_prices",
          "type": "uint64[]"
        },
        {
          "internalType": "uint32[]",
          "name": "_maxSupplies",
          "type": "uint32[]"
        }
      ],
      "name": "createEvent",
      "outputs": [
        {
          "internalType": "address",
          "name": "",
          "type": "address"
        }
      ],
      "stateMutability": "nonpayable",
      "type": "function"
    },
    {
      "inputs": [
        {
          "internalType": "address",
          "name": "",
          "type": "address"
        }
      ],
      "name": "eventIndex",
      "outputs": [
        {
          "internalType": "uint256",
          "name": "",
          "type": "uint256"
        }
      ],
      "stateMutability": "view",
      "type": "function"
    },
    {
      "inputs": [],
      "name": "getAllEvents",
      "outputs": [
        {
          "components": [
            {
              "internalType": "address",
              "name": "ticketAddress",
              "type": "address"
            },
            {
              "internalType": "address",
              "name": "organizer",
              "type": "address"
            },
            {
              "internalType": "string",
              "name": "eventName",
              "type": "string"
            },
            {
              "internalType": "string",
              "name": "eventId",
              "type": "string"
            },
            {
              "internalType": "string",
              "name": "description",
              "type": "string"
            },
            {
              "internalType": "string",
              "name": "image",
              "type": "string"
            },
            {
              "internalType": "uint16",
              "name": "royaltyFee",
              "type": "uint16"
            }
          ],
          "internalType": "struct TicketFactory.EventInfo[]",
          "name": "",
          "type": "tuple[]"
        }
      ],
      "stateMutability": "view",
      "type": "function"
    },
    {
      "inputs": [],
      "name": "owner",
      "outputs": [
        {
          "internalType": "address",
          "name": "",
          "type": "address"
        }
      ],
      "stateMutability": "view",
      "type": "function"
    },
    {
      "inputs": [],
      "name": "renounceOwnership",
      "outputs": [],
      "stateMutability": "nonpayable",
      "type": "function"
    },
    {
      "inputs": [],
      "name": "ticketImplementation",
      "outputs": [
        {
          "internalType": "address",
          "name": "",
          "type": "address"
        }
      ],
      "stateMutability": "view",
      "type": "function"
    },
    {
      "inputs": [
        {
          "internalType": "address",
          "name": "newOwner",
          "type": "address"
        }
      ],
      "name": "transferOwnership",
      "outputs": [],
      "stateMutability": "nonpayable",
      "type": "function"
    },
    {
      "inputs": [],
      "name": "vault",
      "outputs": [
        {
          "internalType": "contract Vault",
          "name": "",
          "type": "address"
        }
      ],
      "stateMutability": "view",
      "type": "function"
    }
  ],
  "bytecode": "0x60803461014257601f61159938819003918201601f19168301916001600160401b0383118484101761014757808492604094855283398101031261014257610052602061004b8361015d565b920161015d565b90331561012c5760008054336001600160a01b0319821681178355604051939290916001600160a01b0316907f8be0079c531659141344cd1fd0a4f28419497f9722a3daafe3b4186f6b6457e09080a36001600160a01b03169081156100ea575060018060a01b0319600154161760015560018060a01b031660018060a01b0319600254161760025560405161142790816101728239f35b62461bcd60e51b815260206004820152601560248201527f696e76616c6964207661756c74206164647265737300000000000000000000006044820152606490fd5b631e4fbdf760e01b600052600060045260246000fd5b600080fd5b634e487b7160e01b600052604160045260246000fd5b51906001600160a01b03821682036101425756fe61028080604052600436101561001457600080fd5b60006101e0526101e0513560e01c9081633a72eeab1461110c575080633bec5cff14611034578063715018a614610fd25780638da5cb5b14610fa557806396f08f2f14610373578063c27a500d14610191578063d62d369b14610153578063f2fde38b146100bd5763fbfa77cf1461008b57600080fd5b346100b6576101e0513660031901126100b6576001546040516001600160a01b039091168152602090f35b6101e05180fd5b346100b65760203660031901126100b6576100d661133a565b6100de6113b7565b6001600160a01b03168015610137576101e05180546001600160a01b03198116831782556001600160a01b0316907f8be0079c531659141344cd1fd0a4f28419497f9722a3daafe3b4186f6b6457e09080a36101e05180f35b631e4fbdf760e01b6101e051526101e05160045260246101e051fd5b346100b65760203660031901126100b6576001600160a01b0361017461133a565b166101e051526004602052602060406101e0512054604051908152f35b346100b6576101e0513660031901126100b6576003546001600160401b03811161035957604051906101c960208260051b01836111d2565b80825260208201908160036101e0515260206101e051206101e051915b8383106102ce57848660405191829160208301906020845251809152604083019060408160051b85010192916101e051905b82821061022757505050500390f35b919360019193955060208091603f19898203018552875190848060a01b038251168152848060a01b0383830151168382015260c061ffff816102b76102a5610293610281604089015160e060408a015260e0890190611297565b606089015188820360608a0152611297565b60808801518782036080890152611297565b60a087015186820360a0880152611297565b940151169101529601920192018594939192610218565b600760206001926040516102e1816111a1565b855460a086901b8690039081168252868601541683820152610305600287016111f3565b6040820152610316600387016111f3565b6060820152610327600487016111f3565b6080820152610338600587016111f3565b60a082015261ffff60068701541660c08201528152019201920191906101e6565b634e487b7160e01b6101e05152604160045260246101e051fd5b346100b6576101203660031901126100b6576004356001600160401b0381116100b6576103a49036906004016112d8565b61024052610200526024356001600160401b0381116100b6576103cb9036906004016112d8565b61012052610180526044356001600160401b0381116100b6576103f29036906004016112d8565b610160526101a0526064356101c081905261ffff811690036100b6576084356001600160401b0381116100b65761042d90369060040161130a565b6102605260a4356001600160401b0381116100b65761045090369060040161130a565b60c4929192356001600160401b0381116100b65761047290369060040161130a565b909160e4356001600160401b0381116100b65761049390369060040161130a565b9060a05293610104356001600160401b0381116100b6576104b890369060040161130a565b60e0526101005260405160208101903360601b8252610240516102005160348301376104f960206034836102405181014283820152030180845201826111d2565b519020604051610140819052610511906060906111d2565b60406101405152601f196060013660206101405101376101e0515b60208110610ef25750506002546101e08051608883901c62ffffff16763d602d80600a3d3981f3363d3d373d3d3d363d7300000017905260789190911b6001600160781b0319166e5af43d82803e903d91602b57fd5bf317602052516001600160a01b0390603790600990f016610220526102205115610edd576001546001600160a01b031660c052610220513b156100b65760409593929551608052631b3df9d360e31b6080515261018060046080510152602061065461063761061a6105fd6101846080510161014051611297565b600319608051820301602460805101526102405161020051611350565b600319608051820301604460805101526101205161018051611350565b60031960805182030160646080510152610160516101a051611350565b336084608051015261ffff6101c0511660a4608051015260031960805182030160c4608051015261026051815201906101e0515b610260518110610eab57505060209060031960805182030160e460805101528281520192906101e051905b808210610e7b575050506003196080518303016101046080510152838252602082019360208160051b84010192826101e051915b838310610e1b578660208760031960805182030161012460805101528281520160a0516101e051925b808410610df057602083600319608051820301610144608051015260e051815201610100516101e0515b60e0518110610dca578260c05161016460805101526101e051906080519060805190036080516101e051610220515af18015610dbc57610da8575b604051610781816111a1565b6102205181526020810133815261079f366102405161020051611371565b9160408101928352606081016101405181526107c2366101205161018051611371565b90608083019182526107db36610160516101a051611371565b9460a0840195865260c084019461ffff6101c051168652600354600160401b811015610359578060016108119201600355611132565b959095610d8c575185546001600160a01b03199081166001600160a01b039283161787559151600187018054909316911617905551805160028501916001600160401b0382116103595781906108678454611167565b601f8111610d33575b506020906001601f841114610cca576101e05192610cbf575b50508160011b916000199060031b1c19161790555b51805160038401916001600160401b0382116103595781906108c08454611167565b601f8111610c66575b506020906001601f841114610bfd576101e05192610bf2575b50508160011b916000199060031b1c19161790555b51805160048301916001600160401b0382116103595781906109198454611167565b601f8111610b99575b506020906001601f841114610b30576101e05192610b25575b50508160011b916000199060031b1c19161790555b6005810192519283516001600160401b038111610359576109718254611167565b601f8111610ad7575b5060206001601f831114610a63579080600694939261ffff96976101e05192610a58575b50508160011b916000199060031b1c19161790555b0191511661ffff198254161790556003546000198101908111610a3e57610220516101e05152600460205260406101e0512055604051610220518152604060208201527fa54c7891edaa21526f9ad14c69ae2fd966ac0969fcd9a990a4e006427afd382e339180610a2e604082016102405161020051611350565b0390a26020604051610220518152f35b634e487b7160e01b6101e05152601160045260246101e051fd5b01519050878061099e565b601f19821695836101e05152816101e05120966101e0515b818110610abf5750966001928492600697969561ffff999a10610aa6575b505050811b0190556109b3565b015160001960f88460031b161c19169055878080610a99565b83830151895560019098019760209384019301610a7b565b826101e0515260206101e05120601f830160051c81019160208410610b1b575b601f0160051c01905b818110610b0d575061097a565b6101e0518155600101610b00565b9091508190610af7565b01519050868061093b565b6101e08051869052518281209350601f198516905b818110610b815750908460019594939210610b68575b505050811b019055610950565b015160001960f88460031b161c19169055868080610b5b565b92936020600181928786015181550195019301610b45565b909150836101e0515260206101e05120601f840160051c81019160208510610be8575b90601f859493920160051c01905b818110610bd75750610922565b6101e0518155849350600101610bca565b9091508190610bbc565b0151905087806108e2565b6101e08051869052518281209350601f198516905b818110610c4e5750908460019594939210610c35575b505050811b0190556108f7565b015160001960f88460031b161c19169055878080610c28565b92936020600181928786015181550195019301610c12565b909150836101e0515260206101e05120601f840160051c81019160208510610cb5575b90601f859493920160051c01905b818110610ca457506108c9565b6101e0518155849350600101610c97565b9091508190610c89565b015190508880610889565b6101e08051869052518281209350601f198516905b818110610d1b5750908460019594939210610d02575b505050811b01905561089e565b015160001960f88460031b161c19169055888080610cf5565b92936020600181928786015181550195019301610cdf565b909150836101e0515260206101e05120601f840160051c81019160208510610d82575b90601f859493920160051c01905b818110610d715750610870565b6101e0518155849350600101610d64565b9091508190610d56565b634e487b7160e01b6101e051526101e05160045260246101e051fd5b610db76101e0516080516111d2565b610775565b6040513d6101e051823e3d90fd5b909182359063ffffffff82168092036100b657602081600193829352019301910161073a565b90918235906001600160401b0382168092036100b65760208160019382935201930193019290610710565b9091929394601f198282030188528535601e19843603018112156100b657830190602082359201916001600160401b0381116100b65780360383136100b657610e6a6020928392600195611350565b9701980193019190969392966106e7565b90919592936101e0515086359061ffff82168092036100b6579081529295602093840194930191600101906106b3565b94969394909182356001600160a01b03811691908290036100b657602081600193829352019301910196949396610688565b63b06ebf3d60e01b6101e0515260046101e051fd5b81811a90600482901c600f166010811015610f8b57818060011b0460021482151715610a3e576f181899199a1a9b1b9c1cb0b131b232b360811b901a610f3e8260011b610140516113e0565b536010600f83161015610f8b57600181811b810110610a3e57600191600f6f181899199a1a9b1b9c1cb0b131b232b360811b91161a610f8482841b8401610140516113e0565b530161052c565b634e487b7160e01b6101e05152603260045260246101e051fd5b346100b6576101e0513660031901126100b6576101e051546040516001600160a01b039091168152602090f35b346100b6576101e0513660031901126100b657610fed6113b7565b6101e05180546001600160a01b0319811682556001600160a01b03167f8be0079c531659141344cd1fd0a4f28419497f9722a3daafe3b4186f6b6457e08280a36101e05180f35b346100b65760203660031901126100b6576004356003548110156100b65761105b90611132565b50805460018201546001600160a01b0390811692911690611102611081600283016111f3565b916110f4611091600383016111f3565b6110e66110a0600485016111f3565b916110d861ffff60066110b5600589016111f3565b97015416976040519a8b9a8b5260208b015260e060408b015260e08a0190611297565b9088820360608a0152611297565b908682036080880152611297565b9084820360a0860152611297565b9060c08301520390f35b346100b6576101e0513660031901126100b6576002546001600160a01b03168152602090f35b6003548110156111515760036000526007602060002091020190600090565b634e487b7160e01b600052603260045260246000fd5b90600182811c92168015611197575b602083101461118157565b634e487b7160e01b600052602260045260246000fd5b91607f1691611176565b60e081019081106001600160401b038211176111bc57604052565b634e487b7160e01b600052604160045260246000fd5b90601f801991011681019081106001600160401b038211176111bc57604052565b906040519182600082549261120784611167565b8084529360018116908115611275575060011461122e575b5061122c925003836111d2565b565b90506000929192526020600020906000915b81831061125957505090602061122c928201013861121f565b6020919350806001915483858901015201910190918492611240565b90506020925061122c94915060ff191682840152151560051b8201013861121f565b919082519283825260005b8481106112c3575050826000602080949584010152601f8019910116010190565b806020809284010151828286010152016112a2565b9181601f84011215611305578235916001600160401b038311611305576020838186019501011161130557565b600080fd5b9181601f84011215611305578235916001600160401b038311611305576020808501948460051b01011161130557565b600435906001600160a01b038216820361130557565b908060209392818452848401376000828201840152601f01601f1916010190565b9291926001600160401b0382116111bc576040519161139a601f8201601f1916602001846111d2565b829481845281830111611305578281602093846000960137010152565b6000546001600160a01b031633036113cb57565b63118cdaa760e01b6000523360045260246000fd5b90815181101561115157016020019056fea26469706673582212209a4658705a1948ad73f68329c4132e469eb5c9a1ff95c0cf889d11fed4a2b25f64736f6c634300081c0033",
  "linkReferences": {},
  "deployedLinkReferences": {}
}