{
  "_format": "hh-sol-artifact-1",
  "contractName": "Ticket",
  "sourceName": "contracts/nft-ticket.sol",
  "abi": [
    {
      "inputs": [
        {
          "internalType": "string",
          "name": "_eventId",
          "type": "string"
        },
        {
          "internalType": "string",
          "name": "_eventName",
          "type": "string"
        },
        {
          "internalType": "string",
          "name": "_description",
          "type": "string"
        },
        {
          "internalType": "string",
          "name": "_zone",
          "type": "string"
        },
        {
          "internalType": "string",
          "name": "_image",
          "type": "string"
        },
        {
          "internalType": "uint256",
          "name": "_price",
          "type": "uint256"
        },
        {
          "internalType": "uint256",
          "name": "_maxSupply",
          "type": "uint256"
        },
        {
          "internalType": "address",
          "name": "_organizer",
          "type": "address"
        },
        {
          "internalType": "uint96",
          "name": "_royaltyFee",
          "type": "uint96"
        },
        {
          "internalType": "address[]",
          "name": "_wallets",
          "type": "address[]"
        },
        {
          "internalType": "uint96[]",
          "name": "_shares",
          "type": "uint96[]"
        }
      ],
      "stateMutability": "nonpayable",
      "type": "constructor"
    },
    {
      "inputs": [
        {
          "internalType": "uint256",
          "name": "numerator",
          "type": "uint256"
        },
        {
          "internalType": "uint256",
          "name": "denominator",
          "type": "uint256"
        }
      ],
      "name": "ERC2981InvalidDefaultRoyalty",
      "type": "error"
    },
    {
      "inputs": [
        {
          "internalType": "address",
          "name": "receiver",
          "type": "address"
        }
      ],
      "name": "ERC2981InvalidDefaultRoyaltyReceiver",
      "type": "error"
    },
    {
      "inputs": [
        {
          "internalType": "uint256",
          "name": "tokenId",
          "type": "uint256"
        },
        {
          "internalType": "uint256",
          "name": "numerator",
          "type": "uint256"
        },
        {
          "internalType": "uint256",
          "name": "denominator",
          "type": "uint256"
        }
      ],
      "name": "ERC2981InvalidTokenRoyalty",
      "type": "error"
    },
    {
      "inputs": [
        {
          "internalType": "uint256",
          "name": "tokenId",
          "type": "uint256"
        },
        {
          "internalType": "address",
          "name": "receiver",
          "type": "address"
        }
      ],
      "name": "ERC2981InvalidTokenRoyaltyReceiver",
      "type": "error"
    },
    {
      "inputs": [
        {
          "internalType": "address",
          "name": "sender",
          "type": "address"
        },
        {
          "internalType": "uint256",
          "name": "tokenId",
          "type": "uint256"
        },
        {
          "internalType": "address",
          "name": "owner",
          "type": "address"
        }
      ],
      "name": "ERC721IncorrectOwner",
      "type": "error"
    },
    {
      "inputs": [
        {
          "internalType": "address",
          "name": "operator",
          "type": "address"
        },
        {
          "internalType": "uint256",
          "name": "tokenId",
          "type": "uint256"
        }
      ],
      "name": "ERC721InsufficientApproval",
      "type": "error"
    },
    {
      "inputs": [
        {
          "internalType": "address",
          "name": "approver",
          "type": "address"
        }
      ],
      "name": "ERC721InvalidApprover",
      "type": "error"
    },
    {
      "inputs": [
        {
          "internalType": "address",
          "name": "operator",
          "type": "address"
        }
      ],
      "name": "ERC721InvalidOperator",
      "type": "error"
    },
    {
      "inputs": [
        {
          "internalType": "address",
          "name": "owner",
          "type": "address"
        }
      ],
      "name": "ERC721InvalidOwner",
      "type": "error"
    },
    {
      "inputs": [
        {
          "internalType": "address",
          "name": "receiver",
          "type": "address"
        }
      ],
      "name": "ERC721InvalidReceiver",
      "type": "error"
    },
    {
      "inputs": [
        {
          "internalType": "address",
          "name": "sender",
          "type": "address"
        }
      ],
      "name": "ERC721InvalidSender",
      "type": "error"
    },
    {
      "inputs": [
        {
          "internalType": "uint256",
          "name": "tokenId",
          "type": "uint256"
        }
      ],
      "name": "ERC721NonexistentToken",
      "type": "error"
    },
    {
      "inputs": [
        {
          "internalType": "address",
          "name": "owner",
          "type": "address"
        }
      ],
      "name": "OwnableInvalidOwner",
      "type": "error"
    },
    {
      "inputs": [
        {
          "internalType": "address",
          "name": "account",
          "type": "address"
        }
      ],
      "name": "OwnableUnauthorizedAccount",
      "type": "error"
    },
    {
      "anonymous": false,
      "inputs": [
        {
          "indexed": true,
          "internalType": "address",
          "name": "owner",
          "type": "address"
        },
        {
          "indexed": true,
          "internalType": "address",
          "name": "approved",
          "type": "address"
        },
        {
          "indexed": true,
          "internalType": "uint256",
          "name": "tokenId",
          "type": "uint256"
        }
      ],
      "name": "Approval",
      "type": "event"
    },
    {
      "anonymous": false,
      "inputs": [
        {
          "indexed": true,
          "internalType": "address",
          "name": "owner",
          "type": "address"
        },
        {
          "indexed": true,
          "internalType": "address",
          "name": "operator",
          "type": "address"
        },
        {
          "indexed": false,
          "internalType": "bool",
          "name": "approved",
          "type": "bool"
        }
      ],
      "name": "ApprovalForAll",
      "type": "event"
    },
    {
      "anonymous": false,
      "inputs": [
        {
          "indexed": false,
          "internalType": "uint256",
          "name": "_fromTokenId",
          "type": "uint256"
        },
        {
          "indexed": false,
          "internalType": "uint256",
          "name": "_toTokenId",
          "type": "uint256"
        }
      ],
      "name": "BatchMetadataUpdate",
      "type": "event"
    },
    {
      "anonymous": false,
      "inputs": [
        {
          "indexed": false,
          "internalType": "uint256",
          "name": "_tokenId",
          "type": "uint256"
        }
      ],
      "name": "MetadataUpdate",
      "type": "event"
    },
    {
      "anonymous": false,
      "inputs": [
        {
          "indexed": true,
          "internalType": "address",
          "name": "previousOwner",
          "type": "address"
        },
        {
          "indexed": true,
          "internalType": "address",
          "name": "newOwner",
          "type": "address"
        }
      ],
      "name": "OwnershipTransferred",
      "type": "event"
    },
    {
      "anonymous": false,
      "inputs": [
        {
          "indexed": true,
          "internalType": "address",
          "name": "buyer",
          "type": "address"
        },
        {
          "indexed": true,
          "internalType": "uint256",
          "name": "tokenId",
          "type": "uint256"
        },
        {
          "indexed": false,
          "internalType": "uint256",
          "name": "price",
          "type": "uint256"
        }
      ],
      "name": "TicketMinted",
      "type": "event"
    },
    {
      "anonymous": false,
      "inputs": [
        {
          "indexed": true,
          "internalType": "address",
          "name": "buyer",
          "type": "address"
        },
        {
          "indexed": true,
          "internalType": "uint256",
          "name": "tokenId",
          "type": "uint256"
        },
        {
          "indexed": false,
          "internalType": "uint256",
          "name": "price",
          "type": "uint256"
        }
      ],
      "name": "TicketPurchased",
      "type": "event"
    },
    {
      "anonymous": false,
      "inputs": [
        {
          "indexed": true,
          "internalType": "address",
          "name": "from",
          "type": "address"
        },
        {
          "indexed": true,
          "internalType": "address",
          "name": "to",
          "type": "address"
        },
        {
          "indexed": true,
          "internalType": "uint256",
          "name": "tokenId",
          "type": "uint256"
        }
      ],
      "name": "Transfer",
      "type": "event"
    },
    {
      "inputs": [
        {
          "internalType": "address",
          "name": "to",
          "type": "address"
        },
        {
          "internalType": "uint256",
          "name": "tokenId",
          "type": "uint256"
        }
      ],
      "name": "approve",
      "outputs": [],
      "stateMutability": "nonpayable",
      "type": "function"
    },
    {
      "inputs": [
        {
          "internalType": "address",
          "name": "owner",
          "type": "address"
        }
      ],
      "name": "balanceOf",
      "outputs": [
        {
          "internalType": "uint256",
          "name": "",
          "type": "uint256"
        }
      ],
      "stateMutability": "view",
      "type": "function"
    },
    {
      "inputs": [
        {
          "internalType": "string",
          "name": "tokenURI_",
          "type": "string"
        }
      ],
      "name": "buyTicket",
      "outputs": [],
      "stateMutability": "payable",
      "type": "function"
    },
    {
      "inputs": [],
      "name": "description",
      "outputs": [
        {
          "internalType": "string",
          "name": "",
          "type": "string"
        }
      ],
      "stateMutability": "view",
      "type": "function"
    },
    {
      "inputs": [],
      "name": "eventId",
      "outputs": [
        {
          "internalType": "string",
          "name": "",
          "type": "string"
        }
      ],
      "stateMutability": "view",
      "type": "function"
    },
    {
      "inputs": [],
      "name": "eventName",
      "outputs": [
        {
          "internalType": "string",
          "name": "",
          "type": "string"
        }
      ],
      "stateMutability": "view",
      "type": "function"
    },
    {
      "inputs": [
        {
          "internalType": "uint256",
          "name": "tokenId",
          "type": "uint256"
        }
      ],
      "name": "getApproved",
      "outputs": [
        {
          "internalType": "address",
          "name": "",
          "type": "address"
        }
      ],
      "stateMutability": "view",
      "type": "function"
    },
    {
      "inputs": [],
      "name": "image",
      "outputs": [
        {
          "internalType": "string",
          "name": "",
          "type": "string"
        }
      ],
      "stateMutability": "view",
      "type": "function"
    },
    {
      "inputs": [
        {
          "internalType": "address",
          "name": "owner",
          "type": "address"
        },
        {
          "internalType": "address",
          "name": "operator",
          "type": "address"
        }
      ],
      "name": "isApprovedForAll",
      "outputs": [
        {
          "internalType": "bool",
          "name": "",
          "type": "bool"
        }
      ],
      "stateMutability": "view",
      "type": "function"
    },
    {
      "inputs": [],
      "name": "maxRoyaltyFee",
      "outputs": [
        {
          "internalType": "uint96",
          "name": "",
          "type": "uint96"
        }
      ],
      "stateMutability": "view",
      "type": "function"
    },
    {
      "inputs": [],
      "name": "maxSupply",
      "outputs": [
        {
          "internalType": "uint256",
          "name": "",
          "type": "uint256"
        }
      ],
      "stateMutability": "view",
      "type": "function"
    },
    {
      "inputs": [
        {
          "internalType": "address",
          "name": "to",
          "type": "address"
        },
        {
          "internalType": "string",
          "name": "tokenURI_",
          "type": "string"
        }
      ],
      "name": "mintTicket",
      "outputs": [],
      "stateMutability": "nonpayable",
      "type": "function"
    },
    {
      "inputs": [],
      "name": "name",
      "outputs": [
        {
          "internalType": "string",
          "name": "",
          "type": "string"
        }
      ],
      "stateMutability": "view",
      "type": "function"
    },
    {
      "inputs": [],
      "name": "owner",
      "outputs": [
        {
          "internalType": "address",
          "name": "",
          "type": "address"
        }
      ],
      "stateMutability": "view",
      "type": "function"
    },
    {
      "inputs": [
        {
          "internalType": "uint256",
          "name": "tokenId",
          "type": "uint256"
        }
      ],
      "name": "ownerOf",
      "outputs": [
        {
          "internalType": "address",
          "name": "",
          "type": "address"
        }
      ],
      "stateMutability": "view",
      "type": "function"
    },
    {
      "inputs": [
        {
          "internalType": "uint256",
          "name": "",
          "type": "uint256"
        }
      ],
      "name": "payouts",
      "outputs": [
        {
          "internalType": "address",
          "name": "wallet",
          "type": "address"
        },
        {
          "internalType": "uint96",
          "name": "share",
          "type": "uint96"
        }
      ],
      "stateMutability": "view",
      "type": "function"
    },
    {
      "inputs": [],
      "name": "price",
      "outputs": [
        {
          "internalType": "uint256",
          "name": "",
          "type": "uint256"
        }
      ],
      "stateMutability": "view",
      "type": "function"
    },
    {
      "inputs": [],
      "name": "renounceOwnership",
      "outputs": [],
      "stateMutability": "nonpayable",
      "type": "function"
    },
    {
      "inputs": [
        {
          "internalType": "uint256",
          "name": "tokenId",
          "type": "uint256"
        },
        {
          "internalType": "uint256",
          "name": "salePrice",
          "type": "uint256"
        }
      ],
      "name": "royaltyInfo",
      "outputs": [
        {
          "internalType": "address",
          "name": "receiver",
          "type": "address"
        },
        {
          "internalType": "uint256",
          "name": "amount",
          "type": "uint256"
        }
      ],
      "stateMutability": "view",
      "type": "function"
    },
    {
      "inputs": [
        {
          "internalType": "address",
          "name": "from",
          "type": "address"
        },
        {
          "internalType": "address",
          "name": "to",
          "type": "address"
        },
        {
          "internalType": "uint256",
          "name": "tokenId",
          "type": "uint256"
        }
      ],
      "name": "safeTransferFrom",
      "outputs": [],
      "stateMutability": "nonpayable",
      "type": "function"
    },
    {
      "inputs": [
        {
          "internalType": "address",
          "name": "from",
          "type": "address"
        },
        {
          "internalType": "address",
          "name": "to",
          "type": "address"
        },
        {
          "internalType": "uint256",
          "name": "tokenId",
          "type": "uint256"
        },
        {
          "internalType": "bytes",
          "name": "data",
          "type": "bytes"
        }
      ],
      "name": "safeTransferFrom",
      "outputs": [],
      "stateMutability": "nonpayable",
      "type": "function"
    },
    {
      "inputs": [
        {
          "internalType": "address",
          "name": "operator",
          "type": "address"
        },
        {
          "internalType": "bool",
          "name": "approved",
          "type": "bool"
        }
      ],
      "name": "setApprovalForAll",
      "outputs": [],
      "stateMutability": "nonpayable",
      "type": "function"
    },
    {
      "inputs": [
        {
          "internalType": "address",
          "name": "_vault",
          "type": "address"
        }
      ],
      "name": "setVault",
      "outputs": [],
      "stateMutability": "nonpayable",
      "type": "function"
    },
    {
      "inputs": [
        {
          "internalType": "bytes4",
          "name": "interfaceId",
          "type": "bytes4"
        }
      ],
      "name": "supportsInterface",
      "outputs": [
        {
          "internalType": "bool",
          "name": "",
          "type": "bool"
        }
      ],
      "stateMutability": "view",
      "type": "function"
    },
    {
      "inputs": [],
      "name": "symbol",
      "outputs": [
        {
          "internalType": "string",
          "name": "",
          "type": "string"
        }
      ],
      "stateMutability": "view",
      "type": "function"
    },
    {
      "inputs": [
        {
          "internalType": "uint256",
          "name": "tokenId",
          "type": "uint256"
        }
      ],
      "name": "tokenURI",
      "outputs": [
        {
          "internalType": "string",
          "name": "",
          "type": "string"
        }
      ],
      "stateMutability": "view",
      "type": "function"
    },
    {
      "inputs": [],
      "name": "totalMinted",
      "outputs": [
        {
          "internalType": "uint256",
          "name": "",
          "type": "uint256"
        }
      ],
      "stateMutability": "view",
      "type": "function"
    },
    {
      "inputs": [],
      "name": "totalShare",
      "outputs": [
        {
          "internalType": "uint96",
          "name": "",
          "type": "uint96"
        }
      ],
      "stateMutability": "view",
      "type": "function"
    },
    {
      "inputs": [
        {
          "internalType": "address",
          "name": "from",
          "type": "address"
        },
        {
          "internalType": "address",
          "name": "to",
          "type": "address"
        },
        {
          "internalType": "uint256",
          "name": "tokenId",
          "type": "uint256"
        }
      ],
      "name": "transferFrom",
      "outputs": [],
      "stateMutability": "nonpayable",
      "type": "function"
    },
    {
      "inputs": [
        {
          "internalType": "address",
          "name": "newOwner",
          "type": "address"
        }
      ],
      "name": "transferOwnership",
      "outputs": [],
      "stateMutability": "nonpayable",
      "type": "function"
    },
    {
      "inputs": [],
      "name": "vault",
      "outputs": [
        {
          "internalType": "address",
          "name": "",
          "type": "address"
        }
      ],
      "stateMutability": "view",
      "type": "function"
    },
    {
      "inputs": [],
      "name": "zone",
      "outputs": [
        {
          "internalType": "string",
          "name": "",
          "type": "string"
        }
      ],
      "stateMutability": "view",
      "type": "function"
    }
  ],
  "bytecode": "0x60806040526103e8601360006101000a8154816bffffffffffffffffffffffff02191690836bffffffffffffffffffffffff16021790555034801561004357600080fd5b50604051614d10380380614d1083398181016040528101906100659190610bbe565b838a6040518060400160405280600681526020017f5449434b4554000000000000000000000000000000000000000000000000000081525081600090816100ac9190610f8d565b5080600190816100bc9190610f8d565b505050600073ffffffffffffffffffffffffffffffffffffffff168173ffffffffffffffffffffffffffffffffffffffff16036101315760006040517f1e4fbdf7000000000000000000000000000000000000000000000000000000008152600401610128919061106e565b60405180910390fd5b6101408161056e60201b60201c565b508051825114610185576040517f08c379a000000000000000000000000000000000000000000000000000000000815260040161017c906110e6565b60405180910390fd5b600086116101c8576040517f08c379a00000000000000000000000000000000000000000000000000000000081526004016101bf90611152565b60405180910390fd5b6000851161020b576040517f08c379a0000000000000000000000000000000000000000000000000000000008152600401610202906111be565b60405180910390fd5b601360009054906101000a90046bffffffffffffffffffffffff166bffffffffffffffffffffffff16836bffffffffffffffffffffffff161115610284576040517f08c379a000000000000000000000000000000000000000000000000000000000815260040161027b9061122a565b60405180910390fd5b6000805b835181101561046357600073ffffffffffffffffffffffffffffffffffffffff168482815181106102bc576102bb61124a565b5b602002602001015173ffffffffffffffffffffffffffffffffffffffff160361031a576040517f08c379a0000000000000000000000000000000000000000000000000000000008152600401610311906112c5565b60405180910390fd5b6014604051806040016040528086848151811061033a5761033961124a565b5b602002602001015173ffffffffffffffffffffffffffffffffffffffff1681526020018584815181106103705761036f61124a565b5b60200260200101516bffffffffffffffffffffffff168152509080600181540180825580915050600190039060005260206000200160009091909190915060008201518160000160006101000a81548173ffffffffffffffffffffffffffffffffffffffff021916908373ffffffffffffffffffffffffffffffffffffffff16021790555060208201518160000160146101000a8154816bffffffffffffffffffffffff02191690836bffffffffffffffffffffffff16021790555050508281815181106104415761044061124a565b5b6020026020010151826104549190611314565b91508080600101915050610288565b50612710816bffffffffffffffffffffffff16146104b6576040517f08c379a00000000000000000000000000000000000000000000000000000000081526004016104ad906113a0565b60405180910390fd5b80601560006101000a8154816bffffffffffffffffffffffff02191690836bffffffffffffffffffffffff1602179055506104f7858561063460201b60201c565b8b600b90816105069190610f8d565b508a600c90816105169190610f8d565b5089600d90816105269190610f8d565b5088600e90816105369190610f8d565b5087600f90816105469190610f8d565b5086601081905550856011819055506000601281905550505050505050505050505050611429565b6000600960009054906101000a900473ffffffffffffffffffffffffffffffffffffffff16905081600960006101000a81548173ffffffffffffffffffffffffffffffffffffffff021916908373ffffffffffffffffffffffffffffffffffffffff1602179055508173ffffffffffffffffffffffffffffffffffffffff168173ffffffffffffffffffffffffffffffffffffffff167f8be0079c531659141344cd1fd0a4f28419497f9722a3daafe3b4186f6b6457e060405160405180910390a35050565b60006106446107dc60201b60201c565b6bffffffffffffffffffffffff16905080826bffffffffffffffffffffffff1611156106a95781816040517f6f483d090000000000000000000000000000000000000000000000000000000081526004016106a0929190611400565b60405180910390fd5b600073ffffffffffffffffffffffffffffffffffffffff168373ffffffffffffffffffffffffffffffffffffffff160361071b5760006040517fb6d9900a000000000000000000000000000000000000000000000000000000008152600401610712919061106e565b60405180910390fd5b60405180604001604052808473ffffffffffffffffffffffffffffffffffffffff168152602001836bffffffffffffffffffffffff16815250600760008201518160000160006101000a81548173ffffffffffffffffffffffffffffffffffffffff021916908373ffffffffffffffffffffffffffffffffffffffff16021790555060208201518160000160146101000a8154816bffffffffffffffffffffffff02191690836bffffffffffffffffffffffff160217905550905050505050565b6000612710905090565b6000604051905090565b600080fd5b600080fd5b600080fd5b600080fd5b6000601f19601f8301169050919050565b7f4e487b7100000000000000000000000000000000000000000000000000000000600052604160045260246000fd5b61084d82610804565b810181811067ffffffffffffffff8211171561086c5761086b610815565b5b80604052505050565b600061087f6107e6565b905061088b8282610844565b919050565b600067ffffffffffffffff8211156108ab576108aa610815565b5b6108b482610804565b9050602081019050919050565b60005b838110156108df5780820151818401526020810190506108c4565b60008484015250505050565b60006108fe6108f984610890565b610875565b90508281526020810184848401111561091a576109196107ff565b5b6109258482856108c1565b509392505050565b600082601f830112610942576109416107fa565b5b81516109528482602086016108eb565b91505092915050565b6000819050919050565b61096e8161095b565b811461097957600080fd5b50565b60008151905061098b81610965565b92915050565b600073ffffffffffffffffffffffffffffffffffffffff82169050919050565b60006109bc82610991565b9050919050565b6109cc816109b1565b81146109d757600080fd5b50565b6000815190506109e9816109c3565b92915050565b60006bffffffffffffffffffffffff82169050919050565b610a10816109ef565b8114610a1b57600080fd5b50565b600081519050610a2d81610a07565b92915050565b600067ffffffffffffffff821115610a4e57610a4d610815565b5b602082029050602081019050919050565b600080fd5b6000610a77610a7284610a33565b610875565b90508083825260208201905060208402830185811115610a9a57610a99610a5f565b5b835b81811015610ac35780610aaf88826109da565b845260208401935050602081019050610a9c565b5050509392505050565b600082601f830112610ae257610ae16107fa565b5b8151610af2848260208601610a64565b91505092915050565b600067ffffffffffffffff821115610b1657610b15610815565b5b602082029050602081019050919050565b6000610b3a610b3584610afb565b610875565b90508083825260208201905060208402830185811115610b5d57610b5c610a5f565b5b835b81811015610b865780610b728882610a1e565b845260208401935050602081019050610b5f565b5050509392505050565b600082601f830112610ba557610ba46107fa565b5b8151610bb5848260208601610b27565b91505092915050565b60008060008060008060008060008060006101608c8e031215610be457610be36107f0565b5b60008c015167ffffffffffffffff811115610c0257610c016107f5565b5b610c0e8e828f0161092d565b9b505060208c015167ffffffffffffffff811115610c2f57610c2e6107f5565b5b610c3b8e828f0161092d565b9a505060408c015167ffffffffffffffff811115610c5c57610c5b6107f5565b5b610c688e828f0161092d565b99505060608c015167ffffffffffffffff811115610c8957610c886107f5565b5b610c958e828f0161092d565b98505060808c015167ffffffffffffffff811115610cb657610cb56107f5565b5b610cc28e828f0161092d565b97505060a0610cd38e828f0161097c565b96505060c0610ce48e828f0161097c565b95505060e0610cf58e828f016109da565b945050610100610d078e828f01610a1e565b9350506101208c015167ffffffffffffffff811115610d2957610d286107f5565b5b610d358e828f01610acd565b9250506101408c015167ffffffffffffffff811115610d5757610d566107f5565b5b610d638e828f01610b90565b9150509295989b509295989b9093969950565b600081519050919050565b7f4e487b7100000000000000000000000000000000000000000000000000000000600052602260045260246000fd5b60006002820490506001821680610dc857607f821691505b602082108103610ddb57610dda610d81565b5b50919050565b60008190508160005260206000209050919050565b60006020601f8301049050919050565b600082821b905092915050565b600060088302610e437fffffffffffffffffffffffffffffffffffffffffffffffffffffffffffffffff82610e06565b610e4d8683610e06565b95508019841693508086168417925050509392505050565b6000819050919050565b6000610e8a610e85610e808461095b565b610e65565b61095b565b9050919050565b6000819050919050565b610ea483610e6f565b610eb8610eb082610e91565b848454610e13565b825550505050565b600090565b610ecd610ec0565b610ed8818484610e9b565b505050565b5b81811015610efc57610ef1600082610ec5565b600181019050610ede565b5050565b601f821115610f4157610f1281610de1565b610f1b84610df6565b81016020851015610f2a578190505b610f3e610f3685610df6565b830182610edd565b50505b505050565b600082821c905092915050565b6000610f6460001984600802610f46565b1980831691505092915050565b6000610f7d8383610f53565b9150826002028217905092915050565b610f9682610d76565b67ffffffffffffffff811115610faf57610fae610815565b5b610fb98254610db0565b610fc4828285610f00565b600060209050601f831160018114610ff75760008415610fe5578287015190505b610fef8582610f71565b865550611057565b601f19841661100586610de1565b60005b8281101561102d57848901518255600182019150602085019450602081019050611008565b8683101561104a5784890151611046601f891682610f53565b8355505b6001600288020188555050505b505050505050565b611068816109b1565b82525050565b6000602082019050611083600083018461105f565b92915050565b600082825260208201905092915050565b7f77616c6c65742f7368617265206d69736d617463680000000000000000000000600082015250565b60006110d0601583611089565b91506110db8261109a565b602082019050919050565b600060208201905081810360008301526110ff816110c3565b9050919050565b7f7072696365206d757374206265203e2030000000000000000000000000000000600082015250565b600061113c601183611089565b915061114782611106565b602082019050919050565b6000602082019050818103600083015261116b8161112f565b9050919050565b7f6d6178537570706c79206d757374206265203e20300000000000000000000000600082015250565b60006111a8601583611089565b91506111b382611172565b602082019050919050565b600060208201905081810360008301526111d78161119b565b9050919050565b7f726f79616c747920746f6f206869676800000000000000000000000000000000600082015250565b6000611214601083611089565b915061121f826111de565b602082019050919050565b6000602082019050818103600083015261124381611207565b9050919050565b7f4e487b7100000000000000000000000000000000000000000000000000000000600052603260045260246000fd5b7f696e76616c69642077616c6c6574000000000000000000000000000000000000600082015250565b60006112af600e83611089565b91506112ba82611279565b602082019050919050565b600060208201905081810360008301526112de816112a2565b9050919050565b7f4e487b7100000000000000000000000000000000000000000000000000000000600052601160045260246000fd5b600061131f826109ef565b915061132a836109ef565b925082820190506bffffffffffffffffffffffff81111561134e5761134d6112e5565b5b92915050565b7f746f74616c20736861726520213d203130302500000000000000000000000000600082015250565b600061138a601383611089565b915061139582611354565b602082019050919050565b600060208201905081810360008301526113b98161137d565b9050919050565b60006113db6113d66113d1846109ef565b610e65565b61095b565b9050919050565b6113eb816113c0565b82525050565b6113fa8161095b565b82525050565b600060408201905061141560008301856113e2565b61142260208301846113f1565b9392505050565b6138d8806114386000396000f3fe6080604052600436106101e35760003560e01c80638043c9c011610102578063c87b56dd11610095578063f310b98511610064578063f310b9851461070a578063f3ccaac014610735578063fa30b25114610760578063fbfa77cf1461077c576101e3565b8063c87b56dd1461063c578063d5abeb0114610679578063e985e9c5146106a4578063f2fde38b146106e1576101e3565b8063a035b1fe116100d1578063a035b1fe14610594578063a22cb465146105bf578063a2309ff8146105e8578063b88d4fde14610613576101e3565b80638043c9c0146104e85780638cdd9c8f146105135780638da5cb5b1461053e57806395d89b4114610569576101e3565b80632a55205a1161017a5780636817031b116101495780636817031b1461044057806370a0823114610469578063715018a6146104a65780637284e416146104bd576101e3565b80632a55205a1461037357806342842e0e146103b15780635388842c146103da5780636352211e14610403576101e3565b8063089cdd0c116101b6578063089cdd0c146102b8578063095ea7b3146102e357806323b872dd1461030c57806329652e8614610335576101e3565b806301ffc9a7146101e8578063026c42071461022557806306fdde0314610250578063081812fc1461027b575b600080fd5b3480156101f457600080fd5b5061020f600480360381019061020a91906128cc565b6107a7565b60405161021c9190612914565b60405180910390f35b34801561023157600080fd5b5061023a6107b9565b6040516102479190612956565b60405180910390f35b34801561025c57600080fd5b506102656107d7565b6040516102729190612a01565b60405180910390f35b34801561028757600080fd5b506102a2600480360381019061029d9190612a59565b610869565b6040516102af9190612ac7565b60405180910390f35b3480156102c457600080fd5b506102cd610885565b6040516102da9190612a01565b60405180910390f35b3480156102ef57600080fd5b5061030a60048036038101906103059190612b0e565b610913565b005b34801561031857600080fd5b50610333600480360381019061032e9190612b4e565b610929565b005b34801561034157600080fd5b5061035c60048036038101906103579190612a59565b610a2b565b60405161036a929190612ba1565b60405180910390f35b34801561037f57600080fd5b5061039a60048036038101906103959190612bca565b610a93565b6040516103a8929190612c19565b60405180910390f35b3480156103bd57600080fd5b506103d860048036038101906103d39190612b4e565b610bc3565b005b3480156103e657600080fd5b5061040160048036038101906103fc9190612d77565b610be3565b005b34801561040f57600080fd5b5061042a60048036038101906104259190612a59565b610d29565b6040516104379190612ac7565b60405180910390f35b34801561044c57600080fd5b5061046760048036038101906104629190612dd3565b610d3b565b005b34801561047557600080fd5b50610490600480360381019061048b9190612dd3565b610df6565b60405161049d9190612e00565b60405180910390f35b3480156104b257600080fd5b506104bb610eb0565b005b3480156104c957600080fd5b506104d2610ec4565b6040516104df9190612a01565b60405180910390f35b3480156104f457600080fd5b506104fd610f52565b60405161050a9190612a01565b60405180910390f35b34801561051f57600080fd5b50610528610fe0565b6040516105359190612956565b60405180910390f35b34801561054a57600080fd5b50610553610ffe565b6040516105609190612ac7565b60405180910390f35b34801561057557600080fd5b5061057e611028565b60405161058b9190612a01565b60405180910390f35b3480156105a057600080fd5b506105a96110ba565b6040516105b69190612e00565b60405180910390f35b3480156105cb57600080fd5b506105e660048036038101906105e19190612e47565b6110c0565b005b3480156105f457600080fd5b506105fd6110d6565b60405161060a9190612e00565b60405180910390f35b34801561061f57600080fd5b5061063a60048036038101906106359190612f28565b6110dc565b005b34801561064857600080fd5b50610663600480360381019061065e9190612a59565b611101565b6040516106709190612a01565b60405180910390f35b34801561068557600080fd5b5061068e611113565b60405161069b9190612e00565b60405180910390f35b3480156106b057600080fd5b506106cb60048036038101906106c69190612fab565b611119565b6040516106d89190612914565b60405180910390f35b3480156106ed57600080fd5b5061070860048036038101906107039190612dd3565b6111ad565b005b34801561071657600080fd5b5061071f611233565b60405161072c9190612a01565b60405180910390f35b34801561074157600080fd5b5061074a6112c1565b6040516107579190612a01565b60405180910390f35b61077a60048036038101906107759190612feb565b61134f565b005b34801561078857600080fd5b506107916115d1565b60405161079e9190612ac7565b60405180910390f35b60006107b2826115f7565b9050919050565b601560009054906101000a90046bffffffffffffffffffffffff1681565b6060600080546107e690613063565b80601f016020809104026020016040519081016040528092919081815260200182805461081290613063565b801561085f5780601f106108345761010080835404028352916020019161085f565b820191906000526020600020905b81548152906001019060200180831161084257829003601f168201915b5050505050905090565b600061087482611671565b5061087e826116f9565b9050919050565b600b805461089290613063565b80601f01602080910402602001604051908101604052809291908181526020018280546108be90613063565b801561090b5780601f106108e05761010080835404028352916020019161090b565b820191906000526020600020905b8154815290600101906020018083116108ee57829003601f168201915b505050505081565b6109258282610920611736565b61173e565b5050565b600073ffffffffffffffffffffffffffffffffffffffff168273ffffffffffffffffffffffffffffffffffffffff160361099b5760006040517f64a0ae920000000000000000000000000000000000000000000000000000000081526004016109929190612ac7565b60405180910390fd5b60006109af83836109aa611736565b611750565b90508373ffffffffffffffffffffffffffffffffffffffff168173ffffffffffffffffffffffffffffffffffffffff1614610a25578382826040517f64283d7b000000000000000000000000000000000000000000000000000000008152600401610a1c93929190613094565b60405180910390fd5b50505050565b60148181548110610a3b57600080fd5b906000526020600020016000915090508060000160009054906101000a900473ffffffffffffffffffffffffffffffffffffffff16908060000160149054906101000a90046bffffffffffffffffffffffff16905082565b600080600060086000868152602001908152602001600020905060008160000160009054906101000a900473ffffffffffffffffffffffffffffffffffffffff16905060008260000160149054906101000a90046bffffffffffffffffffffffff169050600073ffffffffffffffffffffffffffffffffffffffff168273ffffffffffffffffffffffffffffffffffffffff1603610b7457600760000160009054906101000a900473ffffffffffffffffffffffffffffffffffffffff169150600760000160149054906101000a90046bffffffffffffffffffffffff1690505b6000610b7e61196a565b6bffffffffffffffffffffffff16826bffffffffffffffffffffffff1688610ba691906130fa565b610bb0919061316b565b9050828195509550505050509250929050565b610bde838383604051806020016040528060008152506110dc565b505050565b610beb611974565b60115460125410610c31576040517f08c379a0000000000000000000000000000000000000000000000000000000008152600401610c28906131e8565b60405180910390fd5b600073ffffffffffffffffffffffffffffffffffffffff168273ffffffffffffffffffffffffffffffffffffffff1603610ca0576040517f08c379a0000000000000000000000000000000000000000000000000000000008152600401610c9790613254565b60405180910390fd5b60126000815480929190610cb390613274565b919050555060006012549050610cc983826119fb565b610cd38183611a19565b808373ffffffffffffffffffffffffffffffffffffffff167fcbea9c23945e351434f7ae5b1a435091cc278dd9dd0eba4c04203674014ca7d7601054604051610d1c9190612e00565b60405180910390a3505050565b6000610d3482611671565b9050919050565b610d43611974565b600073ffffffffffffffffffffffffffffffffffffffff168173ffffffffffffffffffffffffffffffffffffffff1603610db2576040517f08c379a0000000000000000000000000000000000000000000000000000000008152600401610da990613308565b60405180910390fd5b80600a60006101000a81548173ffffffffffffffffffffffffffffffffffffffff021916908373ffffffffffffffffffffffffffffffffffffffff16021790555050565b60008073ffffffffffffffffffffffffffffffffffffffff168273ffffffffffffffffffffffffffffffffffffffff1603610e695760006040517f89c62b64000000000000000000000000000000000000000000000000000000008152600401610e609190612ac7565b60405180910390fd5b600360008373ffffffffffffffffffffffffffffffffffffffff1673ffffffffffffffffffffffffffffffffffffffff168152602001908152602001600020549050919050565b610eb8611974565b610ec26000611a75565b565b600d8054610ed190613063565b80601f0160208091040260200160405190810160405280929190818152602001828054610efd90613063565b8015610f4a5780601f10610f1f57610100808354040283529160200191610f4a565b820191906000526020600020905b815481529060010190602001808311610f2d57829003601f168201915b505050505081565b600c8054610f5f90613063565b80601f0160208091040260200160405190810160405280929190818152602001828054610f8b90613063565b8015610fd85780601f10610fad57610100808354040283529160200191610fd8565b820191906000526020600020905b815481529060010190602001808311610fbb57829003601f168201915b505050505081565b601360009054906101000a90046bffffffffffffffffffffffff1681565b6000600960009054906101000a900473ffffffffffffffffffffffffffffffffffffffff16905090565b60606001805461103790613063565b80601f016020809104026020016040519081016040528092919081815260200182805461106390613063565b80156110b05780601f10611085576101008083540402835291602001916110b0565b820191906000526020600020905b81548152906001019060200180831161109357829003601f168201915b5050505050905090565b60105481565b6110d26110cb611736565b8383611b3b565b5050565b60125481565b6110e7848484610929565b6110fb6110f2611736565b85858585611caa565b50505050565b606061110c82611e5b565b9050919050565b60115481565b6000600560008473ffffffffffffffffffffffffffffffffffffffff1673ffffffffffffffffffffffffffffffffffffffff16815260200190815260200160002060008373ffffffffffffffffffffffffffffffffffffffff1673ffffffffffffffffffffffffffffffffffffffff16815260200190815260200160002060009054906101000a900460ff16905092915050565b6111b5611974565b600073ffffffffffffffffffffffffffffffffffffffff168173ffffffffffffffffffffffffffffffffffffffff16036112275760006040517f1e4fbdf700000000000000000000000000000000000000000000000000000000815260040161121e9190612ac7565b60405180910390fd5b61123081611a75565b50565b600e805461124090613063565b80601f016020809104026020016040519081016040528092919081815260200182805461126c90613063565b80156112b95780601f1061128e576101008083540402835291602001916112b9565b820191906000526020600020905b81548152906001019060200180831161129c57829003601f168201915b505050505081565b600f80546112ce90613063565b80601f01602080910402602001604051908101604052809291908181526020018280546112fa90613063565b80156113475780601f1061131c57610100808354040283529160200191611347565b820191906000526020600020905b81548152906001019060200180831161132a57829003601f168201915b505050505081565b60115460125410611395576040517f08c379a000000000000000000000000000000000000000000000000000000000815260040161138c90613374565b60405180910390fd5b6010543410156113da576040517f08c379a00000000000000000000000000000000000000000000000000000000081526004016113d1906133e0565b60405180910390fd5b601260008154809291906113ed90613274565b91905055506000601254905061140333826119fb565b61140d8183611a19565b60005b60148054905081101561157d5760006127106014838154811061143657611435613400565b5b9060005260206000200160000160149054906101000a90046bffffffffffffffffffffffff166bffffffffffffffffffffffff163461147591906130fa565b61147f919061316b565b905060006014838154811061149757611496613400565b5b9060005260206000200160000160009054906101000a900473ffffffffffffffffffffffffffffffffffffffff1673ffffffffffffffffffffffffffffffffffffffff16826040516114e890613460565b60006040518083038185875af1925050503d8060008114611525576040519150601f19603f3d011682016040523d82523d6000602084013e61152a565b606091505b505090508061156e576040517f08c379a0000000000000000000000000000000000000000000000000000000008152600401611565906134c1565b60405180910390fd5b50508080600101915050611410565b50803373ffffffffffffffffffffffffffffffffffffffff167f2a91574e12ad96234e84923e146b0946ecfb871cd8d5534dc1fdcbe87a7c01b3346040516115c59190612e00565b60405180910390a35050565b600a60009054906101000a900473ffffffffffffffffffffffffffffffffffffffff1681565b60007f2a55205a000000000000000000000000000000000000000000000000000000007bffffffffffffffffffffffffffffffffffffffffffffffffffffffff1916827bffffffffffffffffffffffffffffffffffffffffffffffffffffffff1916148061166a575061166982611f6e565b5b9050919050565b60008061167d83611fcf565b9050600073ffffffffffffffffffffffffffffffffffffffff168173ffffffffffffffffffffffffffffffffffffffff16036116f057826040517f7e2732890000000000000000000000000000000000000000000000000000000081526004016116e79190612e00565b60405180910390fd5b80915050919050565b60006004600083815260200190815260200160002060009054906101000a900473ffffffffffffffffffffffffffffffffffffffff169050919050565b600033905090565b61174b838383600161200c565b505050565b60008061175c84611fcf565b9050600073ffffffffffffffffffffffffffffffffffffffff168373ffffffffffffffffffffffffffffffffffffffff161461179e5761179d8184866121d1565b5b600073ffffffffffffffffffffffffffffffffffffffff168173ffffffffffffffffffffffffffffffffffffffff161461182f576117e060008560008061200c565b6001600360008373ffffffffffffffffffffffffffffffffffffffff1673ffffffffffffffffffffffffffffffffffffffff168152602001908152602001600020600082825403925050819055505b600073ffffffffffffffffffffffffffffffffffffffff168573ffffffffffffffffffffffffffffffffffffffff16146118b2576001600360008773ffffffffffffffffffffffffffffffffffffffff1673ffffffffffffffffffffffffffffffffffffffff168152602001908152602001600020600082825401925050819055505b846002600086815260200190815260200160002060006101000a81548173ffffffffffffffffffffffffffffffffffffffff021916908373ffffffffffffffffffffffffffffffffffffffff160217905550838573ffffffffffffffffffffffffffffffffffffffff168273ffffffffffffffffffffffffffffffffffffffff167fddf252ad1be2c89b69c2b068fc378daa952ba7f163c4a11628f55a4df523b3ef60405160405180910390a4809150509392505050565b6000612710905090565b61197c611736565b73ffffffffffffffffffffffffffffffffffffffff1661199a610ffe565b73ffffffffffffffffffffffffffffffffffffffff16146119f9576119bd611736565b6040517f118cdaa70000000000000000000000000000000000000000000000000000000081526004016119f09190612ac7565b60405180910390fd5b565b611a15828260405180602001604052806000815250612295565b5050565b80600660008481526020019081526020016000209081611a39919061368d565b507ff8e1a15aba9398e019f0b49df1a4fde98ee17ae345cb5f6b5e2c27f5033e8ce782604051611a699190612e00565b60405180910390a15050565b6000600960009054906101000a900473ffffffffffffffffffffffffffffffffffffffff16905081600960006101000a81548173ffffffffffffffffffffffffffffffffffffffff021916908373ffffffffffffffffffffffffffffffffffffffff1602179055508173ffffffffffffffffffffffffffffffffffffffff168173ffffffffffffffffffffffffffffffffffffffff167f8be0079c531659141344cd1fd0a4f28419497f9722a3daafe3b4186f6b6457e060405160405180910390a35050565b600073ffffffffffffffffffffffffffffffffffffffff168273ffffffffffffffffffffffffffffffffffffffff1603611bac57816040517f5b08ba18000000000000000000000000000000000000000000000000000000008152600401611ba39190612ac7565b60405180910390fd5b80600560008573ffffffffffffffffffffffffffffffffffffffff1673ffffffffffffffffffffffffffffffffffffffff16815260200190815260200160002060008473ffffffffffffffffffffffffffffffffffffffff1673ffffffffffffffffffffffffffffffffffffffff16815260200190815260200160002060006101000a81548160ff0219169083151502179055508173ffffffffffffffffffffffffffffffffffffffff168373ffffffffffffffffffffffffffffffffffffffff167f17307eab39ab6107e8899845ad3d59bd9653f200f220920489ca2b5937696c3183604051611c9d9190612914565b60405180910390a3505050565b60008373ffffffffffffffffffffffffffffffffffffffff163b1115611e54578273ffffffffffffffffffffffffffffffffffffffff1663150b7a02868685856040518563ffffffff1660e01b8152600401611d0994939291906137b4565b6020604051808303816000875af1925050508015611d4557506040513d601f19601f82011682018060405250810190611d429190613815565b60015b611dc9573d8060008114611d75576040519150601f19603f3d011682016040523d82523d6000602084013e611d7a565b606091505b506000815103611dc157836040517f64a0ae92000000000000000000000000000000000000000000000000000000008152600401611db89190612ac7565b60405180910390fd5b805160208201fd5b63150b7a0260e01b7bffffffffffffffffffffffffffffffffffffffffffffffffffffffff1916817bffffffffffffffffffffffffffffffffffffffffffffffffffffffff191614611e5257836040517f64a0ae92000000000000000000000000000000000000000000000000000000008152600401611e499190612ac7565b60405180910390fd5b505b5050505050565b6060611e6682611671565b506000600660008481526020019081526020016000208054611e8790613063565b80601f0160208091040260200160405190810160405280929190818152602001828054611eb390613063565b8015611f005780601f10611ed557610100808354040283529160200191611f00565b820191906000526020600020905b815481529060010190602001808311611ee357829003601f168201915b505050505090506000611f116122b9565b90506000815103611f26578192505050611f69565b600082511115611f5b578082604051602001611f4392919061387e565b60405160208183030381529060405292505050611f69565b611f64846122d0565b925050505b919050565b6000634906490660e01b7bffffffffffffffffffffffffffffffffffffffffffffffffffffffff1916827bffffffffffffffffffffffffffffffffffffffffffffffffffffffff19161480611fc85750611fc782612339565b5b9050919050565b60006002600083815260200190815260200160002060009054906101000a900473ffffffffffffffffffffffffffffffffffffffff169050919050565b80806120455750600073ffffffffffffffffffffffffffffffffffffffff168273ffffffffffffffffffffffffffffffffffffffff1614155b1561217957600061205584611671565b9050600073ffffffffffffffffffffffffffffffffffffffff168373ffffffffffffffffffffffffffffffffffffffff16141580156120c057508273ffffffffffffffffffffffffffffffffffffffff168173ffffffffffffffffffffffffffffffffffffffff1614155b80156120d357506120d18184611119565b155b1561211557826040517fa9fbf51f00000000000000000000000000000000000000000000000000000000815260040161210c9190612ac7565b60405180910390fd5b811561217757838573ffffffffffffffffffffffffffffffffffffffff168273ffffffffffffffffffffffffffffffffffffffff167f8c5be1e5ebec7d5bd14f71427d1e84f3dd0314c0f7b2291e5b200ac8c7c3b92560405160405180910390a45b505b836004600085815260200190815260200160002060006101000a81548173ffffffffffffffffffffffffffffffffffffffff021916908373ffffffffffffffffffffffffffffffffffffffff16021790555050505050565b6121dc83838361241b565b61229057600073ffffffffffffffffffffffffffffffffffffffff168373ffffffffffffffffffffffffffffffffffffffff160361225157806040517f7e2732890000000000000000000000000000000000000000000000000000000081526004016122489190612e00565b60405180910390fd5b81816040517f177e802f000000000000000000000000000000000000000000000000000000008152600401612287929190612c19565b60405180910390fd5b505050565b61229f83836124dc565b6122b46122aa611736565b6000858585611caa565b505050565b606060405180602001604052806000815250905090565b60606122db82611671565b5060006122e66122b9565b905060008151116123065760405180602001604052806000815250612331565b80612310846125d5565b60405160200161232192919061387e565b6040516020818303038152906040525b915050919050565b60007f80ac58cd000000000000000000000000000000000000000000000000000000007bffffffffffffffffffffffffffffffffffffffffffffffffffffffff1916827bffffffffffffffffffffffffffffffffffffffffffffffffffffffff1916148061240457507f5b5e139f000000000000000000000000000000000000000000000000000000007bffffffffffffffffffffffffffffffffffffffffffffffffffffffff1916827bffffffffffffffffffffffffffffffffffffffffffffffffffffffff1916145b806124145750612413826126a3565b5b9050919050565b60008073ffffffffffffffffffffffffffffffffffffffff168373ffffffffffffffffffffffffffffffffffffffff16141580156124d357508273ffffffffffffffffffffffffffffffffffffffff168473ffffffffffffffffffffffffffffffffffffffff16148061249457506124938484611119565b5b806124d257508273ffffffffffffffffffffffffffffffffffffffff166124ba836116f9565b73ffffffffffffffffffffffffffffffffffffffff16145b5b90509392505050565b600073ffffffffffffffffffffffffffffffffffffffff168273ffffffffffffffffffffffffffffffffffffffff160361254e5760006040517f64a0ae920000000000000000000000000000000000000000000000000000000081526004016125459190612ac7565b60405180910390fd5b600061255c83836000611750565b9050600073ffffffffffffffffffffffffffffffffffffffff168173ffffffffffffffffffffffffffffffffffffffff16146125d05760006040517f73c6ac6e0000000000000000000000000000000000000000000000000000000081526004016125c79190612ac7565b60405180910390fd5b505050565b6060600060016125e48461270d565b01905060008167ffffffffffffffff81111561260357612602612c4c565b5b6040519080825280601f01601f1916602001820160405280156126355781602001600182028036833780820191505090505b509050600082602083010190505b600115612698578080600190039150507f3031323334353637383961626364656600000000000000000000000000000000600a86061a8153600a858161268c5761268b61313c565b5b04945060008503612643575b819350505050919050565b60007f01ffc9a7000000000000000000000000000000000000000000000000000000007bffffffffffffffffffffffffffffffffffffffffffffffffffffffff1916827bffffffffffffffffffffffffffffffffffffffffffffffffffffffff1916149050919050565b600080600090507a184f03e93ff9f4daa797ed6e38ed64bf6a1f010000000000000000831061276b577a184f03e93ff9f4daa797ed6e38ed64bf6a1f01000000000000000083816127615761276061313c565b5b0492506040810190505b6d04ee2d6d415b85acef810000000083106127a8576d04ee2d6d415b85acef8100000000838161279e5761279d61313c565b5b0492506020810190505b662386f26fc1000083106127d757662386f26fc1000083816127cd576127cc61313c565b5b0492506010810190505b6305f5e1008310612800576305f5e10083816127f6576127f561313c565b5b0492506008810190505b612710831061282557612710838161281b5761281a61313c565b5b0492506004810190505b60648310612848576064838161283e5761283d61313c565b5b0492506002810190505b600a8310612857576001810190505b80915050919050565b6000604051905090565b600080fd5b600080fd5b60007fffffffff0000000000000000000000000000000000000000000000000000000082169050919050565b6128a981612874565b81146128b457600080fd5b50565b6000813590506128c6816128a0565b92915050565b6000602082840312156128e2576128e161286a565b5b60006128f0848285016128b7565b91505092915050565b60008115159050919050565b61290e816128f9565b82525050565b60006020820190506129296000830184612905565b92915050565b60006bffffffffffffffffffffffff82169050919050565b6129508161292f565b82525050565b600060208201905061296b6000830184612947565b92915050565b600081519050919050565b600082825260208201905092915050565b60005b838110156129ab578082015181840152602081019050612990565b60008484015250505050565b6000601f19601f8301169050919050565b60006129d382612971565b6129dd818561297c565b93506129ed81856020860161298d565b6129f6816129b7565b840191505092915050565b60006020820190508181036000830152612a1b81846129c8565b905092915050565b6000819050919050565b612a3681612a23565b8114612a4157600080fd5b50565b600081359050612a5381612a2d565b92915050565b600060208284031215612a6f57612a6e61286a565b5b6000612a7d84828501612a44565b91505092915050565b600073ffffffffffffffffffffffffffffffffffffffff82169050919050565b6000612ab182612a86565b9050919050565b612ac181612aa6565b82525050565b6000602082019050612adc6000830184612ab8565b92915050565b612aeb81612aa6565b8114612af657600080fd5b50565b600081359050612b0881612ae2565b92915050565b60008060408385031215612b2557612b2461286a565b5b6000612b3385828601612af9565b9250506020612b4485828601612a44565b9150509250929050565b600080600060608486031215612b6757612b6661286a565b5b6000612b7586828701612af9565b9350506020612b8686828701612af9565b9250506040612b9786828701612a44565b9150509250925092565b6000604082019050612bb66000830185612ab8565b612bc36020830184612947565b9392505050565b60008060408385031215612be157612be061286a565b5b6000612bef85828601612a44565b9250506020612c0085828601612a44565b9150509250929050565b612c1381612a23565b82525050565b6000604082019050612c2e6000830185612ab8565b612c3b6020830184612c0a565b9392505050565b600080fd5b600080fd5b7f4e487b7100000000000000000000000000000000000000000000000000000000600052604160045260246000fd5b612c84826129b7565b810181811067ffffffffffffffff82111715612ca357612ca2612c4c565b5b80604052505050565b6000612cb6612860565b9050612cc28282612c7b565b919050565b600067ffffffffffffffff821115612ce257612ce1612c4c565b5b612ceb826129b7565b9050602081019050919050565b82818337600083830152505050565b6000612d1a612d1584612cc7565b612cac565b905082815260208101848484011115612d3657612d35612c47565b5b612d41848285612cf8565b509392505050565b600082601f830112612d5e57612d5d612c42565b5b8135612d6e848260208601612d07565b91505092915050565b60008060408385031215612d8e57612d8d61286a565b5b6000612d9c85828601612af9565b925050602083013567ffffffffffffffff811115612dbd57612dbc61286f565b5b612dc985828601612d49565b9150509250929050565b600060208284031215612de957612de861286a565b5b6000612df784828501612af9565b91505092915050565b6000602082019050612e156000830184612c0a565b92915050565b612e24816128f9565b8114612e2f57600080fd5b50565b600081359050612e4181612e1b565b92915050565b60008060408385031215612e5e57612e5d61286a565b5b6000612e6c85828601612af9565b9250506020612e7d85828601612e32565b9150509250929050565b600067ffffffffffffffff821115612ea257612ea1612c4c565b5b612eab826129b7565b9050602081019050919050565b6000612ecb612ec684612e87565b612cac565b905082815260208101848484011115612ee757612ee6612c47565b5b612ef2848285612cf8565b509392505050565b600082601f830112612f0f57612f0e612c42565b5b8135612f1f848260208601612eb8565b91505092915050565b60008060008060808587031215612f4257612f4161286a565b5b6000612f5087828801612af9565b9450506020612f6187828801612af9565b9350506040612f7287828801612a44565b925050606085013567ffffffffffffffff811115612f9357612f9261286f565b5b612f9f87828801612efa565b91505092959194509250565b60008060408385031215612fc257612fc161286a565b5b6000612fd085828601612af9565b9250506020612fe185828601612af9565b9150509250929050565b6000602082840312156130015761300061286a565b5b600082013567ffffffffffffffff81111561301f5761301e61286f565b5b61302b84828501612d49565b91505092915050565b7f4e487b7100000000000000000000000000000000000000000000000000000000600052602260045260246000fd5b6000600282049050600182168061307b57607f821691505b60208210810361308e5761308d613034565b5b50919050565b60006060820190506130a96000830186612ab8565b6130b66020830185612c0a565b6130c36040830184612ab8565b949350505050565b7f4e487b7100000000000000000000000000000000000000000000000000000000600052601160045260246000fd5b600061310582612a23565b915061311083612a23565b925082820261311e81612a23565b91508282048414831517613135576131346130cb565b5b5092915050565b7f4e487b7100000000000000000000000000000000000000000000000000000000600052601260045260246000fd5b600061317682612a23565b915061318183612a23565b9250826131915761319061313c565b5b828204905092915050565b7f536f6c64204f7574000000000000000000000000000000000000000000000000600082015250565b60006131d260088361297c565b91506131dd8261319c565b602082019050919050565b60006020820190508181036000830152613201816131c5565b9050919050565b7f696e76616c696420616464726573730000000000000000000000000000000000600082015250565b600061323e600f8361297c565b915061324982613208565b602082019050919050565b6000602082019050818103600083015261326d81613231565b9050919050565b600061327f82612a23565b91507fffffffffffffffffffffffffffffffffffffffffffffffffffffffffffffffff82036132b1576132b06130cb565b5b600182019050919050565b7f696e76616c6964207661756c7400000000000000000000000000000000000000600082015250565b60006132f2600d8361297c565b91506132fd826132bc565b602082019050919050565b60006020820190508181036000830152613321816132e5565b9050919050565b7f736f6c64206f7574000000000000000000000000000000000000000000000000600082015250565b600061335e60088361297c565b915061336982613328565b602082019050919050565b6000602082019050818103600083015261338d81613351565b9050919050565b7f696e73756666696369656e742066756e64730000000000000000000000000000600082015250565b60006133ca60128361297c565b91506133d582613394565b602082019050919050565b600060208201905081810360008301526133f9816133bd565b9050919050565b7f4e487b7100000000000000000000000000000000000000000000000000000000600052603260045260246000fd5b600081905092915050565b50565b600061344a60008361342f565b91506134558261343a565b600082019050919050565b600061346b8261343d565b9150819050919050565b7f7061796f7574206661696c656400000000000000000000000000000000000000600082015250565b60006134ab600d8361297c565b91506134b682613475565b602082019050919050565b600060208201905081810360008301526134da8161349e565b9050919050565b60008190508160005260206000209050919050565b60006020601f8301049050919050565b600082821b905092915050565b6000600883026135437fffffffffffffffffffffffffffffffffffffffffffffffffffffffffffffffff82613506565b61354d8683613506565b95508019841693508086168417925050509392505050565b6000819050919050565b600061358a61358561358084612a23565b613565565b612a23565b9050919050565b6000819050919050565b6135a48361356f565b6135b86135b082613591565b848454613513565b825550505050565b600090565b6135cd6135c0565b6135d881848461359b565b505050565b5b818110156135fc576135f16000826135c5565b6001810190506135de565b5050565b601f82111561364157613612816134e1565b61361b846134f6565b8101602085101561362a578190505b61363e613636856134f6565b8301826135dd565b50505b505050565b600082821c905092915050565b600061366460001984600802613646565b1980831691505092915050565b600061367d8383613653565b9150826002028217905092915050565b61369682612971565b67ffffffffffffffff8111156136af576136ae612c4c565b5b6136b98254613063565b6136c4828285613600565b600060209050601f8311600181146136f757600084156136e5578287015190505b6136ef8582613671565b865550613757565b601f198416613705866134e1565b60005b8281101561372d57848901518255600182019150602085019450602081019050613708565b8683101561374a5784890151613746601f891682613653565b8355505b6001600288020188555050505b505050505050565b600081519050919050565b600082825260208201905092915050565b60006137868261375f565b613790818561376a565b93506137a081856020860161298d565b6137a9816129b7565b840191505092915050565b60006080820190506137c96000830187612ab8565b6137d66020830186612ab8565b6137e36040830185612c0a565b81810360608301526137f5818461377b565b905095945050505050565b60008151905061380f816128a0565b92915050565b60006020828403121561382b5761382a61286a565b5b600061383984828501613800565b91505092915050565b600081905092915050565b600061385882612971565b6138628185613842565b935061387281856020860161298d565b80840191505092915050565b600061388a828561384d565b9150613896828461384d565b9150819050939250505056fea264697066735822122013a915cc53e7e4e184714355eb1fe65c934b359a4d8835fa2d918be43dd8870064736f6c634300081c0033",
  "linkReferences": {},
  "deployedLinkReferences": {}
}