{
  "_format": "hh-sol-artifact-1",
  "contractName": "Vault",
  "sourceName": "contracts/vault.sol",
  "abi": [
    {
      "inputs": [],
      "stateMutability": "nonpayable",
      "type": "constructor"
    },
    {
      "inputs": [
        {
          "internalType": "address",
          "name": "owner",
          "type": "address"
        }
      ],
      "name": "OwnableInvalidOwner",
      "type": "error"
    },
    {
      "inputs": [
        {
          "internalType": "address",
          "name": "account",
          "type": "address"
        }
      ],
      "name": "OwnableUnauthorizedAccount",
      "type": "error"
    },
    {
      "inputs": [],
      "name": "ReentrancyGuardReentrantCall",
      "type": "error"
    },
    {
      "anonymous": false,
      "inputs": [
        {
          "indexed": true,
          "internalType": "address",
          "name": "buyer",
          "type": "address"
        },
        {
          "indexed": true,
          "internalType": "address",
          "name": "eventAddress",
          "type": "address"
        },
        {
          "indexed": false,
          "internalType": "uint256",
          "name": "tokenId",
          "type": "uint256"
        },
        {
          "indexed": false,
          "internalType": "uint256",
          "name": "amount",
          "type": "uint256"
        }
      ],
      "name": "Deposited",
      "type": "event"
    },
    {
      "anonymous": false,
      "inputs": [
        {
          "indexed": true,
          "internalType": "address",
          "name": "eventAddress",
          "type": "address"
        }
      ],
      "name": "EventCancelled",
      "type": "event"
    },
    {
      "anonymous": false,
      "inputs": [
        {
          "indexed": true,
          "internalType": "address",
          "name": "eventAddress",
          "type": "address"
        }
      ],
      "name": "EventCompleted",
      "type": "event"
    },
    {
      "anonymous": false,
      "inputs": [
        {
          "indexed": true,
          "internalType": "address",
          "name": "previousOwner",
          "type": "address"
        },
        {
          "indexed": true,
          "internalType": "address",
          "name": "newOwner",
          "type": "address"
        }
      ],
      "name": "OwnershipTransferred",
      "type": "event"
    },
    {
      "anonymous": false,
      "inputs": [
        {
          "indexed": true,
          "internalType": "address",
          "name": "buyer",
          "type": "address"
        },
        {
          "indexed": true,
          "internalType": "address",
          "name": "eventAddress",
          "type": "address"
        },
        {
          "indexed": false,
          "internalType": "uint256",
          "name": "tokenId",
          "type": "uint256"
        },
        {
          "indexed": false,
          "internalType": "uint256",
          "name": "amount",
          "type": "uint256"
        }
      ],
      "name": "Refunded",
      "type": "event"
    },
    {
      "anonymous": false,
      "inputs": [
        {
          "indexed": true,
          "internalType": "address",
          "name": "organizer",
          "type": "address"
        },
        {
          "indexed": true,
          "internalType": "address",
          "name": "eventAddress",
          "type": "address"
        },
        {
          "indexed": false,
          "internalType": "uint256",
          "name": "totalAmount",
          "type": "uint256"
        }
      ],
      "name": "Withdrawn",
      "type": "event"
    },
    {
      "inputs": [
        {
          "internalType": "address",
          "name": "eventAddress",
          "type": "address"
        }
      ],
      "name": "authorizeEvent",
      "outputs": [],
      "stateMutability": "nonpayable",
      "type": "function"
    },
    {
      "inputs": [
        {
          "internalType": "address",
          "name": "",
          "type": "address"
        }
      ],
      "name": "authorizedContracts",
      "outputs": [
        {
          "internalType": "bool",
          "name": "",
          "type": "bool"
        }
      ],
      "stateMutability": "view",
      "type": "function"
    },
    {
      "inputs": [
        {
          "internalType": "address",
          "name": "eventAddress",
          "type": "address"
        }
      ],
      "name": "cancelEvent",
      "outputs": [],
      "stateMutability": "nonpayable",
      "type": "function"
    },
    {
      "inputs": [
        {
          "internalType": "address",
          "name": "eventAddress",
          "type": "address"
        }
      ],
      "name": "completeEvent",
      "outputs": [],
      "stateMutability": "nonpayable",
      "type": "function"
    },
    {
      "inputs": [
        {
          "internalType": "address",
          "name": "eventAddress",
          "type": "address"
        },
        {
          "internalType": "uint256",
          "name": "tokenId",
          "type": "uint256"
        }
      ],
      "name": "deposit",
      "outputs": [],
      "stateMutability": "payable",
      "type": "function"
    },
    {
      "inputs": [
        {
          "internalType": "address",
          "name": "",
          "type": "address"
        },
        {
          "internalType": "uint256",
          "name": "",
          "type": "uint256"
        }
      ],
      "name": "deposits",
      "outputs": [
        {
          "internalType": "address",
          "name": "buyer",
          "type": "address"
        },
        {
          "internalType": "address",
          "name": "eventAddress",
          "type": "address"
        },
        {
          "internalType": "uint256",
          "name": "amount",
          "type": "uint256"
        },
        {
          "internalType": "bool",
          "name": "refunded",
          "type": "bool"
        }
      ],
      "stateMutability": "view",
      "type": "function"
    },
    {
      "inputs": [
        {
          "internalType": "address",
          "name": "",
          "type": "address"
        }
      ],
      "name": "eventBalances",
      "outputs": [
        {
          "internalType": "uint256",
          "name": "",
          "type": "uint256"
        }
      ],
      "stateMutability": "view",
      "type": "function"
    },
    {
      "inputs": [
        {
          "internalType": "address",
          "name": "",
          "type": "address"
        }
      ],
      "name": "eventStatus",
      "outputs": [
        {
          "internalType": "enum Vault.EventStatus",
          "name": "",
          "type": "uint8"
        }
      ],
      "stateMutability": "view",
      "type": "function"
    },
    {
      "inputs": [],
      "name": "factory",
      "outputs": [
        {
          "internalType": "address",
          "name": "",
          "type": "address"
        }
      ],
      "stateMutability": "view",
      "type": "function"
    },
    {
      "inputs": [
        {
          "internalType": "address",
          "name": "eventAddress",
          "type": "address"
        }
      ],
      "name": "getEventBalance",
      "outputs": [
        {
          "internalType": "uint256",
          "name": "",
          "type": "uint256"
        }
      ],
      "stateMutability": "view",
      "type": "function"
    },
    {
      "inputs": [
        {
          "internalType": "address",
          "name": "eventAddress",
          "type": "address"
        }
      ],
      "name": "getEventStatus",
      "outputs": [
        {
          "internalType": "string",
          "name": "",
          "type": "string"
        }
      ],
      "stateMutability": "view",
      "type": "function"
    },
    {
      "inputs": [],
      "name": "owner",
      "outputs": [
        {
          "internalType": "address",
          "name": "",
          "type": "address"
        }
      ],
      "stateMutability": "view",
      "type": "function"
    },
    {
      "inputs": [
        {
          "internalType": "address",
          "name": "eventAddress",
          "type": "address"
        },
        {
          "internalType": "uint256",
          "name": "tokenId",
          "type": "uint256"
        },
        {
          "internalType": "address",
          "name": "buyer",
          "type": "address"
        }
      ],
      "name": "refund",
      "outputs": [],
      "stateMutability": "nonpayable",
      "type": "function"
    },
    {
      "inputs": [],
      "name": "renounceOwnership",
      "outputs": [],
      "stateMutability": "nonpayable",
      "type": "function"
    },
    {
      "inputs": [
        {
          "internalType": "address",
          "name": "_factory",
          "type": "address"
        }
      ],
      "name": "setFactory",
      "outputs": [],
      "stateMutability": "nonpayable",
      "type": "function"
    },
    {
      "inputs": [
        {
          "internalType": "address",
          "name": "newOwner",
          "type": "address"
        }
      ],
      "name": "transferOwnership",
      "outputs": [],
      "stateMutability": "nonpayable",
      "type": "function"
    },
    {
      "inputs": [
        {
          "internalType": "address",
          "name": "eventAddress",
          "type": "address"
        },
        {
          "internalType": "uint256",
          "name": "tokenId",
          "type": "uint256"
        },
        {
          "internalType": "address",
          "name": "newBuyer",
          "type": "address"
        },
        {
          "internalType": "uint256",
          "name": "newAmount",
          "type": "uint256"
        }
      ],
      "name": "updateBuyer",
      "outputs": [],
      "stateMutability": "nonpayable",
      "type": "function"
    },
    {
      "inputs": [
        {
          "internalType": "address",
          "name": "eventAddress",
          "type": "address"
        }
      ],
      "name": "withdrawEventFunds",
      "outputs": [],
      "stateMutability": "nonpayable",
      "type": "function"
    }
  ],
  "bytecode": "0x60808060405234607957331560635760008054336001600160a01b0319821681178355916001600160a01b03909116907f8be0079c531659141344cd1fd0a4f28419497f9722a3daafe3b4186f6b6457e09080a360018055611162908161007f8239f35b631e4fbdf760e01b600052600060045260246000fd5b600080fdfe608080604052600436101561001357600080fd5b60003560e01c9081630d53d37a14610e64575080633d52dad014610e1e5780634154aede14610c2257806347e7ef2414610a71578063569ec316146109ee5780635bb47808146109295780635e0882291461053b578063710500d31461049f578063715018a6146104465780638c2ba20a146103df5780638da5cb5b146103b6578063bac782761461037c578063bf1f5b831461030c578063c45a0155146102e3578063d5b9221b146102a4578063d6d6817714610225578063e7978052146101735763f2fde38b146100e557600080fd5b3461016e57602036600319011261016e576100fe610e9a565b610106611103565b6001600160a01b0316801561015857600080546001600160a01b03198116831782556001600160a01b0316907f8be0079c531659141344cd1fd0a4f28419497f9722a3daafe3b4186f6b6457e09080a3005b631e4fbdf760e01b600052600060045260246000fd5b600080fd5b3461016e57602036600319011261016e5761018c610e9a565b6101a160018060a01b03600654163314610ec6565b6001600160a01b031660008181526004602052604090205460ff16600381101561020f576101cf9015610fa1565b8060005260046020526040600020600260ff198254161790557f727966dbf8f1ef7d8484266f5f53e2b1fc338f6a6f13d77038cba871f9c0f9c1600080a2005b634e487b7160e01b600052602160045260246000fd5b3461016e57604036600319011261016e576001600160a01b03610246610e9a565b16600052600360205260406000206024356000526020526080604060002060018060a01b038154169060018060a01b036001820154169060ff6003600283015492015416916040519384526020840152604083015215156060820152f35b3461016e57602036600319011261016e576001600160a01b036102c5610e9a565b166000526002602052602060ff604060002054166040519015158152f35b3461016e57600036600319011261016e576006546040516001600160a01b039091168152602090f35b3461016e57602036600319011261016e5761032d610328610e9a565b611009565b60405190602082528181519182602083015260005b8381106103645750508160006040809484010152601f80199101168101030190f35b60208282018101516040878401015285935001610342565b3461016e57602036600319011261016e576001600160a01b0361039d610e9a565b1660005260056020526020604060002054604051908152f35b3461016e57600036600319011261016e576000546040516001600160a01b039091168152602090f35b3461016e57602036600319011261016e576103f8610e9a565b61040d60018060a01b03600654163314610ec6565b6001600160a01b03166000908152600260209081526040808320805460ff19908116600117909155600490925290912080549091169055005b3461016e57600036600319011261016e5761045f611103565b600080546001600160a01b0319811682556001600160a01b03167f8be0079c531659141344cd1fd0a4f28419497f9722a3daafe3b4186f6b6457e08280a3005b3461016e57602036600319011261016e576104b8610e9a565b6104cd60018060a01b03600654163314610ec6565b6001600160a01b031660008181526004602052604090205460ff16600381101561020f576104fb9015610fa1565b8060005260046020526040600020600160ff198254161790557f1ed6aef4830b61b6633644335de3c40aa545ab8d765b690ff36ae9729dafc1b7600080a2005b3461016e57602036600319011261016e57610554610e9a565b61055c6110e1565b61057160018060a01b03600654163314610ec6565b6001600160a01b031660008181526004602052604090205460ff16600381101561020f576002036108ee5780600052600560205260406000205480156108b8578160005260056020526000604081205560405163026c420760e01b8152602081600481865afa90811561073957600091610872575b506001600160601b036127109116036108375760005b604051632041e19560e11b8152602081600481875afa90811561073957600091610806575b5081101561074557604051630f4b82b960e31b8152816004820152604081602481875afa80156107395760009081906106e7575b6001600160601b039192501680840290848204036106d1576000808093612710829404905af1610683610f24565b5015610691576001016105fc565b60405162461bcd60e51b8152602060048201526018602482015277151c985b9cd9995c8819d859d85b081ad9481c185e5bdd5d60421b6044820152606490fd5b634e487b7160e01b600052601160045260246000fd5b506040823d8211610731575b8161070060409383610f02565b8101031261072e57506001600160601b03610726602061071f84610ff5565b9301610fe1565b829150610655565b80fd5b3d91506106f3565b6040513d6000823e3d90fd5b50604051638da5cb5b60e01b8152602081600481865afa908115610739576000916107a8575b506040519182526001600160a01b0316907fd1c19fbcd4551a5edfb66d43d2e337c04837afda3482b42bdf569a8fccdae5fb90602090a360018055005b90506020813d6020116107fe575b816107c360209383610f02565b8101031261016e5760206107f77fd1c19fbcd4551a5edfb66d43d2e337c04837afda3482b42bdf569a8fccdae5fb92610ff5565b915061076b565b3d91506107b6565b906020823d821161082f575b8161081f60209383610f02565b8101031261072e57505184610621565b3d9150610812565b60405162461bcd60e51b8152602060048201526013602482015272496e76616c696420746f74616c20736861726560681b6044820152606490fd5b90506020813d6020116108b0575b8161088d60209383610f02565b8101031261016e576001600160601b036108a961271092610fe1565b91506105e6565b3d9150610880565b60405162461bcd60e51b815260206004820152600e60248201526d42616c616e6365206b6f736f6e6760901b6044820152606490fd5b60405162461bcd60e51b81526020600482015260136024820152724576656e742062656c756d2073656c6573616960681b6044820152606490fd5b3461016e57602036600319011261016e57610942610e9a565b61094a611103565b600654906001600160a01b0382166109b3576001600160a01b031690811561097c576001600160a01b03191617600655005b60405162461bcd60e51b815260206004820152600f60248201526e496e76616c696420666163746f727960881b6044820152606490fd5b60405162461bcd60e51b8152602060048201526013602482015272119858dd1bdc9e481cdd59185a08191a5cd95d606a1b6044820152606490fd5b3461016e57608036600319011261016e57610a07610e9a565b610a0f610eb0565b90336000526002602052610a2a60ff60406000205416610f64565b6001600160a01b0390811660009081526003602090815260408083206024358452909152902080546001600160a01b03191692909116919091178155606435600290910155005b604036600319011261016e57610a85610e9a565b60243590336000526002602052610aa360ff60406000205416610f64565b610aab6110e1565b3415610be6576001600160a01b031660008181526004602052604090205490919060ff16600381101561020f57610ae29015610fa1565b6040516080810181811067ffffffffffffffff821117610bd057604090815233825260208083018581523484840181815260006060870181815289825260038087528783208a84528752878320985189546001600160a01b039182166001600160a01b0319918216178b55965160018b0180549190921697169690961790955591516002880155905195909201805460ff191695151560ff169590951790945585815260059091522080549182019182106106d157556040519081523460208201527ff5681f9d0db1b911ac18ee83d515a1cf1051853a9eae418316a2fdf7dea427c560403392a360018055005b634e487b7160e01b600052604160045260246000fd5b60405162461bcd60e51b81526020600482015260146024820152732a34b230b59030b230903832b6b130bcb0b930b760611b6044820152606490fd5b3461016e57606036600319011261016e57610c3b610e9a565b602435610c46610eb0565b91610c4f6110e1565b610c6460018060a01b03600654163314610ec6565b6001600160a01b031660008181526004602052604090205490929060ff16600381101561020f57600103610de0578260005260036020526040600020826000526020526040600020906002820154918215610da757600301805460ff8116610d715760ff1916600117905560008481526005602052604090208054838103929083116106d1576000848194928294938394555af1610d00610f24565b5015610d3d5760405191825260208201527f88808afc48888c0e3ec9c545474e31ce16f177be8d0c8ba3922274893615750e60403392a360018055005b60405162461bcd60e51b815260206004820152600c60248201526b1499599d5b990819d859d85b60a21b6044820152606490fd5b60405162461bcd60e51b815260206004820152600e60248201526d14dd59185a08191a5c99599d5b9960921b6044820152606490fd5b60405162461bcd60e51b8152602060048201526011602482015270151a59185ac81859184819195c1bdcda5d607a1b6044820152606490fd5b60405162461bcd60e51b815260206004820152601660248201527522bb32b73a103132b63ab6903234b130ba30b635b0b760511b6044820152606490fd5b3461016e57602036600319011261016e576001600160a01b03610e3f610e9a565b16600052600460205260ff60406000205416604051600382101561020f576020918152f35b3461016e57602036600319011261016e576020906001600160a01b03610e88610e9a565b16600052600582526040600020548152f35b600435906001600160a01b038216820361016e57565b604435906001600160a01b038216820361016e57565b15610ecd57565b60405162461bcd60e51b815260206004820152600d60248201526c42756b616e20666163746f727960981b6044820152606490fd5b90601f8019910116810190811067ffffffffffffffff821117610bd057604052565b3d15610f5f573d9067ffffffffffffffff8211610bd05760405191610f53601f8201601f191660200184610f02565b82523d6000602084013e565b606090565b15610f6b57565b60405162461bcd60e51b815260206004820152600e60248201526d1b9bdd08185d5d1a1bdc9a5e995960921b6044820152606490fd5b15610fa857565b60405162461bcd60e51b815260206004820152601160248201527022bb32b73a103a34b230b59030b5ba34b360791b6044820152606490fd5b51906001600160601b038216820361016e57565b51906001600160a01b038216820361016e57565b6001600160a01b031660009081526004602052604090205460ff16600381101561020f5780156110bc576000906001811461109357600291501461106c57604051611055604082610f02565b60078152662ab735b737bbb760c91b602082015290565b60405161107a604082610f02565b600981526810dbdb5c1b195d195960ba1b602082015290565b50506040516110a3604082610f02565b600981526810d85b98d95b1b195960ba1b602082015290565b506040516110cb604082610f02565b600681526541637469766560d01b602082015290565b6002600154146110f2576002600155565b633ee5aeb560e01b60005260046000fd5b6000546001600160a01b0316330361111757565b63118cdaa760e01b6000523360045260246000fdfea2646970667358221220f2cd9a4ebb80a92e548e79f2ff169d2cf3c14583a48192f11b24404bc43ff8ba64736f6c634300081c0033",
  "linkReferences": {},
  "deployedLinkReferences": {}
}