{
  "_format": "hh-sol-artifact-1",
  "contractName": "Vault",
  "sourceName": "contracts/vault.sol",
  "abi": [
    {
      "inputs": [],
      "stateMutability": "nonpayable",
      "type": "constructor"
    },
    {
      "inputs": [
        {
          "internalType": "address",
          "name": "owner",
          "type": "address"
        }
      ],
      "name": "OwnableInvalidOwner",
      "type": "error"
    },
    {
      "inputs": [
        {
          "internalType": "address",
          "name": "account",
          "type": "address"
        }
      ],
      "name": "OwnableUnauthorizedAccount",
      "type": "error"
    },
    {
      "inputs": [],
      "name": "ReentrancyGuardReentrantCall",
      "type": "error"
    },
    {
      "anonymous": false,
      "inputs": [
        {
          "indexed": true,
          "internalType": "address",
          "name": "buyer",
          "type": "address"
        },
        {
          "indexed": true,
          "internalType": "address",
          "name": "eventAddress",
          "type": "address"
        },
        {
          "indexed": false,
          "internalType": "uint256",
          "name": "tokenId",
          "type": "uint256"
        },
        {
          "indexed": false,
          "internalType": "uint256",
          "name": "amount",
          "type": "uint256"
        }
      ],
      "name": "Deposited",
      "type": "event"
    },
    {
      "anonymous": false,
      "inputs": [
        {
          "indexed": true,
          "internalType": "address",
          "name": "eventAddress",
          "type": "address"
        }
      ],
      "name": "EventCancelled",
      "type": "event"
    },
    {
      "anonymous": false,
      "inputs": [
        {
          "indexed": true,
          "internalType": "address",
          "name": "eventAddress",
          "type": "address"
        }
      ],
      "name": "EventCompleted",
      "type": "event"
    },
    {
      "anonymous": false,
      "inputs": [
        {
          "indexed": true,
          "internalType": "address",
          "name": "previousOwner",
          "type": "address"
        },
        {
          "indexed": true,
          "internalType": "address",
          "name": "newOwner",
          "type": "address"
        }
      ],
      "name": "OwnershipTransferred",
      "type": "event"
    },
    {
      "anonymous": false,
      "inputs": [
        {
          "indexed": true,
          "internalType": "address",
          "name": "buyer",
          "type": "address"
        },
        {
          "indexed": true,
          "internalType": "address",
          "name": "eventAddress",
          "type": "address"
        },
        {
          "indexed": false,
          "internalType": "uint256",
          "name": "tokenId",
          "type": "uint256"
        },
        {
          "indexed": false,
          "internalType": "uint256",
          "name": "amount",
          "type": "uint256"
        }
      ],
      "name": "Refunded",
      "type": "event"
    },
    {
      "anonymous": false,
      "inputs": [
        {
          "indexed": true,
          "internalType": "address",
          "name": "organizer",
          "type": "address"
        },
        {
          "indexed": true,
          "internalType": "address",
          "name": "eventAddress",
          "type": "address"
        },
        {
          "indexed": false,
          "internalType": "uint256",
          "name": "totalAmount",
          "type": "uint256"
        }
      ],
      "name": "Withdrawn",
      "type": "event"
    },
    {
      "inputs": [
        {
          "internalType": "address",
          "name": "eventAddress",
          "type": "address"
        }
      ],
      "name": "cancelEvent",
      "outputs": [],
      "stateMutability": "nonpayable",
      "type": "function"
    },
    {
      "inputs": [
        {
          "internalType": "address",
          "name": "eventAddress",
          "type": "address"
        }
      ],
      "name": "completeEvent",
      "outputs": [],
      "stateMutability": "nonpayable",
      "type": "function"
    },
    {
      "inputs": [
        {
          "internalType": "address",
          "name": "eventAddress",
          "type": "address"
        },
        {
          "internalType": "uint256",
          "name": "tokenId",
          "type": "uint256"
        }
      ],
      "name": "deposit",
      "outputs": [],
      "stateMutability": "payable",
      "type": "function"
    },
    {
      "inputs": [
        {
          "internalType": "address",
          "name": "",
          "type": "address"
        },
        {
          "internalType": "uint256",
          "name": "",
          "type": "uint256"
        }
      ],
      "name": "deposits",
      "outputs": [
        {
          "internalType": "uint256",
          "name": "amount",
          "type": "uint256"
        },
        {
          "internalType": "bool",
          "name": "refunded",
          "type": "bool"
        }
      ],
      "stateMutability": "view",
      "type": "function"
    },
    {
      "inputs": [
        {
          "internalType": "address",
          "name": "",
          "type": "address"
        }
      ],
      "name": "eventBalances",
      "outputs": [
        {
          "internalType": "uint256",
          "name": "",
          "type": "uint256"
        }
      ],
      "stateMutability": "view",
      "type": "function"
    },
    {
      "inputs": [
        {
          "internalType": "address",
          "name": "",
          "type": "address"
        }
      ],
      "name": "eventStatus",
      "outputs": [
        {
          "internalType": "enum Vault.EventStatus",
          "name": "",
          "type": "uint8"
        }
      ],
      "stateMutability": "view",
      "type": "function"
    },
    {
      "inputs": [],
      "name": "factory",
      "outputs": [
        {
          "internalType": "address",
          "name": "",
          "type": "address"
        }
      ],
      "stateMutability": "view",
      "type": "function"
    },
    {
      "inputs": [
        {
          "internalType": "address",
          "name": "eventAddress",
          "type": "address"
        }
      ],
      "name": "getEventBalance",
      "outputs": [
        {
          "internalType": "uint256",
          "name": "",
          "type": "uint256"
        }
      ],
      "stateMutability": "view",
      "type": "function"
    },
    {
      "inputs": [
        {
          "internalType": "address",
          "name": "eventAddress",
          "type": "address"
        }
      ],
      "name": "getEventStatus",
      "outputs": [
        {
          "internalType": "string",
          "name": "",
          "type": "string"
        }
      ],
      "stateMutability": "view",
      "type": "function"
    },
    {
      "inputs": [],
      "name": "owner",
      "outputs": [
        {
          "internalType": "address",
          "name": "",
          "type": "address"
        }
      ],
      "stateMutability": "view",
      "type": "function"
    },
    {
      "inputs": [
        {
          "internalType": "address",
          "name": "eventAddress",
          "type": "address"
        },
        {
          "internalType": "uint256",
          "name": "tokenId",
          "type": "uint256"
        },
        {
          "internalType": "address",
          "name": "buyer",
          "type": "address"
        }
      ],
      "name": "refund",
      "outputs": [],
      "stateMutability": "nonpayable",
      "type": "function"
    },
    {
      "inputs": [],
      "name": "renounceOwnership",
      "outputs": [],
      "stateMutability": "nonpayable",
      "type": "function"
    },
    {
      "inputs": [
        {
          "internalType": "address",
          "name": "_factory",
          "type": "address"
        }
      ],
      "name": "setFactory",
      "outputs": [],
      "stateMutability": "nonpayable",
      "type": "function"
    },
    {
      "inputs": [
        {
          "internalType": "address",
          "name": "newOwner",
          "type": "address"
        }
      ],
      "name": "transferOwnership",
      "outputs": [],
      "stateMutability": "nonpayable",
      "type": "function"
    },
    {
      "inputs": [
        {
          "internalType": "address",
          "name": "eventAddress",
          "type": "address"
        },
        {
          "internalType": "address payable",
          "name": "recipient",
          "type": "address"
        }
      ],
      "name": "withdrawEventFunds",
      "outputs": [],
      "stateMutability": "nonpayable",
      "type": "function"
    }
  ],
  "bytecode": "0x60808060405234607957331560635760008054336001600160a01b0319821681178355916001600160a01b03909116907f8be0079c531659141344cd1fd0a4f28419497f9722a3daafe3b4186f6b6457e09080a360018055610cb8908161007f8239f35b631e4fbdf760e01b600052600060045260246000fd5b600080fdfe608080604052600436101561001357600080fd5b60003560e01c9081630d53d37a14610ac357508063219a8eed146109505780633d52dad01461090a5780634154aede1461072a57806347e7ef24146105525780635bb478081461048d578063710500d3146103cd578063715018a6146103745780638da5cb5b1461034b578063bac7827614610311578063bf1f5b83146102a1578063c45a015514610278578063d6d6817714610222578063e7978052146101525763f2fde38b146100c457600080fd5b3461014d57602036600319011261014d576100dd610af9565b6100e5610c59565b6001600160a01b0316801561013757600080546001600160a01b03198116831782556001600160a01b0316907f8be0079c531659141344cd1fd0a4f28419497f9722a3daafe3b4186f6b6457e09080a3005b631e4fbdf760e01b600052600060045260246000fd5b600080fd5b3461014d57602036600319011261014d5761016b610af9565b610173610c59565b60018060a01b031680600052600360205260ff60406000205416600381101561020c576101da578060005260036020526040600020600260ff198254161790557f727966dbf8f1ef7d8484266f5f53e2b1fc338f6a6f13d77038cba871f9c0f9c1600080a2005b60405162461bcd60e51b815260206004820152600a6024820152696e6f742061637469766560b01b6044820152606490fd5b634e487b7160e01b600052602160045260246000fd5b3461014d57604036600319011261014d576001600160a01b03610243610af9565b166000526002602052604060002060243560005260205260408060002060ff6001825492015416825191825215156020820152f35b3461014d57600036600319011261014d576005546040516001600160a01b039091168152602090f35b3461014d57602036600319011261014d576102c26102bd610af9565b610b71565b60405190602082528181519182602083015260005b8381106102f95750508160006040809484010152601f80199101168101030190f35b602082820181015160408784010152859350016102d7565b3461014d57602036600319011261014d576001600160a01b03610332610af9565b1660005260046020526020604060002054604051908152f35b3461014d57600036600319011261014d576000546040516001600160a01b039091168152602090f35b3461014d57600036600319011261014d5761038d610c59565b600080546001600160a01b0319811682556001600160a01b03167f8be0079c531659141344cd1fd0a4f28419497f9722a3daafe3b4186f6b6457e08280a3005b3461014d57602036600319011261014d576103e6610af9565b6103ee610c59565b60018060a01b031680600052600360205260ff60406000205416600381101561020c57610455578060005260036020526040600020600160ff198254161790557f1ed6aef4830b61b6633644335de3c40aa545ab8d765b690ff36ae9729dafc1b7600080a2005b60405162461bcd60e51b815260206004820152601060248201526f616c726561647920696e61637469766560801b6044820152606490fd5b3461014d57602036600319011261014d576104a6610af9565b6104ae610c59565b600554906001600160a01b038216610517576001600160a01b03169081156104e0576001600160a01b03191617600555005b60405162461bcd60e51b815260206004820152600f60248201526e696e76616c696420666163746f727960881b6044820152606490fd5b60405162461bcd60e51b8152602060048201526013602482015272199858dd1bdc9e48185b1c9958591e481cd95d606a1b6044820152606490fd5b604036600319011261014d57610566610af9565b60055460243591906001600160a01b031633036106f757610585610c37565b34156106c55760018060a01b03169081600052600360205260ff60406000205416600381101561020c5761068d576040516040810181811067ffffffffffffffff821117610677576040523481526001602082019160008352846000526002602052604060002084600052602052604060002090518155019051151560ff80198354169116179055816000526004602052604060002080549034820180921161066157556040519081523460208201527ff5681f9d0db1b911ac18ee83d515a1cf1051853a9eae418316a2fdf7dea427c560403292a360018055005b634e487b7160e01b600052601160045260246000fd5b634e487b7160e01b600052604160045260246000fd5b60405162461bcd60e51b815260206004820152601060248201526f6576656e74206e6f742061637469766560801b6044820152606490fd5b60405162461bcd60e51b815260206004820152600a6024820152691b9bc81c185e5b595b9d60b21b6044820152606490fd5b60405162461bcd60e51b815260206004820152600b60248201526a6e6f7420666163746f727960a81b6044820152606490fd5b3461014d57606036600319011261014d57610743610af9565b60443590602435906001600160a01b038316830361014d57610763610c37565b60018060a01b03169182600052600360205260ff60406000205416600381101561020c576001036108d55782600052600260205260406000208260005260205260406000209081549182156108a357600101805460ff811661086b5760ff191660011790556000848152600460205260409020805483810392908311610661576000848194928294938394555af16107f9610b35565b50156108365760405191825260208201527f88808afc48888c0e3ec9c545474e31ce16f177be8d0c8ba3922274893615750e60403392a360018055005b60405162461bcd60e51b815260206004820152600d60248201526c1c99599d5b990819985a5b1959609a1b6044820152606490fd5b60405162461bcd60e51b815260206004820152601060248201526f185b1c9958591e481c99599d5b99195960821b6044820152606490fd5b60405162461bcd60e51b815260206004820152600a6024820152691b9bc819195c1bdcda5d60b21b6044820152606490fd5b60405162461bcd60e51b815260206004820152600d60248201526c1b9bdd0818d85b98d95b1b1959609a1b6044820152606490fd5b3461014d57602036600319011261014d576001600160a01b0361092b610af9565b16600052600360205260ff60406000205416604051600382101561020c576020918152f35b3461014d57604036600319011261014d57610969610af9565b6024356001600160a01b038116919082900361014d57610987610c37565b60018060a01b03169081600052600360205260ff60406000205416600381101561020c57600203610a88578160005260046020526040600020548015610a565782600052600460205260006040812055600080808084865af16109e8610b35565b5015610a1f5760207fd1c19fbcd4551a5edfb66d43d2e337c04837afda3482b42bdf569a8fccdae5fb91604051908152a360018055005b60405162461bcd60e51b815260206004820152600f60248201526e1dda5d1a191c985dc819985a5b1959608a1b6044820152606490fd5b60405162461bcd60e51b815260206004820152600a6024820152696e6f2062616c616e636560b01b6044820152606490fd5b60405162461bcd60e51b8152602060048201526013602482015272195d995b9d081b9bdd0818dbdb5c1b195d1959606a1b6044820152606490fd5b3461014d57602036600319011261014d576020906001600160a01b03610ae7610af9565b16600052600482526040600020548152f35b600435906001600160a01b038216820361014d57565b6040519190601f01601f1916820167ffffffffffffffff81118382101761067757604052565b3d15610b6c573d9067ffffffffffffffff821161067757610b5f601f8301601f1916602001610b0f565b9182523d6000602084013e565b606090565b60018060a01b0316600052600360205260ff60406000205416600381101561020c578015610c165760009060018114610bf1576002915014610bce57610bb76040610b0f565b60078152662ab735b737bbb760c91b602082015290565b610bd86040610b0f565b600981526810dbdb5c1b195d195960ba1b602082015290565b5050610bfd6040610b0f565b600981526810d85b98d95b1b195960ba1b602082015290565b50610c216040610b0f565b600681526541637469766560d01b602082015290565b600260015414610c48576002600155565b633ee5aeb560e01b60005260046000fd5b6000546001600160a01b03163303610c6d57565b63118cdaa760e01b6000523360045260246000fdfea2646970667358221220dc167fa1d68e27ae8cf136c929460c950cde566e09acea45553d70c24538e43664736f6c634300081c0033",
  "linkReferences": {},
  "deployedLinkReferences": {}
}