{
  "_format": "hh-sol-artifact-1",
  "contractName": "Vault",
  "sourceName": "contracts/vault.sol",
  "abi": [
    {
      "inputs": [],
      "stateMutability": "nonpayable",
      "type": "constructor"
    },
    {
      "inputs": [
        {
          "internalType": "address",
          "name": "owner",
          "type": "address"
        }
      ],
      "name": "OwnableInvalidOwner",
      "type": "error"
    },
    {
      "inputs": [
        {
          "internalType": "address",
          "name": "account",
          "type": "address"
        }
      ],
      "name": "OwnableUnauthorizedAccount",
      "type": "error"
    },
    {
      "inputs": [],
      "name": "ReentrancyGuardReentrantCall",
      "type": "error"
    },
    {
      "anonymous": false,
      "inputs": [
        {
          "indexed": true,
          "internalType": "address",
          "name": "buyer",
          "type": "address"
        },
        {
          "indexed": true,
          "internalType": "address",
          "name": "eventAddress",
          "type": "address"
        },
        {
          "indexed": false,
          "internalType": "uint256",
          "name": "tokenId",
          "type": "uint256"
        },
        {
          "indexed": false,
          "internalType": "uint256",
          "name": "amount",
          "type": "uint256"
        }
      ],
      "name": "Deposited",
      "type": "event"
    },
    {
      "anonymous": false,
      "inputs": [
        {
          "indexed": true,
          "internalType": "address",
          "name": "eventAddress",
          "type": "address"
        }
      ],
      "name": "EventCancelled",
      "type": "event"
    },
    {
      "anonymous": false,
      "inputs": [
        {
          "indexed": true,
          "internalType": "address",
          "name": "eventAddress",
          "type": "address"
        }
      ],
      "name": "EventCompleted",
      "type": "event"
    },
    {
      "anonymous": false,
      "inputs": [
        {
          "indexed": true,
          "internalType": "address",
          "name": "previousOwner",
          "type": "address"
        },
        {
          "indexed": true,
          "internalType": "address",
          "name": "newOwner",
          "type": "address"
        }
      ],
      "name": "OwnershipTransferred",
      "type": "event"
    },
    {
      "anonymous": false,
      "inputs": [
        {
          "indexed": true,
          "internalType": "address",
          "name": "buyer",
          "type": "address"
        },
        {
          "indexed": true,
          "internalType": "address",
          "name": "eventAddress",
          "type": "address"
        },
        {
          "indexed": false,
          "internalType": "uint256",
          "name": "tokenId",
          "type": "uint256"
        },
        {
          "indexed": false,
          "internalType": "uint256",
          "name": "amount",
          "type": "uint256"
        }
      ],
      "name": "Refunded",
      "type": "event"
    },
    {
      "anonymous": false,
      "inputs": [
        {
          "indexed": true,
          "internalType": "address",
          "name": "organizer",
          "type": "address"
        },
        {
          "indexed": true,
          "internalType": "address",
          "name": "eventAddress",
          "type": "address"
        },
        {
          "indexed": false,
          "internalType": "uint256",
          "name": "totalAmount",
          "type": "uint256"
        }
      ],
      "name": "Withdrawn",
      "type": "event"
    },
    {
      "inputs": [
        {
          "internalType": "address",
          "name": "eventAddress",
          "type": "address"
        }
      ],
      "name": "cancelEvent",
      "outputs": [],
      "stateMutability": "nonpayable",
      "type": "function"
    },
    {
      "inputs": [
        {
          "internalType": "address",
          "name": "eventAddress",
          "type": "address"
        }
      ],
      "name": "completeEvent",
      "outputs": [],
      "stateMutability": "nonpayable",
      "type": "function"
    },
    {
      "inputs": [
        {
          "internalType": "address",
          "name": "eventAddress",
          "type": "address"
        },
        {
          "internalType": "uint256",
          "name": "tokenId",
          "type": "uint256"
        }
      ],
      "name": "deposit",
      "outputs": [],
      "stateMutability": "payable",
      "type": "function"
    },
    {
      "inputs": [
        {
          "internalType": "address",
          "name": "",
          "type": "address"
        },
        {
          "internalType": "uint256",
          "name": "",
          "type": "uint256"
        }
      ],
      "name": "deposits",
      "outputs": [
        {
          "internalType": "uint256",
          "name": "amount",
          "type": "uint256"
        },
        {
          "internalType": "bool",
          "name": "refunded",
          "type": "bool"
        }
      ],
      "stateMutability": "view",
      "type": "function"
    },
    {
      "inputs": [
        {
          "internalType": "address",
          "name": "",
          "type": "address"
        }
      ],
      "name": "eventBalances",
      "outputs": [
        {
          "internalType": "uint256",
          "name": "",
          "type": "uint256"
        }
      ],
      "stateMutability": "view",
      "type": "function"
    },
    {
      "inputs": [
        {
          "internalType": "address",
          "name": "",
          "type": "address"
        }
      ],
      "name": "eventStatus",
      "outputs": [
        {
          "internalType": "enum Vault.EventStatus",
          "name": "",
          "type": "uint8"
        }
      ],
      "stateMutability": "view",
      "type": "function"
    },
    {
      "inputs": [],
      "name": "factory",
      "outputs": [
        {
          "internalType": "address",
          "name": "",
          "type": "address"
        }
      ],
      "stateMutability": "view",
      "type": "function"
    },
    {
      "inputs": [
        {
          "internalType": "address",
          "name": "eventAddress",
          "type": "address"
        }
      ],
      "name": "getEventBalance",
      "outputs": [
        {
          "internalType": "uint256",
          "name": "",
          "type": "uint256"
        }
      ],
      "stateMutability": "view",
      "type": "function"
    },
    {
      "inputs": [
        {
          "internalType": "address",
          "name": "eventAddress",
          "type": "address"
        }
      ],
      "name": "getEventStatus",
      "outputs": [
        {
          "internalType": "string",
          "name": "",
          "type": "string"
        }
      ],
      "stateMutability": "view",
      "type": "function"
    },
    {
      "inputs": [],
      "name": "owner",
      "outputs": [
        {
          "internalType": "address",
          "name": "",
          "type": "address"
        }
      ],
      "stateMutability": "view",
      "type": "function"
    },
    {
      "inputs": [
        {
          "internalType": "address",
          "name": "eventAddress",
          "type": "address"
        },
        {
          "internalType": "uint256",
          "name": "tokenId",
          "type": "uint256"
        },
        {
          "internalType": "address",
          "name": "buyer",
          "type": "address"
        }
      ],
      "name": "refund",
      "outputs": [],
      "stateMutability": "nonpayable",
      "type": "function"
    },
    {
      "inputs": [],
      "name": "renounceOwnership",
      "outputs": [],
      "stateMutability": "nonpayable",
      "type": "function"
    },
    {
      "inputs": [
        {
          "internalType": "address",
          "name": "_factory",
          "type": "address"
        }
      ],
      "name": "setFactory",
      "outputs": [],
      "stateMutability": "nonpayable",
      "type": "function"
    },
    {
      "inputs": [
        {
          "internalType": "address",
          "name": "newOwner",
          "type": "address"
        }
      ],
      "name": "transferOwnership",
      "outputs": [],
      "stateMutability": "nonpayable",
      "type": "function"
    },
    {
      "inputs": [
        {
          "internalType": "address",
          "name": "eventAddress",
          "type": "address"
        },
        {
          "internalType": "address payable",
          "name": "recipient",
          "type": "address"
        }
      ],
      "name": "withdrawEventFunds",
      "outputs": [],
      "stateMutability": "nonpayable",
      "type": "function"
    }
  ],
  "bytecode": "0x6080604052348015600f57600080fd5b503380603557604051631e4fbdf760e01b81526000600482015260240160405180910390fd5b603c816045565b50600180556095565b600080546001600160a01b038381166001600160a01b0319831681178455604051919092169283917f8be0079c531659141344cd1fd0a4f28419497f9722a3daafe3b4186f6b6457e09190a35050565b610f46806100a46000396000f3fe6080604052600436106100e85760003560e01c8063715018a61161008a578063c45a015511610059578063c45a0155146102a9578063d6d68177146102c9578063e797805214610320578063f2fde38b1461034057600080fd5b8063715018a6146101ff5780638da5cb5b14610214578063bac7827614610246578063bf1f5b831461027c57600080fd5b80634154aede116100c65780634154aede1461018c57806347e7ef24146101ac5780635bb47808146101bf578063710500d3146101df57600080fd5b80630d53d37a146100ed578063219a8eed1461012d5780633d52dad01461014f575b600080fd5b3480156100f957600080fd5b5061011a610108366004610d77565b60046020526000908152604090205481565b6040519081526020015b60405180910390f35b34801561013957600080fd5b5061014d610148366004610d9b565b610360565b005b34801561015b57600080fd5b5061017f61016a366004610d77565b60036020526000908152604090205460ff1681565b6040516101249190610dea565b34801561019857600080fd5b5061014d6101a7366004610e12565b610533565b61014d6101ba366004610e54565b610774565b3480156101cb57600080fd5b5061014d6101da366004610d77565b61092a565b3480156101eb57600080fd5b5061014d6101fa366004610d77565b6109eb565b34801561020b57600080fd5b5061014d610aac565b34801561022057600080fd5b506000546001600160a01b03165b6040516001600160a01b039091168152602001610124565b34801561025257600080fd5b5061011a610261366004610d77565b6001600160a01b031660009081526004602052604090205490565b34801561028857600080fd5b5061029c610297366004610d77565b610ac0565b6040516101249190610e80565b3480156102b557600080fd5b5060055461022e906001600160a01b031681565b3480156102d557600080fd5b5061030b6102e4366004610e54565b60026020908152600092835260408084209091529082529020805460019091015460ff1682565b60408051928352901515602083015201610124565b34801561032c57600080fd5b5061014d61033b366004610d77565b610bc2565b34801561034c57600080fd5b5061014d61035b366004610d77565b610c7d565b610368610cbb565b60026001600160a01b03831660009081526003602052604090205460ff16600281111561039757610397610dd4565b146103df5760405162461bcd60e51b8152602060048201526013602482015272195d995b9d081b9bdd0818dbdb5c1b195d1959606a1b60448201526064015b60405180910390fd5b6001600160a01b038216600090815260046020526040902054806104325760405162461bcd60e51b815260206004820152600a6024820152696e6f2062616c616e636560b01b60448201526064016103d6565b6001600160a01b0383811660009081526004602052604080822082905551909184169083908381818185875af1925050503d806000811461048f576040519150601f19603f3d011682016040523d82523d6000602084013e610494565b606091505b50509050806104d75760405162461bcd60e51b815260206004820152600f60248201526e1dda5d1a191c985dc819985a5b1959608a1b60448201526064016103d6565b836001600160a01b0316836001600160a01b03167fd1c19fbcd4551a5edfb66d43d2e337c04837afda3482b42bdf569a8fccdae5fb8460405161051c91815260200190565b60405180910390a3505061052f60018055565b5050565b61053b610cbb565b60016001600160a01b03841660009081526003602052604090205460ff16600281111561056a5761056a610dd4565b146105a75760405162461bcd60e51b815260206004820152600d60248201526c1b9bdd0818d85b98d95b1b1959609a1b60448201526064016103d6565b6001600160a01b0383166000908152600260209081526040808320858452909152902080546106055760405162461bcd60e51b815260206004820152600a6024820152691b9bc819195c1bdcda5d60b21b60448201526064016103d6565b600181015460ff161561064d5760405162461bcd60e51b815260206004820152601060248201526f185b1c9958591e481c99599d5b99195960821b60448201526064016103d6565b6001818101805460ff1916909117905580546001600160a01b03851660009081526004602052604081208054839290610687908490610ee4565b90915550506040516000906001600160a01b0385169083908381818185875af1925050503d80600081146106d7576040519150601f19603f3d011682016040523d82523d6000602084013e6106dc565b606091505b505090508061071d5760405162461bcd60e51b815260206004820152600d60248201526c1c99599d5b990819985a5b1959609a1b60448201526064016103d6565b60408051868152602081018490526001600160a01b0388169133917f88808afc48888c0e3ec9c545474e31ce16f177be8d0c8ba3922274893615750e910160405180910390a350505061076f60018055565b505050565b6005546001600160a01b031633146107bc5760405162461bcd60e51b815260206004820152600b60248201526a6e6f7420666163746f727960a81b60448201526064016103d6565b6107c4610cbb565b600034116108015760405162461bcd60e51b815260206004820152600a6024820152691b9bc81c185e5b595b9d60b21b60448201526064016103d6565b6001600160a01b03821660009081526003602052604081205460ff16600281111561082e5761082e610dd4565b1461086e5760405162461bcd60e51b815260206004820152601060248201526f6576656e74206e6f742061637469766560801b60448201526064016103d6565b60408051808201825234808252600060208084018281526001600160a01b0388168084526002835286842088855283528684209551865590516001909501805460ff191695151595909517909455928152600490925291812080549091906108d7908490610efd565b9091555050604080518281523460208201526001600160a01b0384169132917ff5681f9d0db1b911ac18ee83d515a1cf1051853a9eae418316a2fdf7dea427c5910160405180910390a361052f60018055565b610932610ce5565b6005546001600160a01b0316156109815760405162461bcd60e51b8152602060048201526013602482015272199858dd1bdc9e48185b1c9958591e481cd95d606a1b60448201526064016103d6565b6001600160a01b0381166109c95760405162461bcd60e51b815260206004820152600f60248201526e696e76616c696420666163746f727960881b60448201526064016103d6565b600580546001600160a01b0319166001600160a01b0392909216919091179055565b6109f3610ce5565b6001600160a01b03811660009081526003602052604081205460ff166002811115610a2057610a20610dd4565b14610a605760405162461bcd60e51b815260206004820152601060248201526f616c726561647920696e61637469766560801b60448201526064016103d6565b6001600160a01b038116600081815260036020526040808220805460ff19166001179055517f1ed6aef4830b61b6633644335de3c40aa545ab8d765b690ff36ae9729dafc1b79190a250565b610ab4610ce5565b610abe6000610d12565b565b6001600160a01b03811660009081526003602052604081205460609160ff90911690816002811115610af457610af4610dd4565b03610b1d57505060408051808201909152600681526541637469766560d01b6020820152919050565b6001816002811115610b3157610b31610dd4565b03610b5d57505060408051808201909152600981526810d85b98d95b1b195960ba1b6020820152919050565b6002816002811115610b7157610b71610dd4565b03610b9d57505060408051808201909152600981526810dbdb5c1b195d195960ba1b6020820152919050565b50506040805180820190915260078152662ab735b737bbb760c91b6020820152919050565b610bca610ce5565b6001600160a01b03811660009081526003602052604081205460ff166002811115610bf757610bf7610dd4565b14610c315760405162461bcd60e51b815260206004820152600a6024820152696e6f742061637469766560b01b60448201526064016103d6565b6001600160a01b038116600081815260036020526040808220805460ff19166002179055517f727966dbf8f1ef7d8484266f5f53e2b1fc338f6a6f13d77038cba871f9c0f9c19190a250565b610c85610ce5565b6001600160a01b038116610caf57604051631e4fbdf760e01b8152600060048201526024016103d6565b610cb881610d12565b50565b600260015403610cde57604051633ee5aeb560e01b815260040160405180910390fd5b6002600155565b6000546001600160a01b03163314610abe5760405163118cdaa760e01b81523360048201526024016103d6565b600080546001600160a01b038381166001600160a01b0319831681178455604051919092169283917f8be0079c531659141344cd1fd0a4f28419497f9722a3daafe3b4186f6b6457e09190a35050565b6001600160a01b0381168114610cb857600080fd5b600060208284031215610d8957600080fd5b8135610d9481610d62565b9392505050565b60008060408385031215610dae57600080fd5b8235610db981610d62565b91506020830135610dc981610d62565b809150509250929050565b634e487b7160e01b600052602160045260246000fd5b6020810160038310610e0c57634e487b7160e01b600052602160045260246000fd5b91905290565b600080600060608486031215610e2757600080fd5b8335610e3281610d62565b9250602084013591506040840135610e4981610d62565b809150509250925092565b60008060408385031215610e6757600080fd5b8235610e7281610d62565b946020939093013593505050565b602081526000825180602084015260005b81811015610eae5760208186018101516040868401015201610e91565b506000604082850101526040601f19601f83011684010191505092915050565b634e487b7160e01b600052601160045260246000fd5b81810381811115610ef757610ef7610ece565b92915050565b80820180821115610ef757610ef7610ece56fea2646970667358221220e7091f4cb14c7b029a1a9340c5e8943f00184e9085858e0585a40320b6b7b25764736f6c634300081c0033",
  "linkReferences": {},
  "deployedLinkReferences": {}
}