{
  "_format": "hh-sol-artifact-1",
  "contractName": "Vault",
  "sourceName": "contracts/vault.sol",
  "abi": [
    {
      "inputs": [],
      "stateMutability": "nonpayable",
      "type": "constructor"
    },
    {
      "inputs": [
        {
          "internalType": "address",
          "name": "owner",
          "type": "address"
        }
      ],
      "name": "OwnableInvalidOwner",
      "type": "error"
    },
    {
      "inputs": [
        {
          "internalType": "address",
          "name": "account",
          "type": "address"
        }
      ],
      "name": "OwnableUnauthorizedAccount",
      "type": "error"
    },
    {
      "inputs": [],
      "name": "ReentrancyGuardReentrantCall",
      "type": "error"
    },
    {
      "anonymous": false,
      "inputs": [
        {
          "indexed": true,
          "internalType": "address",
          "name": "buyer",
          "type": "address"
        },
        {
          "indexed": true,
          "internalType": "address",
          "name": "eventAddress",
          "type": "address"
        },
        {
          "indexed": false,
          "internalType": "uint256",
          "name": "tokenId",
          "type": "uint256"
        },
        {
          "indexed": false,
          "internalType": "uint256",
          "name": "amount",
          "type": "uint256"
        }
      ],
      "name": "Deposited",
      "type": "event"
    },
    {
      "anonymous": false,
      "inputs": [
        {
          "indexed": true,
          "internalType": "address",
          "name": "eventAddress",
          "type": "address"
        }
      ],
      "name": "EventCancelled",
      "type": "event"
    },
    {
      "anonymous": false,
      "inputs": [
        {
          "indexed": true,
          "internalType": "address",
          "name": "eventAddress",
          "type": "address"
        }
      ],
      "name": "EventCompleted",
      "type": "event"
    },
    {
      "anonymous": false,
      "inputs": [
        {
          "indexed": true,
          "internalType": "address",
          "name": "previousOwner",
          "type": "address"
        },
        {
          "indexed": true,
          "internalType": "address",
          "name": "newOwner",
          "type": "address"
        }
      ],
      "name": "OwnershipTransferred",
      "type": "event"
    },
    {
      "anonymous": false,
      "inputs": [
        {
          "indexed": true,
          "internalType": "address",
          "name": "buyer",
          "type": "address"
        },
        {
          "indexed": true,
          "internalType": "address",
          "name": "eventAddress",
          "type": "address"
        },
        {
          "indexed": false,
          "internalType": "uint256",
          "name": "tokenId",
          "type": "uint256"
        },
        {
          "indexed": false,
          "internalType": "uint256",
          "name": "amount",
          "type": "uint256"
        }
      ],
      "name": "Refunded",
      "type": "event"
    },
    {
      "anonymous": false,
      "inputs": [
        {
          "indexed": true,
          "internalType": "address",
          "name": "organizer",
          "type": "address"
        },
        {
          "indexed": true,
          "internalType": "address",
          "name": "eventAddress",
          "type": "address"
        },
        {
          "indexed": false,
          "internalType": "uint256",
          "name": "totalAmount",
          "type": "uint256"
        }
      ],
      "name": "Withdrawn",
      "type": "event"
    },
    {
      "inputs": [
        {
          "internalType": "address",
          "name": "eventAddress",
          "type": "address"
        }
      ],
      "name": "authorizeEvent",
      "outputs": [],
      "stateMutability": "nonpayable",
      "type": "function"
    },
    {
      "inputs": [
        {
          "internalType": "address",
          "name": "",
          "type": "address"
        }
      ],
      "name": "authorizedContracts",
      "outputs": [
        {
          "internalType": "bool",
          "name": "",
          "type": "bool"
        }
      ],
      "stateMutability": "view",
      "type": "function"
    },
    {
      "inputs": [
        {
          "internalType": "address",
          "name": "eventAddress",
          "type": "address"
        }
      ],
      "name": "cancelEvent",
      "outputs": [],
      "stateMutability": "nonpayable",
      "type": "function"
    },
    {
      "inputs": [
        {
          "internalType": "address",
          "name": "eventAddress",
          "type": "address"
        }
      ],
      "name": "completeEvent",
      "outputs": [],
      "stateMutability": "nonpayable",
      "type": "function"
    },
    {
      "inputs": [
        {
          "internalType": "address",
          "name": "eventAddress",
          "type": "address"
        },
        {
          "internalType": "uint256",
          "name": "tokenId",
          "type": "uint256"
        }
      ],
      "name": "deposit",
      "outputs": [],
      "stateMutability": "payable",
      "type": "function"
    },
    {
      "inputs": [
        {
          "internalType": "address",
          "name": "",
          "type": "address"
        },
        {
          "internalType": "uint256",
          "name": "",
          "type": "uint256"
        }
      ],
      "name": "deposits",
      "outputs": [
        {
          "internalType": "address",
          "name": "buyer",
          "type": "address"
        },
        {
          "internalType": "address",
          "name": "eventAddress",
          "type": "address"
        },
        {
          "internalType": "uint256",
          "name": "amount",
          "type": "uint256"
        },
        {
          "internalType": "bool",
          "name": "refunded",
          "type": "bool"
        }
      ],
      "stateMutability": "view",
      "type": "function"
    },
    {
      "inputs": [
        {
          "internalType": "address",
          "name": "",
          "type": "address"
        }
      ],
      "name": "eventBalances",
      "outputs": [
        {
          "internalType": "uint256",
          "name": "",
          "type": "uint256"
        }
      ],
      "stateMutability": "view",
      "type": "function"
    },
    {
      "inputs": [
        {
          "internalType": "address",
          "name": "",
          "type": "address"
        }
      ],
      "name": "eventRoyalty",
      "outputs": [
        {
          "internalType": "uint256",
          "name": "",
          "type": "uint256"
        }
      ],
      "stateMutability": "view",
      "type": "function"
    },
    {
      "inputs": [
        {
          "internalType": "address",
          "name": "",
          "type": "address"
        }
      ],
      "name": "eventStatus",
      "outputs": [
        {
          "internalType": "enum Vault.EventStatus",
          "name": "",
          "type": "uint8"
        }
      ],
      "stateMutability": "view",
      "type": "function"
    },
    {
      "inputs": [],
      "name": "factory",
      "outputs": [
        {
          "internalType": "address",
          "name": "",
          "type": "address"
        }
      ],
      "stateMutability": "view",
      "type": "function"
    },
    {
      "inputs": [
        {
          "internalType": "address",
          "name": "eventAddress",
          "type": "address"
        }
      ],
      "name": "getEventBalance",
      "outputs": [
        {
          "internalType": "uint256",
          "name": "",
          "type": "uint256"
        }
      ],
      "stateMutability": "view",
      "type": "function"
    },
    {
      "inputs": [
        {
          "internalType": "address",
          "name": "eventAddress",
          "type": "address"
        }
      ],
      "name": "getEventRoyalty",
      "outputs": [
        {
          "internalType": "uint256",
          "name": "",
          "type": "uint256"
        }
      ],
      "stateMutability": "view",
      "type": "function"
    },
    {
      "inputs": [
        {
          "internalType": "address",
          "name": "eventAddress",
          "type": "address"
        }
      ],
      "name": "getEventStatus",
      "outputs": [
        {
          "internalType": "string",
          "name": "",
          "type": "string"
        }
      ],
      "stateMutability": "view",
      "type": "function"
    },
    {
      "inputs": [],
      "name": "owner",
      "outputs": [
        {
          "internalType": "address",
          "name": "",
          "type": "address"
        }
      ],
      "stateMutability": "view",
      "type": "function"
    },
    {
      "inputs": [
        {
          "internalType": "address",
          "name": "eventAddress",
          "type": "address"
        },
        {
          "internalType": "uint256",
          "name": "tokenId",
          "type": "uint256"
        },
        {
          "internalType": "address",
          "name": "buyer",
          "type": "address"
        }
      ],
      "name": "refund",
      "outputs": [],
      "stateMutability": "nonpayable",
      "type": "function"
    },
    {
      "inputs": [],
      "name": "renounceOwnership",
      "outputs": [],
      "stateMutability": "nonpayable",
      "type": "function"
    },
    {
      "inputs": [
        {
          "internalType": "address",
          "name": "eventAddress",
          "type": "address"
        },
        {
          "internalType": "uint256",
          "name": "royaltyAmount",
          "type": "uint256"
        }
      ],
      "name": "royaltyDeposit",
      "outputs": [],
      "stateMutability": "nonpayable",
      "type": "function"
    },
    {
      "inputs": [
        {
          "internalType": "address",
          "name": "_factory",
          "type": "address"
        }
      ],
      "name": "setFactory",
      "outputs": [],
      "stateMutability": "nonpayable",
      "type": "function"
    },
    {
      "inputs": [
        {
          "internalType": "address",
          "name": "newOwner",
          "type": "address"
        }
      ],
      "name": "transferOwnership",
      "outputs": [],
      "stateMutability": "nonpayable",
      "type": "function"
    },
    {
      "inputs": [
        {
          "internalType": "address",
          "name": "eventAddress",
          "type": "address"
        }
      ],
      "name": "withdrawEventFunds",
      "outputs": [],
      "stateMutability": "nonpayable",
      "type": "function"
    }
  ],
  "bytecode": "0x60808060405234607957331560635760008054336001600160a01b0319821681178355916001600160a01b03909116907f8be0079c531659141344cd1fd0a4f28419497f9722a3daafe3b4186f6b6457e09080a36001805561127a908161007f8239f35b631e4fbdf760e01b600052600060045260246000fd5b600080fdfe608080604052600436101561001357600080fd5b60003560e01c9081630d53d37a14610f44575080633d52dad014610efe5780634154aede14610ce057806347e7ef2414610afa5780635bb4780814610a355780635e088229146105cb57806362c977d61461058b578063710500d3146104ef578063715018a6146104965780638c2ba20a1461042f5780638ceee6f61461023b5780638da5cb5b14610406578063bac78276146103cc578063bf1f5b831461035c578063c45a015514610333578063d5b9221b146102f4578063d6d6817714610275578063e57ad97b1461023b578063e7978052146101895763f2fde38b146100fb57600080fd5b3461018457602036600319011261018457610114610f7a565b61011c61121b565b6001600160a01b0316801561016e57600080546001600160a01b03198116831782556001600160a01b0316907f8be0079c531659141344cd1fd0a4f28419497f9722a3daafe3b4186f6b6457e09080a3005b631e4fbdf760e01b600052600060045260246000fd5b600080fd5b34610184576020366003190112610184576101a2610f7a565b6101b760018060a01b03600754163314610f90565b6001600160a01b031660008181526004602052604090205460ff166003811015610225576101e5901561102e565b8060005260046020526040600020600260ff198254161790557f727966dbf8f1ef7d8484266f5f53e2b1fc338f6a6f13d77038cba871f9c0f9c1600080a2005b634e487b7160e01b600052602160045260246000fd5b34610184576020366003190112610184576001600160a01b0361025c610f7a565b1660005260066020526020604060002054604051908152f35b34610184576040366003190112610184576001600160a01b03610296610f7a565b16600052600360205260406000206024356000526020526080604060002060018060a01b038154169060018060a01b036001820154169060ff6003600283015492015416916040519384526020840152604083015215156060820152f35b34610184576020366003190112610184576001600160a01b03610315610f7a565b166000526002602052602060ff604060002054166040519015158152f35b34610184576000366003190112610184576007546040516001600160a01b039091168152602090f35b346101845760203660031901126101845761037d610378610f7a565b611121565b60405190602082528181519182602083015260005b8381106103b45750508160006040809484010152601f80199101168101030190f35b60208282018101516040878401015285935001610392565b34610184576020366003190112610184576001600160a01b036103ed610f7a565b1660005260056020526020604060002054604051908152f35b34610184576000366003190112610184576000546040516001600160a01b039091168152602090f35b3461018457602036600319011261018457610448610f7a565b61045d60018060a01b03600754163314610f90565b6001600160a01b03166000908152600260209081526040808320805460ff19908116600117909155600490925290912080549091169055005b34610184576000366003190112610184576104af61121b565b600080546001600160a01b0319811682556001600160a01b03167f8be0079c531659141344cd1fd0a4f28419497f9722a3daafe3b4186f6b6457e08280a3005b3461018457602036600319011261018457610508610f7a565b61051d60018060a01b03600754163314610f90565b6001600160a01b031660008181526004602052604090205460ff1660038110156102255761054b901561102e565b8060005260046020526040600020600160ff198254161790557f1ed6aef4830b61b6633644335de3c40aa545ab8d765b690ff36ae9729dafc1b7600080a2005b34610184576040366003190112610184576001600160a01b036105ac610f7a565b16600052600660205260406000206105c7602435825461106e565b9055005b34610184576020366003190112610184576105e4610f7a565b6105ec6111f9565b61060160018060a01b03600754163314610f90565b6001600160a01b031660008181526004602052604090205460ff166003811015610225576002036109fa5780600052600560205260406000205480156109c457816000526006602052604060002054908260005260056020526000604081205560405163026c420760e01b8152602081600481875afa90811561077a5760009161097e575b506001600160601b036127109116036109435760005b6040516335ccdc3d60e01b815260048101859052602081602481885afa90811561077a57600091610912575b508110156107865760405190630f4b82b960e31b8252806004830152604082602481885afa801561077a5760008080806001966107319582918291610737575b5061071f6001600160601b0361271092168b6110c7565b04905af161072b610fee565b506110da565b0161069c565b6001600160601b039250612710915061076961071f9160403d8111610773575b6107618183610fcc565b8101906110a3565b9093509150610708565b503d610757565b6040513d6000823e3d90fd5b509061084d575b604051638da5cb5b60e01b8152602081600481865afa90811561077a576000916107ef575b506040519182526001600160a01b0316907fd1c19fbcd4551a5edfb66d43d2e337c04837afda3482b42bdf569a8fccdae5fb90602090a360018055005b90506020813d602011610845575b8161080a60209383610fcc565b8101031261018457602061083e7fd1c19fbcd4551a5edfb66d43d2e337c04837afda3482b42bdf569a8fccdae5fb9261108f565b91506107b2565b3d91506107fd565b60005b6040516335ccdc3d60e01b815260048101849052602081602481875afa90811561077a576000916108de575b508110156108d85760405190630f4b82b960e31b8252806004830152604082602481875afa801561077a5760008080806001966108d29582918291610737575061071f6001600160601b0361271092168b6110c7565b01610850565b5061078d565b906020823d821161090a575b816108f760209383610fcc565b810103126109075750518461087c565b80fd5b3d91506108ea565b906020823d821161093b575b8161092b60209383610fcc565b81010312610907575051856106c8565b3d915061091e565b60405162461bcd60e51b8152602060048201526013602482015272496e76616c696420746f74616c20736861726560681b6044820152606490fd5b90506020813d6020116109bc575b8161099960209383610fcc565b81010312610184576001600160601b036109b56127109261107b565b9150610686565b3d915061098c565b60405162461bcd60e51b815260206004820152600e60248201526d42616c616e6365206b6f736f6e6760901b6044820152606490fd5b60405162461bcd60e51b81526020600482015260136024820152724576656e742062656c756d2073656c6573616960681b6044820152606490fd5b3461018457602036600319011261018457610a4e610f7a565b610a5661121b565b600754906001600160a01b038216610abf576001600160a01b0316908115610a88576001600160a01b03191617600755005b60405162461bcd60e51b815260206004820152600f60248201526e496e76616c696420666163746f727960881b6044820152606490fd5b60405162461bcd60e51b8152602060048201526013602482015272119858dd1bdc9e481cdd59185a08191a5cd95d606a1b6044820152606490fd5b604036600319011261018457610b0e610f7a565b6024359033600052600260205260ff6040600020541615610caa57610b316111f9565b3415610c6e576001600160a01b031660008181526004602052604090205490919060ff16600381101561022557610b68901561102e565b6040516080810181811067ffffffffffffffff821117610c5857604090815233825260208083018581523484840181815260006060870181815289825260038087528783208a84528752878320985189546001600160a01b039182166001600160a01b0319918216178b55965160018b0180549190921697169690961790955591516002880155905195909201805460ff191695151560ff169590951790945585815260059091522080549091610c1e9161106e565b90556040519081523460208201527ff5681f9d0db1b911ac18ee83d515a1cf1051853a9eae418316a2fdf7dea427c560403392a360018055005b634e487b7160e01b600052604160045260246000fd5b60405162461bcd60e51b81526020600482015260146024820152732a34b230b59030b230903832b6b130bcb0b930b760611b6044820152606490fd5b60405162461bcd60e51b815260206004820152600e60248201526d1b9bdd08185d5d1a1bdc9a5e995960921b6044820152606490fd5b3461018457606036600319011261018457610cf9610f7a565b60443590602435906001600160a01b038316830361018457610d196111f9565b610d2e60018060a01b03600754163314610f90565b6001600160a01b031660008181526004602052604090205490929060ff16600381101561022557600103610ec0578260005260036020526040600020826000526020526040600020906002820154918215610e8757600301805460ff8116610e515760ff191660011790556000848152600560205260409020805483810392908311610e3b576000848194928294938394555af1610dca610fee565b5015610e075760405191825260208201527f88808afc48888c0e3ec9c545474e31ce16f177be8d0c8ba3922274893615750e60403392a360018055005b60405162461bcd60e51b815260206004820152600c60248201526b1499599d5b990819d859d85b60a21b6044820152606490fd5b634e487b7160e01b600052601160045260246000fd5b60405162461bcd60e51b815260206004820152600e60248201526d14dd59185a08191a5c99599d5b9960921b6044820152606490fd5b60405162461bcd60e51b8152602060048201526011602482015270151a59185ac81859184819195c1bdcda5d607a1b6044820152606490fd5b60405162461bcd60e51b815260206004820152601660248201527522bb32b73a103132b63ab6903234b130ba30b635b0b760511b6044820152606490fd5b34610184576020366003190112610184576001600160a01b03610f1f610f7a565b16600052600460205260ff604060002054166040516003821015610225576020918152f35b34610184576020366003190112610184576020906001600160a01b03610f68610f7a565b16600052600582526040600020548152f35b600435906001600160a01b038216820361018457565b15610f9757565b60405162461bcd60e51b815260206004820152600d60248201526c42756b616e20666163746f727960981b6044820152606490fd5b90601f8019910116810190811067ffffffffffffffff821117610c5857604052565b3d15611029573d9067ffffffffffffffff8211610c58576040519161101d601f8201601f191660200184610fcc565b82523d6000602084013e565b606090565b1561103557565b60405162461bcd60e51b815260206004820152601160248201527022bb32b73a103a34b230b59030b5ba34b360791b6044820152606490fd5b91908201809211610e3b57565b51906001600160601b038216820361018457565b51906001600160a01b038216820361018457565b9190826040910312610184576110c460206110bd8461108f565b930161107b565b90565b81810292918115918404141715610e3b57565b156110e157565b60405162461bcd60e51b8152602060048201526018602482015277151c985b9cd9995c8819d859d85b081ad9481c185e5bdd5d60421b6044820152606490fd5b6001600160a01b031660009081526004602052604090205460ff1660038110156102255780156111d457600090600181146111ab5760029150146111845760405161116d604082610fcc565b60078152662ab735b737bbb760c91b602082015290565b604051611192604082610fcc565b600981526810dbdb5c1b195d195960ba1b602082015290565b50506040516111bb604082610fcc565b600981526810d85b98d95b1b195960ba1b602082015290565b506040516111e3604082610fcc565b600681526541637469766560d01b602082015290565b60026001541461120a576002600155565b633ee5aeb560e01b60005260046000fd5b6000546001600160a01b0316330361122f57565b63118cdaa760e01b6000523360045260246000fdfea26469706673582212201c5259c3a68cb992023765c49a31d595bf262f82029436427003f83682216ffc64736f6c634300081c0033",
  "linkReferences": {},
  "deployedLinkReferences": {}
}