{
  "_format": "hh-sol-artifact-1",
  "contractName": "Vault",
  "sourceName": "contracts/vault.sol",
  "abi": [
    {
      "inputs": [
        {
          "internalType": "address",
          "name": "_factory",
          "type": "address"
        }
      ],
      "stateMutability": "nonpayable",
      "type": "constructor"
    },
    {
      "inputs": [
        {
          "internalType": "address",
          "name": "owner",
          "type": "address"
        }
      ],
      "name": "OwnableInvalidOwner",
      "type": "error"
    },
    {
      "inputs": [
        {
          "internalType": "address",
          "name": "account",
          "type": "address"
        }
      ],
      "name": "OwnableUnauthorizedAccount",
      "type": "error"
    },
    {
      "inputs": [],
      "name": "ReentrancyGuardReentrantCall",
      "type": "error"
    },
    {
      "anonymous": false,
      "inputs": [
        {
          "indexed": true,
          "internalType": "address",
          "name": "buyer",
          "type": "address"
        },
        {
          "indexed": true,
          "internalType": "address",
          "name": "eventAddress",
          "type": "address"
        },
        {
          "indexed": false,
          "internalType": "uint256",
          "name": "tokenId",
          "type": "uint256"
        },
        {
          "indexed": false,
          "internalType": "uint256",
          "name": "amount",
          "type": "uint256"
        }
      ],
      "name": "Deposited",
      "type": "event"
    },
    {
      "anonymous": false,
      "inputs": [
        {
          "indexed": true,
          "internalType": "address",
          "name": "eventAddress",
          "type": "address"
        }
      ],
      "name": "EventCancelled",
      "type": "event"
    },
    {
      "anonymous": false,
      "inputs": [
        {
          "indexed": true,
          "internalType": "address",
          "name": "eventAddress",
          "type": "address"
        }
      ],
      "name": "EventCompleted",
      "type": "event"
    },
    {
      "anonymous": false,
      "inputs": [
        {
          "indexed": true,
          "internalType": "address",
          "name": "previousOwner",
          "type": "address"
        },
        {
          "indexed": true,
          "internalType": "address",
          "name": "newOwner",
          "type": "address"
        }
      ],
      "name": "OwnershipTransferred",
      "type": "event"
    },
    {
      "anonymous": false,
      "inputs": [
        {
          "indexed": true,
          "internalType": "address",
          "name": "buyer",
          "type": "address"
        },
        {
          "indexed": true,
          "internalType": "address",
          "name": "eventAddress",
          "type": "address"
        },
        {
          "indexed": false,
          "internalType": "uint256",
          "name": "tokenId",
          "type": "uint256"
        },
        {
          "indexed": false,
          "internalType": "uint256",
          "name": "amount",
          "type": "uint256"
        }
      ],
      "name": "Refunded",
      "type": "event"
    },
    {
      "anonymous": false,
      "inputs": [
        {
          "indexed": true,
          "internalType": "address",
          "name": "organizer",
          "type": "address"
        },
        {
          "indexed": true,
          "internalType": "address",
          "name": "eventAddress",
          "type": "address"
        },
        {
          "indexed": false,
          "internalType": "uint256",
          "name": "totalAmount",
          "type": "uint256"
        }
      ],
      "name": "Withdrawn",
      "type": "event"
    },
    {
      "inputs": [
        {
          "internalType": "address",
          "name": "eventAddress",
          "type": "address"
        }
      ],
      "name": "cancelEvent",
      "outputs": [],
      "stateMutability": "nonpayable",
      "type": "function"
    },
    {
      "inputs": [
        {
          "internalType": "address",
          "name": "eventAddress",
          "type": "address"
        }
      ],
      "name": "completeEvent",
      "outputs": [],
      "stateMutability": "nonpayable",
      "type": "function"
    },
    {
      "inputs": [
        {
          "internalType": "address",
          "name": "eventAddress",
          "type": "address"
        },
        {
          "internalType": "uint256",
          "name": "tokenId",
          "type": "uint256"
        }
      ],
      "name": "deposit",
      "outputs": [],
      "stateMutability": "payable",
      "type": "function"
    },
    {
      "inputs": [
        {
          "internalType": "address",
          "name": "",
          "type": "address"
        },
        {
          "internalType": "uint256",
          "name": "",
          "type": "uint256"
        }
      ],
      "name": "deposits",
      "outputs": [
        {
          "internalType": "uint256",
          "name": "amount",
          "type": "uint256"
        },
        {
          "internalType": "bool",
          "name": "refunded",
          "type": "bool"
        }
      ],
      "stateMutability": "view",
      "type": "function"
    },
    {
      "inputs": [
        {
          "internalType": "address",
          "name": "",
          "type": "address"
        }
      ],
      "name": "eventBalances",
      "outputs": [
        {
          "internalType": "uint256",
          "name": "",
          "type": "uint256"
        }
      ],
      "stateMutability": "view",
      "type": "function"
    },
    {
      "inputs": [
        {
          "internalType": "address",
          "name": "",
          "type": "address"
        }
      ],
      "name": "eventStatus",
      "outputs": [
        {
          "internalType": "enum Vault.EventStatus",
          "name": "",
          "type": "uint8"
        }
      ],
      "stateMutability": "view",
      "type": "function"
    },
    {
      "inputs": [],
      "name": "factory",
      "outputs": [
        {
          "internalType": "address",
          "name": "",
          "type": "address"
        }
      ],
      "stateMutability": "view",
      "type": "function"
    },
    {
      "inputs": [
        {
          "internalType": "address",
          "name": "eventAddress",
          "type": "address"
        }
      ],
      "name": "getEventBalance",
      "outputs": [
        {
          "internalType": "uint256",
          "name": "",
          "type": "uint256"
        }
      ],
      "stateMutability": "view",
      "type": "function"
    },
    {
      "inputs": [
        {
          "internalType": "address",
          "name": "eventAddress",
          "type": "address"
        }
      ],
      "name": "getEventStatus",
      "outputs": [
        {
          "internalType": "string",
          "name": "",
          "type": "string"
        }
      ],
      "stateMutability": "view",
      "type": "function"
    },
    {
      "inputs": [],
      "name": "owner",
      "outputs": [
        {
          "internalType": "address",
          "name": "",
          "type": "address"
        }
      ],
      "stateMutability": "view",
      "type": "function"
    },
    {
      "inputs": [
        {
          "internalType": "address",
          "name": "eventAddress",
          "type": "address"
        },
        {
          "internalType": "uint256",
          "name": "tokenId",
          "type": "uint256"
        }
      ],
      "name": "refund",
      "outputs": [],
      "stateMutability": "nonpayable",
      "type": "function"
    },
    {
      "inputs": [],
      "name": "renounceOwnership",
      "outputs": [],
      "stateMutability": "nonpayable",
      "type": "function"
    },
    {
      "inputs": [
        {
          "internalType": "address",
          "name": "newOwner",
          "type": "address"
        }
      ],
      "name": "transferOwnership",
      "outputs": [],
      "stateMutability": "nonpayable",
      "type": "function"
    },
    {
      "inputs": [
        {
          "internalType": "address",
          "name": "eventAddress",
          "type": "address"
        },
        {
          "internalType": "address payable",
          "name": "recipient",
          "type": "address"
        }
      ],
      "name": "withdrawEventFunds",
      "outputs": [],
      "stateMutability": "nonpayable",
      "type": "function"
    }
  ],
  "bytecode": "0x608060405234801561001057600080fd5b5060405161215c38038061215c83398181016040528101906100329190610299565b33600073ffffffffffffffffffffffffffffffffffffffff168173ffffffffffffffffffffffffffffffffffffffff16036100a55760006040517f1e4fbdf700000000000000000000000000000000000000000000000000000000815260040161009c91906102d5565b60405180910390fd5b6100b48161017260201b60201c565b5060018081905550600073ffffffffffffffffffffffffffffffffffffffff168173ffffffffffffffffffffffffffffffffffffffff160361012b576040517f08c379a00000000000000000000000000000000000000000000000000000000081526004016101229061034d565b60405180910390fd5b80600560006101000a81548173ffffffffffffffffffffffffffffffffffffffff021916908373ffffffffffffffffffffffffffffffffffffffff1602179055505061036d565b60008060009054906101000a900473ffffffffffffffffffffffffffffffffffffffff169050816000806101000a81548173ffffffffffffffffffffffffffffffffffffffff021916908373ffffffffffffffffffffffffffffffffffffffff1602179055508173ffffffffffffffffffffffffffffffffffffffff168173ffffffffffffffffffffffffffffffffffffffff167f8be0079c531659141344cd1fd0a4f28419497f9722a3daafe3b4186f6b6457e060405160405180910390a35050565b600080fd5b600073ffffffffffffffffffffffffffffffffffffffff82169050919050565b60006102668261023b565b9050919050565b6102768161025b565b811461028157600080fd5b50565b6000815190506102938161026d565b92915050565b6000602082840312156102af576102ae610236565b5b60006102bd84828501610284565b91505092915050565b6102cf8161025b565b82525050565b60006020820190506102ea60008301846102c6565b92915050565b600082825260208201905092915050565b7f696e76616c696420666163746f72790000000000000000000000000000000000600082015250565b6000610337600f836102f0565b915061034282610301565b602082019050919050565b600060208201905081810360008301526103668161032a565b9050919050565b611de08061037c6000396000f3fe6080604052600436106100dd5760003560e01c80638da5cb5b1161007f578063c45a015511610059578063c45a0155146102af578063d6d68177146102da578063e797805214610318578063f2fde38b14610341576100dd565b80638da5cb5b1461020a578063bac7827614610235578063bf1f5b8314610272576100dd565b8063410085df116100bb578063410085df1461018557806347e7ef24146101ae578063710500d3146101ca578063715018a6146101f3576100dd565b80630d53d37a146100e2578063219a8eed1461011f5780633d52dad014610148575b600080fd5b3480156100ee57600080fd5b5061010960048036038101906101049190611497565b61036a565b60405161011691906114dd565b60405180910390f35b34801561012b57600080fd5b5061014660048036038101906101419190611536565b610382565b005b34801561015457600080fd5b5061016f600480360381019061016a9190611497565b61062f565b60405161017c91906115ed565b60405180910390f35b34801561019157600080fd5b506101ac60048036038101906101a79190611634565b61064f565b005b6101c860048036038101906101c39190611634565b610995565b005b3480156101d657600080fd5b506101f160048036038101906101ec9190611497565b610c81565b005b3480156101ff57600080fd5b50610208610dea565b005b34801561021657600080fd5b5061021f610dfe565b60405161022c9190611683565b60405180910390f35b34801561024157600080fd5b5061025c60048036038101906102579190611497565b610e27565b60405161026991906114dd565b60405180910390f35b34801561027e57600080fd5b5061029960048036038101906102949190611497565b610e70565b6040516102a6919061172e565b60405180910390f35b3480156102bb57600080fd5b506102c461103f565b6040516102d19190611683565b60405180910390f35b3480156102e657600080fd5b5061030160048036038101906102fc9190611634565b611065565b60405161030f92919061176b565b60405180910390f35b34801561032457600080fd5b5061033f600480360381019061033a9190611497565b6110a3565b005b34801561034d57600080fd5b5061036860048036038101906103639190611497565b61120c565b005b60046020528060005260406000206000915090505481565b61038a611292565b610392611319565b6002808111156103a5576103a4611576565b5b600360008473ffffffffffffffffffffffffffffffffffffffff1673ffffffffffffffffffffffffffffffffffffffff16815260200190815260200160002060009054906101000a900460ff16600281111561040457610403611576565b5b14610444576040517f08c379a000000000000000000000000000000000000000000000000000000000815260040161043b906117e0565b60405180910390fd5b6000600460008473ffffffffffffffffffffffffffffffffffffffff1673ffffffffffffffffffffffffffffffffffffffff168152602001908152602001600020549050600081116104cb576040517f08c379a00000000000000000000000000000000000000000000000000000000081526004016104c29061184c565b60405180910390fd5b6000600460008573ffffffffffffffffffffffffffffffffffffffff1673ffffffffffffffffffffffffffffffffffffffff1681526020019081526020016000208190555060008273ffffffffffffffffffffffffffffffffffffffff16826040516105369061189d565b60006040518083038185875af1925050503d8060008114610573576040519150601f19603f3d011682016040523d82523d6000602084013e610578565b606091505b50509050806105bc576040517f08c379a00000000000000000000000000000000000000000000000000000000081526004016105b3906118fe565b60405180910390fd5b8373ffffffffffffffffffffffffffffffffffffffff168373ffffffffffffffffffffffffffffffffffffffff167fd1c19fbcd4551a5edfb66d43d2e337c04837afda3482b42bdf569a8fccdae5fb8460405161061991906114dd565b60405180910390a3505061062b61135f565b5050565b60036020528060005260406000206000915054906101000a900460ff1681565b610657611319565b6001600281111561066b5761066a611576565b5b600360008473ffffffffffffffffffffffffffffffffffffffff1673ffffffffffffffffffffffffffffffffffffffff16815260200190815260200160002060009054906101000a900460ff1660028111156106ca576106c9611576565b5b1461070a576040517f08c379a00000000000000000000000000000000000000000000000000000000081526004016107019061196a565b60405180910390fd5b6000600260008473ffffffffffffffffffffffffffffffffffffffff1673ffffffffffffffffffffffffffffffffffffffff1681526020019081526020016000206000838152602001908152602001600020905060008160000154116107a5576040517f08c379a000000000000000000000000000000000000000000000000000000000815260040161079c906119d6565b60405180910390fd5b8060010160009054906101000a900460ff16156107f7576040517f08c379a00000000000000000000000000000000000000000000000000000000081526004016107ee90611a42565b60405180910390fd5b60018160010160006101000a81548160ff02191690831515021790555060008160000154905080600460008673ffffffffffffffffffffffffffffffffffffffff1673ffffffffffffffffffffffffffffffffffffffff168152602001908152602001600020600082825461086c9190611a91565b9250508190555060003373ffffffffffffffffffffffffffffffffffffffff16826040516108999061189d565b60006040518083038185875af1925050503d80600081146108d6576040519150601f19603f3d011682016040523d82523d6000602084013e6108db565b606091505b505090508061091f576040517f08c379a000000000000000000000000000000000000000000000000000000000815260040161091690611b11565b60405180910390fd5b8473ffffffffffffffffffffffffffffffffffffffff163373ffffffffffffffffffffffffffffffffffffffff167f88808afc48888c0e3ec9c545474e31ce16f177be8d0c8ba3922274893615750e868560405161097e929190611b31565b60405180910390a350505061099161135f565b5050565b600560009054906101000a900473ffffffffffffffffffffffffffffffffffffffff1673ffffffffffffffffffffffffffffffffffffffff163373ffffffffffffffffffffffffffffffffffffffff1614610a25576040517f08c379a0000000000000000000000000000000000000000000000000000000008152600401610a1c90611ba6565b60405180910390fd5b610a2d611319565b60003411610a70576040517f08c379a0000000000000000000000000000000000000000000000000000000008152600401610a6790611c12565b60405180910390fd5b60006002811115610a8457610a83611576565b5b600360008473ffffffffffffffffffffffffffffffffffffffff1673ffffffffffffffffffffffffffffffffffffffff16815260200190815260200160002060009054906101000a900460ff166002811115610ae357610ae2611576565b5b14610b23576040517f08c379a0000000000000000000000000000000000000000000000000000000008152600401610b1a90611c7e565b60405180910390fd5b604051806040016040528034815260200160001515815250600260008473ffffffffffffffffffffffffffffffffffffffff1673ffffffffffffffffffffffffffffffffffffffff16815260200190815260200160002060008381526020019081526020016000206000820151816000015560208201518160010160006101000a81548160ff02191690831515021790555090505034600460008473ffffffffffffffffffffffffffffffffffffffff1673ffffffffffffffffffffffffffffffffffffffff1681526020019081526020016000206000828254610c079190611c9e565b925050819055508173ffffffffffffffffffffffffffffffffffffffff163273ffffffffffffffffffffffffffffffffffffffff167ff5681f9d0db1b911ac18ee83d515a1cf1051853a9eae418316a2fdf7dea427c58334604051610c6d929190611b31565b60405180910390a3610c7d61135f565b5050565b610c89611292565b60006002811115610c9d57610c9c611576565b5b600360008373ffffffffffffffffffffffffffffffffffffffff1673ffffffffffffffffffffffffffffffffffffffff16815260200190815260200160002060009054906101000a900460ff166002811115610cfc57610cfb611576565b5b14610d3c576040517f08c379a0000000000000000000000000000000000000000000000000000000008152600401610d3390611d1e565b60405180910390fd5b6001600360008373ffffffffffffffffffffffffffffffffffffffff1673ffffffffffffffffffffffffffffffffffffffff16815260200190815260200160002060006101000a81548160ff02191690836002811115610d9f57610d9e611576565b5b02179055508073ffffffffffffffffffffffffffffffffffffffff167f1ed6aef4830b61b6633644335de3c40aa545ab8d765b690ff36ae9729dafc1b760405160405180910390a250565b610df2611292565b610dfc6000611368565b565b60008060009054906101000a900473ffffffffffffffffffffffffffffffffffffffff16905090565b6000600460008373ffffffffffffffffffffffffffffffffffffffff1673ffffffffffffffffffffffffffffffffffffffff168152602001908152602001600020549050919050565b60606000600360008473ffffffffffffffffffffffffffffffffffffffff1673ffffffffffffffffffffffffffffffffffffffff16815260200190815260200160002060009054906101000a900460ff16905060006002811115610ed757610ed6611576565b5b816002811115610eea57610ee9611576565b5b03610f2d576040518060400160405280600681526020017f416374697665000000000000000000000000000000000000000000000000000081525091505061103a565b60016002811115610f4157610f40611576565b5b816002811115610f5457610f53611576565b5b03610f97576040518060400160405280600981526020017f43616e63656c6c6564000000000000000000000000000000000000000000000081525091505061103a565b600280811115610faa57610fa9611576565b5b816002811115610fbd57610fbc611576565b5b03611000576040518060400160405280600981526020017f436f6d706c65746564000000000000000000000000000000000000000000000081525091505061103a565b6040518060400160405280600781526020017f556e6b6e6f776e000000000000000000000000000000000000000000000000008152509150505b919050565b600560009054906101000a900473ffffffffffffffffffffffffffffffffffffffff1681565b6002602052816000526040600020602052806000526040600020600091509150508060000154908060010160009054906101000a900460ff16905082565b6110ab611292565b600060028111156110bf576110be611576565b5b600360008373ffffffffffffffffffffffffffffffffffffffff1673ffffffffffffffffffffffffffffffffffffffff16815260200190815260200160002060009054906101000a900460ff16600281111561111e5761111d611576565b5b1461115e576040517f08c379a000000000000000000000000000000000000000000000000000000000815260040161115590611d8a565b60405180910390fd5b6002600360008373ffffffffffffffffffffffffffffffffffffffff1673ffffffffffffffffffffffffffffffffffffffff16815260200190815260200160002060006101000a81548160ff021916908360028111156111c1576111c0611576565b5b02179055508073ffffffffffffffffffffffffffffffffffffffff167f727966dbf8f1ef7d8484266f5f53e2b1fc338f6a6f13d77038cba871f9c0f9c160405160405180910390a250565b611214611292565b600073ffffffffffffffffffffffffffffffffffffffff168173ffffffffffffffffffffffffffffffffffffffff16036112865760006040517f1e4fbdf700000000000000000000000000000000000000000000000000000000815260040161127d9190611683565b60405180910390fd5b61128f81611368565b50565b61129a61142c565b73ffffffffffffffffffffffffffffffffffffffff166112b8610dfe565b73ffffffffffffffffffffffffffffffffffffffff1614611317576112db61142c565b6040517f118cdaa700000000000000000000000000000000000000000000000000000000815260040161130e9190611683565b60405180910390fd5b565b600260015403611355576040517f3ee5aeb500000000000000000000000000000000000000000000000000000000815260040160405180910390fd5b6002600181905550565b60018081905550565b60008060009054906101000a900473ffffffffffffffffffffffffffffffffffffffff169050816000806101000a81548173ffffffffffffffffffffffffffffffffffffffff021916908373ffffffffffffffffffffffffffffffffffffffff1602179055508173ffffffffffffffffffffffffffffffffffffffff168173ffffffffffffffffffffffffffffffffffffffff167f8be0079c531659141344cd1fd0a4f28419497f9722a3daafe3b4186f6b6457e060405160405180910390a35050565b600033905090565b600080fd5b600073ffffffffffffffffffffffffffffffffffffffff82169050919050565b600061146482611439565b9050919050565b61147481611459565b811461147f57600080fd5b50565b6000813590506114918161146b565b92915050565b6000602082840312156114ad576114ac611434565b5b60006114bb84828501611482565b91505092915050565b6000819050919050565b6114d7816114c4565b82525050565b60006020820190506114f260008301846114ce565b92915050565b600061150382611439565b9050919050565b611513816114f8565b811461151e57600080fd5b50565b6000813590506115308161150a565b92915050565b6000806040838503121561154d5761154c611434565b5b600061155b85828601611482565b925050602061156c85828601611521565b9150509250929050565b7f4e487b7100000000000000000000000000000000000000000000000000000000600052602160045260246000fd5b600381106115b6576115b5611576565b5b50565b60008190506115c7826115a5565b919050565b60006115d7826115b9565b9050919050565b6115e7816115cc565b82525050565b600060208201905061160260008301846115de565b92915050565b611611816114c4565b811461161c57600080fd5b50565b60008135905061162e81611608565b92915050565b6000806040838503121561164b5761164a611434565b5b600061165985828601611482565b925050602061166a8582860161161f565b9150509250929050565b61167d81611459565b82525050565b60006020820190506116986000830184611674565b92915050565b600081519050919050565b600082825260208201905092915050565b60005b838110156116d85780820151818401526020810190506116bd565b60008484015250505050565b6000601f19601f8301169050919050565b60006117008261169e565b61170a81856116a9565b935061171a8185602086016116ba565b611723816116e4565b840191505092915050565b6000602082019050818103600083015261174881846116f5565b905092915050565b60008115159050919050565b61176581611750565b82525050565b600060408201905061178060008301856114ce565b61178d602083018461175c565b9392505050565b7f6576656e74206e6f7420636f6d706c6574656400000000000000000000000000600082015250565b60006117ca6013836116a9565b91506117d582611794565b602082019050919050565b600060208201905081810360008301526117f9816117bd565b9050919050565b7f6e6f2062616c616e636500000000000000000000000000000000000000000000600082015250565b6000611836600a836116a9565b915061184182611800565b602082019050919050565b6000602082019050818103600083015261186581611829565b9050919050565b600081905092915050565b50565b600061188760008361186c565b915061189282611877565b600082019050919050565b60006118a88261187a565b9150819050919050565b7f7769746864726177206661696c65640000000000000000000000000000000000600082015250565b60006118e8600f836116a9565b91506118f3826118b2565b602082019050919050565b60006020820190508181036000830152611917816118db565b9050919050565b7f6e6f742063616e63656c6c656400000000000000000000000000000000000000600082015250565b6000611954600d836116a9565b915061195f8261191e565b602082019050919050565b6000602082019050818103600083015261198381611947565b9050919050565b7f6e6f206465706f73697400000000000000000000000000000000000000000000600082015250565b60006119c0600a836116a9565b91506119cb8261198a565b602082019050919050565b600060208201905081810360008301526119ef816119b3565b9050919050565b7f616c726561647920726566756e64656400000000000000000000000000000000600082015250565b6000611a2c6010836116a9565b9150611a37826119f6565b602082019050919050565b60006020820190508181036000830152611a5b81611a1f565b9050919050565b7f4e487b7100000000000000000000000000000000000000000000000000000000600052601160045260246000fd5b6000611a9c826114c4565b9150611aa7836114c4565b9250828203905081811115611abf57611abe611a62565b5b92915050565b7f726566756e64206661696c656400000000000000000000000000000000000000600082015250565b6000611afb600d836116a9565b9150611b0682611ac5565b602082019050919050565b60006020820190508181036000830152611b2a81611aee565b9050919050565b6000604082019050611b4660008301856114ce565b611b5360208301846114ce565b9392505050565b7f6e6f7420666163746f7279000000000000000000000000000000000000000000600082015250565b6000611b90600b836116a9565b9150611b9b82611b5a565b602082019050919050565b60006020820190508181036000830152611bbf81611b83565b9050919050565b7f6e6f207061796d656e7400000000000000000000000000000000000000000000600082015250565b6000611bfc600a836116a9565b9150611c0782611bc6565b602082019050919050565b60006020820190508181036000830152611c2b81611bef565b9050919050565b7f6576656e74206e6f742061637469766500000000000000000000000000000000600082015250565b6000611c686010836116a9565b9150611c7382611c32565b602082019050919050565b60006020820190508181036000830152611c9781611c5b565b9050919050565b6000611ca9826114c4565b9150611cb4836114c4565b9250828201905080821115611ccc57611ccb611a62565b5b92915050565b7f616c726561647920696e61637469766500000000000000000000000000000000600082015250565b6000611d086010836116a9565b9150611d1382611cd2565b602082019050919050565b60006020820190508181036000830152611d3781611cfb565b9050919050565b7f6e6f742061637469766500000000000000000000000000000000000000000000600082015250565b6000611d74600a836116a9565b9150611d7f82611d3e565b602082019050919050565b60006020820190508181036000830152611da381611d67565b905091905056fea2646970667358221220c8c98c70e8e7b0df2663c1702a0890e40aaab3573841410b1d68fee861d19b8164736f6c634300081c0033",
  "linkReferences": {},
  "deployedLinkReferences": {}
}