{
  "_format": "hh-sol-artifact-1",
  "contractName": "Vault",
  "sourceName": "contracts/vault.sol",
  "abi": [
    {
      "inputs": [],
      "stateMutability": "nonpayable",
      "type": "constructor"
    },
    {
      "inputs": [
        {
          "internalType": "address",
          "name": "owner",
          "type": "address"
        }
      ],
      "name": "OwnableInvalidOwner",
      "type": "error"
    },
    {
      "inputs": [
        {
          "internalType": "address",
          "name": "account",
          "type": "address"
        }
      ],
      "name": "OwnableUnauthorizedAccount",
      "type": "error"
    },
    {
      "inputs": [],
      "name": "ReentrancyGuardReentrantCall",
      "type": "error"
    },
    {
      "anonymous": false,
      "inputs": [
        {
          "indexed": true,
          "internalType": "address",
          "name": "buyer",
          "type": "address"
        },
        {
          "indexed": true,
          "internalType": "address",
          "name": "eventAddress",
          "type": "address"
        },
        {
          "indexed": false,
          "internalType": "uint256",
          "name": "tokenId",
          "type": "uint256"
        },
        {
          "indexed": false,
          "internalType": "uint256",
          "name": "amount",
          "type": "uint256"
        }
      ],
      "name": "Deposited",
      "type": "event"
    },
    {
      "anonymous": false,
      "inputs": [
        {
          "indexed": true,
          "internalType": "address",
          "name": "eventAddress",
          "type": "address"
        }
      ],
      "name": "EventCancelled",
      "type": "event"
    },
    {
      "anonymous": false,
      "inputs": [
        {
          "indexed": true,
          "internalType": "address",
          "name": "eventAddress",
          "type": "address"
        }
      ],
      "name": "EventCompleted",
      "type": "event"
    },
    {
      "anonymous": false,
      "inputs": [
        {
          "indexed": true,
          "internalType": "address",
          "name": "previousOwner",
          "type": "address"
        },
        {
          "indexed": true,
          "internalType": "address",
          "name": "newOwner",
          "type": "address"
        }
      ],
      "name": "OwnershipTransferred",
      "type": "event"
    },
    {
      "anonymous": false,
      "inputs": [
        {
          "indexed": true,
          "internalType": "address",
          "name": "buyer",
          "type": "address"
        },
        {
          "indexed": true,
          "internalType": "address",
          "name": "eventAddress",
          "type": "address"
        },
        {
          "indexed": false,
          "internalType": "uint256",
          "name": "tokenId",
          "type": "uint256"
        },
        {
          "indexed": false,
          "internalType": "uint256",
          "name": "amount",
          "type": "uint256"
        }
      ],
      "name": "Refunded",
      "type": "event"
    },
    {
      "anonymous": false,
      "inputs": [
        {
          "indexed": true,
          "internalType": "address",
          "name": "organizer",
          "type": "address"
        },
        {
          "indexed": true,
          "internalType": "address",
          "name": "eventAddress",
          "type": "address"
        },
        {
          "indexed": false,
          "internalType": "uint256",
          "name": "totalAmount",
          "type": "uint256"
        }
      ],
      "name": "Withdrawn",
      "type": "event"
    },
    {
      "inputs": [
        {
          "internalType": "address",
          "name": "eventAddress",
          "type": "address"
        }
      ],
      "name": "authorizeEvent",
      "outputs": [],
      "stateMutability": "nonpayable",
      "type": "function"
    },
    {
      "inputs": [
        {
          "internalType": "address",
          "name": "",
          "type": "address"
        }
      ],
      "name": "authorizedContracts",
      "outputs": [
        {
          "internalType": "bool",
          "name": "",
          "type": "bool"
        }
      ],
      "stateMutability": "view",
      "type": "function"
    },
    {
      "inputs": [
        {
          "internalType": "address",
          "name": "eventAddress",
          "type": "address"
        }
      ],
      "name": "cancelEvent",
      "outputs": [],
      "stateMutability": "nonpayable",
      "type": "function"
    },
    {
      "inputs": [
        {
          "internalType": "address",
          "name": "eventAddress",
          "type": "address"
        }
      ],
      "name": "completeEvent",
      "outputs": [],
      "stateMutability": "nonpayable",
      "type": "function"
    },
    {
      "inputs": [
        {
          "internalType": "address",
          "name": "eventAddress",
          "type": "address"
        },
        {
          "internalType": "uint256",
          "name": "tokenId",
          "type": "uint256"
        }
      ],
      "name": "deposit",
      "outputs": [],
      "stateMutability": "payable",
      "type": "function"
    },
    {
      "inputs": [
        {
          "internalType": "address",
          "name": "",
          "type": "address"
        },
        {
          "internalType": "uint256",
          "name": "",
          "type": "uint256"
        }
      ],
      "name": "deposits",
      "outputs": [
        {
          "internalType": "address",
          "name": "buyer",
          "type": "address"
        },
        {
          "internalType": "address",
          "name": "eventAddress",
          "type": "address"
        },
        {
          "internalType": "uint256",
          "name": "amount",
          "type": "uint256"
        },
        {
          "internalType": "bool",
          "name": "refunded",
          "type": "bool"
        }
      ],
      "stateMutability": "view",
      "type": "function"
    },
    {
      "inputs": [
        {
          "internalType": "address",
          "name": "",
          "type": "address"
        }
      ],
      "name": "eventBalances",
      "outputs": [
        {
          "internalType": "uint256",
          "name": "",
          "type": "uint256"
        }
      ],
      "stateMutability": "view",
      "type": "function"
    },
    {
      "inputs": [
        {
          "internalType": "address",
          "name": "",
          "type": "address"
        }
      ],
      "name": "eventRoyalty",
      "outputs": [
        {
          "internalType": "uint256",
          "name": "",
          "type": "uint256"
        }
      ],
      "stateMutability": "view",
      "type": "function"
    },
    {
      "inputs": [
        {
          "internalType": "address",
          "name": "",
          "type": "address"
        }
      ],
      "name": "eventStatus",
      "outputs": [
        {
          "internalType": "enum Vault.EventStatus",
          "name": "",
          "type": "uint8"
        }
      ],
      "stateMutability": "view",
      "type": "function"
    },
    {
      "inputs": [],
      "name": "factory",
      "outputs": [
        {
          "internalType": "address",
          "name": "",
          "type": "address"
        }
      ],
      "stateMutability": "view",
      "type": "function"
    },
    {
      "inputs": [
        {
          "internalType": "address",
          "name": "eventAddress",
          "type": "address"
        }
      ],
      "name": "getEventBalance",
      "outputs": [
        {
          "internalType": "uint256",
          "name": "",
          "type": "uint256"
        }
      ],
      "stateMutability": "view",
      "type": "function"
    },
    {
      "inputs": [
        {
          "internalType": "address",
          "name": "eventAddress",
          "type": "address"
        }
      ],
      "name": "getEventRoyalty",
      "outputs": [
        {
          "internalType": "uint256",
          "name": "",
          "type": "uint256"
        }
      ],
      "stateMutability": "view",
      "type": "function"
    },
    {
      "inputs": [
        {
          "internalType": "address",
          "name": "eventAddress",
          "type": "address"
        }
      ],
      "name": "getEventStatus",
      "outputs": [
        {
          "internalType": "string",
          "name": "",
          "type": "string"
        }
      ],
      "stateMutability": "view",
      "type": "function"
    },
    {
      "inputs": [],
      "name": "owner",
      "outputs": [
        {
          "internalType": "address",
          "name": "",
          "type": "address"
        }
      ],
      "stateMutability": "view",
      "type": "function"
    },
    {
      "inputs": [
        {
          "internalType": "address",
          "name": "eventAddress",
          "type": "address"
        },
        {
          "internalType": "uint256",
          "name": "tokenId",
          "type": "uint256"
        },
        {
          "internalType": "address",
          "name": "buyer",
          "type": "address"
        }
      ],
      "name": "refund",
      "outputs": [],
      "stateMutability": "nonpayable",
      "type": "function"
    },
    {
      "inputs": [],
      "name": "renounceOwnership",
      "outputs": [],
      "stateMutability": "nonpayable",
      "type": "function"
    },
    {
      "inputs": [
        {
          "internalType": "address",
          "name": "eventAddress",
          "type": "address"
        },
        {
          "internalType": "uint256",
          "name": "royaltyAmount",
          "type": "uint256"
        }
      ],
      "name": "royaltyDeposit",
      "outputs": [],
      "stateMutability": "nonpayable",
      "type": "function"
    },
    {
      "inputs": [
        {
          "internalType": "address",
          "name": "_factory",
          "type": "address"
        }
      ],
      "name": "setFactory",
      "outputs": [],
      "stateMutability": "nonpayable",
      "type": "function"
    },
    {
      "inputs": [
        {
          "internalType": "address",
          "name": "newOwner",
          "type": "address"
        }
      ],
      "name": "transferOwnership",
      "outputs": [],
      "stateMutability": "nonpayable",
      "type": "function"
    },
    {
      "inputs": [
        {
          "internalType": "address",
          "name": "eventAddress",
          "type": "address"
        }
      ],
      "name": "withdrawEventFunds",
      "outputs": [],
      "stateMutability": "nonpayable",
      "type": "function"
    }
  ],
  "bytecode": "0x60808060405234607957331560635760008054336001600160a01b0319821681178355916001600160a01b03909116907f8be0079c531659141344cd1fd0a4f28419497f9722a3daafe3b4186f6b6457e09080a36001805561123c908161007f8239f35b631e4fbdf760e01b600052600060045260246000fd5b600080fdfe608080604052600436101561001357600080fd5b60003560e01c9081630d53d37a14610f42575080633d52dad014610efc5780634154aede14610ceb57806347e7ef2414610b055780635bb4780814610a405780635e088229146105e357806362c977d6146105a3578063710500d314610514578063715018a6146104bb5780638c2ba20a146104225780638ceee6f61461022e5780638da5cb5b146103f9578063bac78276146103bf578063bf1f5b831461034f578063c45a015514610326578063d5b9221b146102e7578063d6d6817714610268578063e57ad97b1461022e578063e7978052146101895763f2fde38b146100fb57600080fd5b3461018457602036600319011261018457610114610f78565b61011c6111dd565b6001600160a01b0316801561016e57600080546001600160a01b03198116831782556001600160a01b0316907f8be0079c531659141344cd1fd0a4f28419497f9722a3daafe3b4186f6b6457e09080a3005b631e4fbdf760e01b600052600060045260246000fd5b600080fd5b34610184576020366003190112610184576101a2610f78565b6101aa6111dd565b6001600160a01b031660008181526004602052604090205460ff166003811015610218576101d89015610ff0565b8060005260046020526040600020600260ff198254161790557f727966dbf8f1ef7d8484266f5f53e2b1fc338f6a6f13d77038cba871f9c0f9c1600080a2005b634e487b7160e01b600052602160045260246000fd5b34610184576020366003190112610184576001600160a01b0361024f610f78565b1660005260066020526020604060002054604051908152f35b34610184576040366003190112610184576001600160a01b03610289610f78565b16600052600360205260406000206024356000526020526080604060002060018060a01b038154169060018060a01b036001820154169060ff6003600283015492015416916040519384526020840152604083015215156060820152f35b34610184576020366003190112610184576001600160a01b03610308610f78565b166000526002602052602060ff604060002054166040519015158152f35b34610184576000366003190112610184576007546040516001600160a01b039091168152602090f35b346101845760203660031901126101845761037061036b610f78565b6110e3565b60405190602082528181519182602083015260005b8381106103a75750508160006040809484010152601f80199101168101030190f35b60208282018101516040878401015285935001610385565b34610184576020366003190112610184576001600160a01b036103e0610f78565b1660005260056020526020604060002054604051908152f35b34610184576000366003190112610184576000546040516001600160a01b039091168152602090f35b346101845760203660031901126101845761043b610f78565b6007546001600160a01b03163303610486576001600160a01b03166000908152600260209081526040808320805460ff19908116600117909155600490925290912080549091169055005b60405162461bcd60e51b815260206004820152600d60248201526c42756b616e20666163746f727960981b6044820152606490fd5b34610184576000366003190112610184576104d46111dd565b600080546001600160a01b0319811682556001600160a01b03167f8be0079c531659141344cd1fd0a4f28419497f9722a3daafe3b4186f6b6457e08280a3005b346101845760203660031901126101845761052d610f78565b6105356111dd565b6001600160a01b031660008181526004602052604090205460ff166003811015610218576105639015610ff0565b8060005260046020526040600020600160ff198254161790557f1ed6aef4830b61b6633644335de3c40aa545ab8d765b690ff36ae9729dafc1b7600080a2005b34610184576040366003190112610184576001600160a01b036105c4610f78565b16600052600660205260406000206105df6024358254611030565b9055005b34610184576020366003190112610184576105fc610f78565b6106046111bb565b61060c6111dd565b6001600160a01b031660008181526004602052604090205460ff16600381101561021857600203610a055780600052600560205260406000205480156109cf57816000526006602052604060002054908260005260056020526000604081205560405163026c420760e01b8152602081600481875afa90811561078557600091610989575b506001600160601b0361271091160361094e5760005b6040516335ccdc3d60e01b815260048101859052602081602481885afa9081156107855760009161091d575b508110156107915760405190630f4b82b960e31b8252806004830152604082602481885afa801561078557600080808060019661073c9582918291610742575b5061072a6001600160601b0361271092168b611089565b04905af1610736610fb0565b5061109c565b016106a7565b6001600160601b039250612710915061077461072a9160403d811161077e575b61076c8183610f8e565b810190611065565b9093509150610713565b503d610762565b6040513d6000823e3d90fd5b5090610858575b604051638da5cb5b60e01b8152602081600481865afa908115610785576000916107fa575b506040519182526001600160a01b0316907fd1c19fbcd4551a5edfb66d43d2e337c04837afda3482b42bdf569a8fccdae5fb90602090a360018055005b90506020813d602011610850575b8161081560209383610f8e565b810103126101845760206108497fd1c19fbcd4551a5edfb66d43d2e337c04837afda3482b42bdf569a8fccdae5fb92611051565b91506107bd565b3d9150610808565b60005b6040516335ccdc3d60e01b815260048101849052602081602481875afa908115610785576000916108e9575b508110156108e35760405190630f4b82b960e31b8252806004830152604082602481875afa80156107855760008080806001966108dd9582918291610742575061072a6001600160601b0361271092168b611089565b0161085b565b50610798565b906020823d8211610915575b8161090260209383610f8e565b8101031261091257505184610887565b80fd5b3d91506108f5565b906020823d8211610946575b8161093660209383610f8e565b81010312610912575051856106d3565b3d9150610929565b60405162461bcd60e51b8152602060048201526013602482015272496e76616c696420746f74616c20736861726560681b6044820152606490fd5b90506020813d6020116109c7575b816109a460209383610f8e565b81010312610184576001600160601b036109c06127109261103d565b9150610691565b3d9150610997565b60405162461bcd60e51b815260206004820152600e60248201526d42616c616e6365206b6f736f6e6760901b6044820152606490fd5b60405162461bcd60e51b81526020600482015260136024820152724576656e742062656c756d2073656c6573616960681b6044820152606490fd5b3461018457602036600319011261018457610a59610f78565b610a616111dd565b600754906001600160a01b038216610aca576001600160a01b0316908115610a93576001600160a01b03191617600755005b60405162461bcd60e51b815260206004820152600f60248201526e496e76616c696420666163746f727960881b6044820152606490fd5b60405162461bcd60e51b8152602060048201526013602482015272119858dd1bdc9e481cdd59185a08191a5cd95d606a1b6044820152606490fd5b604036600319011261018457610b19610f78565b6024359033600052600260205260ff6040600020541615610cb557610b3c6111bb565b3415610c79576001600160a01b031660008181526004602052604090205490919060ff16600381101561021857610b739015610ff0565b6040516080810181811067ffffffffffffffff821117610c6357604090815233825260208083018581523484840181815260006060870181815289825260038087528783208a84528752878320985189546001600160a01b039182166001600160a01b0319918216178b55965160018b0180549190921697169690961790955591516002880155905195909201805460ff191695151560ff169590951790945585815260059091522080549091610c2991611030565b90556040519081523460208201527ff5681f9d0db1b911ac18ee83d515a1cf1051853a9eae418316a2fdf7dea427c560403392a360018055005b634e487b7160e01b600052604160045260246000fd5b60405162461bcd60e51b81526020600482015260146024820152732a34b230b59030b230903832b6b130bcb0b930b760611b6044820152606490fd5b60405162461bcd60e51b815260206004820152600e60248201526d1b9bdd08185d5d1a1bdc9a5e995960921b6044820152606490fd5b3461018457606036600319011261018457610d04610f78565b60443590602435906001600160a01b038316830361018457610d246111bb565b610d2c6111dd565b6001600160a01b031660008181526004602052604090205490929060ff16600381101561021857600103610ebe578260005260036020526040600020826000526020526040600020906002820154918215610e8557600301805460ff8116610e4f5760ff191660011790556000848152600560205260409020805483810392908311610e39576000848194928294938394555af1610dc8610fb0565b5015610e055760405191825260208201527f88808afc48888c0e3ec9c545474e31ce16f177be8d0c8ba3922274893615750e60403392a360018055005b60405162461bcd60e51b815260206004820152600c60248201526b1499599d5b990819d859d85b60a21b6044820152606490fd5b634e487b7160e01b600052601160045260246000fd5b60405162461bcd60e51b815260206004820152600e60248201526d14dd59185a08191a5c99599d5b9960921b6044820152606490fd5b60405162461bcd60e51b8152602060048201526011602482015270151a59185ac81859184819195c1bdcda5d607a1b6044820152606490fd5b60405162461bcd60e51b815260206004820152601660248201527522bb32b73a103132b63ab6903234b130ba30b635b0b760511b6044820152606490fd5b34610184576020366003190112610184576001600160a01b03610f1d610f78565b16600052600460205260ff604060002054166040516003821015610218576020918152f35b34610184576020366003190112610184576020906001600160a01b03610f66610f78565b16600052600582526040600020548152f35b600435906001600160a01b038216820361018457565b90601f8019910116810190811067ffffffffffffffff821117610c6357604052565b3d15610feb573d9067ffffffffffffffff8211610c635760405191610fdf601f8201601f191660200184610f8e565b82523d6000602084013e565b606090565b15610ff757565b60405162461bcd60e51b815260206004820152601160248201527022bb32b73a103a34b230b59030b5ba34b360791b6044820152606490fd5b91908201809211610e3957565b51906001600160601b038216820361018457565b51906001600160a01b038216820361018457565b919082604091031261018457611086602061107f84611051565b930161103d565b90565b81810292918115918404141715610e3957565b156110a357565b60405162461bcd60e51b8152602060048201526018602482015277151c985b9cd9995c8819d859d85b081ad9481c185e5bdd5d60421b6044820152606490fd5b6001600160a01b031660009081526004602052604090205460ff166003811015610218578015611196576000906001811461116d5760029150146111465760405161112f604082610f8e565b60078152662ab735b737bbb760c91b602082015290565b604051611154604082610f8e565b600981526810dbdb5c1b195d195960ba1b602082015290565b505060405161117d604082610f8e565b600981526810d85b98d95b1b195960ba1b602082015290565b506040516111a5604082610f8e565b600681526541637469766560d01b602082015290565b6002600154146111cc576002600155565b633ee5aeb560e01b60005260046000fd5b6000546001600160a01b031633036111f157565b63118cdaa760e01b6000523360045260246000fdfea2646970667358221220bceb930de7e5c4fdc691a07cb3d4e2a7e56c161d82269a07e06f2e849c56a97d64736f6c634300081c0033",
  "linkReferences": {},
  "deployedLinkReferences": {}
}